{
	"DocumentSharing.sol": {
		"DocumentSharing": {
			"abi": [
				{
					"anonymous": false,
					"inputs": [
						{
							"indexed": true,
							"internalType": "uint256",
							"name": "documentId",
							"type": "uint256"
						},
						{
							"indexed": true,
							"internalType": "address",
							"name": "owner",
							"type": "address"
						},
						{
							"indexed": true,
							"internalType": "address",
							"name": "recipient",
							"type": "address"
						},
						{
							"indexed": false,
							"internalType": "uint256",
							"name": "grantedAt",
							"type": "uint256"
						},
						{
							"indexed": false,
							"internalType": "uint256",
							"name": "expiresAt",
							"type": "uint256"
						}
					],
					"name": "AccessGranted",
					"type": "event"
				},
				{
					"anonymous": false,
					"inputs": [
						{
							"indexed": true,
							"internalType": "uint256",
							"name": "documentId",
							"type": "uint256"
						},
						{
							"indexed": true,
							"internalType": "address",
							"name": "owner",
							"type": "address"
						},
						{
							"indexed": true,
							"internalType": "address",
							"name": "recipient",
							"type": "address"
						},
						{
							"indexed": false,
							"internalType": "uint256",
							"name": "timestamp",
							"type": "uint256"
						}
					],
					"name": "AccessRevoked",
					"type": "event"
				},
				{
					"anonymous": false,
					"inputs": [
						{
							"indexed": true,
							"internalType": "uint256",
							"name": "documentId",
							"type": "uint256"
						},
						{
							"indexed": true,
							"internalType": "address",
							"name": "owner",
							"type": "address"
						},
						{
							"indexed": false,
							"internalType": "uint256",
							"name": "timestamp",
							"type": "uint256"
						}
					],
					"name": "DocumentDeleted",
					"type": "event"
				},
				{
					"anonymous": false,
					"inputs": [
						{
							"indexed": true,
							"internalType": "uint256",
							"name": "documentId",
							"type": "uint256"
						},
						{
							"indexed": false,
							"internalType": "string",
							"name": "ipfsHash",
							"type": "string"
						},
						{
							"indexed": false,
							"internalType": "string",
							"name": "fileName",
							"type": "string"
						},
						{
							"indexed": false,
							"internalType": "bytes32",
							"name": "fileHash",
							"type": "bytes32"
						},
						{
							"indexed": true,
							"internalType": "address",
							"name": "owner",
							"type": "address"
						},
						{
							"indexed": false,
							"internalType": "uint256",
							"name": "timestamp",
							"type": "uint256"
						}
					],
					"name": "DocumentUploaded",
					"type": "event"
				},
				{
					"anonymous": false,
					"inputs": [
						{
							"indexed": true,
							"internalType": "uint256",
							"name": "documentId",
							"type": "uint256"
						},
						{
							"indexed": true,
							"internalType": "address",
							"name": "verifier",
							"type": "address"
						},
						{
							"indexed": false,
							"internalType": "bool",
							"name": "success",
							"type": "bool"
						},
						{
							"indexed": false,
							"internalType": "uint256",
							"name": "timestamp",
							"type": "uint256"
						}
					],
					"name": "DocumentVerified",
					"type": "event"
				},
				{
					"inputs": [
						{
							"internalType": "uint256",
							"name": "",
							"type": "uint256"
						},
						{
							"internalType": "address",
							"name": "",
							"type": "address"
						}
					],
					"name": "accessPermissions",
					"outputs": [
						{
							"internalType": "bool",
							"name": "canView",
							"type": "bool"
						},
						{
							"internalType": "uint256",
							"name": "grantedAt",
							"type": "uint256"
						},
						{
							"internalType": "uint256",
							"name": "expiresAt",
							"type": "uint256"
						}
					],
					"stateMutability": "view",
					"type": "function"
				},
				{
					"inputs": [
						{
							"internalType": "uint256",
							"name": "_documentId",
							"type": "uint256"
						},
						{
							"internalType": "address",
							"name": "_user",
							"type": "address"
						}
					],
					"name": "checkAccess",
					"outputs": [
						{
							"internalType": "bool",
							"name": "",
							"type": "bool"
						}
					],
					"stateMutability": "view",
					"type": "function"
				},
				{
					"inputs": [
						{
							"internalType": "uint256",
							"name": "_documentId",
							"type": "uint256"
						}
					],
					"name": "deleteDocument",
					"outputs": [],
					"stateMutability": "nonpayable",
					"type": "function"
				},
				{
					"inputs": [],
					"name": "documentCount",
					"outputs": [
						{
							"internalType": "uint256",
							"name": "",
							"type": "uint256"
						}
					],
					"stateMutability": "view",
					"type": "function"
				},
				{
					"inputs": [
						{
							"internalType": "uint256",
							"name": "",
							"type": "uint256"
						}
					],
					"name": "documents",
					"outputs": [
						{
							"internalType": "string",
							"name": "ipfsHash",
							"type": "string"
						},
						{
							"internalType": "string",
							"name": "fileName",
							"type": "string"
						},
						{
							"internalType": "string",
							"name": "description",
							"type": "string"
						},
						{
							"internalType": "string",
							"name": "category",
							"type": "string"
						},
						{
							"internalType": "bytes32",
							"name": "fileHash",
							"type": "bytes32"
						},
						{
							"internalType": "uint256",
							"name": "timestamp",
							"type": "uint256"
						},
						{
							"internalType": "address",
							"name": "owner",
							"type": "address"
						},
						{
							"internalType": "bool",
							"name": "exists",
							"type": "bool"
						}
					],
					"stateMutability": "view",
					"type": "function"
				},
				{
					"inputs": [
						{
							"internalType": "uint256",
							"name": "_documentId",
							"type": "uint256"
						},
						{
							"internalType": "address",
							"name": "_user",
							"type": "address"
						}
					],
					"name": "getAccessDetails",
					"outputs": [
						{
							"internalType": "bool",
							"name": "canView",
							"type": "bool"
						},
						{
							"internalType": "uint256",
							"name": "grantedAt",
							"type": "uint256"
						},
						{
							"internalType": "uint256",
							"name": "expiresAt",
							"type": "uint256"
						},
						{
							"internalType": "bool",
							"name": "expired",
							"type": "bool"
						}
					],
					"stateMutability": "view",
					"type": "function"
				},
				{
					"inputs": [
						{
							"internalType": "uint256",
							"name": "_documentId",
							"type": "uint256"
						}
					],
					"name": "getDocument",
					"outputs": [
						{
							"internalType": "string",
							"name": "ipfsHash",
							"type": "string"
						},
						{
							"internalType": "string",
							"name": "fileName",
							"type": "string"
						},
						{
							"internalType": "string",
							"name": "description",
							"type": "string"
						},
						{
							"internalType": "string",
							"name": "category",
							"type": "string"
						},
						{
							"internalType": "bytes32",
							"name": "fileHash",
							"type": "bytes32"
						},
						{
							"internalType": "uint256",
							"name": "timestamp",
							"type": "uint256"
						},
						{
							"internalType": "address",
							"name": "owner",
							"type": "address"
						}
					],
					"stateMutability": "view",
					"type": "function"
				},
				{
					"inputs": [
						{
							"internalType": "address",
							"name": "_owner",
							"type": "address"
						}
					],
					"name": "getMyDocuments",
					"outputs": [
						{
							"internalType": "uint256[]",
							"name": "",
							"type": "uint256[]"
						}
					],
					"stateMutability": "view",
					"type": "function"
				},
				{
					"inputs": [
						{
							"internalType": "address",
							"name": "_user",
							"type": "address"
						}
					],
					"name": "getSharedWithMe",
					"outputs": [
						{
							"internalType": "uint256[]",
							"name": "",
							"type": "uint256[]"
						}
					],
					"stateMutability": "view",
					"type": "function"
				},
				{
					"inputs": [],
					"name": "getTotalDocuments",
					"outputs": [
						{
							"internalType": "uint256",
							"name": "",
							"type": "uint256"
						}
					],
					"stateMutability": "view",
					"type": "function"
				},
				{
					"inputs": [
						{
							"internalType": "uint256",
							"name": "_documentId",
							"type": "uint256"
						},
						{
							"internalType": "address",
							"name": "_recipient",
							"type": "address"
						},
						{
							"internalType": "uint256",
							"name": "_expiresAt",
							"type": "uint256"
						}
					],
					"name": "grantAccess",
					"outputs": [],
					"stateMutability": "nonpayable",
					"type": "function"
				},
				{
					"inputs": [
						{
							"internalType": "uint256",
							"name": "_documentId",
							"type": "uint256"
						},
						{
							"internalType": "address",
							"name": "_user",
							"type": "address"
						}
					],
					"name": "isAccessExpired",
					"outputs": [
						{
							"internalType": "bool",
							"name": "",
							"type": "bool"
						}
					],
					"stateMutability": "view",
					"type": "function"
				},
				{
					"inputs": [
						{
							"internalType": "address",
							"name": "",
							"type": "address"
						},
						{
							"internalType": "uint256",
							"name": "",
							"type": "uint256"
						}
					],
					"name": "ownerDocuments",
					"outputs": [
						{
							"internalType": "uint256",
							"name": "",
							"type": "uint256"
						}
					],
					"stateMutability": "view",
					"type": "function"
				},
				{
					"inputs": [
						{
							"internalType": "uint256",
							"name": "_documentId",
							"type": "uint256"
						},
						{
							"internalType": "address",
							"name": "_recipient",
							"type": "address"
						}
					],
					"name": "revokeAccess",
					"outputs": [],
					"stateMutability": "nonpayable",
					"type": "function"
				},
				{
					"inputs": [
						{
							"internalType": "address",
							"name": "",
							"type": "address"
						},
						{
							"internalType": "uint256",
							"name": "",
							"type": "uint256"
						}
					],
					"name": "sharedWithMe",
					"outputs": [
						{
							"internalType": "uint256",
							"name": "",
							"type": "uint256"
						}
					],
					"stateMutability": "view",
					"type": "function"
				},
				{
					"inputs": [
						{
							"internalType": "string",
							"name": "_ipfsHash",
							"type": "string"
						},
						{
							"internalType": "string",
							"name": "_fileName",
							"type": "string"
						},
						{
							"internalType": "string",
							"name": "_description",
							"type": "string"
						},
						{
							"internalType": "string",
							"name": "_category",
							"type": "string"
						},
						{
							"internalType": "bytes32",
							"name": "_fileHash",
							"type": "bytes32"
						}
					],
					"name": "uploadDocument",
					"outputs": [
						{
							"internalType": "uint256",
							"name": "",
							"type": "uint256"
						}
					],
					"stateMutability": "nonpayable",
					"type": "function"
				},
				{
					"inputs": [
						{
							"internalType": "uint256",
							"name": "_documentId",
							"type": "uint256"
						},
						{
							"internalType": "string",
							"name": "_ipfsHash",
							"type": "string"
						},
						{
							"internalType": "bytes32",
							"name": "_fileHash",
							"type": "bytes32"
						}
					],
					"name": "verifyDocument",
					"outputs": [
						{
							"internalType": "bool",
							"name": "valid",
							"type": "bool"
						},
						{
							"internalType": "address",
							"name": "storedOwner",
							"type": "address"
						},
						{
							"internalType": "uint256",
							"name": "uploadTime",
							"type": "uint256"
						},
						{
							"internalType": "string",
							"name": "fileName",
							"type": "string"
						},
						{
							"internalType": "string",
							"name": "category",
							"type": "string"
						}
					],
					"stateMutability": "nonpayable",
					"type": "function"
				}
			],
			"devdoc": {
				"details": "Decentralized document sharing, certificate storage, and verification system.      Uses IPFS hashes for file references and keccak256 for integrity verification. NEW in this version:  - fileHash field for on-chain integrity verification  - description / category fields per document  - Access expiry timestamps (0 = no expiry)  - verifyDocument()  – public verification without needing access  - getAccessDetails() – returns grantedAt + expiresAt for an address  - DocumentVerified event  - isAccessExpired() helper",
				"kind": "dev",
				"methods": {
					"grantAccess(uint256,address,uint256)": {
						"params": {
							"_documentId": "ID of the document.",
							"_expiresAt": "Unix timestamp for expiry; pass 0 for no expiry.",
							"_recipient": "Address to grant access to."
						}
					},
					"uploadDocument(string,string,string,string,bytes32)": {
						"params": {
							"_category": "Category string (e.g. \"certificate\", \"contract\").",
							"_description": "Short human-readable title / description.",
							"_fileHash": "keccak256 of raw file bytes, computed client-side.",
							"_fileName": "Original file name.",
							"_ipfsHash": "IPFS CID of the file."
						}
					},
					"verifyDocument(uint256,string,bytes32)": {
						"params": {
							"_documentId": "ID of the document to verify.",
							"_fileHash": "keccak256 of file bytes; pass bytes32(0) to skip check.",
							"_ipfsHash": "IPFS CID to compare against the stored one."
						},
						"returns": {
							"storedOwner": "  The owner address recorded on-chain.",
							"uploadTime": "   When the document was originally uploaded.",
							"valid": "        True if both provided values match stored values."
						}
					}
				},
				"title": "DocumentSharing",
				"version": 1
			},
			"evm": {
				"assembly": "    /* \"DocumentSharing.sol\":649:14053  contract DocumentSharing {... */\n  mstore(0x40, 0x80)\n  callvalue\n  dup1\n  iszero\n  tag_1\n  jumpi\n  0x00\n  dup1\n  revert\ntag_1:\n  pop\n  dataSize(sub_0)\n  dup1\n  dataOffset(sub_0)\n  0x00\n  codecopy\n  0x00\n  return\nstop\n\nsub_0: assembly {\n        /* \"DocumentSharing.sol\":649:14053  contract DocumentSharing {... */\n      mstore(0x40, 0x80)\n      callvalue\n      dup1\n      iszero\n      tag_1\n      jumpi\n      0x00\n      dup1\n      revert\n    tag_1:\n      pop\n      jumpi(tag_2, lt(calldatasize, 0x04))\n      shr(0xe0, calldataload(0x00))\n      dup1\n      0xa0fb1497\n      gt\n      tag_20\n      jumpi\n      dup1\n      0xd603b284\n      gt\n      tag_21\n      jumpi\n      dup1\n      0xd603b284\n      eq\n      tag_15\n      jumpi\n      dup1\n      0xd9a5ec1b\n      eq\n      tag_16\n      jumpi\n      dup1\n      0xe6819092\n      eq\n      tag_17\n      jumpi\n      dup1\n      0xe90e7ad4\n      eq\n      tag_18\n      jumpi\n      dup1\n      0xf32a7591\n      eq\n      tag_19\n      jumpi\n      jump(tag_2)\n    tag_21:\n      dup1\n      0xa0fb1497\n      eq\n      tag_11\n      jumpi\n      dup1\n      0xa5b16b2e\n      eq\n      tag_12\n      jumpi\n      dup1\n      0xc2ed2b05\n      eq\n      tag_13\n      jumpi\n      dup1\n      0xd13c8703\n      eq\n      tag_14\n      jumpi\n      jump(tag_2)\n    tag_20:\n      dup1\n      0x603732ba\n      gt\n      tag_22\n      jumpi\n      dup1\n      0x603732ba\n      eq\n      tag_7\n      jumpi\n      dup1\n      0x6ccf09fd\n      eq\n      tag_8\n      jumpi\n      dup1\n      0x7847dc13\n      eq\n      tag_9\n      jumpi\n      dup1\n      0x9c696cbf\n      eq\n      tag_10\n      jumpi\n      jump(tag_2)\n    tag_22:\n      dup1\n      0x178c1f2a\n      eq\n      tag_3\n      jumpi\n      dup1\n      0x31d19f65\n      eq\n      tag_4\n      jumpi\n      dup1\n      0x3a81b013\n      eq\n      tag_5\n      jumpi\n      dup1\n      0x3f9b250a\n      eq\n      tag_6\n      jumpi\n    tag_2:\n      0x00\n      dup1\n      revert\n        /* \"DocumentSharing.sol\":13755:13877  function getSharedWithMe(address _user) public view returns (uint256[] memory) {... */\n    tag_3:\n      tag_23\n      0x04\n      dup1\n      calldatasize\n      sub\n      dup2\n      add\n      swap1\n      tag_24\n      swap2\n      swap1\n      tag_25\n      jump\t// in\n    tag_24:\n      tag_26\n      jump\t// in\n    tag_23:\n      mload(0x40)\n      tag_27\n      swap2\n      swap1\n      tag_28\n      jump\t// in\n    tag_27:\n      mload(0x40)\n      dup1\n      swap2\n      sub\n      swap1\n      return\n        /* \"DocumentSharing.sol\":2144:2223  mapping(address => uint256[])                             public ownerDocuments */\n    tag_4:\n      tag_29\n      0x04\n      dup1\n      calldatasize\n      sub\n      dup2\n      add\n      swap1\n      tag_30\n      swap2\n      swap1\n      tag_31\n      jump\t// in\n    tag_30:\n      tag_32\n      jump\t// in\n    tag_29:\n      mload(0x40)\n      tag_33\n      swap2\n      swap1\n      tag_34\n      jump\t// in\n    tag_33:\n      mload(0x40)\n      dup1\n      swap2\n      sub\n      swap1\n      return\n        /* \"DocumentSharing.sol\":11034:12005  function verifyDocument(... */\n    tag_5:\n      tag_35\n      0x04\n      dup1\n      calldatasize\n      sub\n      dup2\n      add\n      swap1\n      tag_36\n      swap2\n      swap1\n      tag_37\n      jump\t// in\n    tag_36:\n      tag_38\n      jump\t// in\n    tag_35:\n      mload(0x40)\n      tag_39\n      swap6\n      swap5\n      swap4\n      swap3\n      swap2\n      swap1\n      tag_40\n      jump\t// in\n    tag_39:\n      mload(0x40)\n      dup1\n      swap2\n      sub\n      swap1\n      return\n        /* \"DocumentSharing.sol\":9770:10409  function getDocument(uint256 _documentId)... */\n    tag_6:\n      tag_41\n      0x04\n      dup1\n      calldatasize\n      sub\n      dup2\n      add\n      swap1\n      tag_42\n      swap2\n      swap1\n      tag_43\n      jump\t// in\n    tag_42:\n      tag_44\n      jump\t// in\n    tag_41:\n      mload(0x40)\n      tag_45\n      swap8\n      swap7\n      swap6\n      swap5\n      swap4\n      swap3\n      swap2\n      swap1\n      tag_46\n      jump\t// in\n    tag_45:\n      mload(0x40)\n      dup1\n      swap2\n      sub\n      swap1\n      return\n        /* \"DocumentSharing.sol\":2229:2306  mapping(address => uint256[])                             public sharedWithMe */\n    tag_7:\n      tag_47\n      0x04\n      dup1\n      calldatasize\n      sub\n      dup2\n      add\n      swap1\n      tag_48\n      swap2\n      swap1\n      tag_31\n      jump\t// in\n    tag_48:\n      tag_49\n      jump\t// in\n    tag_47:\n      mload(0x40)\n      tag_50\n      swap2\n      swap1\n      tag_34\n      jump\t// in\n    tag_50:\n      mload(0x40)\n      dup1\n      swap2\n      sub\n      swap1\n      return\n        /* \"DocumentSharing.sol\":12961:13469  function getAccessDetails(uint256 _documentId, address _user)... */\n    tag_8:\n      tag_51\n      0x04\n      dup1\n      calldatasize\n      sub\n      dup2\n      add\n      swap1\n      tag_52\n      swap2\n      swap1\n      tag_53\n      jump\t// in\n    tag_52:\n      tag_54\n      jump\t// in\n    tag_51:\n      mload(0x40)\n      tag_55\n      swap5\n      swap4\n      swap3\n      swap2\n      swap1\n      tag_56\n      jump\t// in\n    tag_55:\n      mload(0x40)\n      dup1\n      swap2\n      sub\n      swap1\n      return\n        /* \"DocumentSharing.sol\":2056:2138  mapping(uint256 => mapping(address => AccessPermission))  public accessPermissions */\n    tag_9:\n      tag_57\n      0x04\n      dup1\n      calldatasize\n      sub\n      dup2\n      add\n      swap1\n      tag_58\n      swap2\n      swap1\n      tag_53\n      jump\t// in\n    tag_58:\n      tag_59\n      jump\t// in\n    tag_57:\n      mload(0x40)\n      tag_60\n      swap4\n      swap3\n      swap2\n      swap1\n      tag_61\n      jump\t// in\n    tag_60:\n      mload(0x40)\n      dup1\n      swap2\n      sub\n      swap1\n      return\n        /* \"DocumentSharing.sol\":5761:6758  function uploadDocument(... */\n    tag_10:\n      tag_62\n      0x04\n      dup1\n      calldatasize\n      sub\n      dup2\n      add\n      swap1\n      tag_63\n      swap2\n      swap1\n      tag_64\n      jump\t// in\n    tag_63:\n      tag_65\n      jump\t// in\n    tag_62:\n      mload(0x40)\n      tag_66\n      swap2\n      swap1\n      tag_34\n      jump\t// in\n    tag_66:\n      mload(0x40)\n      dup1\n      swap2\n      sub\n      swap1\n      return\n        /* \"DocumentSharing.sol\":8844:9333  function deleteDocument(uint256 _documentId) public onlyOwner(_documentId) {... */\n    tag_11:\n      tag_67\n      0x04\n      dup1\n      calldatasize\n      sub\n      dup2\n      add\n      swap1\n      tag_68\n      swap2\n      swap1\n      tag_43\n      jump\t// in\n    tag_68:\n      tag_69\n      jump\t// in\n    tag_67:\n      stop\n        /* \"DocumentSharing.sol\":2313:2341  uint256 public documentCount */\n    tag_12:\n      tag_70\n      tag_71\n      jump\t// in\n    tag_70:\n      mload(0x40)\n      tag_72\n      swap2\n      swap1\n      tag_34\n      jump\t// in\n    tag_72:\n      mload(0x40)\n      dup1\n      swap2\n      sub\n      swap1\n      return\n        /* \"DocumentSharing.sol\":1976:2050  mapping(uint256 => Document)                              public documents */\n    tag_13:\n      tag_73\n      0x04\n      dup1\n      calldatasize\n      sub\n      dup2\n      add\n      swap1\n      tag_74\n      swap2\n      swap1\n      tag_43\n      jump\t// in\n    tag_74:\n      tag_75\n      jump\t// in\n    tag_73:\n      mload(0x40)\n      tag_76\n      swap9\n      swap8\n      swap7\n      swap6\n      swap5\n      swap4\n      swap3\n      swap2\n      swap1\n      tag_77\n      jump\t// in\n    tag_76:\n      mload(0x40)\n      dup1\n      swap2\n      sub\n      swap1\n      return\n        /* \"DocumentSharing.sol\":12104:12366  function checkAccess(uint256 _documentId, address _user)... */\n    tag_14:\n      tag_78\n      0x04\n      dup1\n      calldatasize\n      sub\n      dup2\n      add\n      swap1\n      tag_79\n      swap2\n      swap1\n      tag_53\n      jump\t// in\n    tag_79:\n      tag_80\n      jump\t// in\n    tag_78:\n      mload(0x40)\n      tag_81\n      swap2\n      swap1\n      tag_82\n      jump\t// in\n    tag_81:\n      mload(0x40)\n      dup1\n      swap2\n      sub\n      swap1\n      return\n        /* \"DocumentSharing.sol\":7034:7965  function grantAccess(... */\n    tag_15:\n      tag_83\n      0x04\n      dup1\n      calldatasize\n      sub\n      dup2\n      add\n      swap1\n      tag_84\n      swap2\n      swap1\n      tag_85\n      jump\t// in\n    tag_84:\n      tag_86\n      jump\t// in\n    tag_83:\n      stop\n        /* \"DocumentSharing.sol\":8039:8770  function revokeAccess(uint256 _documentId, address _recipient)... */\n    tag_16:\n      tag_87\n      0x04\n      dup1\n      calldatasize\n      sub\n      dup2\n      add\n      swap1\n      tag_88\n      swap2\n      swap1\n      tag_53\n      jump\t// in\n    tag_88:\n      tag_89\n      jump\t// in\n    tag_87:\n      stop\n        /* \"DocumentSharing.sol\":13548:13673  function getMyDocuments(address _owner) public view returns (uint256[] memory) {... */\n    tag_17:\n      tag_90\n      0x04\n      dup1\n      calldatasize\n      sub\n      dup2\n      add\n      swap1\n      tag_91\n      swap2\n      swap1\n      tag_25\n      jump\t// in\n    tag_91:\n      tag_92\n      jump\t// in\n    tag_90:\n      mload(0x40)\n      tag_93\n      swap2\n      swap1\n      tag_28\n      jump\t// in\n    tag_93:\n      mload(0x40)\n      dup1\n      swap2\n      sub\n      swap1\n      return\n        /* \"DocumentSharing.sol\":13955:14051  function getTotalDocuments() public view returns (uint256) {... */\n    tag_18:\n      tag_94\n      tag_95\n      jump\t// in\n    tag_94:\n      mload(0x40)\n      tag_96\n      swap2\n      swap1\n      tag_34\n      jump\t// in\n    tag_96:\n      mload(0x40)\n      dup1\n      swap2\n      sub\n      swap1\n      return\n        /* \"DocumentSharing.sol\":12450:12874  function isAccessExpired(uint256 _documentId, address _user)... */\n    tag_19:\n      tag_97\n      0x04\n      dup1\n      calldatasize\n      sub\n      dup2\n      add\n      swap1\n      tag_98\n      swap2\n      swap1\n      tag_53\n      jump\t// in\n    tag_98:\n      tag_99\n      jump\t// in\n    tag_97:\n      mload(0x40)\n      tag_100\n      swap2\n      swap1\n      tag_82\n      jump\t// in\n    tag_100:\n      mload(0x40)\n      dup1\n      swap2\n      sub\n      swap1\n      return\n        /* \"DocumentSharing.sol\":13755:13877  function getSharedWithMe(address _user) public view returns (uint256[] memory) {... */\n    tag_26:\n        /* \"DocumentSharing.sol\":13816:13832  uint256[] memory */\n      0x60\n        /* \"DocumentSharing.sol\":13851:13863  sharedWithMe */\n      0x03\n        /* \"DocumentSharing.sol\":13851:13870  sharedWithMe[_user] */\n      0x00\n        /* \"DocumentSharing.sol\":13864:13869  _user */\n      dup4\n        /* \"DocumentSharing.sol\":13851:13870  sharedWithMe[_user] */\n      0xffffffffffffffffffffffffffffffffffffffff\n      and\n      0xffffffffffffffffffffffffffffffffffffffff\n      and\n      dup2\n      mstore\n      0x20\n      add\n      swap1\n      dup2\n      mstore\n      0x20\n      add\n      0x00\n      keccak256\n        /* \"DocumentSharing.sol\":13844:13870  return sharedWithMe[_user] */\n      dup1\n      sload\n      dup1\n      0x20\n      mul\n      0x20\n      add\n      mload(0x40)\n      swap1\n      dup2\n      add\n      0x40\n      mstore\n      dup1\n      swap3\n      swap2\n      swap1\n      dup2\n      dup2\n      mstore\n      0x20\n      add\n      dup3\n      dup1\n      sload\n      dup1\n      iszero\n      tag_102\n      jumpi\n      0x20\n      mul\n      dup3\n      add\n      swap2\n      swap1\n      0x00\n      mstore\n      keccak256(0x00, 0x20)\n      swap1\n    tag_103:\n      dup2\n      sload\n      dup2\n      mstore\n      0x20\n      add\n      swap1\n      0x01\n      add\n      swap1\n      dup1\n      dup4\n      gt\n      tag_103\n      jumpi\n    tag_102:\n      pop\n      pop\n      pop\n      pop\n      pop\n      swap1\n      pop\n        /* \"DocumentSharing.sol\":13755:13877  function getSharedWithMe(address _user) public view returns (uint256[] memory) {... */\n      swap2\n      swap1\n      pop\n      jump\t// out\n        /* \"DocumentSharing.sol\":2144:2223  mapping(address => uint256[])                             public ownerDocuments */\n    tag_32:\n      mstore(0x20, 0x02)\n      dup2\n      0x00\n      mstore\n      keccak256(0x00, 0x40)\n      dup2\n      dup2\n      sload\n      dup2\n      lt\n      tag_104\n      jumpi\n      0x00\n      dup1\n      revert\n    tag_104:\n      swap1\n      0x00\n      mstore\n      keccak256(0x00, 0x20)\n      add\n      0x00\n      swap2\n      pop\n      swap2\n      pop\n      pop\n      sload\n      dup2\n      jump\t// out\n        /* \"DocumentSharing.sol\":11034:12005  function verifyDocument(... */\n    tag_38:\n        /* \"DocumentSharing.sol\":11213:11226  bool    valid */\n      0x00\n        /* \"DocumentSharing.sol\":11240:11259  address storedOwner */\n      dup1\n        /* \"DocumentSharing.sol\":11273:11291  uint256 uploadTime */\n      0x00\n        /* \"DocumentSharing.sol\":11305:11328  string  memory fileName */\n      0x60\n        /* \"DocumentSharing.sol\":11342:11365  string  memory category */\n      dup1\n        /* \"DocumentSharing.sol\":11395:11404  documents */\n      0x00\n        /* \"DocumentSharing.sol\":11395:11417  documents[_documentId] */\n      dup1\n        /* \"DocumentSharing.sol\":11405:11416  _documentId */\n      dup10\n        /* \"DocumentSharing.sol\":11395:11417  documents[_documentId] */\n      dup2\n      mstore\n      0x20\n      add\n      swap1\n      dup2\n      mstore\n      0x20\n      add\n      0x00\n      keccak256\n        /* \"DocumentSharing.sol\":11395:11424  documents[_documentId].exists */\n      0x06\n      add\n      0x14\n      swap1\n      sload\n      swap1\n      0x0100\n      exp\n      swap1\n      div\n      0xff\n      and\n        /* \"DocumentSharing.sol\":11390:11572  if (!documents[_documentId].exists) {... */\n      tag_107\n      jumpi\n        /* \"DocumentSharing.sol\":11475:11485  msg.sender */\n      caller\n        /* \"DocumentSharing.sol\":11445:11510  DocumentVerified(_documentId, msg.sender, false, block.timestamp) */\n      0xffffffffffffffffffffffffffffffffffffffff\n      and\n        /* \"DocumentSharing.sol\":11462:11473  _documentId */\n      dup9\n        /* \"DocumentSharing.sol\":11445:11510  DocumentVerified(_documentId, msg.sender, false, block.timestamp) */\n      0xefb345626f6179616e1d4792f37ec8c812d2719295d3381aa891aedf4e01350c\n        /* \"DocumentSharing.sol\":11487:11492  false */\n      0x00\n        /* \"DocumentSharing.sol\":11494:11509  block.timestamp */\n      timestamp\n        /* \"DocumentSharing.sol\":11445:11510  DocumentVerified(_documentId, msg.sender, false, block.timestamp) */\n      mload(0x40)\n      tag_108\n      swap3\n      swap2\n      swap1\n      tag_109\n      jump\t// in\n    tag_108:\n      mload(0x40)\n      dup1\n      swap2\n      sub\n      swap1\n      log3\n        /* \"DocumentSharing.sol\":11532:11537  false */\n      0x00\n        /* \"DocumentSharing.sol\":11547:11548  0 */\n      dup1\n        /* \"DocumentSharing.sol\":11551:11552  0 */\n      0x00\n        /* \"DocumentSharing.sol\":11524:11561  return (false, address(0), 0, \"\", \"\") */\n      mload(0x40)\n      dup1\n      0x20\n      add\n      0x40\n      mstore\n      dup1\n      0x00\n      dup2\n      mstore\n      pop\n      mload(0x40)\n      dup1\n      0x20\n      add\n      0x40\n      mstore\n      dup1\n      0x00\n      dup2\n      mstore\n      pop\n      swap5\n      pop\n      swap5\n      pop\n      swap5\n      pop\n      swap5\n      pop\n      swap5\n      pop\n      jump(tag_106)\n        /* \"DocumentSharing.sol\":11390:11572  if (!documents[_documentId].exists) {... */\n    tag_107:\n        /* \"DocumentSharing.sol\":11582:11601  Document memory doc */\n      0x00\n        /* \"DocumentSharing.sol\":11604:11613  documents */\n      dup1\n        /* \"DocumentSharing.sol\":11604:11626  documents[_documentId] */\n      0x00\n        /* \"DocumentSharing.sol\":11614:11625  _documentId */\n      dup11\n        /* \"DocumentSharing.sol\":11604:11626  documents[_documentId] */\n      dup2\n      mstore\n      0x20\n      add\n      swap1\n      dup2\n      mstore\n      0x20\n      add\n      0x00\n      keccak256\n        /* \"DocumentSharing.sol\":11582:11626  Document memory doc = documents[_documentId] */\n      mload(0x40)\n      dup1\n      0x0100\n      add\n      0x40\n      mstore\n      swap1\n      dup2\n      0x00\n      dup3\n      add\n      dup1\n      sload\n      tag_110\n      swap1\n      tag_111\n      jump\t// in\n    tag_110:\n      dup1\n      0x1f\n      add\n      0x20\n      dup1\n      swap2\n      div\n      mul\n      0x20\n      add\n      mload(0x40)\n      swap1\n      dup2\n      add\n      0x40\n      mstore\n      dup1\n      swap3\n      swap2\n      swap1\n      dup2\n      dup2\n      mstore\n      0x20\n      add\n      dup3\n      dup1\n      sload\n      tag_112\n      swap1\n      tag_111\n      jump\t// in\n    tag_112:\n      dup1\n      iszero\n      tag_113\n      jumpi\n      dup1\n      0x1f\n      lt\n      tag_114\n      jumpi\n      0x0100\n      dup1\n      dup4\n      sload\n      div\n      mul\n      dup4\n      mstore\n      swap2\n      0x20\n      add\n      swap2\n      jump(tag_113)\n    tag_114:\n      dup3\n      add\n      swap2\n      swap1\n      0x00\n      mstore\n      keccak256(0x00, 0x20)\n      swap1\n    tag_115:\n      dup2\n      sload\n      dup2\n      mstore\n      swap1\n      0x01\n      add\n      swap1\n      0x20\n      add\n      dup1\n      dup4\n      gt\n      tag_115\n      jumpi\n      dup3\n      swap1\n      sub\n      0x1f\n      and\n      dup3\n      add\n      swap2\n    tag_113:\n      pop\n      pop\n      pop\n      pop\n      pop\n      dup2\n      mstore\n      0x20\n      add\n      0x01\n      dup3\n      add\n      dup1\n      sload\n      tag_116\n      swap1\n      tag_111\n      jump\t// in\n    tag_116:\n      dup1\n      0x1f\n      add\n      0x20\n      dup1\n      swap2\n      div\n      mul\n      0x20\n      add\n      mload(0x40)\n      swap1\n      dup2\n      add\n      0x40\n      mstore\n      dup1\n      swap3\n      swap2\n      swap1\n      dup2\n      dup2\n      mstore\n      0x20\n      add\n      dup3\n      dup1\n      sload\n      tag_117\n      swap1\n      tag_111\n      jump\t// in\n    tag_117:\n      dup1\n      iszero\n      tag_118\n      jumpi\n      dup1\n      0x1f\n      lt\n      tag_119\n      jumpi\n      0x0100\n      dup1\n      dup4\n      sload\n      div\n      mul\n      dup4\n      mstore\n      swap2\n      0x20\n      add\n      swap2\n      jump(tag_118)\n    tag_119:\n      dup3\n      add\n      swap2\n      swap1\n      0x00\n      mstore\n      keccak256(0x00, 0x20)\n      swap1\n    tag_120:\n      dup2\n      sload\n      dup2\n      mstore\n      swap1\n      0x01\n      add\n      swap1\n      0x20\n      add\n      dup1\n      dup4\n      gt\n      tag_120\n      jumpi\n      dup3\n      swap1\n      sub\n      0x1f\n      and\n      dup3\n      add\n      swap2\n    tag_118:\n      pop\n      pop\n      pop\n      pop\n      pop\n      dup2\n      mstore\n      0x20\n      add\n      0x02\n      dup3\n      add\n      dup1\n      sload\n      tag_121\n      swap1\n      tag_111\n      jump\t// in\n    tag_121:\n      dup1\n      0x1f\n      add\n      0x20\n      dup1\n      swap2\n      div\n      mul\n      0x20\n      add\n      mload(0x40)\n      swap1\n      dup2\n      add\n      0x40\n      mstore\n      dup1\n      swap3\n      swap2\n      swap1\n      dup2\n      dup2\n      mstore\n      0x20\n      add\n      dup3\n      dup1\n      sload\n      tag_122\n      swap1\n      tag_111\n      jump\t// in\n    tag_122:\n      dup1\n      iszero\n      tag_123\n      jumpi\n      dup1\n      0x1f\n      lt\n      tag_124\n      jumpi\n      0x0100\n      dup1\n      dup4\n      sload\n      div\n      mul\n      dup4\n      mstore\n      swap2\n      0x20\n      add\n      swap2\n      jump(tag_123)\n    tag_124:\n      dup3\n      add\n      swap2\n      swap1\n      0x00\n      mstore\n      keccak256(0x00, 0x20)\n      swap1\n    tag_125:\n      dup2\n      sload\n      dup2\n      mstore\n      swap1\n      0x01\n      add\n      swap1\n      0x20\n      add\n      dup1\n      dup4\n      gt\n      tag_125\n      jumpi\n      dup3\n      swap1\n      sub\n      0x1f\n      and\n      dup3\n      add\n      swap2\n    tag_123:\n      pop\n      pop\n      pop\n      pop\n      pop\n      dup2\n      mstore\n      0x20\n      add\n      0x03\n      dup3\n      add\n      dup1\n      sload\n      tag_126\n      swap1\n      tag_111\n      jump\t// in\n    tag_126:\n      dup1\n      0x1f\n      add\n      0x20\n      dup1\n      swap2\n      div\n      mul\n      0x20\n      add\n      mload(0x40)\n      swap1\n      dup2\n      add\n      0x40\n      mstore\n      dup1\n      swap3\n      swap2\n      swap1\n      dup2\n      dup2\n      mstore\n      0x20\n      add\n      dup3\n      dup1\n      sload\n      tag_127\n      swap1\n      tag_111\n      jump\t// in\n    tag_127:\n      dup1\n      iszero\n      tag_128\n      jumpi\n      dup1\n      0x1f\n      lt\n      tag_129\n      jumpi\n      0x0100\n      dup1\n      dup4\n      sload\n      div\n      mul\n      dup4\n      mstore\n      swap2\n      0x20\n      add\n      swap2\n      jump(tag_128)\n    tag_129:\n      dup3\n      add\n      swap2\n      swap1\n      0x00\n      mstore\n      keccak256(0x00, 0x20)\n      swap1\n    tag_130:\n      dup2\n      sload\n      dup2\n      mstore\n      swap1\n      0x01\n      add\n      swap1\n      0x20\n      add\n      dup1\n      dup4\n      gt\n      tag_130\n      jumpi\n      dup3\n      swap1\n      sub\n      0x1f\n      and\n      dup3\n      add\n      swap2\n    tag_128:\n      pop\n      pop\n      pop\n      pop\n      pop\n      dup2\n      mstore\n      0x20\n      add\n      0x04\n      dup3\n      add\n      sload\n      dup2\n      mstore\n      0x20\n      add\n      0x05\n      dup3\n      add\n      sload\n      dup2\n      mstore\n      0x20\n      add\n      0x06\n      dup3\n      add\n      0x00\n      swap1\n      sload\n      swap1\n      0x0100\n      exp\n      swap1\n      div\n      0xffffffffffffffffffffffffffffffffffffffff\n      and\n      0xffffffffffffffffffffffffffffffffffffffff\n      and\n      0xffffffffffffffffffffffffffffffffffffffff\n      and\n      dup2\n      mstore\n      0x20\n      add\n      0x06\n      dup3\n      add\n      0x14\n      swap1\n      sload\n      swap1\n      0x0100\n      exp\n      swap1\n      div\n      0xff\n      and\n      iszero\n      iszero\n      iszero\n      iszero\n      dup2\n      mstore\n      pop\n      pop\n      swap1\n      pop\n        /* \"DocumentSharing.sol\":11637:11651  bool ipfsMatch */\n      0x00\n        /* \"DocumentSharing.sol\":11704:11713  _ipfsHash */\n      dup9\n        /* \"DocumentSharing.sol\":11688:11715  keccak256(bytes(_ipfsHash)) */\n      dup1\n      mload\n      swap1\n      0x20\n      add\n      keccak256\n        /* \"DocumentSharing.sol\":11670:11673  doc */\n      dup3\n        /* \"DocumentSharing.sol\":11670:11682  doc.ipfsHash */\n      0x00\n      add\n      mload\n        /* \"DocumentSharing.sol\":11654:11684  keccak256(bytes(doc.ipfsHash)) */\n      dup1\n      mload\n      swap1\n      0x20\n      add\n      keccak256\n        /* \"DocumentSharing.sol\":11654:11715  keccak256(bytes(doc.ipfsHash)) == keccak256(bytes(_ipfsHash)) */\n      eq\n        /* \"DocumentSharing.sol\":11637:11715  bool ipfsMatch = keccak256(bytes(doc.ipfsHash)) == keccak256(bytes(_ipfsHash)) */\n      swap1\n      pop\n        /* \"DocumentSharing.sol\":11725:11739  bool hashMatch */\n      0x00\n        /* \"DocumentSharing.sol\":11764:11765  0 */\n      dup1\n        /* \"DocumentSharing.sol\":11756:11766  bytes32(0) */\n      0x00\n      shl\n        /* \"DocumentSharing.sol\":11743:11752  _fileHash */\n      dup10\n        /* \"DocumentSharing.sol\":11743:11766  _fileHash == bytes32(0) */\n      eq\n        /* \"DocumentSharing.sol\":11742:11798  (_fileHash == bytes32(0)) || (doc.fileHash == _fileHash) */\n      dup1\n      tag_131\n      jumpi\n      pop\n        /* \"DocumentSharing.sol\":11788:11797  _fileHash */\n      dup9\n        /* \"DocumentSharing.sol\":11772:11775  doc */\n      dup4\n        /* \"DocumentSharing.sol\":11772:11784  doc.fileHash */\n      0x80\n      add\n      mload\n        /* \"DocumentSharing.sol\":11772:11797  doc.fileHash == _fileHash */\n      eq\n        /* \"DocumentSharing.sol\":11742:11798  (_fileHash == bytes32(0)) || (doc.fileHash == _fileHash) */\n    tag_131:\n        /* \"DocumentSharing.sol\":11725:11798  bool hashMatch = (_fileHash == bytes32(0)) || (doc.fileHash == _fileHash) */\n      swap1\n      pop\n        /* \"DocumentSharing.sol\":11816:11825  ipfsMatch */\n      dup2\n        /* \"DocumentSharing.sol\":11816:11838  ipfsMatch && hashMatch */\n      dup1\n      iszero\n      tag_132\n      jumpi\n      pop\n        /* \"DocumentSharing.sol\":11829:11838  hashMatch */\n      dup1\n        /* \"DocumentSharing.sol\":11816:11838  ipfsMatch && hashMatch */\n    tag_132:\n        /* \"DocumentSharing.sol\":11808:11838  valid = ipfsMatch && hashMatch */\n      swap8\n      pop\n        /* \"DocumentSharing.sol\":11884:11894  msg.sender */\n      caller\n        /* \"DocumentSharing.sol\":11854:11919  DocumentVerified(_documentId, msg.sender, valid, block.timestamp) */\n      0xffffffffffffffffffffffffffffffffffffffff\n      and\n        /* \"DocumentSharing.sol\":11871:11882  _documentId */\n      dup12\n        /* \"DocumentSharing.sol\":11854:11919  DocumentVerified(_documentId, msg.sender, valid, block.timestamp) */\n      0xefb345626f6179616e1d4792f37ec8c812d2719295d3381aa891aedf4e01350c\n        /* \"DocumentSharing.sol\":11896:11901  valid */\n      dup11\n        /* \"DocumentSharing.sol\":11903:11918  block.timestamp */\n      timestamp\n        /* \"DocumentSharing.sol\":11854:11919  DocumentVerified(_documentId, msg.sender, valid, block.timestamp) */\n      mload(0x40)\n      tag_133\n      swap3\n      swap2\n      swap1\n      tag_109\n      jump\t// in\n    tag_133:\n      mload(0x40)\n      dup1\n      swap2\n      sub\n      swap1\n      log3\n        /* \"DocumentSharing.sol\":11938:11943  valid */\n      dup8\n        /* \"DocumentSharing.sol\":11945:11948  doc */\n      dup4\n        /* \"DocumentSharing.sol\":11945:11954  doc.owner */\n      0xc0\n      add\n      mload\n        /* \"DocumentSharing.sol\":11956:11959  doc */\n      dup5\n        /* \"DocumentSharing.sol\":11956:11969  doc.timestamp */\n      0xa0\n      add\n      mload\n        /* \"DocumentSharing.sol\":11971:11974  doc */\n      dup6\n        /* \"DocumentSharing.sol\":11971:11983  doc.fileName */\n      0x20\n      add\n      mload\n        /* \"DocumentSharing.sol\":11985:11988  doc */\n      dup7\n        /* \"DocumentSharing.sol\":11985:11997  doc.category */\n      0x60\n      add\n      mload\n        /* \"DocumentSharing.sol\":11930:11998  return (valid, doc.owner, doc.timestamp, doc.fileName, doc.category) */\n      swap8\n      pop\n      swap8\n      pop\n      swap8\n      pop\n      swap8\n      pop\n      swap8\n      pop\n      pop\n      pop\n      pop\n        /* \"DocumentSharing.sol\":11034:12005  function verifyDocument(... */\n    tag_106:\n      swap4\n      swap8\n      swap3\n      swap7\n      pop\n      swap4\n      pop\n      swap4\n      pop\n      jump\t// out\n        /* \"DocumentSharing.sol\":9770:10409  function getDocument(uint256 _documentId)... */\n    tag_44:\n        /* \"DocumentSharing.sol\":9937:9960  string  memory ipfsHash */\n      0x60\n        /* \"DocumentSharing.sol\":9974:9997  string  memory fileName */\n      dup1\n        /* \"DocumentSharing.sol\":10011:10037  string  memory description */\n      0x60\n        /* \"DocumentSharing.sol\":10051:10074  string  memory category */\n      dup1\n        /* \"DocumentSharing.sol\":10088:10111  bytes32        fileHash */\n      0x00\n        /* \"DocumentSharing.sol\":10125:10149  uint256        timestamp */\n      dup1\n        /* \"DocumentSharing.sol\":10163:10183  address        owner */\n      0x00\n        /* \"DocumentSharing.sol\":9863:9874  _documentId */\n      dup8\n        /* \"DocumentSharing.sol\":4085:4094  documents */\n      0x00\n        /* \"DocumentSharing.sol\":4085:4107  documents[_documentId] */\n      dup1\n        /* \"DocumentSharing.sol\":4095:4106  _documentId */\n      dup3\n        /* \"DocumentSharing.sol\":4085:4107  documents[_documentId] */\n      dup2\n      mstore\n      0x20\n      add\n      swap1\n      dup2\n      mstore\n      0x20\n      add\n      0x00\n      keccak256\n        /* \"DocumentSharing.sol\":4085:4114  documents[_documentId].exists */\n      0x06\n      add\n      0x14\n      swap1\n      sload\n      swap1\n      0x0100\n      exp\n      swap1\n      div\n      0xff\n      and\n        /* \"DocumentSharing.sol\":4077:4142  require(documents[_documentId].exists, \"Document does not exist\") */\n      tag_135\n      jumpi\n      mload(0x40)\n      0x08c379a000000000000000000000000000000000000000000000000000000000\n      dup2\n      mstore\n      0x04\n      add\n      tag_136\n      swap1\n      tag_137\n      jump\t// in\n    tag_136:\n      mload(0x40)\n      dup1\n      swap2\n      sub\n      swap1\n      revert\n    tag_135:\n        /* \"DocumentSharing.sol\":9894:9905  _documentId */\n      dup9\n        /* \"DocumentSharing.sol\":4269:4279  msg.sender */\n      caller\n        /* \"DocumentSharing.sol\":4237:4279  documents[_documentId].owner == msg.sender */\n      0xffffffffffffffffffffffffffffffffffffffff\n      and\n        /* \"DocumentSharing.sol\":4237:4246  documents */\n      0x00\n        /* \"DocumentSharing.sol\":4237:4259  documents[_documentId] */\n      dup1\n        /* \"DocumentSharing.sol\":4247:4258  _documentId */\n      dup4\n        /* \"DocumentSharing.sol\":4237:4259  documents[_documentId] */\n      dup2\n      mstore\n      0x20\n      add\n      swap1\n      dup2\n      mstore\n      0x20\n      add\n      0x00\n      keccak256\n        /* \"DocumentSharing.sol\":4237:4265  documents[_documentId].owner */\n      0x06\n      add\n      0x00\n      swap1\n      sload\n      swap1\n      0x0100\n      exp\n      swap1\n      div\n      0xffffffffffffffffffffffffffffffffffffffff\n      and\n        /* \"DocumentSharing.sol\":4237:4279  documents[_documentId].owner == msg.sender */\n      0xffffffffffffffffffffffffffffffffffffffff\n      and\n      eq\n        /* \"DocumentSharing.sol\":4237:4334  documents[_documentId].owner == msg.sender ||... */\n      dup1\n      tag_139\n      jumpi\n      pop\n        /* \"DocumentSharing.sol\":4295:4334  _isAccessValid(_documentId, msg.sender) */\n      tag_140\n        /* \"DocumentSharing.sol\":4310:4321  _documentId */\n      dup2\n        /* \"DocumentSharing.sol\":4323:4333  msg.sender */\n      caller\n        /* \"DocumentSharing.sol\":4295:4309  _isAccessValid */\n      tag_141\n        /* \"DocumentSharing.sol\":4295:4334  _isAccessValid(_documentId, msg.sender) */\n      jump\t// in\n    tag_140:\n        /* \"DocumentSharing.sol\":4237:4334  documents[_documentId].owner == msg.sender ||... */\n    tag_139:\n        /* \"DocumentSharing.sol\":4216:4386  require(... */\n      tag_142\n      jumpi\n      mload(0x40)\n      0x08c379a000000000000000000000000000000000000000000000000000000000\n      dup2\n      mstore\n      0x04\n      add\n      tag_143\n      swap1\n      tag_144\n      jump\t// in\n    tag_143:\n      mload(0x40)\n      dup1\n      swap2\n      sub\n      swap1\n      revert\n    tag_142:\n        /* \"DocumentSharing.sol\":10208:10227  Document memory doc */\n      0x00\n        /* \"DocumentSharing.sol\":10230:10239  documents */\n      dup1\n        /* \"DocumentSharing.sol\":10230:10252  documents[_documentId] */\n      0x00\n        /* \"DocumentSharing.sol\":10240:10251  _documentId */\n      dup13\n        /* \"DocumentSharing.sol\":10230:10252  documents[_documentId] */\n      dup2\n      mstore\n      0x20\n      add\n      swap1\n      dup2\n      mstore\n      0x20\n      add\n      0x00\n      keccak256\n        /* \"DocumentSharing.sol\":10208:10252  Document memory doc = documents[_documentId] */\n      mload(0x40)\n      dup1\n      0x0100\n      add\n      0x40\n      mstore\n      swap1\n      dup2\n      0x00\n      dup3\n      add\n      dup1\n      sload\n      tag_146\n      swap1\n      tag_111\n      jump\t// in\n    tag_146:\n      dup1\n      0x1f\n      add\n      0x20\n      dup1\n      swap2\n      div\n      mul\n      0x20\n      add\n      mload(0x40)\n      swap1\n      dup2\n      add\n      0x40\n      mstore\n      dup1\n      swap3\n      swap2\n      swap1\n      dup2\n      dup2\n      mstore\n      0x20\n      add\n      dup3\n      dup1\n      sload\n      tag_147\n      swap1\n      tag_111\n      jump\t// in\n    tag_147:\n      dup1\n      iszero\n      tag_148\n      jumpi\n      dup1\n      0x1f\n      lt\n      tag_149\n      jumpi\n      0x0100\n      dup1\n      dup4\n      sload\n      div\n      mul\n      dup4\n      mstore\n      swap2\n      0x20\n      add\n      swap2\n      jump(tag_148)\n    tag_149:\n      dup3\n      add\n      swap2\n      swap1\n      0x00\n      mstore\n      keccak256(0x00, 0x20)\n      swap1\n    tag_150:\n      dup2\n      sload\n      dup2\n      mstore\n      swap1\n      0x01\n      add\n      swap1\n      0x20\n      add\n      dup1\n      dup4\n      gt\n      tag_150\n      jumpi\n      dup3\n      swap1\n      sub\n      0x1f\n      and\n      dup3\n      add\n      swap2\n    tag_148:\n      pop\n      pop\n      pop\n      pop\n      pop\n      dup2\n      mstore\n      0x20\n      add\n      0x01\n      dup3\n      add\n      dup1\n      sload\n      tag_151\n      swap1\n      tag_111\n      jump\t// in\n    tag_151:\n      dup1\n      0x1f\n      add\n      0x20\n      dup1\n      swap2\n      div\n      mul\n      0x20\n      add\n      mload(0x40)\n      swap1\n      dup2\n      add\n      0x40\n      mstore\n      dup1\n      swap3\n      swap2\n      swap1\n      dup2\n      dup2\n      mstore\n      0x20\n      add\n      dup3\n      dup1\n      sload\n      tag_152\n      swap1\n      tag_111\n      jump\t// in\n    tag_152:\n      dup1\n      iszero\n      tag_153\n      jumpi\n      dup1\n      0x1f\n      lt\n      tag_154\n      jumpi\n      0x0100\n      dup1\n      dup4\n      sload\n      div\n      mul\n      dup4\n      mstore\n      swap2\n      0x20\n      add\n      swap2\n      jump(tag_153)\n    tag_154:\n      dup3\n      add\n      swap2\n      swap1\n      0x00\n      mstore\n      keccak256(0x00, 0x20)\n      swap1\n    tag_155:\n      dup2\n      sload\n      dup2\n      mstore\n      swap1\n      0x01\n      add\n      swap1\n      0x20\n      add\n      dup1\n      dup4\n      gt\n      tag_155\n      jumpi\n      dup3\n      swap1\n      sub\n      0x1f\n      and\n      dup3\n      add\n      swap2\n    tag_153:\n      pop\n      pop\n      pop\n      pop\n      pop\n      dup2\n      mstore\n      0x20\n      add\n      0x02\n      dup3\n      add\n      dup1\n      sload\n      tag_156\n      swap1\n      tag_111\n      jump\t// in\n    tag_156:\n      dup1\n      0x1f\n      add\n      0x20\n      dup1\n      swap2\n      div\n      mul\n      0x20\n      add\n      mload(0x40)\n      swap1\n      dup2\n      add\n      0x40\n      mstore\n      dup1\n      swap3\n      swap2\n      swap1\n      dup2\n      dup2\n      mstore\n      0x20\n      add\n      dup3\n      dup1\n      sload\n      tag_157\n      swap1\n      tag_111\n      jump\t// in\n    tag_157:\n      dup1\n      iszero\n      tag_158\n      jumpi\n      dup1\n      0x1f\n      lt\n      tag_159\n      jumpi\n      0x0100\n      dup1\n      dup4\n      sload\n      div\n      mul\n      dup4\n      mstore\n      swap2\n      0x20\n      add\n      swap2\n      jump(tag_158)\n    tag_159:\n      dup3\n      add\n      swap2\n      swap1\n      0x00\n      mstore\n      keccak256(0x00, 0x20)\n      swap1\n    tag_160:\n      dup2\n      sload\n      dup2\n      mstore\n      swap1\n      0x01\n      add\n      swap1\n      0x20\n      add\n      dup1\n      dup4\n      gt\n      tag_160\n      jumpi\n      dup3\n      swap1\n      sub\n      0x1f\n      and\n      dup3\n      add\n      swap2\n    tag_158:\n      pop\n      pop\n      pop\n      pop\n      pop\n      dup2\n      mstore\n      0x20\n      add\n      0x03\n      dup3\n      add\n      dup1\n      sload\n      tag_161\n      swap1\n      tag_111\n      jump\t// in\n    tag_161:\n      dup1\n      0x1f\n      add\n      0x20\n      dup1\n      swap2\n      div\n      mul\n      0x20\n      add\n      mload(0x40)\n      swap1\n      dup2\n      add\n      0x40\n      mstore\n      dup1\n      swap3\n      swap2\n      swap1\n      dup2\n      dup2\n      mstore\n      0x20\n      add\n      dup3\n      dup1\n      sload\n      tag_162\n      swap1\n      tag_111\n      jump\t// in\n    tag_162:\n      dup1\n      iszero\n      tag_163\n      jumpi\n      dup1\n      0x1f\n      lt\n      tag_164\n      jumpi\n      0x0100\n      dup1\n      dup4\n      sload\n      div\n      mul\n      dup4\n      mstore\n      swap2\n      0x20\n      add\n      swap2\n      jump(tag_163)\n    tag_164:\n      dup3\n      add\n      swap2\n      swap1\n      0x00\n      mstore\n      keccak256(0x00, 0x20)\n      swap1\n    tag_165:\n      dup2\n      sload\n      dup2\n      mstore\n      swap1\n      0x01\n      add\n      swap1\n      0x20\n      add\n      dup1\n      dup4\n      gt\n      tag_165\n      jumpi\n      dup3\n      swap1\n      sub\n      0x1f\n      and\n      dup3\n      add\n      swap2\n    tag_163:\n      pop\n      pop\n      pop\n      pop\n      pop\n      dup2\n      mstore\n      0x20\n      add\n      0x04\n      dup3\n      add\n      sload\n      dup2\n      mstore\n      0x20\n      add\n      0x05\n      dup3\n      add\n      sload\n      dup2\n      mstore\n      0x20\n      add\n      0x06\n      dup3\n      add\n      0x00\n      swap1\n      sload\n      swap1\n      0x0100\n      exp\n      swap1\n      div\n      0xffffffffffffffffffffffffffffffffffffffff\n      and\n      0xffffffffffffffffffffffffffffffffffffffff\n      and\n      0xffffffffffffffffffffffffffffffffffffffff\n      and\n      dup2\n      mstore\n      0x20\n      add\n      0x06\n      dup3\n      add\n      0x14\n      swap1\n      sload\n      swap1\n      0x0100\n      exp\n      swap1\n      div\n      0xff\n      and\n      iszero\n      iszero\n      iszero\n      iszero\n      dup2\n      mstore\n      pop\n      pop\n      swap1\n      pop\n        /* \"DocumentSharing.sol\":10283:10286  doc */\n      dup1\n        /* \"DocumentSharing.sol\":10283:10295  doc.ipfsHash */\n      0x00\n      add\n      mload\n        /* \"DocumentSharing.sol\":10297:10300  doc */\n      dup2\n        /* \"DocumentSharing.sol\":10297:10309  doc.fileName */\n      0x20\n      add\n      mload\n        /* \"DocumentSharing.sol\":10311:10314  doc */\n      dup3\n        /* \"DocumentSharing.sol\":10311:10326  doc.description */\n      0x40\n      add\n      mload\n        /* \"DocumentSharing.sol\":10340:10343  doc */\n      dup4\n        /* \"DocumentSharing.sol\":10340:10352  doc.category */\n      0x60\n      add\n      mload\n        /* \"DocumentSharing.sol\":10354:10357  doc */\n      dup5\n        /* \"DocumentSharing.sol\":10354:10366  doc.fileHash */\n      0x80\n      add\n      mload\n        /* \"DocumentSharing.sol\":10368:10371  doc */\n      dup6\n        /* \"DocumentSharing.sol\":10368:10381  doc.timestamp */\n      0xa0\n      add\n      mload\n        /* \"DocumentSharing.sol\":10383:10386  doc */\n      dup7\n        /* \"DocumentSharing.sol\":10383:10392  doc.owner */\n      0xc0\n      add\n      mload\n        /* \"DocumentSharing.sol\":10262:10402  return (... */\n      swap10\n      pop\n      swap10\n      pop\n      swap10\n      pop\n      swap10\n      pop\n      swap10\n      pop\n      swap10\n      pop\n      swap10\n      pop\n      pop\n        /* \"DocumentSharing.sol\":4152:4153  _ */\n      pop\n        /* \"DocumentSharing.sol\":9770:10409  function getDocument(uint256 _documentId)... */\n      pop\n      swap2\n      swap4\n      swap6\n      swap8\n      swap1\n      swap3\n      swap5\n      swap7\n      pop\n      jump\t// out\n        /* \"DocumentSharing.sol\":2229:2306  mapping(address => uint256[])                             public sharedWithMe */\n    tag_49:\n      mstore(0x20, 0x03)\n      dup2\n      0x00\n      mstore\n      keccak256(0x00, 0x40)\n      dup2\n      dup2\n      sload\n      dup2\n      lt\n      tag_166\n      jumpi\n      0x00\n      dup1\n      revert\n    tag_166:\n      swap1\n      0x00\n      mstore\n      keccak256(0x00, 0x20)\n      add\n      0x00\n      swap2\n      pop\n      swap2\n      pop\n      pop\n      sload\n      dup2\n      jump\t// out\n        /* \"DocumentSharing.sol\":12961:13469  function getAccessDetails(uint256 _documentId, address _user)... */\n    tag_54:\n        /* \"DocumentSharing.sol\":13117:13132  bool    canView */\n      0x00\n        /* \"DocumentSharing.sol\":13146:13163  uint256 grantedAt */\n      dup1\n        /* \"DocumentSharing.sol\":13177:13194  uint256 expiresAt */\n      0x00\n        /* \"DocumentSharing.sol\":13208:13223  bool    expired */\n      dup1\n        /* \"DocumentSharing.sol\":13074:13085  _documentId */\n      dup6\n        /* \"DocumentSharing.sol\":4085:4094  documents */\n      0x00\n        /* \"DocumentSharing.sol\":4085:4107  documents[_documentId] */\n      dup1\n        /* \"DocumentSharing.sol\":4095:4106  _documentId */\n      dup3\n        /* \"DocumentSharing.sol\":4085:4107  documents[_documentId] */\n      dup2\n      mstore\n      0x20\n      add\n      swap1\n      dup2\n      mstore\n      0x20\n      add\n      0x00\n      keccak256\n        /* \"DocumentSharing.sol\":4085:4114  documents[_documentId].exists */\n      0x06\n      add\n      0x14\n      swap1\n      sload\n      swap1\n      0x0100\n      exp\n      swap1\n      div\n      0xff\n      and\n        /* \"DocumentSharing.sol\":4077:4142  require(documents[_documentId].exists, \"Document does not exist\") */\n      tag_169\n      jumpi\n      mload(0x40)\n      0x08c379a000000000000000000000000000000000000000000000000000000000\n      dup2\n      mstore\n      0x04\n      add\n      tag_170\n      swap1\n      tag_137\n      jump\t// in\n    tag_170:\n      mload(0x40)\n      dup1\n      swap2\n      sub\n      swap1\n      revert\n    tag_169:\n        /* \"DocumentSharing.sol\":13248:13276  AccessPermission memory perm */\n      0x00\n        /* \"DocumentSharing.sol\":13279:13296  accessPermissions */\n      0x01\n        /* \"DocumentSharing.sol\":13279:13309  accessPermissions[_documentId] */\n      0x00\n        /* \"DocumentSharing.sol\":13297:13308  _documentId */\n      dup10\n        /* \"DocumentSharing.sol\":13279:13309  accessPermissions[_documentId] */\n      dup2\n      mstore\n      0x20\n      add\n      swap1\n      dup2\n      mstore\n      0x20\n      add\n      0x00\n      keccak256\n        /* \"DocumentSharing.sol\":13279:13316  accessPermissions[_documentId][_user] */\n      0x00\n        /* \"DocumentSharing.sol\":13310:13315  _user */\n      dup9\n        /* \"DocumentSharing.sol\":13279:13316  accessPermissions[_documentId][_user] */\n      0xffffffffffffffffffffffffffffffffffffffff\n      and\n      0xffffffffffffffffffffffffffffffffffffffff\n      and\n      dup2\n      mstore\n      0x20\n      add\n      swap1\n      dup2\n      mstore\n      0x20\n      add\n      0x00\n      keccak256\n        /* \"DocumentSharing.sol\":13248:13316  AccessPermission memory perm = accessPermissions[_documentId][_user] */\n      mload(0x40)\n      dup1\n      0x60\n      add\n      0x40\n      mstore\n      swap1\n      dup2\n      0x00\n      dup3\n      add\n      0x00\n      swap1\n      sload\n      swap1\n      0x0100\n      exp\n      swap1\n      div\n      0xff\n      and\n      iszero\n      iszero\n      iszero\n      iszero\n      dup2\n      mstore\n      0x20\n      add\n      0x01\n      dup3\n      add\n      sload\n      dup2\n      mstore\n      0x20\n      add\n      0x02\n      dup3\n      add\n      sload\n      dup2\n      mstore\n      pop\n      pop\n      swap1\n      pop\n        /* \"DocumentSharing.sol\":13326:13334  bool exp */\n      0x00\n        /* \"DocumentSharing.sol\":13356:13357  0 */\n      dup1\n        /* \"DocumentSharing.sol\":13338:13342  perm */\n      dup3\n        /* \"DocumentSharing.sol\":13338:13352  perm.expiresAt */\n      0x40\n      add\n      mload\n        /* \"DocumentSharing.sol\":13338:13357  perm.expiresAt != 0 */\n      eq\n      iszero\n        /* \"DocumentSharing.sol\":13338:13393  perm.expiresAt != 0 && block.timestamp > perm.expiresAt */\n      dup1\n      iszero\n      tag_172\n      jumpi\n      pop\n        /* \"DocumentSharing.sol\":13379:13383  perm */\n      dup2\n        /* \"DocumentSharing.sol\":13379:13393  perm.expiresAt */\n      0x40\n      add\n      mload\n        /* \"DocumentSharing.sol\":13361:13376  block.timestamp */\n      timestamp\n        /* \"DocumentSharing.sol\":13361:13393  block.timestamp > perm.expiresAt */\n      gt\n        /* \"DocumentSharing.sol\":13338:13393  perm.expiresAt != 0 && block.timestamp > perm.expiresAt */\n    tag_172:\n        /* \"DocumentSharing.sol\":13326:13394  bool exp = (perm.expiresAt != 0 && block.timestamp > perm.expiresAt) */\n      swap1\n      pop\n        /* \"DocumentSharing.sol\":13412:13416  perm */\n      dup2\n        /* \"DocumentSharing.sol\":13412:13424  perm.canView */\n      0x00\n      add\n      mload\n        /* \"DocumentSharing.sol\":13426:13430  perm */\n      dup3\n        /* \"DocumentSharing.sol\":13426:13440  perm.grantedAt */\n      0x20\n      add\n      mload\n        /* \"DocumentSharing.sol\":13442:13446  perm */\n      dup4\n        /* \"DocumentSharing.sol\":13442:13456  perm.expiresAt */\n      0x40\n      add\n      mload\n        /* \"DocumentSharing.sol\":13458:13461  exp */\n      dup4\n        /* \"DocumentSharing.sol\":13404:13462  return (perm.canView, perm.grantedAt, perm.expiresAt, exp) */\n      swap7\n      pop\n      swap7\n      pop\n      swap7\n      pop\n      swap7\n      pop\n      pop\n      pop\n        /* \"DocumentSharing.sol\":12961:13469  function getAccessDetails(uint256 _documentId, address _user)... */\n      pop\n      swap3\n      swap6\n      swap2\n      swap5\n      pop\n      swap3\n      pop\n      jump\t// out\n        /* \"DocumentSharing.sol\":2056:2138  mapping(uint256 => mapping(address => AccessPermission))  public accessPermissions */\n    tag_59:\n      mstore(0x20, 0x01)\n      dup2\n      0x00\n      mstore\n      mstore(0x20, keccak256(0x00, 0x40))\n      dup1\n      0x00\n      mstore\n      keccak256(0x00, 0x40)\n      0x00\n      swap2\n      pop\n      swap2\n      pop\n      pop\n      dup1\n      0x00\n      add\n      0x00\n      swap1\n      sload\n      swap1\n      0x0100\n      exp\n      swap1\n      div\n      0xff\n      and\n      swap1\n      dup1\n      0x01\n      add\n      sload\n      swap1\n      dup1\n      0x02\n      add\n      sload\n      swap1\n      pop\n      dup4\n      jump\t// out\n        /* \"DocumentSharing.sol\":5761:6758  function uploadDocument(... */\n    tag_65:\n        /* \"DocumentSharing.sol\":5980:5987  uint256 */\n      0x00\n        /* \"DocumentSharing.sol\":6035:6036  0 */\n      dup1\n        /* \"DocumentSharing.sol\":6013:6022  _ipfsHash */\n      dup7\n        /* \"DocumentSharing.sol\":6007:6030  bytes(_ipfsHash).length */\n      mload\n        /* \"DocumentSharing.sol\":6007:6036  bytes(_ipfsHash).length   > 0 */\n      gt\n        /* \"DocumentSharing.sol\":5999:6066  require(bytes(_ipfsHash).length   > 0, \"IPFS hash cannot be empty\") */\n      tag_174\n      jumpi\n      mload(0x40)\n      0x08c379a000000000000000000000000000000000000000000000000000000000\n      dup2\n      mstore\n      0x04\n      add\n      tag_175\n      swap1\n      tag_176\n      jump\t// in\n    tag_175:\n      mload(0x40)\n      dup1\n      swap2\n      sub\n      swap1\n      revert\n    tag_174:\n        /* \"DocumentSharing.sol\":6112:6113  0 */\n      0x00\n        /* \"DocumentSharing.sol\":6090:6099  _fileName */\n      dup6\n        /* \"DocumentSharing.sol\":6084:6107  bytes(_fileName).length */\n      mload\n        /* \"DocumentSharing.sol\":6084:6113  bytes(_fileName).length   > 0 */\n      gt\n        /* \"DocumentSharing.sol\":6076:6143  require(bytes(_fileName).length   > 0, \"File name cannot be empty\") */\n      tag_177\n      jumpi\n      mload(0x40)\n      0x08c379a000000000000000000000000000000000000000000000000000000000\n      dup2\n      mstore\n      0x04\n      add\n      tag_178\n      swap1\n      tag_179\n      jump\t// in\n    tag_178:\n      mload(0x40)\n      dup1\n      swap2\n      sub\n      swap1\n      revert\n    tag_177:\n        /* \"DocumentSharing.sol\":6154:6167  documentCount */\n      0x04\n      0x00\n        /* \"DocumentSharing.sol\":6154:6169  documentCount++ */\n      dup2\n      sload\n      dup1\n      swap3\n      swap2\n      swap1\n      tag_180\n      swap1\n      tag_181\n      jump\t// in\n    tag_180:\n      swap2\n      swap1\n      pop\n      sstore\n      pop\n        /* \"DocumentSharing.sol\":6207:6520  Document({... */\n      mload(0x40)\n      dup1\n      0x0100\n      add\n      0x40\n      mstore\n      dup1\n        /* \"DocumentSharing.sol\":6243:6252  _ipfsHash */\n      dup8\n        /* \"DocumentSharing.sol\":6207:6520  Document({... */\n      dup2\n      mstore\n      0x20\n      add\n        /* \"DocumentSharing.sol\":6279:6288  _fileName */\n      dup7\n        /* \"DocumentSharing.sol\":6207:6520  Document({... */\n      dup2\n      mstore\n      0x20\n      add\n        /* \"DocumentSharing.sol\":6315:6327  _description */\n      dup6\n        /* \"DocumentSharing.sol\":6207:6520  Document({... */\n      dup2\n      mstore\n      0x20\n      add\n        /* \"DocumentSharing.sol\":6354:6363  _category */\n      dup5\n        /* \"DocumentSharing.sol\":6207:6520  Document({... */\n      dup2\n      mstore\n      0x20\n      add\n        /* \"DocumentSharing.sol\":6390:6399  _fileHash */\n      dup4\n        /* \"DocumentSharing.sol\":6207:6520  Document({... */\n      dup2\n      mstore\n      0x20\n      add\n        /* \"DocumentSharing.sol\":6426:6441  block.timestamp */\n      timestamp\n        /* \"DocumentSharing.sol\":6207:6520  Document({... */\n      dup2\n      mstore\n      0x20\n      add\n        /* \"DocumentSharing.sol\":6468:6478  msg.sender */\n      caller\n        /* \"DocumentSharing.sol\":6207:6520  Document({... */\n      0xffffffffffffffffffffffffffffffffffffffff\n      and\n      dup2\n      mstore\n      0x20\n      add\n        /* \"DocumentSharing.sol\":6505:6509  true */\n      0x01\n        /* \"DocumentSharing.sol\":6207:6520  Document({... */\n      iszero\n      iszero\n      dup2\n      mstore\n      pop\n        /* \"DocumentSharing.sol\":6180:6189  documents */\n      0x00\n        /* \"DocumentSharing.sol\":6180:6204  documents[documentCount] */\n      dup1\n        /* \"DocumentSharing.sol\":6190:6203  documentCount */\n      sload(0x04)\n        /* \"DocumentSharing.sol\":6180:6204  documents[documentCount] */\n      dup2\n      mstore\n      0x20\n      add\n      swap1\n      dup2\n      mstore\n      0x20\n      add\n      0x00\n      keccak256\n        /* \"DocumentSharing.sol\":6180:6520  documents[documentCount] = Document({... */\n      0x00\n      dup3\n      add\n      mload\n      dup2\n      0x00\n      add\n      swap1\n      dup2\n      tag_182\n      swap2\n      swap1\n      tag_183\n      jump\t// in\n    tag_182:\n      pop\n      0x20\n      dup3\n      add\n      mload\n      dup2\n      0x01\n      add\n      swap1\n      dup2\n      tag_184\n      swap2\n      swap1\n      tag_183\n      jump\t// in\n    tag_184:\n      pop\n      0x40\n      dup3\n      add\n      mload\n      dup2\n      0x02\n      add\n      swap1\n      dup2\n      tag_185\n      swap2\n      swap1\n      tag_183\n      jump\t// in\n    tag_185:\n      pop\n      0x60\n      dup3\n      add\n      mload\n      dup2\n      0x03\n      add\n      swap1\n      dup2\n      tag_186\n      swap2\n      swap1\n      tag_183\n      jump\t// in\n    tag_186:\n      pop\n      0x80\n      dup3\n      add\n      mload\n      dup2\n      0x04\n      add\n      sstore\n      0xa0\n      dup3\n      add\n      mload\n      dup2\n      0x05\n      add\n      sstore\n      0xc0\n      dup3\n      add\n      mload\n      dup2\n      0x06\n      add\n      exp(0x0100, 0x00)\n      dup2\n      sload\n      dup2\n      0xffffffffffffffffffffffffffffffffffffffff\n      mul\n      not\n      and\n      swap1\n      dup4\n      0xffffffffffffffffffffffffffffffffffffffff\n      and\n      mul\n      or\n      swap1\n      sstore\n      pop\n      0xe0\n      dup3\n      add\n      mload\n      dup2\n      0x06\n      add\n      exp(0x0100, 0x14)\n      dup2\n      sload\n      dup2\n      0xff\n      mul\n      not\n      and\n      swap1\n      dup4\n      iszero\n      iszero\n      mul\n      or\n      swap1\n      sstore\n      pop\n      swap1\n      pop\n      pop\n        /* \"DocumentSharing.sol\":6531:6545  ownerDocuments */\n      0x02\n        /* \"DocumentSharing.sol\":6531:6557  ownerDocuments[msg.sender] */\n      0x00\n        /* \"DocumentSharing.sol\":6546:6556  msg.sender */\n      caller\n        /* \"DocumentSharing.sol\":6531:6557  ownerDocuments[msg.sender] */\n      0xffffffffffffffffffffffffffffffffffffffff\n      and\n      0xffffffffffffffffffffffffffffffffffffffff\n      and\n      dup2\n      mstore\n      0x20\n      add\n      swap1\n      dup2\n      mstore\n      0x20\n      add\n      0x00\n      keccak256\n        /* \"DocumentSharing.sol\":6563:6576  documentCount */\n      sload(0x04)\n        /* \"DocumentSharing.sol\":6531:6577  ownerDocuments[msg.sender].push(documentCount) */\n      swap1\n      dup1\n      0x01\n      dup2\n      sload\n      add\n      dup1\n      dup3\n      sstore\n      dup1\n      swap2\n      pop\n      pop\n      0x01\n      swap1\n      sub\n      swap1\n      0x00\n      mstore\n      keccak256(0x00, 0x20)\n      add\n      0x00\n      swap1\n      swap2\n      swap1\n      swap2\n      swap1\n      swap2\n      pop\n      sstore\n        /* \"DocumentSharing.sol\":6683:6693  msg.sender */\n      caller\n        /* \"DocumentSharing.sol\":6593:6720  DocumentUploaded(... */\n      0xffffffffffffffffffffffffffffffffffffffff\n      and\n        /* \"DocumentSharing.sol\":6623:6636  documentCount */\n      sload(0x04)\n        /* \"DocumentSharing.sol\":6593:6720  DocumentUploaded(... */\n      0x27f3f26a98f0d9406755f5ca8507825d5ae5251ed1beb7965b5ba7d562962e3c\n        /* \"DocumentSharing.sol\":6638:6647  _ipfsHash */\n      dup9\n        /* \"DocumentSharing.sol\":6649:6658  _fileName */\n      dup9\n        /* \"DocumentSharing.sol\":6660:6669  _fileHash */\n      dup7\n        /* \"DocumentSharing.sol\":6695:6710  block.timestamp */\n      timestamp\n        /* \"DocumentSharing.sol\":6593:6720  DocumentUploaded(... */\n      mload(0x40)\n      tag_188\n      swap5\n      swap4\n      swap3\n      swap2\n      swap1\n      tag_189\n      jump\t// in\n    tag_188:\n      mload(0x40)\n      dup1\n      swap2\n      sub\n      swap1\n      log3\n        /* \"DocumentSharing.sol\":6738:6751  documentCount */\n      sload(0x04)\n        /* \"DocumentSharing.sol\":6731:6751  return documentCount */\n      swap1\n      pop\n        /* \"DocumentSharing.sol\":5761:6758  function uploadDocument(... */\n      swap6\n      swap5\n      pop\n      pop\n      pop\n      pop\n      pop\n      jump\t// out\n        /* \"DocumentSharing.sol\":8844:9333  function deleteDocument(uint256 _documentId) public onlyOwner(_documentId) {... */\n    tag_69:\n        /* \"DocumentSharing.sol\":8906:8917  _documentId */\n      dup1\n        /* \"DocumentSharing.sol\":3854:3863  documents */\n      0x00\n        /* \"DocumentSharing.sol\":3854:3876  documents[_documentId] */\n      dup1\n        /* \"DocumentSharing.sol\":3864:3875  _documentId */\n      dup3\n        /* \"DocumentSharing.sol\":3854:3876  documents[_documentId] */\n      dup2\n      mstore\n      0x20\n      add\n      swap1\n      dup2\n      mstore\n      0x20\n      add\n      0x00\n      keccak256\n        /* \"DocumentSharing.sol\":3854:3883  documents[_documentId].exists */\n      0x06\n      add\n      0x14\n      swap1\n      sload\n      swap1\n      0x0100\n      exp\n      swap1\n      div\n      0xff\n      and\n        /* \"DocumentSharing.sol\":3846:3911  require(documents[_documentId].exists, \"Document does not exist\") */\n      tag_191\n      jumpi\n      mload(0x40)\n      0x08c379a000000000000000000000000000000000000000000000000000000000\n      dup2\n      mstore\n      0x04\n      add\n      tag_192\n      swap1\n      tag_137\n      jump\t// in\n    tag_192:\n      mload(0x40)\n      dup1\n      swap2\n      sub\n      swap1\n      revert\n    tag_191:\n        /* \"DocumentSharing.sol\":3961:3971  msg.sender */\n      caller\n        /* \"DocumentSharing.sol\":3929:3971  documents[_documentId].owner == msg.sender */\n      0xffffffffffffffffffffffffffffffffffffffff\n      and\n        /* \"DocumentSharing.sol\":3929:3938  documents */\n      0x00\n        /* \"DocumentSharing.sol\":3929:3951  documents[_documentId] */\n      dup1\n        /* \"DocumentSharing.sol\":3939:3950  _documentId */\n      dup4\n        /* \"DocumentSharing.sol\":3929:3951  documents[_documentId] */\n      dup2\n      mstore\n      0x20\n      add\n      swap1\n      dup2\n      mstore\n      0x20\n      add\n      0x00\n      keccak256\n        /* \"DocumentSharing.sol\":3929:3957  documents[_documentId].owner */\n      0x06\n      add\n      0x00\n      swap1\n      sload\n      swap1\n      0x0100\n      exp\n      swap1\n      div\n      0xffffffffffffffffffffffffffffffffffffffff\n      and\n        /* \"DocumentSharing.sol\":3929:3971  documents[_documentId].owner == msg.sender */\n      0xffffffffffffffffffffffffffffffffffffffff\n      and\n      eq\n        /* \"DocumentSharing.sol\":3921:3998  require(documents[_documentId].owner == msg.sender, \"Not the document owner\") */\n      tag_193\n      jumpi\n      mload(0x40)\n      0x08c379a000000000000000000000000000000000000000000000000000000000\n      dup2\n      mstore\n      0x04\n      add\n      tag_194\n      swap1\n      tag_195\n      jump\t// in\n    tag_194:\n      mload(0x40)\n      dup1\n      swap2\n      sub\n      swap1\n      revert\n    tag_193:\n        /* \"DocumentSharing.sol\":8961:8966  false */\n      0x00\n        /* \"DocumentSharing.sol\":8929:8938  documents */\n      dup1\n        /* \"DocumentSharing.sol\":8929:8951  documents[_documentId] */\n      0x00\n        /* \"DocumentSharing.sol\":8939:8950  _documentId */\n      dup5\n        /* \"DocumentSharing.sol\":8929:8951  documents[_documentId] */\n      dup2\n      mstore\n      0x20\n      add\n      swap1\n      dup2\n      mstore\n      0x20\n      add\n      0x00\n      keccak256\n        /* \"DocumentSharing.sol\":8929:8958  documents[_documentId].exists */\n      0x06\n      add\n      0x14\n        /* \"DocumentSharing.sol\":8929:8966  documents[_documentId].exists = false */\n      0x0100\n      exp\n      dup2\n      sload\n      dup2\n      0xff\n      mul\n      not\n      and\n      swap1\n      dup4\n      iszero\n      iszero\n      mul\n      or\n      swap1\n      sstore\n      pop\n        /* \"DocumentSharing.sol\":8977:9000  uint256[] storage owned */\n      0x00\n        /* \"DocumentSharing.sol\":9003:9017  ownerDocuments */\n      0x02\n        /* \"DocumentSharing.sol\":9003:9029  ownerDocuments[msg.sender] */\n      0x00\n        /* \"DocumentSharing.sol\":9018:9028  msg.sender */\n      caller\n        /* \"DocumentSharing.sol\":9003:9029  ownerDocuments[msg.sender] */\n      0xffffffffffffffffffffffffffffffffffffffff\n      and\n      0xffffffffffffffffffffffffffffffffffffffff\n      and\n      dup2\n      mstore\n      0x20\n      add\n      swap1\n      dup2\n      mstore\n      0x20\n      add\n      0x00\n      keccak256\n        /* \"DocumentSharing.sol\":8977:9029  uint256[] storage owned = ownerDocuments[msg.sender] */\n      swap1\n      pop\n        /* \"DocumentSharing.sol\":9044:9053  uint256 i */\n      0x00\n        /* \"DocumentSharing.sol\":9039:9254  for (uint256 i = 0; i < owned.length; i++) {... */\n    tag_197:\n        /* \"DocumentSharing.sol\":9063:9068  owned */\n      dup2\n        /* \"DocumentSharing.sol\":9063:9075  owned.length */\n      dup1\n      sload\n      swap1\n      pop\n        /* \"DocumentSharing.sol\":9059:9060  i */\n      dup2\n        /* \"DocumentSharing.sol\":9059:9075  i < owned.length */\n      lt\n        /* \"DocumentSharing.sol\":9039:9254  for (uint256 i = 0; i < owned.length; i++) {... */\n      iszero\n      tag_198\n      jumpi\n        /* \"DocumentSharing.sol\":9112:9123  _documentId */\n      dup4\n        /* \"DocumentSharing.sol\":9100:9105  owned */\n      dup3\n        /* \"DocumentSharing.sol\":9106:9107  i */\n      dup3\n        /* \"DocumentSharing.sol\":9100:9108  owned[i] */\n      dup2\n      sload\n      dup2\n      lt\n      tag_200\n      jumpi\n      tag_201\n      tag_202\n      jump\t// in\n    tag_201:\n    tag_200:\n      swap1\n      0x00\n      mstore\n      keccak256(0x00, 0x20)\n      add\n      sload\n        /* \"DocumentSharing.sol\":9100:9123  owned[i] == _documentId */\n      sub\n        /* \"DocumentSharing.sol\":9096:9244  if (owned[i] == _documentId) {... */\n      tag_204\n      jumpi\n        /* \"DocumentSharing.sol\":9154:9159  owned */\n      dup2\n        /* \"DocumentSharing.sol\":9175:9176  1 */\n      0x01\n        /* \"DocumentSharing.sol\":9160:9165  owned */\n      dup4\n        /* \"DocumentSharing.sol\":9160:9172  owned.length */\n      dup1\n      sload\n      swap1\n      pop\n        /* \"DocumentSharing.sol\":9160:9176  owned.length - 1 */\n      tag_205\n      swap2\n      swap1\n      tag_206\n      jump\t// in\n    tag_205:\n        /* \"DocumentSharing.sol\":9154:9177  owned[owned.length - 1] */\n      dup2\n      sload\n      dup2\n      lt\n      tag_207\n      jumpi\n      tag_208\n      tag_202\n      jump\t// in\n    tag_208:\n    tag_207:\n      swap1\n      0x00\n      mstore\n      keccak256(0x00, 0x20)\n      add\n      sload\n        /* \"DocumentSharing.sol\":9143:9148  owned */\n      dup3\n        /* \"DocumentSharing.sol\":9149:9150  i */\n      dup3\n        /* \"DocumentSharing.sol\":9143:9151  owned[i] */\n      dup2\n      sload\n      dup2\n      lt\n      tag_210\n      jumpi\n      tag_211\n      tag_202\n      jump\t// in\n    tag_211:\n    tag_210:\n      swap1\n      0x00\n      mstore\n      keccak256(0x00, 0x20)\n      add\n        /* \"DocumentSharing.sol\":9143:9177  owned[i] = owned[owned.length - 1] */\n      dup2\n      swap1\n      sstore\n      pop\n        /* \"DocumentSharing.sol\":9195:9200  owned */\n      dup2\n        /* \"DocumentSharing.sol\":9195:9206  owned.pop() */\n      dup1\n      sload\n      dup1\n      tag_213\n      jumpi\n      tag_214\n      tag_215\n      jump\t// in\n    tag_214:\n    tag_213:\n      0x01\n      swap1\n      sub\n      dup2\n      dup2\n      swap1\n      0x00\n      mstore\n      keccak256(0x00, 0x20)\n      add\n      0x00\n      swap1\n      sstore\n      swap1\n      sstore\n        /* \"DocumentSharing.sol\":9224:9229  break */\n      jump(tag_198)\n        /* \"DocumentSharing.sol\":9096:9244  if (owned[i] == _documentId) {... */\n    tag_204:\n        /* \"DocumentSharing.sol\":9077:9080  i++ */\n      dup1\n      dup1\n      0x01\n      add\n      swap2\n      pop\n      pop\n        /* \"DocumentSharing.sol\":9039:9254  for (uint256 i = 0; i < owned.length; i++) {... */\n      jump(tag_197)\n    tag_198:\n      pop\n        /* \"DocumentSharing.sol\":9298:9308  msg.sender */\n      caller\n        /* \"DocumentSharing.sol\":9269:9326  DocumentDeleted(_documentId, msg.sender, block.timestamp) */\n      0xffffffffffffffffffffffffffffffffffffffff\n      and\n        /* \"DocumentSharing.sol\":9285:9296  _documentId */\n      dup4\n        /* \"DocumentSharing.sol\":9269:9326  DocumentDeleted(_documentId, msg.sender, block.timestamp) */\n      0x1c44732bba94823915664b74c47516acfb1386fe0d85be9c373ee3d3ee41953f\n        /* \"DocumentSharing.sol\":9310:9325  block.timestamp */\n      timestamp\n        /* \"DocumentSharing.sol\":9269:9326  DocumentDeleted(_documentId, msg.sender, block.timestamp) */\n      mload(0x40)\n      tag_217\n      swap2\n      swap1\n      tag_34\n      jump\t// in\n    tag_217:\n      mload(0x40)\n      dup1\n      swap2\n      sub\n      swap1\n      log3\n        /* \"DocumentSharing.sol\":8919:9333  {... */\n      pop\n        /* \"DocumentSharing.sol\":8844:9333  function deleteDocument(uint256 _documentId) public onlyOwner(_documentId) {... */\n      pop\n      pop\n      jump\t// out\n        /* \"DocumentSharing.sol\":2313:2341  uint256 public documentCount */\n    tag_71:\n      sload(0x04)\n      dup2\n      jump\t// out\n        /* \"DocumentSharing.sol\":1976:2050  mapping(uint256 => Document)                              public documents */\n    tag_75:\n      mstore(0x20, 0x00)\n      dup1\n      0x00\n      mstore\n      keccak256(0x00, 0x40)\n      0x00\n      swap2\n      pop\n      swap1\n      pop\n      dup1\n      0x00\n      add\n      dup1\n      sload\n      tag_218\n      swap1\n      tag_111\n      jump\t// in\n    tag_218:\n      dup1\n      0x1f\n      add\n      0x20\n      dup1\n      swap2\n      div\n      mul\n      0x20\n      add\n      mload(0x40)\n      swap1\n      dup2\n      add\n      0x40\n      mstore\n      dup1\n      swap3\n      swap2\n      swap1\n      dup2\n      dup2\n      mstore\n      0x20\n      add\n      dup3\n      dup1\n      sload\n      tag_219\n      swap1\n      tag_111\n      jump\t// in\n    tag_219:\n      dup1\n      iszero\n      tag_220\n      jumpi\n      dup1\n      0x1f\n      lt\n      tag_221\n      jumpi\n      0x0100\n      dup1\n      dup4\n      sload\n      div\n      mul\n      dup4\n      mstore\n      swap2\n      0x20\n      add\n      swap2\n      jump(tag_220)\n    tag_221:\n      dup3\n      add\n      swap2\n      swap1\n      0x00\n      mstore\n      keccak256(0x00, 0x20)\n      swap1\n    tag_222:\n      dup2\n      sload\n      dup2\n      mstore\n      swap1\n      0x01\n      add\n      swap1\n      0x20\n      add\n      dup1\n      dup4\n      gt\n      tag_222\n      jumpi\n      dup3\n      swap1\n      sub\n      0x1f\n      and\n      dup3\n      add\n      swap2\n    tag_220:\n      pop\n      pop\n      pop\n      pop\n      pop\n      swap1\n      dup1\n      0x01\n      add\n      dup1\n      sload\n      tag_223\n      swap1\n      tag_111\n      jump\t// in\n    tag_223:\n      dup1\n      0x1f\n      add\n      0x20\n      dup1\n      swap2\n      div\n      mul\n      0x20\n      add\n      mload(0x40)\n      swap1\n      dup2\n      add\n      0x40\n      mstore\n      dup1\n      swap3\n      swap2\n      swap1\n      dup2\n      dup2\n      mstore\n      0x20\n      add\n      dup3\n      dup1\n      sload\n      tag_224\n      swap1\n      tag_111\n      jump\t// in\n    tag_224:\n      dup1\n      iszero\n      tag_225\n      jumpi\n      dup1\n      0x1f\n      lt\n      tag_226\n      jumpi\n      0x0100\n      dup1\n      dup4\n      sload\n      div\n      mul\n      dup4\n      mstore\n      swap2\n      0x20\n      add\n      swap2\n      jump(tag_225)\n    tag_226:\n      dup3\n      add\n      swap2\n      swap1\n      0x00\n      mstore\n      keccak256(0x00, 0x20)\n      swap1\n    tag_227:\n      dup2\n      sload\n      dup2\n      mstore\n      swap1\n      0x01\n      add\n      swap1\n      0x20\n      add\n      dup1\n      dup4\n      gt\n      tag_227\n      jumpi\n      dup3\n      swap1\n      sub\n      0x1f\n      and\n      dup3\n      add\n      swap2\n    tag_225:\n      pop\n      pop\n      pop\n      pop\n      pop\n      swap1\n      dup1\n      0x02\n      add\n      dup1\n      sload\n      tag_228\n      swap1\n      tag_111\n      jump\t// in\n    tag_228:\n      dup1\n      0x1f\n      add\n      0x20\n      dup1\n      swap2\n      div\n      mul\n      0x20\n      add\n      mload(0x40)\n      swap1\n      dup2\n      add\n      0x40\n      mstore\n      dup1\n      swap3\n      swap2\n      swap1\n      dup2\n      dup2\n      mstore\n      0x20\n      add\n      dup3\n      dup1\n      sload\n      tag_229\n      swap1\n      tag_111\n      jump\t// in\n    tag_229:\n      dup1\n      iszero\n      tag_230\n      jumpi\n      dup1\n      0x1f\n      lt\n      tag_231\n      jumpi\n      0x0100\n      dup1\n      dup4\n      sload\n      div\n      mul\n      dup4\n      mstore\n      swap2\n      0x20\n      add\n      swap2\n      jump(tag_230)\n    tag_231:\n      dup3\n      add\n      swap2\n      swap1\n      0x00\n      mstore\n      keccak256(0x00, 0x20)\n      swap1\n    tag_232:\n      dup2\n      sload\n      dup2\n      mstore\n      swap1\n      0x01\n      add\n      swap1\n      0x20\n      add\n      dup1\n      dup4\n      gt\n      tag_232\n      jumpi\n      dup3\n      swap1\n      sub\n      0x1f\n      and\n      dup3\n      add\n      swap2\n    tag_230:\n      pop\n      pop\n      pop\n      pop\n      pop\n      swap1\n      dup1\n      0x03\n      add\n      dup1\n      sload\n      tag_233\n      swap1\n      tag_111\n      jump\t// in\n    tag_233:\n      dup1\n      0x1f\n      add\n      0x20\n      dup1\n      swap2\n      div\n      mul\n      0x20\n      add\n      mload(0x40)\n      swap1\n      dup2\n      add\n      0x40\n      mstore\n      dup1\n      swap3\n      swap2\n      swap1\n      dup2\n      dup2\n      mstore\n      0x20\n      add\n      dup3\n      dup1\n      sload\n      tag_234\n      swap1\n      tag_111\n      jump\t// in\n    tag_234:\n      dup1\n      iszero\n      tag_235\n      jumpi\n      dup1\n      0x1f\n      lt\n      tag_236\n      jumpi\n      0x0100\n      dup1\n      dup4\n      sload\n      div\n      mul\n      dup4\n      mstore\n      swap2\n      0x20\n      add\n      swap2\n      jump(tag_235)\n    tag_236:\n      dup3\n      add\n      swap2\n      swap1\n      0x00\n      mstore\n      keccak256(0x00, 0x20)\n      swap1\n    tag_237:\n      dup2\n      sload\n      dup2\n      mstore\n      swap1\n      0x01\n      add\n      swap1\n      0x20\n      add\n      dup1\n      dup4\n      gt\n      tag_237\n      jumpi\n      dup3\n      swap1\n      sub\n      0x1f\n      and\n      dup3\n      add\n      swap2\n    tag_235:\n      pop\n      pop\n      pop\n      pop\n      pop\n      swap1\n      dup1\n      0x04\n      add\n      sload\n      swap1\n      dup1\n      0x05\n      add\n      sload\n      swap1\n      dup1\n      0x06\n      add\n      0x00\n      swap1\n      sload\n      swap1\n      0x0100\n      exp\n      swap1\n      div\n      0xffffffffffffffffffffffffffffffffffffffff\n      and\n      swap1\n      dup1\n      0x06\n      add\n      0x14\n      swap1\n      sload\n      swap1\n      0x0100\n      exp\n      swap1\n      div\n      0xff\n      and\n      swap1\n      pop\n      dup9\n      jump\t// out\n        /* \"DocumentSharing.sol\":12104:12366  function checkAccess(uint256 _documentId, address _user)... */\n    tag_80:\n        /* \"DocumentSharing.sol\":12242:12246  bool */\n      0x00\n        /* \"DocumentSharing.sol\":12212:12223  _documentId */\n      dup3\n        /* \"DocumentSharing.sol\":4085:4094  documents */\n      0x00\n        /* \"DocumentSharing.sol\":4085:4107  documents[_documentId] */\n      dup1\n        /* \"DocumentSharing.sol\":4095:4106  _documentId */\n      dup3\n        /* \"DocumentSharing.sol\":4085:4107  documents[_documentId] */\n      dup2\n      mstore\n      0x20\n      add\n      swap1\n      dup2\n      mstore\n      0x20\n      add\n      0x00\n      keccak256\n        /* \"DocumentSharing.sol\":4085:4114  documents[_documentId].exists */\n      0x06\n      add\n      0x14\n      swap1\n      sload\n      swap1\n      0x0100\n      exp\n      swap1\n      div\n      0xff\n      and\n        /* \"DocumentSharing.sol\":4077:4142  require(documents[_documentId].exists, \"Document does not exist\") */\n      tag_239\n      jumpi\n      mload(0x40)\n      0x08c379a000000000000000000000000000000000000000000000000000000000\n      dup2\n      mstore\n      0x04\n      add\n      tag_240\n      swap1\n      tag_137\n      jump\t// in\n    tag_240:\n      mload(0x40)\n      dup1\n      swap2\n      sub\n      swap1\n      revert\n    tag_239:\n        /* \"DocumentSharing.sol\":12301:12306  _user */\n      dup3\n        /* \"DocumentSharing.sol\":12269:12306  documents[_documentId].owner == _user */\n      0xffffffffffffffffffffffffffffffffffffffff\n      and\n        /* \"DocumentSharing.sol\":12269:12278  documents */\n      0x00\n        /* \"DocumentSharing.sol\":12269:12291  documents[_documentId] */\n      dup1\n        /* \"DocumentSharing.sol\":12279:12290  _documentId */\n      dup7\n        /* \"DocumentSharing.sol\":12269:12291  documents[_documentId] */\n      dup2\n      mstore\n      0x20\n      add\n      swap1\n      dup2\n      mstore\n      0x20\n      add\n      0x00\n      keccak256\n        /* \"DocumentSharing.sol\":12269:12297  documents[_documentId].owner */\n      0x06\n      add\n      0x00\n      swap1\n      sload\n      swap1\n      0x0100\n      exp\n      swap1\n      div\n      0xffffffffffffffffffffffffffffffffffffffff\n      and\n        /* \"DocumentSharing.sol\":12269:12306  documents[_documentId].owner == _user */\n      0xffffffffffffffffffffffffffffffffffffffff\n      and\n      eq\n        /* \"DocumentSharing.sol\":12269:12359  documents[_documentId].owner == _user ||... */\n      dup1\n      tag_242\n      jumpi\n      pop\n        /* \"DocumentSharing.sol\":12325:12359  _isAccessValid(_documentId, _user) */\n      tag_243\n        /* \"DocumentSharing.sol\":12340:12351  _documentId */\n      dup5\n        /* \"DocumentSharing.sol\":12353:12358  _user */\n      dup5\n        /* \"DocumentSharing.sol\":12325:12339  _isAccessValid */\n      tag_141\n        /* \"DocumentSharing.sol\":12325:12359  _isAccessValid(_documentId, _user) */\n      jump\t// in\n    tag_243:\n        /* \"DocumentSharing.sol\":12269:12359  documents[_documentId].owner == _user ||... */\n    tag_242:\n        /* \"DocumentSharing.sol\":12262:12359  return documents[_documentId].owner == _user ||... */\n      swap2\n      pop\n        /* \"DocumentSharing.sol\":12104:12366  function checkAccess(uint256 _documentId, address _user)... */\n      pop\n      swap3\n      swap2\n      pop\n      pop\n      jump\t// out\n        /* \"DocumentSharing.sol\":7034:7965  function grantAccess(... */\n    tag_86:\n        /* \"DocumentSharing.sol\":7163:7174  _documentId */\n      dup3\n        /* \"DocumentSharing.sol\":3854:3863  documents */\n      0x00\n        /* \"DocumentSharing.sol\":3854:3876  documents[_documentId] */\n      dup1\n        /* \"DocumentSharing.sol\":3864:3875  _documentId */\n      dup3\n        /* \"DocumentSharing.sol\":3854:3876  documents[_documentId] */\n      dup2\n      mstore\n      0x20\n      add\n      swap1\n      dup2\n      mstore\n      0x20\n      add\n      0x00\n      keccak256\n        /* \"DocumentSharing.sol\":3854:3883  documents[_documentId].exists */\n      0x06\n      add\n      0x14\n      swap1\n      sload\n      swap1\n      0x0100\n      exp\n      swap1\n      div\n      0xff\n      and\n        /* \"DocumentSharing.sol\":3846:3911  require(documents[_documentId].exists, \"Document does not exist\") */\n      tag_245\n      jumpi\n      mload(0x40)\n      0x08c379a000000000000000000000000000000000000000000000000000000000\n      dup2\n      mstore\n      0x04\n      add\n      tag_246\n      swap1\n      tag_137\n      jump\t// in\n    tag_246:\n      mload(0x40)\n      dup1\n      swap2\n      sub\n      swap1\n      revert\n    tag_245:\n        /* \"DocumentSharing.sol\":3961:3971  msg.sender */\n      caller\n        /* \"DocumentSharing.sol\":3929:3971  documents[_documentId].owner == msg.sender */\n      0xffffffffffffffffffffffffffffffffffffffff\n      and\n        /* \"DocumentSharing.sol\":3929:3938  documents */\n      0x00\n        /* \"DocumentSharing.sol\":3929:3951  documents[_documentId] */\n      dup1\n        /* \"DocumentSharing.sol\":3939:3950  _documentId */\n      dup4\n        /* \"DocumentSharing.sol\":3929:3951  documents[_documentId] */\n      dup2\n      mstore\n      0x20\n      add\n      swap1\n      dup2\n      mstore\n      0x20\n      add\n      0x00\n      keccak256\n        /* \"DocumentSharing.sol\":3929:3957  documents[_documentId].owner */\n      0x06\n      add\n      0x00\n      swap1\n      sload\n      swap1\n      0x0100\n      exp\n      swap1\n      div\n      0xffffffffffffffffffffffffffffffffffffffff\n      and\n        /* \"DocumentSharing.sol\":3929:3971  documents[_documentId].owner == msg.sender */\n      0xffffffffffffffffffffffffffffffffffffffff\n      and\n      eq\n        /* \"DocumentSharing.sol\":3921:3998  require(documents[_documentId].owner == msg.sender, \"Not the document owner\") */\n      tag_247\n      jumpi\n      mload(0x40)\n      0x08c379a000000000000000000000000000000000000000000000000000000000\n      dup2\n      mstore\n      0x04\n      add\n      tag_248\n      swap1\n      tag_195\n      jump\t// in\n    tag_248:\n      mload(0x40)\n      dup1\n      swap2\n      sub\n      swap1\n      revert\n    tag_247:\n        /* \"DocumentSharing.sol\":7216:7217  0 */\n      0x00\n        /* \"DocumentSharing.sol\":7194:7218  _recipient != address(0) */\n      0xffffffffffffffffffffffffffffffffffffffff\n      and\n        /* \"DocumentSharing.sol\":7194:7204  _recipient */\n      dup4\n        /* \"DocumentSharing.sol\":7194:7218  _recipient != address(0) */\n      0xffffffffffffffffffffffffffffffffffffffff\n      and\n      sub\n        /* \"DocumentSharing.sol\":7186:7248  require(_recipient != address(0), \"Invalid recipient address\") */\n      tag_250\n      jumpi\n      mload(0x40)\n      0x08c379a000000000000000000000000000000000000000000000000000000000\n      dup2\n      mstore\n      0x04\n      add\n      tag_251\n      swap1\n      tag_252\n      jump\t// in\n    tag_251:\n      mload(0x40)\n      dup1\n      swap2\n      sub\n      swap1\n      revert\n    tag_250:\n        /* \"DocumentSharing.sol\":7280:7290  msg.sender */\n      caller\n        /* \"DocumentSharing.sol\":7266:7290  _recipient != msg.sender */\n      0xffffffffffffffffffffffffffffffffffffffff\n      and\n        /* \"DocumentSharing.sol\":7266:7276  _recipient */\n      dup4\n        /* \"DocumentSharing.sol\":7266:7290  _recipient != msg.sender */\n      0xffffffffffffffffffffffffffffffffffffffff\n      and\n      sub\n        /* \"DocumentSharing.sol\":7258:7326  require(_recipient != msg.sender, \"Cannot grant access to yourself\") */\n      tag_253\n      jumpi\n      mload(0x40)\n      0x08c379a000000000000000000000000000000000000000000000000000000000\n      dup2\n      mstore\n      0x04\n      add\n      tag_254\n      swap1\n      tag_255\n      jump\t// in\n    tag_254:\n      mload(0x40)\n      dup1\n      swap2\n      sub\n      swap1\n      revert\n    tag_253:\n        /* \"DocumentSharing.sol\":7358:7375  accessPermissions */\n      0x01\n        /* \"DocumentSharing.sol\":7358:7388  accessPermissions[_documentId] */\n      0x00\n        /* \"DocumentSharing.sol\":7376:7387  _documentId */\n      dup6\n        /* \"DocumentSharing.sol\":7358:7388  accessPermissions[_documentId] */\n      dup2\n      mstore\n      0x20\n      add\n      swap1\n      dup2\n      mstore\n      0x20\n      add\n      0x00\n      keccak256\n        /* \"DocumentSharing.sol\":7358:7400  accessPermissions[_documentId][_recipient] */\n      0x00\n        /* \"DocumentSharing.sol\":7389:7399  _recipient */\n      dup5\n        /* \"DocumentSharing.sol\":7358:7400  accessPermissions[_documentId][_recipient] */\n      0xffffffffffffffffffffffffffffffffffffffff\n      and\n      0xffffffffffffffffffffffffffffffffffffffff\n      and\n      dup2\n      mstore\n      0x20\n      add\n      swap1\n      dup2\n      mstore\n      0x20\n      add\n      0x00\n      keccak256\n        /* \"DocumentSharing.sol\":7358:7408  accessPermissions[_documentId][_recipient].canView */\n      0x00\n      add\n      0x00\n      swap1\n      sload\n      swap1\n      0x0100\n      exp\n      swap1\n      div\n      0xff\n      and\n        /* \"DocumentSharing.sol\":7357:7408  !accessPermissions[_documentId][_recipient].canView */\n      iszero\n        /* \"DocumentSharing.sol\":7336:7456  require(... */\n      tag_256\n      jumpi\n      mload(0x40)\n      0x08c379a000000000000000000000000000000000000000000000000000000000\n      dup2\n      mstore\n      0x04\n      add\n      tag_257\n      swap1\n      tag_258\n      jump\t// in\n    tag_257:\n      mload(0x40)\n      dup1\n      swap2\n      sub\n      swap1\n      revert\n    tag_256:\n        /* \"DocumentSharing.sol\":7501:7502  0 */\n      0x00\n        /* \"DocumentSharing.sol\":7487:7497  _expiresAt */\n      dup3\n        /* \"DocumentSharing.sol\":7487:7502  _expiresAt == 0 */\n      eq\n        /* \"DocumentSharing.sol\":7487:7534  _expiresAt == 0 || _expiresAt > block.timestamp */\n      dup1\n      tag_259\n      jumpi\n      pop\n        /* \"DocumentSharing.sol\":7519:7534  block.timestamp */\n      timestamp\n        /* \"DocumentSharing.sol\":7506:7516  _expiresAt */\n      dup3\n        /* \"DocumentSharing.sol\":7506:7534  _expiresAt > block.timestamp */\n      gt\n        /* \"DocumentSharing.sol\":7487:7534  _expiresAt == 0 || _expiresAt > block.timestamp */\n    tag_259:\n        /* \"DocumentSharing.sol\":7466:7588  require(... */\n      tag_260\n      jumpi\n      mload(0x40)\n      0x08c379a000000000000000000000000000000000000000000000000000000000\n      dup2\n      mstore\n      0x04\n      add\n      tag_261\n      swap1\n      tag_262\n      jump\t// in\n    tag_261:\n      mload(0x40)\n      dup1\n      swap2\n      sub\n      swap1\n      revert\n    tag_260:\n        /* \"DocumentSharing.sol\":7644:7776  AccessPermission({... */\n      mload(0x40)\n      dup1\n      0x60\n      add\n      0x40\n      mstore\n      dup1\n        /* \"DocumentSharing.sol\":7686:7690  true */\n      0x01\n        /* \"DocumentSharing.sol\":7644:7776  AccessPermission({... */\n      iszero\n      iszero\n      dup2\n      mstore\n      0x20\n      add\n        /* \"DocumentSharing.sol\":7715:7730  block.timestamp */\n      timestamp\n        /* \"DocumentSharing.sol\":7644:7776  AccessPermission({... */\n      dup2\n      mstore\n      0x20\n      add\n        /* \"DocumentSharing.sol\":7755:7765  _expiresAt */\n      dup4\n        /* \"DocumentSharing.sol\":7644:7776  AccessPermission({... */\n      dup2\n      mstore\n      pop\n        /* \"DocumentSharing.sol\":7599:7616  accessPermissions */\n      0x01\n        /* \"DocumentSharing.sol\":7599:7629  accessPermissions[_documentId] */\n      0x00\n        /* \"DocumentSharing.sol\":7617:7628  _documentId */\n      dup7\n        /* \"DocumentSharing.sol\":7599:7629  accessPermissions[_documentId] */\n      dup2\n      mstore\n      0x20\n      add\n      swap1\n      dup2\n      mstore\n      0x20\n      add\n      0x00\n      keccak256\n        /* \"DocumentSharing.sol\":7599:7641  accessPermissions[_documentId][_recipient] */\n      0x00\n        /* \"DocumentSharing.sol\":7630:7640  _recipient */\n      dup6\n        /* \"DocumentSharing.sol\":7599:7641  accessPermissions[_documentId][_recipient] */\n      0xffffffffffffffffffffffffffffffffffffffff\n      and\n      0xffffffffffffffffffffffffffffffffffffffff\n      and\n      dup2\n      mstore\n      0x20\n      add\n      swap1\n      dup2\n      mstore\n      0x20\n      add\n      0x00\n      keccak256\n        /* \"DocumentSharing.sol\":7599:7776  accessPermissions[_documentId][_recipient] = AccessPermission({... */\n      0x00\n      dup3\n      add\n      mload\n      dup2\n      0x00\n      add\n      exp(0x0100, 0x00)\n      dup2\n      sload\n      dup2\n      0xff\n      mul\n      not\n      and\n      swap1\n      dup4\n      iszero\n      iszero\n      mul\n      or\n      swap1\n      sstore\n      pop\n      0x20\n      dup3\n      add\n      mload\n      dup2\n      0x01\n      add\n      sstore\n      0x40\n      dup3\n      add\n      mload\n      dup2\n      0x02\n      add\n      sstore\n      swap1\n      pop\n      pop\n        /* \"DocumentSharing.sol\":7787:7799  sharedWithMe */\n      0x03\n        /* \"DocumentSharing.sol\":7787:7811  sharedWithMe[_recipient] */\n      0x00\n        /* \"DocumentSharing.sol\":7800:7810  _recipient */\n      dup5\n        /* \"DocumentSharing.sol\":7787:7811  sharedWithMe[_recipient] */\n      0xffffffffffffffffffffffffffffffffffffffff\n      and\n      0xffffffffffffffffffffffffffffffffffffffff\n      and\n      dup2\n      mstore\n      0x20\n      add\n      swap1\n      dup2\n      mstore\n      0x20\n      add\n      0x00\n      keccak256\n        /* \"DocumentSharing.sol\":7817:7828  _documentId */\n      dup5\n        /* \"DocumentSharing.sol\":7787:7829  sharedWithMe[_recipient].push(_documentId) */\n      swap1\n      dup1\n      0x01\n      dup2\n      sload\n      add\n      dup1\n      dup3\n      sstore\n      dup1\n      swap2\n      pop\n      pop\n      0x01\n      swap1\n      sub\n      swap1\n      0x00\n      mstore\n      keccak256(0x00, 0x20)\n      add\n      0x00\n      swap1\n      swap2\n      swap1\n      swap2\n      swap1\n      swap2\n      pop\n      sstore\n        /* \"DocumentSharing.sol\":7897:7907  _recipient */\n      dup3\n        /* \"DocumentSharing.sol\":7845:7958  AccessGranted(... */\n      0xffffffffffffffffffffffffffffffffffffffff\n      and\n        /* \"DocumentSharing.sol\":7885:7895  msg.sender */\n      caller\n        /* \"DocumentSharing.sol\":7845:7958  AccessGranted(... */\n      0xffffffffffffffffffffffffffffffffffffffff\n      and\n        /* \"DocumentSharing.sol\":7872:7883  _documentId */\n      dup6\n        /* \"DocumentSharing.sol\":7845:7958  AccessGranted(... */\n      0xa239e588de3aff05a58500844212eb7c4484b93d21066b85f82e38c39c0c8c24\n        /* \"DocumentSharing.sol\":7921:7936  block.timestamp */\n      timestamp\n        /* \"DocumentSharing.sol\":7938:7948  _expiresAt */\n      dup7\n        /* \"DocumentSharing.sol\":7845:7958  AccessGranted(... */\n      mload(0x40)\n      tag_264\n      swap3\n      swap2\n      swap1\n      tag_265\n      jump\t// in\n    tag_264:\n      mload(0x40)\n      dup1\n      swap2\n      sub\n      swap1\n      log4\n        /* \"DocumentSharing.sol\":7034:7965  function grantAccess(... */\n      pop\n      pop\n      pop\n      pop\n      jump\t// out\n        /* \"DocumentSharing.sol\":8039:8770  function revokeAccess(uint256 _documentId, address _recipient)... */\n    tag_89:\n        /* \"DocumentSharing.sol\":8135:8146  _documentId */\n      dup2\n        /* \"DocumentSharing.sol\":3854:3863  documents */\n      0x00\n        /* \"DocumentSharing.sol\":3854:3876  documents[_documentId] */\n      dup1\n        /* \"DocumentSharing.sol\":3864:3875  _documentId */\n      dup3\n        /* \"DocumentSharing.sol\":3854:3876  documents[_documentId] */\n      dup2\n      mstore\n      0x20\n      add\n      swap1\n      dup2\n      mstore\n      0x20\n      add\n      0x00\n      keccak256\n        /* \"DocumentSharing.sol\":3854:3883  documents[_documentId].exists */\n      0x06\n      add\n      0x14\n      swap1\n      sload\n      swap1\n      0x0100\n      exp\n      swap1\n      div\n      0xff\n      and\n        /* \"DocumentSharing.sol\":3846:3911  require(documents[_documentId].exists, \"Document does not exist\") */\n      tag_267\n      jumpi\n      mload(0x40)\n      0x08c379a000000000000000000000000000000000000000000000000000000000\n      dup2\n      mstore\n      0x04\n      add\n      tag_268\n      swap1\n      tag_137\n      jump\t// in\n    tag_268:\n      mload(0x40)\n      dup1\n      swap2\n      sub\n      swap1\n      revert\n    tag_267:\n        /* \"DocumentSharing.sol\":3961:3971  msg.sender */\n      caller\n        /* \"DocumentSharing.sol\":3929:3971  documents[_documentId].owner == msg.sender */\n      0xffffffffffffffffffffffffffffffffffffffff\n      and\n        /* \"DocumentSharing.sol\":3929:3938  documents */\n      0x00\n        /* \"DocumentSharing.sol\":3929:3951  documents[_documentId] */\n      dup1\n        /* \"DocumentSharing.sol\":3939:3950  _documentId */\n      dup4\n        /* \"DocumentSharing.sol\":3929:3951  documents[_documentId] */\n      dup2\n      mstore\n      0x20\n      add\n      swap1\n      dup2\n      mstore\n      0x20\n      add\n      0x00\n      keccak256\n        /* \"DocumentSharing.sol\":3929:3957  documents[_documentId].owner */\n      0x06\n      add\n      0x00\n      swap1\n      sload\n      swap1\n      0x0100\n      exp\n      swap1\n      div\n      0xffffffffffffffffffffffffffffffffffffffff\n      and\n        /* \"DocumentSharing.sol\":3929:3971  documents[_documentId].owner == msg.sender */\n      0xffffffffffffffffffffffffffffffffffffffff\n      and\n      eq\n        /* \"DocumentSharing.sol\":3921:3998  require(documents[_documentId].owner == msg.sender, \"Not the document owner\") */\n      tag_269\n      jumpi\n      mload(0x40)\n      0x08c379a000000000000000000000000000000000000000000000000000000000\n      dup2\n      mstore\n      0x04\n      add\n      tag_270\n      swap1\n      tag_195\n      jump\t// in\n    tag_270:\n      mload(0x40)\n      dup1\n      swap2\n      sub\n      swap1\n      revert\n    tag_269:\n        /* \"DocumentSharing.sol\":8183:8200  accessPermissions */\n      0x01\n        /* \"DocumentSharing.sol\":8183:8213  accessPermissions[_documentId] */\n      0x00\n        /* \"DocumentSharing.sol\":8201:8212  _documentId */\n      dup5\n        /* \"DocumentSharing.sol\":8183:8213  accessPermissions[_documentId] */\n      dup2\n      mstore\n      0x20\n      add\n      swap1\n      dup2\n      mstore\n      0x20\n      add\n      0x00\n      keccak256\n        /* \"DocumentSharing.sol\":8183:8225  accessPermissions[_documentId][_recipient] */\n      0x00\n        /* \"DocumentSharing.sol\":8214:8224  _recipient */\n      dup4\n        /* \"DocumentSharing.sol\":8183:8225  accessPermissions[_documentId][_recipient] */\n      0xffffffffffffffffffffffffffffffffffffffff\n      and\n      0xffffffffffffffffffffffffffffffffffffffff\n      and\n      dup2\n      mstore\n      0x20\n      add\n      swap1\n      dup2\n      mstore\n      0x20\n      add\n      0x00\n      keccak256\n        /* \"DocumentSharing.sol\":8183:8233  accessPermissions[_documentId][_recipient].canView */\n      0x00\n      add\n      0x00\n      swap1\n      sload\n      swap1\n      0x0100\n      exp\n      swap1\n      div\n      0xff\n      and\n        /* \"DocumentSharing.sol\":8162:8277  require(... */\n      tag_272\n      jumpi\n      mload(0x40)\n      0x08c379a000000000000000000000000000000000000000000000000000000000\n      dup2\n      mstore\n      0x04\n      add\n      tag_273\n      swap1\n      tag_274\n      jump\t// in\n    tag_273:\n      mload(0x40)\n      dup1\n      swap2\n      sub\n      swap1\n      revert\n    tag_272:\n        /* \"DocumentSharing.sol\":8341:8346  false */\n      0x00\n        /* \"DocumentSharing.sol\":8288:8305  accessPermissions */\n      0x01\n        /* \"DocumentSharing.sol\":8288:8318  accessPermissions[_documentId] */\n      0x00\n        /* \"DocumentSharing.sol\":8306:8317  _documentId */\n      dup6\n        /* \"DocumentSharing.sol\":8288:8318  accessPermissions[_documentId] */\n      dup2\n      mstore\n      0x20\n      add\n      swap1\n      dup2\n      mstore\n      0x20\n      add\n      0x00\n      keccak256\n        /* \"DocumentSharing.sol\":8288:8330  accessPermissions[_documentId][_recipient] */\n      0x00\n        /* \"DocumentSharing.sol\":8319:8329  _recipient */\n      dup5\n        /* \"DocumentSharing.sol\":8288:8330  accessPermissions[_documentId][_recipient] */\n      0xffffffffffffffffffffffffffffffffffffffff\n      and\n      0xffffffffffffffffffffffffffffffffffffffff\n      and\n      dup2\n      mstore\n      0x20\n      add\n      swap1\n      dup2\n      mstore\n      0x20\n      add\n      0x00\n      keccak256\n        /* \"DocumentSharing.sol\":8288:8338  accessPermissions[_documentId][_recipient].canView */\n      0x00\n      add\n      0x00\n        /* \"DocumentSharing.sol\":8288:8346  accessPermissions[_documentId][_recipient].canView = false */\n      0x0100\n      exp\n      dup2\n      sload\n      dup2\n      0xff\n      mul\n      not\n      and\n      swap1\n      dup4\n      iszero\n      iszero\n      mul\n      or\n      swap1\n      sstore\n      pop\n        /* \"DocumentSharing.sol\":8399:8423  uint256[] storage shared */\n      0x00\n        /* \"DocumentSharing.sol\":8426:8438  sharedWithMe */\n      0x03\n        /* \"DocumentSharing.sol\":8426:8450  sharedWithMe[_recipient] */\n      0x00\n        /* \"DocumentSharing.sol\":8439:8449  _recipient */\n      dup5\n        /* \"DocumentSharing.sol\":8426:8450  sharedWithMe[_recipient] */\n      0xffffffffffffffffffffffffffffffffffffffff\n      and\n      0xffffffffffffffffffffffffffffffffffffffff\n      and\n      dup2\n      mstore\n      0x20\n      add\n      swap1\n      dup2\n      mstore\n      0x20\n      add\n      0x00\n      keccak256\n        /* \"DocumentSharing.sol\":8399:8450  uint256[] storage shared = sharedWithMe[_recipient] */\n      swap1\n      pop\n        /* \"DocumentSharing.sol\":8465:8474  uint256 i */\n      0x00\n        /* \"DocumentSharing.sol\":8460:8681  for (uint256 i = 0; i < shared.length; i++) {... */\n    tag_275:\n        /* \"DocumentSharing.sol\":8484:8490  shared */\n      dup2\n        /* \"DocumentSharing.sol\":8484:8497  shared.length */\n      dup1\n      sload\n      swap1\n      pop\n        /* \"DocumentSharing.sol\":8480:8481  i */\n      dup2\n        /* \"DocumentSharing.sol\":8480:8497  i < shared.length */\n      lt\n        /* \"DocumentSharing.sol\":8460:8681  for (uint256 i = 0; i < shared.length; i++) {... */\n      iszero\n      tag_276\n      jumpi\n        /* \"DocumentSharing.sol\":8535:8546  _documentId */\n      dup5\n        /* \"DocumentSharing.sol\":8522:8528  shared */\n      dup3\n        /* \"DocumentSharing.sol\":8529:8530  i */\n      dup3\n        /* \"DocumentSharing.sol\":8522:8531  shared[i] */\n      dup2\n      sload\n      dup2\n      lt\n      tag_278\n      jumpi\n      tag_279\n      tag_202\n      jump\t// in\n    tag_279:\n    tag_278:\n      swap1\n      0x00\n      mstore\n      keccak256(0x00, 0x20)\n      add\n      sload\n        /* \"DocumentSharing.sol\":8522:8546  shared[i] == _documentId */\n      sub\n        /* \"DocumentSharing.sol\":8518:8671  if (shared[i] == _documentId) {... */\n      tag_281\n      jumpi\n        /* \"DocumentSharing.sol\":8578:8584  shared */\n      dup2\n        /* \"DocumentSharing.sol\":8601:8602  1 */\n      0x01\n        /* \"DocumentSharing.sol\":8585:8591  shared */\n      dup4\n        /* \"DocumentSharing.sol\":8585:8598  shared.length */\n      dup1\n      sload\n      swap1\n      pop\n        /* \"DocumentSharing.sol\":8585:8602  shared.length - 1 */\n      tag_282\n      swap2\n      swap1\n      tag_206\n      jump\t// in\n    tag_282:\n        /* \"DocumentSharing.sol\":8578:8603  shared[shared.length - 1] */\n      dup2\n      sload\n      dup2\n      lt\n      tag_283\n      jumpi\n      tag_284\n      tag_202\n      jump\t// in\n    tag_284:\n    tag_283:\n      swap1\n      0x00\n      mstore\n      keccak256(0x00, 0x20)\n      add\n      sload\n        /* \"DocumentSharing.sol\":8566:8572  shared */\n      dup3\n        /* \"DocumentSharing.sol\":8573:8574  i */\n      dup3\n        /* \"DocumentSharing.sol\":8566:8575  shared[i] */\n      dup2\n      sload\n      dup2\n      lt\n      tag_286\n      jumpi\n      tag_287\n      tag_202\n      jump\t// in\n    tag_287:\n    tag_286:\n      swap1\n      0x00\n      mstore\n      keccak256(0x00, 0x20)\n      add\n        /* \"DocumentSharing.sol\":8566:8603  shared[i] = shared[shared.length - 1] */\n      dup2\n      swap1\n      sstore\n      pop\n        /* \"DocumentSharing.sol\":8621:8627  shared */\n      dup2\n        /* \"DocumentSharing.sol\":8621:8633  shared.pop() */\n      dup1\n      sload\n      dup1\n      tag_289\n      jumpi\n      tag_290\n      tag_215\n      jump\t// in\n    tag_290:\n    tag_289:\n      0x01\n      swap1\n      sub\n      dup2\n      dup2\n      swap1\n      0x00\n      mstore\n      keccak256(0x00, 0x20)\n      add\n      0x00\n      swap1\n      sstore\n      swap1\n      sstore\n        /* \"DocumentSharing.sol\":8651:8656  break */\n      jump(tag_276)\n        /* \"DocumentSharing.sol\":8518:8671  if (shared[i] == _documentId) {... */\n    tag_281:\n        /* \"DocumentSharing.sol\":8499:8502  i++ */\n      dup1\n      dup1\n      0x01\n      add\n      swap2\n      pop\n      pop\n        /* \"DocumentSharing.sol\":8460:8681  for (uint256 i = 0; i < shared.length; i++) {... */\n      jump(tag_275)\n    tag_276:\n      pop\n        /* \"DocumentSharing.sol\":8735:8745  _recipient */\n      dup3\n        /* \"DocumentSharing.sol\":8696:8763  AccessRevoked(_documentId, msg.sender, _recipient, block.timestamp) */\n      0xffffffffffffffffffffffffffffffffffffffff\n      and\n        /* \"DocumentSharing.sol\":8723:8733  msg.sender */\n      caller\n        /* \"DocumentSharing.sol\":8696:8763  AccessRevoked(_documentId, msg.sender, _recipient, block.timestamp) */\n      0xffffffffffffffffffffffffffffffffffffffff\n      and\n        /* \"DocumentSharing.sol\":8710:8721  _documentId */\n      dup6\n        /* \"DocumentSharing.sol\":8696:8763  AccessRevoked(_documentId, msg.sender, _recipient, block.timestamp) */\n      0x44cc0386e2d27cf0a4d53aa262e89d728c4866b8c331db29caa559bd37212557\n        /* \"DocumentSharing.sol\":8747:8762  block.timestamp */\n      timestamp\n        /* \"DocumentSharing.sol\":8696:8763  AccessRevoked(_documentId, msg.sender, _recipient, block.timestamp) */\n      mload(0x40)\n      tag_292\n      swap2\n      swap1\n      tag_34\n      jump\t// in\n    tag_292:\n      mload(0x40)\n      dup1\n      swap2\n      sub\n      swap1\n      log4\n        /* \"DocumentSharing.sol\":8152:8770  {... */\n      pop\n        /* \"DocumentSharing.sol\":8039:8770  function revokeAccess(uint256 _documentId, address _recipient)... */\n      pop\n      pop\n      pop\n      jump\t// out\n        /* \"DocumentSharing.sol\":13548:13673  function getMyDocuments(address _owner) public view returns (uint256[] memory) {... */\n    tag_92:\n        /* \"DocumentSharing.sol\":13609:13625  uint256[] memory */\n      0x60\n        /* \"DocumentSharing.sol\":13644:13658  ownerDocuments */\n      0x02\n        /* \"DocumentSharing.sol\":13644:13666  ownerDocuments[_owner] */\n      0x00\n        /* \"DocumentSharing.sol\":13659:13665  _owner */\n      dup4\n        /* \"DocumentSharing.sol\":13644:13666  ownerDocuments[_owner] */\n      0xffffffffffffffffffffffffffffffffffffffff\n      and\n      0xffffffffffffffffffffffffffffffffffffffff\n      and\n      dup2\n      mstore\n      0x20\n      add\n      swap1\n      dup2\n      mstore\n      0x20\n      add\n      0x00\n      keccak256\n        /* \"DocumentSharing.sol\":13637:13666  return ownerDocuments[_owner] */\n      dup1\n      sload\n      dup1\n      0x20\n      mul\n      0x20\n      add\n      mload(0x40)\n      swap1\n      dup2\n      add\n      0x40\n      mstore\n      dup1\n      swap3\n      swap2\n      swap1\n      dup2\n      dup2\n      mstore\n      0x20\n      add\n      dup3\n      dup1\n      sload\n      dup1\n      iszero\n      tag_294\n      jumpi\n      0x20\n      mul\n      dup3\n      add\n      swap2\n      swap1\n      0x00\n      mstore\n      keccak256(0x00, 0x20)\n      swap1\n    tag_295:\n      dup2\n      sload\n      dup2\n      mstore\n      0x20\n      add\n      swap1\n      0x01\n      add\n      swap1\n      dup1\n      dup4\n      gt\n      tag_295\n      jumpi\n    tag_294:\n      pop\n      pop\n      pop\n      pop\n      pop\n      swap1\n      pop\n        /* \"DocumentSharing.sol\":13548:13673  function getMyDocuments(address _owner) public view returns (uint256[] memory) {... */\n      swap2\n      swap1\n      pop\n      jump\t// out\n        /* \"DocumentSharing.sol\":13955:14051  function getTotalDocuments() public view returns (uint256) {... */\n    tag_95:\n        /* \"DocumentSharing.sol\":14005:14012  uint256 */\n      0x00\n        /* \"DocumentSharing.sol\":14031:14044  documentCount */\n      sload(0x04)\n        /* \"DocumentSharing.sol\":14024:14044  return documentCount */\n      swap1\n      pop\n        /* \"DocumentSharing.sol\":13955:14051  function getTotalDocuments() public view returns (uint256) {... */\n      swap1\n      jump\t// out\n        /* \"DocumentSharing.sol\":12450:12874  function isAccessExpired(uint256 _documentId, address _user)... */\n    tag_99:\n        /* \"DocumentSharing.sol\":12592:12596  bool */\n      0x00\n        /* \"DocumentSharing.sol\":12562:12573  _documentId */\n      dup3\n        /* \"DocumentSharing.sol\":4085:4094  documents */\n      0x00\n        /* \"DocumentSharing.sol\":4085:4107  documents[_documentId] */\n      dup1\n        /* \"DocumentSharing.sol\":4095:4106  _documentId */\n      dup3\n        /* \"DocumentSharing.sol\":4085:4107  documents[_documentId] */\n      dup2\n      mstore\n      0x20\n      add\n      swap1\n      dup2\n      mstore\n      0x20\n      add\n      0x00\n      keccak256\n        /* \"DocumentSharing.sol\":4085:4114  documents[_documentId].exists */\n      0x06\n      add\n      0x14\n      swap1\n      sload\n      swap1\n      0x0100\n      exp\n      swap1\n      div\n      0xff\n      and\n        /* \"DocumentSharing.sol\":4077:4142  require(documents[_documentId].exists, \"Document does not exist\") */\n      tag_298\n      jumpi\n      mload(0x40)\n      0x08c379a000000000000000000000000000000000000000000000000000000000\n      dup2\n      mstore\n      0x04\n      add\n      tag_299\n      swap1\n      tag_137\n      jump\t// in\n    tag_299:\n      mload(0x40)\n      dup1\n      swap2\n      sub\n      swap1\n      revert\n    tag_298:\n        /* \"DocumentSharing.sol\":12612:12640  AccessPermission memory perm */\n      0x00\n        /* \"DocumentSharing.sol\":12643:12660  accessPermissions */\n      0x01\n        /* \"DocumentSharing.sol\":12643:12673  accessPermissions[_documentId] */\n      0x00\n        /* \"DocumentSharing.sol\":12661:12672  _documentId */\n      dup7\n        /* \"DocumentSharing.sol\":12643:12673  accessPermissions[_documentId] */\n      dup2\n      mstore\n      0x20\n      add\n      swap1\n      dup2\n      mstore\n      0x20\n      add\n      0x00\n      keccak256\n        /* \"DocumentSharing.sol\":12643:12680  accessPermissions[_documentId][_user] */\n      0x00\n        /* \"DocumentSharing.sol\":12674:12679  _user */\n      dup6\n        /* \"DocumentSharing.sol\":12643:12680  accessPermissions[_documentId][_user] */\n      0xffffffffffffffffffffffffffffffffffffffff\n      and\n      0xffffffffffffffffffffffffffffffffffffffff\n      and\n      dup2\n      mstore\n      0x20\n      add\n      swap1\n      dup2\n      mstore\n      0x20\n      add\n      0x00\n      keccak256\n        /* \"DocumentSharing.sol\":12612:12680  AccessPermission memory perm = accessPermissions[_documentId][_user] */\n      mload(0x40)\n      dup1\n      0x60\n      add\n      0x40\n      mstore\n      swap1\n      dup2\n      0x00\n      dup3\n      add\n      0x00\n      swap1\n      sload\n      swap1\n      0x0100\n      exp\n      swap1\n      div\n      0xff\n      and\n      iszero\n      iszero\n      iszero\n      iszero\n      dup2\n      mstore\n      0x20\n      add\n      0x01\n      dup3\n      add\n      sload\n      dup2\n      mstore\n      0x20\n      add\n      0x02\n      dup3\n      add\n      sload\n      dup2\n      mstore\n      pop\n      pop\n      swap1\n      pop\n        /* \"DocumentSharing.sol\":12695:12699  perm */\n      dup1\n        /* \"DocumentSharing.sol\":12695:12707  perm.canView */\n      0x00\n      add\n      mload\n        /* \"DocumentSharing.sol\":12690:12728  if (!perm.canView)        return false */\n      tag_301\n      jumpi\n        /* \"DocumentSharing.sol\":12723:12728  false */\n      0x00\n        /* \"DocumentSharing.sol\":12716:12728  return false */\n      swap3\n      pop\n      pop\n      jump(tag_300)\n        /* \"DocumentSharing.sol\":12690:12728  if (!perm.canView)        return false */\n    tag_301:\n        /* \"DocumentSharing.sol\":12783:12784  0 */\n      0x00\n        /* \"DocumentSharing.sol\":12765:12769  perm */\n      dup2\n        /* \"DocumentSharing.sol\":12765:12779  perm.expiresAt */\n      0x40\n      add\n      mload\n        /* \"DocumentSharing.sol\":12765:12784  perm.expiresAt == 0 */\n      sub\n        /* \"DocumentSharing.sol\":12761:12799  if (perm.expiresAt == 0)  return false */\n      tag_302\n      jumpi\n        /* \"DocumentSharing.sol\":12794:12799  false */\n      0x00\n        /* \"DocumentSharing.sol\":12787:12799  return false */\n      swap3\n      pop\n      pop\n      jump(tag_300)\n        /* \"DocumentSharing.sol\":12761:12799  if (perm.expiresAt == 0)  return false */\n    tag_302:\n        /* \"DocumentSharing.sol\":12853:12857  perm */\n      dup1\n        /* \"DocumentSharing.sol\":12853:12867  perm.expiresAt */\n      0x40\n      add\n      mload\n        /* \"DocumentSharing.sol\":12835:12850  block.timestamp */\n      timestamp\n        /* \"DocumentSharing.sol\":12835:12867  block.timestamp > perm.expiresAt */\n      gt\n        /* \"DocumentSharing.sol\":12828:12867  return block.timestamp > perm.expiresAt */\n      swap3\n      pop\n      pop\n        /* \"DocumentSharing.sol\":4152:4153  _ */\n    tag_300:\n        /* \"DocumentSharing.sol\":12450:12874  function isAccessExpired(uint256 _documentId, address _user)... */\n      pop\n      swap3\n      swap2\n      pop\n      pop\n      jump\t// out\n        /* \"DocumentSharing.sol\":4722:5060  function _isAccessValid(uint256 _documentId, address _user) internal view returns (bool) {... */\n    tag_141:\n        /* \"DocumentSharing.sol\":4805:4809  bool */\n      0x00\n        /* \"DocumentSharing.sol\":4821:4849  AccessPermission memory perm */\n      dup1\n        /* \"DocumentSharing.sol\":4852:4869  accessPermissions */\n      0x01\n        /* \"DocumentSharing.sol\":4852:4882  accessPermissions[_documentId] */\n      0x00\n        /* \"DocumentSharing.sol\":4870:4881  _documentId */\n      dup6\n        /* \"DocumentSharing.sol\":4852:4882  accessPermissions[_documentId] */\n      dup2\n      mstore\n      0x20\n      add\n      swap1\n      dup2\n      mstore\n      0x20\n      add\n      0x00\n      keccak256\n        /* \"DocumentSharing.sol\":4852:4889  accessPermissions[_documentId][_user] */\n      0x00\n        /* \"DocumentSharing.sol\":4883:4888  _user */\n      dup5\n        /* \"DocumentSharing.sol\":4852:4889  accessPermissions[_documentId][_user] */\n      0xffffffffffffffffffffffffffffffffffffffff\n      and\n      0xffffffffffffffffffffffffffffffffffffffff\n      and\n      dup2\n      mstore\n      0x20\n      add\n      swap1\n      dup2\n      mstore\n      0x20\n      add\n      0x00\n      keccak256\n        /* \"DocumentSharing.sol\":4821:4889  AccessPermission memory perm = accessPermissions[_documentId][_user] */\n      mload(0x40)\n      dup1\n      0x60\n      add\n      0x40\n      mstore\n      swap1\n      dup2\n      0x00\n      dup3\n      add\n      0x00\n      swap1\n      sload\n      swap1\n      0x0100\n      exp\n      swap1\n      div\n      0xff\n      and\n      iszero\n      iszero\n      iszero\n      iszero\n      dup2\n      mstore\n      0x20\n      add\n      0x01\n      dup3\n      add\n      sload\n      dup2\n      mstore\n      0x20\n      add\n      0x02\n      dup3\n      add\n      sload\n      dup2\n      mstore\n      pop\n      pop\n      swap1\n      pop\n        /* \"DocumentSharing.sol\":4904:4908  perm */\n      dup1\n        /* \"DocumentSharing.sol\":4904:4916  perm.canView */\n      0x00\n      add\n      mload\n        /* \"DocumentSharing.sol\":4899:4930  if (!perm.canView) return false */\n      tag_304\n      jumpi\n        /* \"DocumentSharing.sol\":4925:4930  false */\n      0x00\n        /* \"DocumentSharing.sol\":4918:4930  return false */\n      swap2\n      pop\n      pop\n      jump(tag_303)\n        /* \"DocumentSharing.sol\":4899:4930  if (!perm.canView) return false */\n    tag_304:\n        /* \"DocumentSharing.sol\":4962:4963  0 */\n      0x00\n        /* \"DocumentSharing.sol\":4944:4948  perm */\n      dup2\n        /* \"DocumentSharing.sol\":4944:4958  perm.expiresAt */\n      0x40\n      add\n      mload\n        /* \"DocumentSharing.sol\":4944:4963  perm.expiresAt == 0 */\n      sub\n        /* \"DocumentSharing.sol\":4940:4976  if (perm.expiresAt == 0) return true */\n      tag_305\n      jumpi\n        /* \"DocumentSharing.sol\":4972:4976  true */\n      0x01\n        /* \"DocumentSharing.sol\":4965:4976  return true */\n      swap2\n      pop\n      pop\n      jump(tag_303)\n        /* \"DocumentSharing.sol\":4940:4976  if (perm.expiresAt == 0) return true */\n    tag_305:\n        /* \"DocumentSharing.sol\":5039:5043  perm */\n      dup1\n        /* \"DocumentSharing.sol\":5039:5053  perm.expiresAt */\n      0x40\n      add\n      mload\n        /* \"DocumentSharing.sol\":5020:5035  block.timestamp */\n      timestamp\n        /* \"DocumentSharing.sol\":5020:5053  block.timestamp <= perm.expiresAt */\n      gt\n      iszero\n        /* \"DocumentSharing.sol\":5013:5053  return block.timestamp <= perm.expiresAt */\n      swap2\n      pop\n      pop\n        /* \"DocumentSharing.sol\":4722:5060  function _isAccessValid(uint256 _documentId, address _user) internal view returns (bool) {... */\n    tag_303:\n      swap3\n      swap2\n      pop\n      pop\n      jump\t// out\n        /* \"#utility.yul\":7:82   */\n    tag_306:\n        /* \"#utility.yul\":40:46   */\n      0x00\n        /* \"#utility.yul\":73:75   */\n      0x40\n        /* \"#utility.yul\":67:76   */\n      mload\n        /* \"#utility.yul\":57:76   */\n      swap1\n      pop\n        /* \"#utility.yul\":7:82   */\n      swap1\n      jump\t// out\n        /* \"#utility.yul\":88:205   */\n    tag_307:\n        /* \"#utility.yul\":197:198   */\n      0x00\n        /* \"#utility.yul\":194:195   */\n      dup1\n        /* \"#utility.yul\":187:199   */\n      revert\n        /* \"#utility.yul\":211:328   */\n    tag_308:\n        /* \"#utility.yul\":320:321   */\n      0x00\n        /* \"#utility.yul\":317:318   */\n      dup1\n        /* \"#utility.yul\":310:322   */\n      revert\n        /* \"#utility.yul\":334:460   */\n    tag_309:\n        /* \"#utility.yul\":371:378   */\n      0x00\n        /* \"#utility.yul\":411:453   */\n      0xffffffffffffffffffffffffffffffffffffffff\n        /* \"#utility.yul\":404:409   */\n      dup3\n        /* \"#utility.yul\":400:454   */\n      and\n        /* \"#utility.yul\":389:454   */\n      swap1\n      pop\n        /* \"#utility.yul\":334:460   */\n      swap2\n      swap1\n      pop\n      jump\t// out\n        /* \"#utility.yul\":466:562   */\n    tag_310:\n        /* \"#utility.yul\":503:510   */\n      0x00\n        /* \"#utility.yul\":532:556   */\n      tag_388\n        /* \"#utility.yul\":550:555   */\n      dup3\n        /* \"#utility.yul\":532:556   */\n      tag_309\n      jump\t// in\n    tag_388:\n        /* \"#utility.yul\":521:556   */\n      swap1\n      pop\n        /* \"#utility.yul\":466:562   */\n      swap2\n      swap1\n      pop\n      jump\t// out\n        /* \"#utility.yul\":568:690   */\n    tag_311:\n        /* \"#utility.yul\":641:665   */\n      tag_390\n        /* \"#utility.yul\":659:664   */\n      dup2\n        /* \"#utility.yul\":641:665   */\n      tag_310\n      jump\t// in\n    tag_390:\n        /* \"#utility.yul\":634:639   */\n      dup2\n        /* \"#utility.yul\":631:666   */\n      eq\n        /* \"#utility.yul\":621:684   */\n      tag_391\n      jumpi\n        /* \"#utility.yul\":680:681   */\n      0x00\n        /* \"#utility.yul\":677:678   */\n      dup1\n        /* \"#utility.yul\":670:682   */\n      revert\n        /* \"#utility.yul\":621:684   */\n    tag_391:\n        /* \"#utility.yul\":568:690   */\n      pop\n      jump\t// out\n        /* \"#utility.yul\":696:835   */\n    tag_312:\n        /* \"#utility.yul\":742:747   */\n      0x00\n        /* \"#utility.yul\":780:786   */\n      dup2\n        /* \"#utility.yul\":767:787   */\n      calldataload\n        /* \"#utility.yul\":758:787   */\n      swap1\n      pop\n        /* \"#utility.yul\":796:829   */\n      tag_393\n        /* \"#utility.yul\":823:828   */\n      dup2\n        /* \"#utility.yul\":796:829   */\n      tag_311\n      jump\t// in\n    tag_393:\n        /* \"#utility.yul\":696:835   */\n      swap3\n      swap2\n      pop\n      pop\n      jump\t// out\n        /* \"#utility.yul\":841:1170   */\n    tag_25:\n        /* \"#utility.yul\":900:906   */\n      0x00\n        /* \"#utility.yul\":949:951   */\n      0x20\n        /* \"#utility.yul\":937:946   */\n      dup3\n        /* \"#utility.yul\":928:935   */\n      dup5\n        /* \"#utility.yul\":924:947   */\n      sub\n        /* \"#utility.yul\":920:952   */\n      slt\n        /* \"#utility.yul\":917:1036   */\n      iszero\n      tag_395\n      jumpi\n        /* \"#utility.yul\":955:1034   */\n      tag_396\n      tag_307\n      jump\t// in\n    tag_396:\n        /* \"#utility.yul\":917:1036   */\n    tag_395:\n        /* \"#utility.yul\":1075:1076   */\n      0x00\n        /* \"#utility.yul\":1100:1153   */\n      tag_397\n        /* \"#utility.yul\":1145:1152   */\n      dup5\n        /* \"#utility.yul\":1136:1142   */\n      dup3\n        /* \"#utility.yul\":1125:1134   */\n      dup6\n        /* \"#utility.yul\":1121:1143   */\n      add\n        /* \"#utility.yul\":1100:1153   */\n      tag_312\n      jump\t// in\n    tag_397:\n        /* \"#utility.yul\":1090:1153   */\n      swap2\n      pop\n        /* \"#utility.yul\":1046:1163   */\n      pop\n        /* \"#utility.yul\":841:1170   */\n      swap3\n      swap2\n      pop\n      pop\n      jump\t// out\n        /* \"#utility.yul\":1176:1290   */\n    tag_313:\n        /* \"#utility.yul\":1243:1249   */\n      0x00\n        /* \"#utility.yul\":1277:1282   */\n      dup2\n        /* \"#utility.yul\":1271:1283   */\n      mload\n        /* \"#utility.yul\":1261:1283   */\n      swap1\n      pop\n        /* \"#utility.yul\":1176:1290   */\n      swap2\n      swap1\n      pop\n      jump\t// out\n        /* \"#utility.yul\":1296:1480   */\n    tag_314:\n        /* \"#utility.yul\":1395:1406   */\n      0x00\n        /* \"#utility.yul\":1429:1435   */\n      dup3\n        /* \"#utility.yul\":1424:1427   */\n      dup3\n        /* \"#utility.yul\":1417:1436   */\n      mstore\n        /* \"#utility.yul\":1469:1473   */\n      0x20\n        /* \"#utility.yul\":1464:1467   */\n      dup3\n        /* \"#utility.yul\":1460:1474   */\n      add\n        /* \"#utility.yul\":1445:1474   */\n      swap1\n      pop\n        /* \"#utility.yul\":1296:1480   */\n      swap3\n      swap2\n      pop\n      pop\n      jump\t// out\n        /* \"#utility.yul\":1486:1618   */\n    tag_315:\n        /* \"#utility.yul\":1553:1557   */\n      0x00\n        /* \"#utility.yul\":1576:1579   */\n      dup2\n        /* \"#utility.yul\":1568:1579   */\n      swap1\n      pop\n        /* \"#utility.yul\":1606:1610   */\n      0x20\n        /* \"#utility.yul\":1601:1604   */\n      dup3\n        /* \"#utility.yul\":1597:1611   */\n      add\n        /* \"#utility.yul\":1589:1611   */\n      swap1\n      pop\n        /* \"#utility.yul\":1486:1618   */\n      swap2\n      swap1\n      pop\n      jump\t// out\n        /* \"#utility.yul\":1624:1701   */\n    tag_316:\n        /* \"#utility.yul\":1661:1668   */\n      0x00\n        /* \"#utility.yul\":1690:1695   */\n      dup2\n        /* \"#utility.yul\":1679:1695   */\n      swap1\n      pop\n        /* \"#utility.yul\":1624:1701   */\n      swap2\n      swap1\n      pop\n      jump\t// out\n        /* \"#utility.yul\":1707:1815   */\n    tag_317:\n        /* \"#utility.yul\":1784:1808   */\n      tag_403\n        /* \"#utility.yul\":1802:1807   */\n      dup2\n        /* \"#utility.yul\":1784:1808   */\n      tag_316\n      jump\t// in\n    tag_403:\n        /* \"#utility.yul\":1779:1782   */\n      dup3\n        /* \"#utility.yul\":1772:1809   */\n      mstore\n        /* \"#utility.yul\":1707:1815   */\n      pop\n      pop\n      jump\t// out\n        /* \"#utility.yul\":1821:2000   */\n    tag_318:\n        /* \"#utility.yul\":1890:1900   */\n      0x00\n        /* \"#utility.yul\":1911:1957   */\n      tag_405\n        /* \"#utility.yul\":1953:1956   */\n      dup4\n        /* \"#utility.yul\":1945:1951   */\n      dup4\n        /* \"#utility.yul\":1911:1957   */\n      tag_317\n      jump\t// in\n    tag_405:\n        /* \"#utility.yul\":1989:1993   */\n      0x20\n        /* \"#utility.yul\":1984:1987   */\n      dup4\n        /* \"#utility.yul\":1980:1994   */\n      add\n        /* \"#utility.yul\":1966:1994   */\n      swap1\n      pop\n        /* \"#utility.yul\":1821:2000   */\n      swap3\n      swap2\n      pop\n      pop\n      jump\t// out\n        /* \"#utility.yul\":2006:2119   */\n    tag_319:\n        /* \"#utility.yul\":2076:2080   */\n      0x00\n        /* \"#utility.yul\":2108:2112   */\n      0x20\n        /* \"#utility.yul\":2103:2106   */\n      dup3\n        /* \"#utility.yul\":2099:2113   */\n      add\n        /* \"#utility.yul\":2091:2113   */\n      swap1\n      pop\n        /* \"#utility.yul\":2006:2119   */\n      swap2\n      swap1\n      pop\n      jump\t// out\n        /* \"#utility.yul\":2155:2887   */\n    tag_320:\n        /* \"#utility.yul\":2274:2277   */\n      0x00\n        /* \"#utility.yul\":2303:2357   */\n      tag_408\n        /* \"#utility.yul\":2351:2356   */\n      dup3\n        /* \"#utility.yul\":2303:2357   */\n      tag_313\n      jump\t// in\n    tag_408:\n        /* \"#utility.yul\":2373:2459   */\n      tag_409\n        /* \"#utility.yul\":2452:2458   */\n      dup2\n        /* \"#utility.yul\":2447:2450   */\n      dup6\n        /* \"#utility.yul\":2373:2459   */\n      tag_314\n      jump\t// in\n    tag_409:\n        /* \"#utility.yul\":2366:2459   */\n      swap4\n      pop\n        /* \"#utility.yul\":2483:2539   */\n      tag_410\n        /* \"#utility.yul\":2533:2538   */\n      dup4\n        /* \"#utility.yul\":2483:2539   */\n      tag_315\n      jump\t// in\n    tag_410:\n        /* \"#utility.yul\":2562:2569   */\n      dup1\n        /* \"#utility.yul\":2593:2594   */\n      0x00\n        /* \"#utility.yul\":2578:2862   */\n    tag_411:\n        /* \"#utility.yul\":2603:2609   */\n      dup4\n        /* \"#utility.yul\":2600:2601   */\n      dup2\n        /* \"#utility.yul\":2597:2610   */\n      lt\n        /* \"#utility.yul\":2578:2862   */\n      iszero\n      tag_413\n      jumpi\n        /* \"#utility.yul\":2679:2685   */\n      dup2\n        /* \"#utility.yul\":2673:2686   */\n      mload\n        /* \"#utility.yul\":2706:2769   */\n      tag_414\n        /* \"#utility.yul\":2765:2768   */\n      dup9\n        /* \"#utility.yul\":2750:2763   */\n      dup3\n        /* \"#utility.yul\":2706:2769   */\n      tag_318\n      jump\t// in\n    tag_414:\n        /* \"#utility.yul\":2699:2769   */\n      swap8\n      pop\n        /* \"#utility.yul\":2792:2852   */\n      tag_415\n        /* \"#utility.yul\":2845:2851   */\n      dup4\n        /* \"#utility.yul\":2792:2852   */\n      tag_319\n      jump\t// in\n    tag_415:\n        /* \"#utility.yul\":2782:2852   */\n      swap3\n      pop\n        /* \"#utility.yul\":2638:2862   */\n      pop\n        /* \"#utility.yul\":2625:2626   */\n      0x01\n        /* \"#utility.yul\":2622:2623   */\n      dup2\n        /* \"#utility.yul\":2618:2627   */\n      add\n        /* \"#utility.yul\":2613:2627   */\n      swap1\n      pop\n        /* \"#utility.yul\":2578:2862   */\n      jump(tag_411)\n    tag_413:\n        /* \"#utility.yul\":2582:2596   */\n      pop\n        /* \"#utility.yul\":2878:2881   */\n      dup6\n        /* \"#utility.yul\":2871:2881   */\n      swap4\n      pop\n        /* \"#utility.yul\":2279:2887   */\n      pop\n      pop\n      pop\n        /* \"#utility.yul\":2155:2887   */\n      swap3\n      swap2\n      pop\n      pop\n      jump\t// out\n        /* \"#utility.yul\":2893:3266   */\n    tag_28:\n        /* \"#utility.yul\":3036:3040   */\n      0x00\n        /* \"#utility.yul\":3074:3076   */\n      0x20\n        /* \"#utility.yul\":3063:3072   */\n      dup3\n        /* \"#utility.yul\":3059:3077   */\n      add\n        /* \"#utility.yul\":3051:3077   */\n      swap1\n      pop\n        /* \"#utility.yul\":3123:3132   */\n      dup2\n        /* \"#utility.yul\":3117:3121   */\n      dup2\n        /* \"#utility.yul\":3113:3133   */\n      sub\n        /* \"#utility.yul\":3109:3110   */\n      0x00\n        /* \"#utility.yul\":3098:3107   */\n      dup4\n        /* \"#utility.yul\":3094:3111   */\n      add\n        /* \"#utility.yul\":3087:3134   */\n      mstore\n        /* \"#utility.yul\":3151:3259   */\n      tag_417\n        /* \"#utility.yul\":3254:3258   */\n      dup2\n        /* \"#utility.yul\":3245:3251   */\n      dup5\n        /* \"#utility.yul\":3151:3259   */\n      tag_320\n      jump\t// in\n    tag_417:\n        /* \"#utility.yul\":3143:3259   */\n      swap1\n      pop\n        /* \"#utility.yul\":2893:3266   */\n      swap3\n      swap2\n      pop\n      pop\n      jump\t// out\n        /* \"#utility.yul\":3272:3394   */\n    tag_321:\n        /* \"#utility.yul\":3345:3369   */\n      tag_419\n        /* \"#utility.yul\":3363:3368   */\n      dup2\n        /* \"#utility.yul\":3345:3369   */\n      tag_316\n      jump\t// in\n    tag_419:\n        /* \"#utility.yul\":3338:3343   */\n      dup2\n        /* \"#utility.yul\":3335:3370   */\n      eq\n        /* \"#utility.yul\":3325:3388   */\n      tag_420\n      jumpi\n        /* \"#utility.yul\":3384:3385   */\n      0x00\n        /* \"#utility.yul\":3381:3382   */\n      dup1\n        /* \"#utility.yul\":3374:3386   */\n      revert\n        /* \"#utility.yul\":3325:3388   */\n    tag_420:\n        /* \"#utility.yul\":3272:3394   */\n      pop\n      jump\t// out\n        /* \"#utility.yul\":3400:3539   */\n    tag_322:\n        /* \"#utility.yul\":3446:3451   */\n      0x00\n        /* \"#utility.yul\":3484:3490   */\n      dup2\n        /* \"#utility.yul\":3471:3491   */\n      calldataload\n        /* \"#utility.yul\":3462:3491   */\n      swap1\n      pop\n        /* \"#utility.yul\":3500:3533   */\n      tag_422\n        /* \"#utility.yul\":3527:3532   */\n      dup2\n        /* \"#utility.yul\":3500:3533   */\n      tag_321\n      jump\t// in\n    tag_422:\n        /* \"#utility.yul\":3400:3539   */\n      swap3\n      swap2\n      pop\n      pop\n      jump\t// out\n        /* \"#utility.yul\":3545:4019   */\n    tag_31:\n        /* \"#utility.yul\":3613:3619   */\n      0x00\n        /* \"#utility.yul\":3621:3627   */\n      dup1\n        /* \"#utility.yul\":3670:3672   */\n      0x40\n        /* \"#utility.yul\":3658:3667   */\n      dup4\n        /* \"#utility.yul\":3649:3656   */\n      dup6\n        /* \"#utility.yul\":3645:3668   */\n      sub\n        /* \"#utility.yul\":3641:3673   */\n      slt\n        /* \"#utility.yul\":3638:3757   */\n      iszero\n      tag_424\n      jumpi\n        /* \"#utility.yul\":3676:3755   */\n      tag_425\n      tag_307\n      jump\t// in\n    tag_425:\n        /* \"#utility.yul\":3638:3757   */\n    tag_424:\n        /* \"#utility.yul\":3796:3797   */\n      0x00\n        /* \"#utility.yul\":3821:3874   */\n      tag_426\n        /* \"#utility.yul\":3866:3873   */\n      dup6\n        /* \"#utility.yul\":3857:3863   */\n      dup3\n        /* \"#utility.yul\":3846:3855   */\n      dup7\n        /* \"#utility.yul\":3842:3864   */\n      add\n        /* \"#utility.yul\":3821:3874   */\n      tag_312\n      jump\t// in\n    tag_426:\n        /* \"#utility.yul\":3811:3874   */\n      swap3\n      pop\n        /* \"#utility.yul\":3767:3884   */\n      pop\n        /* \"#utility.yul\":3923:3925   */\n      0x20\n        /* \"#utility.yul\":3949:4002   */\n      tag_427\n        /* \"#utility.yul\":3994:4001   */\n      dup6\n        /* \"#utility.yul\":3985:3991   */\n      dup3\n        /* \"#utility.yul\":3974:3983   */\n      dup7\n        /* \"#utility.yul\":3970:3992   */\n      add\n        /* \"#utility.yul\":3949:4002   */\n      tag_322\n      jump\t// in\n    tag_427:\n        /* \"#utility.yul\":3939:4002   */\n      swap2\n      pop\n        /* \"#utility.yul\":3894:4012   */\n      pop\n        /* \"#utility.yul\":3545:4019   */\n      swap3\n      pop\n      swap3\n      swap1\n      pop\n      jump\t// out\n        /* \"#utility.yul\":4025:4143   */\n    tag_323:\n        /* \"#utility.yul\":4112:4136   */\n      tag_429\n        /* \"#utility.yul\":4130:4135   */\n      dup2\n        /* \"#utility.yul\":4112:4136   */\n      tag_316\n      jump\t// in\n    tag_429:\n        /* \"#utility.yul\":4107:4110   */\n      dup3\n        /* \"#utility.yul\":4100:4137   */\n      mstore\n        /* \"#utility.yul\":4025:4143   */\n      pop\n      pop\n      jump\t// out\n        /* \"#utility.yul\":4149:4371   */\n    tag_34:\n        /* \"#utility.yul\":4242:4246   */\n      0x00\n        /* \"#utility.yul\":4280:4282   */\n      0x20\n        /* \"#utility.yul\":4269:4278   */\n      dup3\n        /* \"#utility.yul\":4265:4283   */\n      add\n        /* \"#utility.yul\":4257:4283   */\n      swap1\n      pop\n        /* \"#utility.yul\":4293:4364   */\n      tag_431\n        /* \"#utility.yul\":4361:4362   */\n      0x00\n        /* \"#utility.yul\":4350:4359   */\n      dup4\n        /* \"#utility.yul\":4346:4363   */\n      add\n        /* \"#utility.yul\":4337:4343   */\n      dup5\n        /* \"#utility.yul\":4293:4364   */\n      tag_323\n      jump\t// in\n    tag_431:\n        /* \"#utility.yul\":4149:4371   */\n      swap3\n      swap2\n      pop\n      pop\n      jump\t// out\n        /* \"#utility.yul\":4377:4494   */\n    tag_324:\n        /* \"#utility.yul\":4486:4487   */\n      0x00\n        /* \"#utility.yul\":4483:4484   */\n      dup1\n        /* \"#utility.yul\":4476:4488   */\n      revert\n        /* \"#utility.yul\":4500:4617   */\n    tag_325:\n        /* \"#utility.yul\":4609:4610   */\n      0x00\n        /* \"#utility.yul\":4606:4607   */\n      dup1\n        /* \"#utility.yul\":4599:4611   */\n      revert\n        /* \"#utility.yul\":4623:4725   */\n    tag_326:\n        /* \"#utility.yul\":4664:4670   */\n      0x00\n        /* \"#utility.yul\":4715:4717   */\n      0x1f\n        /* \"#utility.yul\":4711:4718   */\n      not\n        /* \"#utility.yul\":4706:4708   */\n      0x1f\n        /* \"#utility.yul\":4699:4704   */\n      dup4\n        /* \"#utility.yul\":4695:4709   */\n      add\n        /* \"#utility.yul\":4691:4719   */\n      and\n        /* \"#utility.yul\":4681:4719   */\n      swap1\n      pop\n        /* \"#utility.yul\":4623:4725   */\n      swap2\n      swap1\n      pop\n      jump\t// out\n        /* \"#utility.yul\":4731:4911   */\n    tag_327:\n        /* \"#utility.yul\":4779:4856   */\n      0x4e487b7100000000000000000000000000000000000000000000000000000000\n        /* \"#utility.yul\":4776:4777   */\n      0x00\n        /* \"#utility.yul\":4769:4857   */\n      mstore\n        /* \"#utility.yul\":4876:4880   */\n      0x41\n        /* \"#utility.yul\":4873:4874   */\n      0x04\n        /* \"#utility.yul\":4866:4881   */\n      mstore\n        /* \"#utility.yul\":4900:4904   */\n      0x24\n        /* \"#utility.yul\":4897:4898   */\n      0x00\n        /* \"#utility.yul\":4890:4905   */\n      revert\n        /* \"#utility.yul\":4917:5198   */\n    tag_328:\n        /* \"#utility.yul\":5000:5027   */\n      tag_437\n        /* \"#utility.yul\":5022:5026   */\n      dup3\n        /* \"#utility.yul\":5000:5027   */\n      tag_326\n      jump\t// in\n    tag_437:\n        /* \"#utility.yul\":4992:4998   */\n      dup2\n        /* \"#utility.yul\":4988:5028   */\n      add\n        /* \"#utility.yul\":5130:5136   */\n      dup2\n        /* \"#utility.yul\":5118:5128   */\n      dup2\n        /* \"#utility.yul\":5115:5137   */\n      lt\n        /* \"#utility.yul\":5094:5112   */\n      0xffffffffffffffff\n        /* \"#utility.yul\":5082:5092   */\n      dup3\n        /* \"#utility.yul\":5079:5113   */\n      gt\n        /* \"#utility.yul\":5076:5138   */\n      or\n        /* \"#utility.yul\":5073:5161   */\n      iszero\n      tag_438\n      jumpi\n        /* \"#utility.yul\":5141:5159   */\n      tag_439\n      tag_327\n      jump\t// in\n    tag_439:\n        /* \"#utility.yul\":5073:5161   */\n    tag_438:\n        /* \"#utility.yul\":5181:5191   */\n      dup1\n        /* \"#utility.yul\":5177:5179   */\n      0x40\n        /* \"#utility.yul\":5170:5192   */\n      mstore\n        /* \"#utility.yul\":4960:5198   */\n      pop\n        /* \"#utility.yul\":4917:5198   */\n      pop\n      pop\n      jump\t// out\n        /* \"#utility.yul\":5204:5333   */\n    tag_329:\n        /* \"#utility.yul\":5238:5244   */\n      0x00\n        /* \"#utility.yul\":5265:5285   */\n      tag_441\n      tag_306\n      jump\t// in\n    tag_441:\n        /* \"#utility.yul\":5255:5285   */\n      swap1\n      pop\n        /* \"#utility.yul\":5294:5327   */\n      tag_442\n        /* \"#utility.yul\":5322:5326   */\n      dup3\n        /* \"#utility.yul\":5314:5320   */\n      dup3\n        /* \"#utility.yul\":5294:5327   */\n      tag_328\n      jump\t// in\n    tag_442:\n        /* \"#utility.yul\":5204:5333   */\n      swap2\n      swap1\n      pop\n      jump\t// out\n        /* \"#utility.yul\":5339:5647   */\n    tag_330:\n        /* \"#utility.yul\":5401:5405   */\n      0x00\n        /* \"#utility.yul\":5491:5509   */\n      0xffffffffffffffff\n        /* \"#utility.yul\":5483:5489   */\n      dup3\n        /* \"#utility.yul\":5480:5510   */\n      gt\n        /* \"#utility.yul\":5477:5533   */\n      iszero\n      tag_444\n      jumpi\n        /* \"#utility.yul\":5513:5531   */\n      tag_445\n      tag_327\n      jump\t// in\n    tag_445:\n        /* \"#utility.yul\":5477:5533   */\n    tag_444:\n        /* \"#utility.yul\":5551:5580   */\n      tag_446\n        /* \"#utility.yul\":5573:5579   */\n      dup3\n        /* \"#utility.yul\":5551:5580   */\n      tag_326\n      jump\t// in\n    tag_446:\n        /* \"#utility.yul\":5543:5580   */\n      swap1\n      pop\n        /* \"#utility.yul\":5635:5639   */\n      0x20\n        /* \"#utility.yul\":5629:5633   */\n      dup2\n        /* \"#utility.yul\":5625:5640   */\n      add\n        /* \"#utility.yul\":5617:5640   */\n      swap1\n      pop\n        /* \"#utility.yul\":5339:5647   */\n      swap2\n      swap1\n      pop\n      jump\t// out\n        /* \"#utility.yul\":5653:5801   */\n    tag_331:\n        /* \"#utility.yul\":5751:5757   */\n      dup3\n        /* \"#utility.yul\":5746:5749   */\n      dup2\n        /* \"#utility.yul\":5741:5744   */\n      dup4\n        /* \"#utility.yul\":5728:5758   */\n      calldatacopy\n        /* \"#utility.yul\":5792:5793   */\n      0x00\n        /* \"#utility.yul\":5783:5789   */\n      dup4\n        /* \"#utility.yul\":5778:5781   */\n      dup4\n        /* \"#utility.yul\":5774:5790   */\n      add\n        /* \"#utility.yul\":5767:5794   */\n      mstore\n        /* \"#utility.yul\":5653:5801   */\n      pop\n      pop\n      pop\n      jump\t// out\n        /* \"#utility.yul\":5807:6232   */\n    tag_332:\n        /* \"#utility.yul\":5885:5890   */\n      0x00\n        /* \"#utility.yul\":5910:5976   */\n      tag_449\n        /* \"#utility.yul\":5926:5975   */\n      tag_450\n        /* \"#utility.yul\":5968:5974   */\n      dup5\n        /* \"#utility.yul\":5926:5975   */\n      tag_330\n      jump\t// in\n    tag_450:\n        /* \"#utility.yul\":5910:5976   */\n      tag_329\n      jump\t// in\n    tag_449:\n        /* \"#utility.yul\":5901:5976   */\n      swap1\n      pop\n        /* \"#utility.yul\":5999:6005   */\n      dup3\n        /* \"#utility.yul\":5992:5997   */\n      dup2\n        /* \"#utility.yul\":5985:6006   */\n      mstore\n        /* \"#utility.yul\":6037:6041   */\n      0x20\n        /* \"#utility.yul\":6030:6035   */\n      dup2\n        /* \"#utility.yul\":6026:6042   */\n      add\n        /* \"#utility.yul\":6075:6078   */\n      dup5\n        /* \"#utility.yul\":6066:6072   */\n      dup5\n        /* \"#utility.yul\":6061:6064   */\n      dup5\n        /* \"#utility.yul\":6057:6073   */\n      add\n        /* \"#utility.yul\":6054:6079   */\n      gt\n        /* \"#utility.yul\":6051:6163   */\n      iszero\n      tag_451\n      jumpi\n        /* \"#utility.yul\":6082:6161   */\n      tag_452\n      tag_325\n      jump\t// in\n    tag_452:\n        /* \"#utility.yul\":6051:6163   */\n    tag_451:\n        /* \"#utility.yul\":6172:6226   */\n      tag_453\n        /* \"#utility.yul\":6219:6225   */\n      dup5\n        /* \"#utility.yul\":6214:6217   */\n      dup3\n        /* \"#utility.yul\":6209:6212   */\n      dup6\n        /* \"#utility.yul\":6172:6226   */\n      tag_331\n      jump\t// in\n    tag_453:\n        /* \"#utility.yul\":5891:6232   */\n      pop\n        /* \"#utility.yul\":5807:6232   */\n      swap4\n      swap3\n      pop\n      pop\n      pop\n      jump\t// out\n        /* \"#utility.yul\":6252:6592   */\n    tag_333:\n        /* \"#utility.yul\":6308:6313   */\n      0x00\n        /* \"#utility.yul\":6357:6360   */\n      dup3\n        /* \"#utility.yul\":6350:6354   */\n      0x1f\n        /* \"#utility.yul\":6342:6348   */\n      dup4\n        /* \"#utility.yul\":6338:6355   */\n      add\n        /* \"#utility.yul\":6334:6361   */\n      slt\n        /* \"#utility.yul\":6324:6446   */\n      tag_455\n      jumpi\n        /* \"#utility.yul\":6365:6444   */\n      tag_456\n      tag_324\n      jump\t// in\n    tag_456:\n        /* \"#utility.yul\":6324:6446   */\n    tag_455:\n        /* \"#utility.yul\":6482:6488   */\n      dup2\n        /* \"#utility.yul\":6469:6489   */\n      calldataload\n        /* \"#utility.yul\":6507:6586   */\n      tag_457\n        /* \"#utility.yul\":6582:6585   */\n      dup5\n        /* \"#utility.yul\":6574:6580   */\n      dup3\n        /* \"#utility.yul\":6567:6571   */\n      0x20\n        /* \"#utility.yul\":6559:6565   */\n      dup7\n        /* \"#utility.yul\":6555:6572   */\n      add\n        /* \"#utility.yul\":6507:6586   */\n      tag_332\n      jump\t// in\n    tag_457:\n        /* \"#utility.yul\":6498:6586   */\n      swap2\n      pop\n        /* \"#utility.yul\":6314:6592   */\n      pop\n        /* \"#utility.yul\":6252:6592   */\n      swap3\n      swap2\n      pop\n      pop\n      jump\t// out\n        /* \"#utility.yul\":6598:6675   */\n    tag_334:\n        /* \"#utility.yul\":6635:6642   */\n      0x00\n        /* \"#utility.yul\":6664:6669   */\n      dup2\n        /* \"#utility.yul\":6653:6669   */\n      swap1\n      pop\n        /* \"#utility.yul\":6598:6675   */\n      swap2\n      swap1\n      pop\n      jump\t// out\n        /* \"#utility.yul\":6681:6803   */\n    tag_335:\n        /* \"#utility.yul\":6754:6778   */\n      tag_460\n        /* \"#utility.yul\":6772:6777   */\n      dup2\n        /* \"#utility.yul\":6754:6778   */\n      tag_334\n      jump\t// in\n    tag_460:\n        /* \"#utility.yul\":6747:6752   */\n      dup2\n        /* \"#utility.yul\":6744:6779   */\n      eq\n        /* \"#utility.yul\":6734:6797   */\n      tag_461\n      jumpi\n        /* \"#utility.yul\":6793:6794   */\n      0x00\n        /* \"#utility.yul\":6790:6791   */\n      dup1\n        /* \"#utility.yul\":6783:6795   */\n      revert\n        /* \"#utility.yul\":6734:6797   */\n    tag_461:\n        /* \"#utility.yul\":6681:6803   */\n      pop\n      jump\t// out\n        /* \"#utility.yul\":6809:6948   */\n    tag_336:\n        /* \"#utility.yul\":6855:6860   */\n      0x00\n        /* \"#utility.yul\":6893:6899   */\n      dup2\n        /* \"#utility.yul\":6880:6900   */\n      calldataload\n        /* \"#utility.yul\":6871:6900   */\n      swap1\n      pop\n        /* \"#utility.yul\":6909:6942   */\n      tag_463\n        /* \"#utility.yul\":6936:6941   */\n      dup2\n        /* \"#utility.yul\":6909:6942   */\n      tag_335\n      jump\t// in\n    tag_463:\n        /* \"#utility.yul\":6809:6948   */\n      swap3\n      swap2\n      pop\n      pop\n      jump\t// out\n        /* \"#utility.yul\":6954:7753   */\n    tag_37:\n        /* \"#utility.yul\":7041:7047   */\n      0x00\n        /* \"#utility.yul\":7049:7055   */\n      dup1\n        /* \"#utility.yul\":7057:7063   */\n      0x00\n        /* \"#utility.yul\":7106:7108   */\n      0x60\n        /* \"#utility.yul\":7094:7103   */\n      dup5\n        /* \"#utility.yul\":7085:7092   */\n      dup7\n        /* \"#utility.yul\":7081:7104   */\n      sub\n        /* \"#utility.yul\":7077:7109   */\n      slt\n        /* \"#utility.yul\":7074:7193   */\n      iszero\n      tag_465\n      jumpi\n        /* \"#utility.yul\":7112:7191   */\n      tag_466\n      tag_307\n      jump\t// in\n    tag_466:\n        /* \"#utility.yul\":7074:7193   */\n    tag_465:\n        /* \"#utility.yul\":7232:7233   */\n      0x00\n        /* \"#utility.yul\":7257:7310   */\n      tag_467\n        /* \"#utility.yul\":7302:7309   */\n      dup7\n        /* \"#utility.yul\":7293:7299   */\n      dup3\n        /* \"#utility.yul\":7282:7291   */\n      dup8\n        /* \"#utility.yul\":7278:7300   */\n      add\n        /* \"#utility.yul\":7257:7310   */\n      tag_322\n      jump\t// in\n    tag_467:\n        /* \"#utility.yul\":7247:7310   */\n      swap4\n      pop\n        /* \"#utility.yul\":7203:7320   */\n      pop\n        /* \"#utility.yul\":7387:7389   */\n      0x20\n        /* \"#utility.yul\":7376:7385   */\n      dup5\n        /* \"#utility.yul\":7372:7390   */\n      add\n        /* \"#utility.yul\":7359:7391   */\n      calldataload\n        /* \"#utility.yul\":7418:7436   */\n      0xffffffffffffffff\n        /* \"#utility.yul\":7410:7416   */\n      dup2\n        /* \"#utility.yul\":7407:7437   */\n      gt\n        /* \"#utility.yul\":7404:7521   */\n      iszero\n      tag_468\n      jumpi\n        /* \"#utility.yul\":7440:7519   */\n      tag_469\n      tag_308\n      jump\t// in\n    tag_469:\n        /* \"#utility.yul\":7404:7521   */\n    tag_468:\n        /* \"#utility.yul\":7545:7608   */\n      tag_470\n        /* \"#utility.yul\":7600:7607   */\n      dup7\n        /* \"#utility.yul\":7591:7597   */\n      dup3\n        /* \"#utility.yul\":7580:7589   */\n      dup8\n        /* \"#utility.yul\":7576:7598   */\n      add\n        /* \"#utility.yul\":7545:7608   */\n      tag_333\n      jump\t// in\n    tag_470:\n        /* \"#utility.yul\":7535:7608   */\n      swap3\n      pop\n        /* \"#utility.yul\":7330:7618   */\n      pop\n        /* \"#utility.yul\":7657:7659   */\n      0x40\n        /* \"#utility.yul\":7683:7736   */\n      tag_471\n        /* \"#utility.yul\":7728:7735   */\n      dup7\n        /* \"#utility.yul\":7719:7725   */\n      dup3\n        /* \"#utility.yul\":7708:7717   */\n      dup8\n        /* \"#utility.yul\":7704:7726   */\n      add\n        /* \"#utility.yul\":7683:7736   */\n      tag_336\n      jump\t// in\n    tag_471:\n        /* \"#utility.yul\":7673:7736   */\n      swap2\n      pop\n        /* \"#utility.yul\":7628:7746   */\n      pop\n        /* \"#utility.yul\":6954:7753   */\n      swap3\n      pop\n      swap3\n      pop\n      swap3\n      jump\t// out\n        /* \"#utility.yul\":7759:7849   */\n    tag_337:\n        /* \"#utility.yul\":7793:7800   */\n      0x00\n        /* \"#utility.yul\":7836:7841   */\n      dup2\n        /* \"#utility.yul\":7829:7842   */\n      iszero\n        /* \"#utility.yul\":7822:7843   */\n      iszero\n        /* \"#utility.yul\":7811:7843   */\n      swap1\n      pop\n        /* \"#utility.yul\":7759:7849   */\n      swap2\n      swap1\n      pop\n      jump\t// out\n        /* \"#utility.yul\":7855:7964   */\n    tag_338:\n        /* \"#utility.yul\":7936:7957   */\n      tag_474\n        /* \"#utility.yul\":7951:7956   */\n      dup2\n        /* \"#utility.yul\":7936:7957   */\n      tag_337\n      jump\t// in\n    tag_474:\n        /* \"#utility.yul\":7931:7934   */\n      dup3\n        /* \"#utility.yul\":7924:7958   */\n      mstore\n        /* \"#utility.yul\":7855:7964   */\n      pop\n      pop\n      jump\t// out\n        /* \"#utility.yul\":7970:8088   */\n    tag_339:\n        /* \"#utility.yul\":8057:8081   */\n      tag_476\n        /* \"#utility.yul\":8075:8080   */\n      dup2\n        /* \"#utility.yul\":8057:8081   */\n      tag_310\n      jump\t// in\n    tag_476:\n        /* \"#utility.yul\":8052:8055   */\n      dup3\n        /* \"#utility.yul\":8045:8082   */\n      mstore\n        /* \"#utility.yul\":7970:8088   */\n      pop\n      pop\n      jump\t// out\n        /* \"#utility.yul\":8094:8193   */\n    tag_340:\n        /* \"#utility.yul\":8146:8152   */\n      0x00\n        /* \"#utility.yul\":8180:8185   */\n      dup2\n        /* \"#utility.yul\":8174:8186   */\n      mload\n        /* \"#utility.yul\":8164:8186   */\n      swap1\n      pop\n        /* \"#utility.yul\":8094:8193   */\n      swap2\n      swap1\n      pop\n      jump\t// out\n        /* \"#utility.yul\":8199:8368   */\n    tag_341:\n        /* \"#utility.yul\":8283:8294   */\n      0x00\n        /* \"#utility.yul\":8317:8323   */\n      dup3\n        /* \"#utility.yul\":8312:8315   */\n      dup3\n        /* \"#utility.yul\":8305:8324   */\n      mstore\n        /* \"#utility.yul\":8357:8361   */\n      0x20\n        /* \"#utility.yul\":8352:8355   */\n      dup3\n        /* \"#utility.yul\":8348:8362   */\n      add\n        /* \"#utility.yul\":8333:8362   */\n      swap1\n      pop\n        /* \"#utility.yul\":8199:8368   */\n      swap3\n      swap2\n      pop\n      pop\n      jump\t// out\n        /* \"#utility.yul\":8374:8622   */\n    tag_342:\n        /* \"#utility.yul\":8456:8457   */\n      0x00\n        /* \"#utility.yul\":8466:8579   */\n    tag_480:\n        /* \"#utility.yul\":8480:8486   */\n      dup4\n        /* \"#utility.yul\":8477:8478   */\n      dup2\n        /* \"#utility.yul\":8474:8487   */\n      lt\n        /* \"#utility.yul\":8466:8579   */\n      iszero\n      tag_482\n      jumpi\n        /* \"#utility.yul\":8565:8566   */\n      dup1\n        /* \"#utility.yul\":8560:8563   */\n      dup3\n        /* \"#utility.yul\":8556:8567   */\n      add\n        /* \"#utility.yul\":8550:8568   */\n      mload\n        /* \"#utility.yul\":8546:8547   */\n      dup2\n        /* \"#utility.yul\":8541:8544   */\n      dup5\n        /* \"#utility.yul\":8537:8548   */\n      add\n        /* \"#utility.yul\":8530:8569   */\n      mstore\n        /* \"#utility.yul\":8502:8504   */\n      0x20\n        /* \"#utility.yul\":8499:8500   */\n      dup2\n        /* \"#utility.yul\":8495:8505   */\n      add\n        /* \"#utility.yul\":8490:8505   */\n      swap1\n      pop\n        /* \"#utility.yul\":8466:8579   */\n      jump(tag_480)\n    tag_482:\n        /* \"#utility.yul\":8613:8614   */\n      0x00\n        /* \"#utility.yul\":8604:8610   */\n      dup5\n        /* \"#utility.yul\":8599:8602   */\n      dup5\n        /* \"#utility.yul\":8595:8611   */\n      add\n        /* \"#utility.yul\":8588:8615   */\n      mstore\n        /* \"#utility.yul\":8436:8622   */\n      pop\n        /* \"#utility.yul\":8374:8622   */\n      pop\n      pop\n      pop\n      jump\t// out\n        /* \"#utility.yul\":8628:9005   */\n    tag_343:\n        /* \"#utility.yul\":8716:8719   */\n      0x00\n        /* \"#utility.yul\":8744:8783   */\n      tag_484\n        /* \"#utility.yul\":8777:8782   */\n      dup3\n        /* \"#utility.yul\":8744:8783   */\n      tag_340\n      jump\t// in\n    tag_484:\n        /* \"#utility.yul\":8799:8870   */\n      tag_485\n        /* \"#utility.yul\":8863:8869   */\n      dup2\n        /* \"#utility.yul\":8858:8861   */\n      dup6\n        /* \"#utility.yul\":8799:8870   */\n      tag_341\n      jump\t// in\n    tag_485:\n        /* \"#utility.yul\":8792:8870   */\n      swap4\n      pop\n        /* \"#utility.yul\":8879:8944   */\n      tag_486\n        /* \"#utility.yul\":8937:8943   */\n      dup2\n        /* \"#utility.yul\":8932:8935   */\n      dup6\n        /* \"#utility.yul\":8925:8929   */\n      0x20\n        /* \"#utility.yul\":8918:8923   */\n      dup7\n        /* \"#utility.yul\":8914:8930   */\n      add\n        /* \"#utility.yul\":8879:8944   */\n      tag_342\n      jump\t// in\n    tag_486:\n        /* \"#utility.yul\":8969:8998   */\n      tag_487\n        /* \"#utility.yul\":8991:8997   */\n      dup2\n        /* \"#utility.yul\":8969:8998   */\n      tag_326\n      jump\t// in\n    tag_487:\n        /* \"#utility.yul\":8964:8967   */\n      dup5\n        /* \"#utility.yul\":8960:8999   */\n      add\n        /* \"#utility.yul\":8953:8999   */\n      swap2\n      pop\n        /* \"#utility.yul\":8720:9005   */\n      pop\n        /* \"#utility.yul\":8628:9005   */\n      swap3\n      swap2\n      pop\n      pop\n      jump\t// out\n        /* \"#utility.yul\":9011:9845   */\n    tag_40:\n        /* \"#utility.yul\":9250:9254   */\n      0x00\n        /* \"#utility.yul\":9288:9291   */\n      0xa0\n        /* \"#utility.yul\":9277:9286   */\n      dup3\n        /* \"#utility.yul\":9273:9292   */\n      add\n        /* \"#utility.yul\":9265:9292   */\n      swap1\n      pop\n        /* \"#utility.yul\":9302:9367   */\n      tag_489\n        /* \"#utility.yul\":9364:9365   */\n      0x00\n        /* \"#utility.yul\":9353:9362   */\n      dup4\n        /* \"#utility.yul\":9349:9366   */\n      add\n        /* \"#utility.yul\":9340:9346   */\n      dup9\n        /* \"#utility.yul\":9302:9367   */\n      tag_338\n      jump\t// in\n    tag_489:\n        /* \"#utility.yul\":9377:9449   */\n      tag_490\n        /* \"#utility.yul\":9445:9447   */\n      0x20\n        /* \"#utility.yul\":9434:9443   */\n      dup4\n        /* \"#utility.yul\":9430:9448   */\n      add\n        /* \"#utility.yul\":9421:9427   */\n      dup8\n        /* \"#utility.yul\":9377:9449   */\n      tag_339\n      jump\t// in\n    tag_490:\n        /* \"#utility.yul\":9459:9531   */\n      tag_491\n        /* \"#utility.yul\":9527:9529   */\n      0x40\n        /* \"#utility.yul\":9516:9525   */\n      dup4\n        /* \"#utility.yul\":9512:9530   */\n      add\n        /* \"#utility.yul\":9503:9509   */\n      dup7\n        /* \"#utility.yul\":9459:9531   */\n      tag_323\n      jump\t// in\n    tag_491:\n        /* \"#utility.yul\":9578:9587   */\n      dup2\n        /* \"#utility.yul\":9572:9576   */\n      dup2\n        /* \"#utility.yul\":9568:9588   */\n      sub\n        /* \"#utility.yul\":9563:9565   */\n      0x60\n        /* \"#utility.yul\":9552:9561   */\n      dup4\n        /* \"#utility.yul\":9548:9566   */\n      add\n        /* \"#utility.yul\":9541:9589   */\n      mstore\n        /* \"#utility.yul\":9606:9684   */\n      tag_492\n        /* \"#utility.yul\":9679:9683   */\n      dup2\n        /* \"#utility.yul\":9670:9676   */\n      dup6\n        /* \"#utility.yul\":9606:9684   */\n      tag_343\n      jump\t// in\n    tag_492:\n        /* \"#utility.yul\":9598:9684   */\n      swap1\n      pop\n        /* \"#utility.yul\":9732:9741   */\n      dup2\n        /* \"#utility.yul\":9726:9730   */\n      dup2\n        /* \"#utility.yul\":9722:9742   */\n      sub\n        /* \"#utility.yul\":9716:9719   */\n      0x80\n        /* \"#utility.yul\":9705:9714   */\n      dup4\n        /* \"#utility.yul\":9701:9720   */\n      add\n        /* \"#utility.yul\":9694:9743   */\n      mstore\n        /* \"#utility.yul\":9760:9838   */\n      tag_493\n        /* \"#utility.yul\":9833:9837   */\n      dup2\n        /* \"#utility.yul\":9824:9830   */\n      dup5\n        /* \"#utility.yul\":9760:9838   */\n      tag_343\n      jump\t// in\n    tag_493:\n        /* \"#utility.yul\":9752:9838   */\n      swap1\n      pop\n        /* \"#utility.yul\":9011:9845   */\n      swap7\n      swap6\n      pop\n      pop\n      pop\n      pop\n      pop\n      pop\n      jump\t// out\n        /* \"#utility.yul\":9851:10180   */\n    tag_43:\n        /* \"#utility.yul\":9910:9916   */\n      0x00\n        /* \"#utility.yul\":9959:9961   */\n      0x20\n        /* \"#utility.yul\":9947:9956   */\n      dup3\n        /* \"#utility.yul\":9938:9945   */\n      dup5\n        /* \"#utility.yul\":9934:9957   */\n      sub\n        /* \"#utility.yul\":9930:9962   */\n      slt\n        /* \"#utility.yul\":9927:10046   */\n      iszero\n      tag_495\n      jumpi\n        /* \"#utility.yul\":9965:10044   */\n      tag_496\n      tag_307\n      jump\t// in\n    tag_496:\n        /* \"#utility.yul\":9927:10046   */\n    tag_495:\n        /* \"#utility.yul\":10085:10086   */\n      0x00\n        /* \"#utility.yul\":10110:10163   */\n      tag_497\n        /* \"#utility.yul\":10155:10162   */\n      dup5\n        /* \"#utility.yul\":10146:10152   */\n      dup3\n        /* \"#utility.yul\":10135:10144   */\n      dup6\n        /* \"#utility.yul\":10131:10153   */\n      add\n        /* \"#utility.yul\":10110:10163   */\n      tag_322\n      jump\t// in\n    tag_497:\n        /* \"#utility.yul\":10100:10163   */\n      swap2\n      pop\n        /* \"#utility.yul\":10056:10173   */\n      pop\n        /* \"#utility.yul\":9851:10180   */\n      swap3\n      swap2\n      pop\n      pop\n      jump\t// out\n        /* \"#utility.yul\":10186:10304   */\n    tag_344:\n        /* \"#utility.yul\":10273:10297   */\n      tag_499\n        /* \"#utility.yul\":10291:10296   */\n      dup2\n        /* \"#utility.yul\":10273:10297   */\n      tag_334\n      jump\t// in\n    tag_499:\n        /* \"#utility.yul\":10268:10271   */\n      dup3\n        /* \"#utility.yul\":10261:10298   */\n      mstore\n        /* \"#utility.yul\":10186:10304   */\n      pop\n      pop\n      jump\t// out\n        /* \"#utility.yul\":10310:11560   */\n    tag_46:\n        /* \"#utility.yul\":10651:10655   */\n      0x00\n        /* \"#utility.yul\":10689:10692   */\n      0xe0\n        /* \"#utility.yul\":10678:10687   */\n      dup3\n        /* \"#utility.yul\":10674:10693   */\n      add\n        /* \"#utility.yul\":10666:10693   */\n      swap1\n      pop\n        /* \"#utility.yul\":10739:10748   */\n      dup2\n        /* \"#utility.yul\":10733:10737   */\n      dup2\n        /* \"#utility.yul\":10729:10749   */\n      sub\n        /* \"#utility.yul\":10725:10726   */\n      0x00\n        /* \"#utility.yul\":10714:10723   */\n      dup4\n        /* \"#utility.yul\":10710:10727   */\n      add\n        /* \"#utility.yul\":10703:10750   */\n      mstore\n        /* \"#utility.yul\":10767:10845   */\n      tag_501\n        /* \"#utility.yul\":10840:10844   */\n      dup2\n        /* \"#utility.yul\":10831:10837   */\n      dup11\n        /* \"#utility.yul\":10767:10845   */\n      tag_343\n      jump\t// in\n    tag_501:\n        /* \"#utility.yul\":10759:10845   */\n      swap1\n      pop\n        /* \"#utility.yul\":10892:10901   */\n      dup2\n        /* \"#utility.yul\":10886:10890   */\n      dup2\n        /* \"#utility.yul\":10882:10902   */\n      sub\n        /* \"#utility.yul\":10877:10879   */\n      0x20\n        /* \"#utility.yul\":10866:10875   */\n      dup4\n        /* \"#utility.yul\":10862:10880   */\n      add\n        /* \"#utility.yul\":10855:10903   */\n      mstore\n        /* \"#utility.yul\":10920:10998   */\n      tag_502\n        /* \"#utility.yul\":10993:10997   */\n      dup2\n        /* \"#utility.yul\":10984:10990   */\n      dup10\n        /* \"#utility.yul\":10920:10998   */\n      tag_343\n      jump\t// in\n    tag_502:\n        /* \"#utility.yul\":10912:10998   */\n      swap1\n      pop\n        /* \"#utility.yul\":11045:11054   */\n      dup2\n        /* \"#utility.yul\":11039:11043   */\n      dup2\n        /* \"#utility.yul\":11035:11055   */\n      sub\n        /* \"#utility.yul\":11030:11032   */\n      0x40\n        /* \"#utility.yul\":11019:11028   */\n      dup4\n        /* \"#utility.yul\":11015:11033   */\n      add\n        /* \"#utility.yul\":11008:11056   */\n      mstore\n        /* \"#utility.yul\":11073:11151   */\n      tag_503\n        /* \"#utility.yul\":11146:11150   */\n      dup2\n        /* \"#utility.yul\":11137:11143   */\n      dup9\n        /* \"#utility.yul\":11073:11151   */\n      tag_343\n      jump\t// in\n    tag_503:\n        /* \"#utility.yul\":11065:11151   */\n      swap1\n      pop\n        /* \"#utility.yul\":11198:11207   */\n      dup2\n        /* \"#utility.yul\":11192:11196   */\n      dup2\n        /* \"#utility.yul\":11188:11208   */\n      sub\n        /* \"#utility.yul\":11183:11185   */\n      0x60\n        /* \"#utility.yul\":11172:11181   */\n      dup4\n        /* \"#utility.yul\":11168:11186   */\n      add\n        /* \"#utility.yul\":11161:11209   */\n      mstore\n        /* \"#utility.yul\":11226:11304   */\n      tag_504\n        /* \"#utility.yul\":11299:11303   */\n      dup2\n        /* \"#utility.yul\":11290:11296   */\n      dup8\n        /* \"#utility.yul\":11226:11304   */\n      tag_343\n      jump\t// in\n    tag_504:\n        /* \"#utility.yul\":11218:11304   */\n      swap1\n      pop\n        /* \"#utility.yul\":11314:11387   */\n      tag_505\n        /* \"#utility.yul\":11382:11385   */\n      0x80\n        /* \"#utility.yul\":11371:11380   */\n      dup4\n        /* \"#utility.yul\":11367:11386   */\n      add\n        /* \"#utility.yul\":11358:11364   */\n      dup7\n        /* \"#utility.yul\":11314:11387   */\n      tag_344\n      jump\t// in\n    tag_505:\n        /* \"#utility.yul\":11397:11470   */\n      tag_506\n        /* \"#utility.yul\":11465:11468   */\n      0xa0\n        /* \"#utility.yul\":11454:11463   */\n      dup4\n        /* \"#utility.yul\":11450:11469   */\n      add\n        /* \"#utility.yul\":11441:11447   */\n      dup6\n        /* \"#utility.yul\":11397:11470   */\n      tag_323\n      jump\t// in\n    tag_506:\n        /* \"#utility.yul\":11480:11553   */\n      tag_507\n        /* \"#utility.yul\":11548:11551   */\n      0xc0\n        /* \"#utility.yul\":11537:11546   */\n      dup4\n        /* \"#utility.yul\":11533:11552   */\n      add\n        /* \"#utility.yul\":11524:11530   */\n      dup5\n        /* \"#utility.yul\":11480:11553   */\n      tag_339\n      jump\t// in\n    tag_507:\n        /* \"#utility.yul\":10310:11560   */\n      swap9\n      swap8\n      pop\n      pop\n      pop\n      pop\n      pop\n      pop\n      pop\n      pop\n      jump\t// out\n        /* \"#utility.yul\":11566:12040   */\n    tag_53:\n        /* \"#utility.yul\":11634:11640   */\n      0x00\n        /* \"#utility.yul\":11642:11648   */\n      dup1\n        /* \"#utility.yul\":11691:11693   */\n      0x40\n        /* \"#utility.yul\":11679:11688   */\n      dup4\n        /* \"#utility.yul\":11670:11677   */\n      dup6\n        /* \"#utility.yul\":11666:11689   */\n      sub\n        /* \"#utility.yul\":11662:11694   */\n      slt\n        /* \"#utility.yul\":11659:11778   */\n      iszero\n      tag_509\n      jumpi\n        /* \"#utility.yul\":11697:11776   */\n      tag_510\n      tag_307\n      jump\t// in\n    tag_510:\n        /* \"#utility.yul\":11659:11778   */\n    tag_509:\n        /* \"#utility.yul\":11817:11818   */\n      0x00\n        /* \"#utility.yul\":11842:11895   */\n      tag_511\n        /* \"#utility.yul\":11887:11894   */\n      dup6\n        /* \"#utility.yul\":11878:11884   */\n      dup3\n        /* \"#utility.yul\":11867:11876   */\n      dup7\n        /* \"#utility.yul\":11863:11885   */\n      add\n        /* \"#utility.yul\":11842:11895   */\n      tag_322\n      jump\t// in\n    tag_511:\n        /* \"#utility.yul\":11832:11895   */\n      swap3\n      pop\n        /* \"#utility.yul\":11788:11905   */\n      pop\n        /* \"#utility.yul\":11944:11946   */\n      0x20\n        /* \"#utility.yul\":11970:12023   */\n      tag_512\n        /* \"#utility.yul\":12015:12022   */\n      dup6\n        /* \"#utility.yul\":12006:12012   */\n      dup3\n        /* \"#utility.yul\":11995:12004   */\n      dup7\n        /* \"#utility.yul\":11991:12013   */\n      add\n        /* \"#utility.yul\":11970:12023   */\n      tag_312\n      jump\t// in\n    tag_512:\n        /* \"#utility.yul\":11960:12023   */\n      swap2\n      pop\n        /* \"#utility.yul\":11915:12033   */\n      pop\n        /* \"#utility.yul\":11566:12040   */\n      swap3\n      pop\n      swap3\n      swap1\n      pop\n      jump\t// out\n        /* \"#utility.yul\":12046:12575   */\n    tag_56:\n        /* \"#utility.yul\":12211:12215   */\n      0x00\n        /* \"#utility.yul\":12249:12252   */\n      0x80\n        /* \"#utility.yul\":12238:12247   */\n      dup3\n        /* \"#utility.yul\":12234:12253   */\n      add\n        /* \"#utility.yul\":12226:12253   */\n      swap1\n      pop\n        /* \"#utility.yul\":12263:12328   */\n      tag_514\n        /* \"#utility.yul\":12325:12326   */\n      0x00\n        /* \"#utility.yul\":12314:12323   */\n      dup4\n        /* \"#utility.yul\":12310:12327   */\n      add\n        /* \"#utility.yul\":12301:12307   */\n      dup8\n        /* \"#utility.yul\":12263:12328   */\n      tag_338\n      jump\t// in\n    tag_514:\n        /* \"#utility.yul\":12338:12410   */\n      tag_515\n        /* \"#utility.yul\":12406:12408   */\n      0x20\n        /* \"#utility.yul\":12395:12404   */\n      dup4\n        /* \"#utility.yul\":12391:12409   */\n      add\n        /* \"#utility.yul\":12382:12388   */\n      dup7\n        /* \"#utility.yul\":12338:12410   */\n      tag_323\n      jump\t// in\n    tag_515:\n        /* \"#utility.yul\":12420:12492   */\n      tag_516\n        /* \"#utility.yul\":12488:12490   */\n      0x40\n        /* \"#utility.yul\":12477:12486   */\n      dup4\n        /* \"#utility.yul\":12473:12491   */\n      add\n        /* \"#utility.yul\":12464:12470   */\n      dup6\n        /* \"#utility.yul\":12420:12492   */\n      tag_323\n      jump\t// in\n    tag_516:\n        /* \"#utility.yul\":12502:12568   */\n      tag_517\n        /* \"#utility.yul\":12564:12566   */\n      0x60\n        /* \"#utility.yul\":12553:12562   */\n      dup4\n        /* \"#utility.yul\":12549:12567   */\n      add\n        /* \"#utility.yul\":12540:12546   */\n      dup5\n        /* \"#utility.yul\":12502:12568   */\n      tag_338\n      jump\t// in\n    tag_517:\n        /* \"#utility.yul\":12046:12575   */\n      swap6\n      swap5\n      pop\n      pop\n      pop\n      pop\n      pop\n      jump\t// out\n        /* \"#utility.yul\":12581:13011   */\n    tag_61:\n        /* \"#utility.yul\":12724:12728   */\n      0x00\n        /* \"#utility.yul\":12762:12764   */\n      0x60\n        /* \"#utility.yul\":12751:12760   */\n      dup3\n        /* \"#utility.yul\":12747:12765   */\n      add\n        /* \"#utility.yul\":12739:12765   */\n      swap1\n      pop\n        /* \"#utility.yul\":12775:12840   */\n      tag_519\n        /* \"#utility.yul\":12837:12838   */\n      0x00\n        /* \"#utility.yul\":12826:12835   */\n      dup4\n        /* \"#utility.yul\":12822:12839   */\n      add\n        /* \"#utility.yul\":12813:12819   */\n      dup7\n        /* \"#utility.yul\":12775:12840   */\n      tag_338\n      jump\t// in\n    tag_519:\n        /* \"#utility.yul\":12850:12922   */\n      tag_520\n        /* \"#utility.yul\":12918:12920   */\n      0x20\n        /* \"#utility.yul\":12907:12916   */\n      dup4\n        /* \"#utility.yul\":12903:12921   */\n      add\n        /* \"#utility.yul\":12894:12900   */\n      dup6\n        /* \"#utility.yul\":12850:12922   */\n      tag_323\n      jump\t// in\n    tag_520:\n        /* \"#utility.yul\":12932:13004   */\n      tag_521\n        /* \"#utility.yul\":13000:13002   */\n      0x40\n        /* \"#utility.yul\":12989:12998   */\n      dup4\n        /* \"#utility.yul\":12985:13003   */\n      add\n        /* \"#utility.yul\":12976:12982   */\n      dup5\n        /* \"#utility.yul\":12932:13004   */\n      tag_323\n      jump\t// in\n    tag_521:\n        /* \"#utility.yul\":12581:13011   */\n      swap5\n      swap4\n      pop\n      pop\n      pop\n      pop\n      jump\t// out\n        /* \"#utility.yul\":13017:14648   */\n    tag_64:\n        /* \"#utility.yul\":13152:13158   */\n      0x00\n        /* \"#utility.yul\":13160:13166   */\n      dup1\n        /* \"#utility.yul\":13168:13174   */\n      0x00\n        /* \"#utility.yul\":13176:13182   */\n      dup1\n        /* \"#utility.yul\":13184:13190   */\n      0x00\n        /* \"#utility.yul\":13233:13236   */\n      0xa0\n        /* \"#utility.yul\":13221:13230   */\n      dup7\n        /* \"#utility.yul\":13212:13219   */\n      dup9\n        /* \"#utility.yul\":13208:13231   */\n      sub\n        /* \"#utility.yul\":13204:13237   */\n      slt\n        /* \"#utility.yul\":13201:13321   */\n      iszero\n      tag_523\n      jumpi\n        /* \"#utility.yul\":13240:13319   */\n      tag_524\n      tag_307\n      jump\t// in\n    tag_524:\n        /* \"#utility.yul\":13201:13321   */\n    tag_523:\n        /* \"#utility.yul\":13388:13389   */\n      0x00\n        /* \"#utility.yul\":13377:13386   */\n      dup7\n        /* \"#utility.yul\":13373:13390   */\n      add\n        /* \"#utility.yul\":13360:13391   */\n      calldataload\n        /* \"#utility.yul\":13418:13436   */\n      0xffffffffffffffff\n        /* \"#utility.yul\":13410:13416   */\n      dup2\n        /* \"#utility.yul\":13407:13437   */\n      gt\n        /* \"#utility.yul\":13404:13521   */\n      iszero\n      tag_525\n      jumpi\n        /* \"#utility.yul\":13440:13519   */\n      tag_526\n      tag_308\n      jump\t// in\n    tag_526:\n        /* \"#utility.yul\":13404:13521   */\n    tag_525:\n        /* \"#utility.yul\":13545:13608   */\n      tag_527\n        /* \"#utility.yul\":13600:13607   */\n      dup9\n        /* \"#utility.yul\":13591:13597   */\n      dup3\n        /* \"#utility.yul\":13580:13589   */\n      dup10\n        /* \"#utility.yul\":13576:13598   */\n      add\n        /* \"#utility.yul\":13545:13608   */\n      tag_333\n      jump\t// in\n    tag_527:\n        /* \"#utility.yul\":13535:13608   */\n      swap6\n      pop\n        /* \"#utility.yul\":13331:13618   */\n      pop\n        /* \"#utility.yul\":13685:13687   */\n      0x20\n        /* \"#utility.yul\":13674:13683   */\n      dup7\n        /* \"#utility.yul\":13670:13688   */\n      add\n        /* \"#utility.yul\":13657:13689   */\n      calldataload\n        /* \"#utility.yul\":13716:13734   */\n      0xffffffffffffffff\n        /* \"#utility.yul\":13708:13714   */\n      dup2\n        /* \"#utility.yul\":13705:13735   */\n      gt\n        /* \"#utility.yul\":13702:13819   */\n      iszero\n      tag_528\n      jumpi\n        /* \"#utility.yul\":13738:13817   */\n      tag_529\n      tag_308\n      jump\t// in\n    tag_529:\n        /* \"#utility.yul\":13702:13819   */\n    tag_528:\n        /* \"#utility.yul\":13843:13906   */\n      tag_530\n        /* \"#utility.yul\":13898:13905   */\n      dup9\n        /* \"#utility.yul\":13889:13895   */\n      dup3\n        /* \"#utility.yul\":13878:13887   */\n      dup10\n        /* \"#utility.yul\":13874:13896   */\n      add\n        /* \"#utility.yul\":13843:13906   */\n      tag_333\n      jump\t// in\n    tag_530:\n        /* \"#utility.yul\":13833:13906   */\n      swap5\n      pop\n        /* \"#utility.yul\":13628:13916   */\n      pop\n        /* \"#utility.yul\":13983:13985   */\n      0x40\n        /* \"#utility.yul\":13972:13981   */\n      dup7\n        /* \"#utility.yul\":13968:13986   */\n      add\n        /* \"#utility.yul\":13955:13987   */\n      calldataload\n        /* \"#utility.yul\":14014:14032   */\n      0xffffffffffffffff\n        /* \"#utility.yul\":14006:14012   */\n      dup2\n        /* \"#utility.yul\":14003:14033   */\n      gt\n        /* \"#utility.yul\":14000:14117   */\n      iszero\n      tag_531\n      jumpi\n        /* \"#utility.yul\":14036:14115   */\n      tag_532\n      tag_308\n      jump\t// in\n    tag_532:\n        /* \"#utility.yul\":14000:14117   */\n    tag_531:\n        /* \"#utility.yul\":14141:14204   */\n      tag_533\n        /* \"#utility.yul\":14196:14203   */\n      dup9\n        /* \"#utility.yul\":14187:14193   */\n      dup3\n        /* \"#utility.yul\":14176:14185   */\n      dup10\n        /* \"#utility.yul\":14172:14194   */\n      add\n        /* \"#utility.yul\":14141:14204   */\n      tag_333\n      jump\t// in\n    tag_533:\n        /* \"#utility.yul\":14131:14204   */\n      swap4\n      pop\n        /* \"#utility.yul\":13926:14214   */\n      pop\n        /* \"#utility.yul\":14281:14283   */\n      0x60\n        /* \"#utility.yul\":14270:14279   */\n      dup7\n        /* \"#utility.yul\":14266:14284   */\n      add\n        /* \"#utility.yul\":14253:14285   */\n      calldataload\n        /* \"#utility.yul\":14312:14330   */\n      0xffffffffffffffff\n        /* \"#utility.yul\":14304:14310   */\n      dup2\n        /* \"#utility.yul\":14301:14331   */\n      gt\n        /* \"#utility.yul\":14298:14415   */\n      iszero\n      tag_534\n      jumpi\n        /* \"#utility.yul\":14334:14413   */\n      tag_535\n      tag_308\n      jump\t// in\n    tag_535:\n        /* \"#utility.yul\":14298:14415   */\n    tag_534:\n        /* \"#utility.yul\":14439:14502   */\n      tag_536\n        /* \"#utility.yul\":14494:14501   */\n      dup9\n        /* \"#utility.yul\":14485:14491   */\n      dup3\n        /* \"#utility.yul\":14474:14483   */\n      dup10\n        /* \"#utility.yul\":14470:14492   */\n      add\n        /* \"#utility.yul\":14439:14502   */\n      tag_333\n      jump\t// in\n    tag_536:\n        /* \"#utility.yul\":14429:14502   */\n      swap3\n      pop\n        /* \"#utility.yul\":14224:14512   */\n      pop\n        /* \"#utility.yul\":14551:14554   */\n      0x80\n        /* \"#utility.yul\":14578:14631   */\n      tag_537\n        /* \"#utility.yul\":14623:14630   */\n      dup9\n        /* \"#utility.yul\":14614:14620   */\n      dup3\n        /* \"#utility.yul\":14603:14612   */\n      dup10\n        /* \"#utility.yul\":14599:14621   */\n      add\n        /* \"#utility.yul\":14578:14631   */\n      tag_336\n      jump\t// in\n    tag_537:\n        /* \"#utility.yul\":14568:14631   */\n      swap2\n      pop\n        /* \"#utility.yul\":14522:14641   */\n      pop\n        /* \"#utility.yul\":13017:14648   */\n      swap3\n      swap6\n      pop\n      swap3\n      swap6\n      swap1\n      swap4\n      pop\n      jump\t// out\n        /* \"#utility.yul\":14654:16003   */\n    tag_77:\n        /* \"#utility.yul\":15017:15021   */\n      0x00\n        /* \"#utility.yul\":15055:15058   */\n      0x0100\n        /* \"#utility.yul\":15044:15053   */\n      dup3\n        /* \"#utility.yul\":15040:15059   */\n      add\n        /* \"#utility.yul\":15032:15059   */\n      swap1\n      pop\n        /* \"#utility.yul\":15105:15114   */\n      dup2\n        /* \"#utility.yul\":15099:15103   */\n      dup2\n        /* \"#utility.yul\":15095:15115   */\n      sub\n        /* \"#utility.yul\":15091:15092   */\n      0x00\n        /* \"#utility.yul\":15080:15089   */\n      dup4\n        /* \"#utility.yul\":15076:15093   */\n      add\n        /* \"#utility.yul\":15069:15116   */\n      mstore\n        /* \"#utility.yul\":15133:15211   */\n      tag_539\n        /* \"#utility.yul\":15206:15210   */\n      dup2\n        /* \"#utility.yul\":15197:15203   */\n      dup12\n        /* \"#utility.yul\":15133:15211   */\n      tag_343\n      jump\t// in\n    tag_539:\n        /* \"#utility.yul\":15125:15211   */\n      swap1\n      pop\n        /* \"#utility.yul\":15258:15267   */\n      dup2\n        /* \"#utility.yul\":15252:15256   */\n      dup2\n        /* \"#utility.yul\":15248:15268   */\n      sub\n        /* \"#utility.yul\":15243:15245   */\n      0x20\n        /* \"#utility.yul\":15232:15241   */\n      dup4\n        /* \"#utility.yul\":15228:15246   */\n      add\n        /* \"#utility.yul\":15221:15269   */\n      mstore\n        /* \"#utility.yul\":15286:15364   */\n      tag_540\n        /* \"#utility.yul\":15359:15363   */\n      dup2\n        /* \"#utility.yul\":15350:15356   */\n      dup11\n        /* \"#utility.yul\":15286:15364   */\n      tag_343\n      jump\t// in\n    tag_540:\n        /* \"#utility.yul\":15278:15364   */\n      swap1\n      pop\n        /* \"#utility.yul\":15411:15420   */\n      dup2\n        /* \"#utility.yul\":15405:15409   */\n      dup2\n        /* \"#utility.yul\":15401:15421   */\n      sub\n        /* \"#utility.yul\":15396:15398   */\n      0x40\n        /* \"#utility.yul\":15385:15394   */\n      dup4\n        /* \"#utility.yul\":15381:15399   */\n      add\n        /* \"#utility.yul\":15374:15422   */\n      mstore\n        /* \"#utility.yul\":15439:15517   */\n      tag_541\n        /* \"#utility.yul\":15512:15516   */\n      dup2\n        /* \"#utility.yul\":15503:15509   */\n      dup10\n        /* \"#utility.yul\":15439:15517   */\n      tag_343\n      jump\t// in\n    tag_541:\n        /* \"#utility.yul\":15431:15517   */\n      swap1\n      pop\n        /* \"#utility.yul\":15564:15573   */\n      dup2\n        /* \"#utility.yul\":15558:15562   */\n      dup2\n        /* \"#utility.yul\":15554:15574   */\n      sub\n        /* \"#utility.yul\":15549:15551   */\n      0x60\n        /* \"#utility.yul\":15538:15547   */\n      dup4\n        /* \"#utility.yul\":15534:15552   */\n      add\n        /* \"#utility.yul\":15527:15575   */\n      mstore\n        /* \"#utility.yul\":15592:15670   */\n      tag_542\n        /* \"#utility.yul\":15665:15669   */\n      dup2\n        /* \"#utility.yul\":15656:15662   */\n      dup9\n        /* \"#utility.yul\":15592:15670   */\n      tag_343\n      jump\t// in\n    tag_542:\n        /* \"#utility.yul\":15584:15670   */\n      swap1\n      pop\n        /* \"#utility.yul\":15680:15753   */\n      tag_543\n        /* \"#utility.yul\":15748:15751   */\n      0x80\n        /* \"#utility.yul\":15737:15746   */\n      dup4\n        /* \"#utility.yul\":15733:15752   */\n      add\n        /* \"#utility.yul\":15724:15730   */\n      dup8\n        /* \"#utility.yul\":15680:15753   */\n      tag_344\n      jump\t// in\n    tag_543:\n        /* \"#utility.yul\":15763:15836   */\n      tag_544\n        /* \"#utility.yul\":15831:15834   */\n      0xa0\n        /* \"#utility.yul\":15820:15829   */\n      dup4\n        /* \"#utility.yul\":15816:15835   */\n      add\n        /* \"#utility.yul\":15807:15813   */\n      dup7\n        /* \"#utility.yul\":15763:15836   */\n      tag_323\n      jump\t// in\n    tag_544:\n        /* \"#utility.yul\":15846:15919   */\n      tag_545\n        /* \"#utility.yul\":15914:15917   */\n      0xc0\n        /* \"#utility.yul\":15903:15912   */\n      dup4\n        /* \"#utility.yul\":15899:15918   */\n      add\n        /* \"#utility.yul\":15890:15896   */\n      dup6\n        /* \"#utility.yul\":15846:15919   */\n      tag_339\n      jump\t// in\n    tag_545:\n        /* \"#utility.yul\":15929:15996   */\n      tag_546\n        /* \"#utility.yul\":15991:15994   */\n      0xe0\n        /* \"#utility.yul\":15980:15989   */\n      dup4\n        /* \"#utility.yul\":15976:15995   */\n      add\n        /* \"#utility.yul\":15967:15973   */\n      dup5\n        /* \"#utility.yul\":15929:15996   */\n      tag_338\n      jump\t// in\n    tag_546:\n        /* \"#utility.yul\":14654:16003   */\n      swap10\n      swap9\n      pop\n      pop\n      pop\n      pop\n      pop\n      pop\n      pop\n      pop\n      pop\n      jump\t// out\n        /* \"#utility.yul\":16009:16219   */\n    tag_82:\n        /* \"#utility.yul\":16096:16100   */\n      0x00\n        /* \"#utility.yul\":16134:16136   */\n      0x20\n        /* \"#utility.yul\":16123:16132   */\n      dup3\n        /* \"#utility.yul\":16119:16137   */\n      add\n        /* \"#utility.yul\":16111:16137   */\n      swap1\n      pop\n        /* \"#utility.yul\":16147:16212   */\n      tag_548\n        /* \"#utility.yul\":16209:16210   */\n      0x00\n        /* \"#utility.yul\":16198:16207   */\n      dup4\n        /* \"#utility.yul\":16194:16211   */\n      add\n        /* \"#utility.yul\":16185:16191   */\n      dup5\n        /* \"#utility.yul\":16147:16212   */\n      tag_338\n      jump\t// in\n    tag_548:\n        /* \"#utility.yul\":16009:16219   */\n      swap3\n      swap2\n      pop\n      pop\n      jump\t// out\n        /* \"#utility.yul\":16225:16844   */\n    tag_85:\n        /* \"#utility.yul\":16302:16308   */\n      0x00\n        /* \"#utility.yul\":16310:16316   */\n      dup1\n        /* \"#utility.yul\":16318:16324   */\n      0x00\n        /* \"#utility.yul\":16367:16369   */\n      0x60\n        /* \"#utility.yul\":16355:16364   */\n      dup5\n        /* \"#utility.yul\":16346:16353   */\n      dup7\n        /* \"#utility.yul\":16342:16365   */\n      sub\n        /* \"#utility.yul\":16338:16370   */\n      slt\n        /* \"#utility.yul\":16335:16454   */\n      iszero\n      tag_550\n      jumpi\n        /* \"#utility.yul\":16373:16452   */\n      tag_551\n      tag_307\n      jump\t// in\n    tag_551:\n        /* \"#utility.yul\":16335:16454   */\n    tag_550:\n        /* \"#utility.yul\":16493:16494   */\n      0x00\n        /* \"#utility.yul\":16518:16571   */\n      tag_552\n        /* \"#utility.yul\":16563:16570   */\n      dup7\n        /* \"#utility.yul\":16554:16560   */\n      dup3\n        /* \"#utility.yul\":16543:16552   */\n      dup8\n        /* \"#utility.yul\":16539:16561   */\n      add\n        /* \"#utility.yul\":16518:16571   */\n      tag_322\n      jump\t// in\n    tag_552:\n        /* \"#utility.yul\":16508:16571   */\n      swap4\n      pop\n        /* \"#utility.yul\":16464:16581   */\n      pop\n        /* \"#utility.yul\":16620:16622   */\n      0x20\n        /* \"#utility.yul\":16646:16699   */\n      tag_553\n        /* \"#utility.yul\":16691:16698   */\n      dup7\n        /* \"#utility.yul\":16682:16688   */\n      dup3\n        /* \"#utility.yul\":16671:16680   */\n      dup8\n        /* \"#utility.yul\":16667:16689   */\n      add\n        /* \"#utility.yul\":16646:16699   */\n      tag_312\n      jump\t// in\n    tag_553:\n        /* \"#utility.yul\":16636:16699   */\n      swap3\n      pop\n        /* \"#utility.yul\":16591:16709   */\n      pop\n        /* \"#utility.yul\":16748:16750   */\n      0x40\n        /* \"#utility.yul\":16774:16827   */\n      tag_554\n        /* \"#utility.yul\":16819:16826   */\n      dup7\n        /* \"#utility.yul\":16810:16816   */\n      dup3\n        /* \"#utility.yul\":16799:16808   */\n      dup8\n        /* \"#utility.yul\":16795:16817   */\n      add\n        /* \"#utility.yul\":16774:16827   */\n      tag_322\n      jump\t// in\n    tag_554:\n        /* \"#utility.yul\":16764:16827   */\n      swap2\n      pop\n        /* \"#utility.yul\":16719:16837   */\n      pop\n        /* \"#utility.yul\":16225:16844   */\n      swap3\n      pop\n      swap3\n      pop\n      swap3\n      jump\t// out\n        /* \"#utility.yul\":16850:17170   */\n    tag_109:\n        /* \"#utility.yul\":16965:16969   */\n      0x00\n        /* \"#utility.yul\":17003:17005   */\n      0x40\n        /* \"#utility.yul\":16992:17001   */\n      dup3\n        /* \"#utility.yul\":16988:17006   */\n      add\n        /* \"#utility.yul\":16980:17006   */\n      swap1\n      pop\n        /* \"#utility.yul\":17016:17081   */\n      tag_556\n        /* \"#utility.yul\":17078:17079   */\n      0x00\n        /* \"#utility.yul\":17067:17076   */\n      dup4\n        /* \"#utility.yul\":17063:17080   */\n      add\n        /* \"#utility.yul\":17054:17060   */\n      dup6\n        /* \"#utility.yul\":17016:17081   */\n      tag_338\n      jump\t// in\n    tag_556:\n        /* \"#utility.yul\":17091:17163   */\n      tag_557\n        /* \"#utility.yul\":17159:17161   */\n      0x20\n        /* \"#utility.yul\":17148:17157   */\n      dup4\n        /* \"#utility.yul\":17144:17162   */\n      add\n        /* \"#utility.yul\":17135:17141   */\n      dup5\n        /* \"#utility.yul\":17091:17163   */\n      tag_323\n      jump\t// in\n    tag_557:\n        /* \"#utility.yul\":16850:17170   */\n      swap4\n      swap3\n      pop\n      pop\n      pop\n      jump\t// out\n        /* \"#utility.yul\":17176:17356   */\n    tag_345:\n        /* \"#utility.yul\":17224:17301   */\n      0x4e487b7100000000000000000000000000000000000000000000000000000000\n        /* \"#utility.yul\":17221:17222   */\n      0x00\n        /* \"#utility.yul\":17214:17302   */\n      mstore\n        /* \"#utility.yul\":17321:17325   */\n      0x22\n        /* \"#utility.yul\":17318:17319   */\n      0x04\n        /* \"#utility.yul\":17311:17326   */\n      mstore\n        /* \"#utility.yul\":17345:17349   */\n      0x24\n        /* \"#utility.yul\":17342:17343   */\n      0x00\n        /* \"#utility.yul\":17335:17350   */\n      revert\n        /* \"#utility.yul\":17362:17682   */\n    tag_111:\n        /* \"#utility.yul\":17406:17412   */\n      0x00\n        /* \"#utility.yul\":17443:17444   */\n      0x02\n        /* \"#utility.yul\":17437:17441   */\n      dup3\n        /* \"#utility.yul\":17433:17445   */\n      div\n        /* \"#utility.yul\":17423:17445   */\n      swap1\n      pop\n        /* \"#utility.yul\":17490:17491   */\n      0x01\n        /* \"#utility.yul\":17484:17488   */\n      dup3\n        /* \"#utility.yul\":17480:17492   */\n      and\n        /* \"#utility.yul\":17511:17529   */\n      dup1\n        /* \"#utility.yul\":17501:17582   */\n      tag_560\n      jumpi\n        /* \"#utility.yul\":17567:17571   */\n      0x7f\n        /* \"#utility.yul\":17559:17565   */\n      dup3\n        /* \"#utility.yul\":17555:17572   */\n      and\n        /* \"#utility.yul\":17545:17572   */\n      swap2\n      pop\n        /* \"#utility.yul\":17501:17582   */\n    tag_560:\n        /* \"#utility.yul\":17629:17631   */\n      0x20\n        /* \"#utility.yul\":17621:17627   */\n      dup3\n        /* \"#utility.yul\":17618:17632   */\n      lt\n        /* \"#utility.yul\":17598:17616   */\n      dup2\n        /* \"#utility.yul\":17595:17633   */\n      sub\n        /* \"#utility.yul\":17592:17676   */\n      tag_561\n      jumpi\n        /* \"#utility.yul\":17648:17666   */\n      tag_562\n      tag_345\n      jump\t// in\n    tag_562:\n        /* \"#utility.yul\":17592:17676   */\n    tag_561:\n        /* \"#utility.yul\":17413:17682   */\n      pop\n        /* \"#utility.yul\":17362:17682   */\n      swap2\n      swap1\n      pop\n      jump\t// out\n        /* \"#utility.yul\":17688:17861   */\n    tag_346:\n        /* \"#utility.yul\":17828:17853   */\n      0x446f63756d656e7420646f6573206e6f74206578697374000000000000000000\n        /* \"#utility.yul\":17824:17825   */\n      0x00\n        /* \"#utility.yul\":17816:17822   */\n      dup3\n        /* \"#utility.yul\":17812:17826   */\n      add\n        /* \"#utility.yul\":17805:17854   */\n      mstore\n        /* \"#utility.yul\":17688:17861   */\n      pop\n      jump\t// out\n        /* \"#utility.yul\":17867:18233   */\n    tag_347:\n        /* \"#utility.yul\":18009:18012   */\n      0x00\n        /* \"#utility.yul\":18030:18097   */\n      tag_565\n        /* \"#utility.yul\":18094:18096   */\n      0x17\n        /* \"#utility.yul\":18089:18092   */\n      dup4\n        /* \"#utility.yul\":18030:18097   */\n      tag_341\n      jump\t// in\n    tag_565:\n        /* \"#utility.yul\":18023:18097   */\n      swap2\n      pop\n        /* \"#utility.yul\":18106:18199   */\n      tag_566\n        /* \"#utility.yul\":18195:18198   */\n      dup3\n        /* \"#utility.yul\":18106:18199   */\n      tag_346\n      jump\t// in\n    tag_566:\n        /* \"#utility.yul\":18224:18226   */\n      0x20\n        /* \"#utility.yul\":18219:18222   */\n      dup3\n        /* \"#utility.yul\":18215:18227   */\n      add\n        /* \"#utility.yul\":18208:18227   */\n      swap1\n      pop\n        /* \"#utility.yul\":17867:18233   */\n      swap2\n      swap1\n      pop\n      jump\t// out\n        /* \"#utility.yul\":18239:18658   */\n    tag_137:\n        /* \"#utility.yul\":18405:18409   */\n      0x00\n        /* \"#utility.yul\":18443:18445   */\n      0x20\n        /* \"#utility.yul\":18432:18441   */\n      dup3\n        /* \"#utility.yul\":18428:18446   */\n      add\n        /* \"#utility.yul\":18420:18446   */\n      swap1\n      pop\n        /* \"#utility.yul\":18492:18501   */\n      dup2\n        /* \"#utility.yul\":18486:18490   */\n      dup2\n        /* \"#utility.yul\":18482:18502   */\n      sub\n        /* \"#utility.yul\":18478:18479   */\n      0x00\n        /* \"#utility.yul\":18467:18476   */\n      dup4\n        /* \"#utility.yul\":18463:18480   */\n      add\n        /* \"#utility.yul\":18456:18503   */\n      mstore\n        /* \"#utility.yul\":18520:18651   */\n      tag_568\n        /* \"#utility.yul\":18646:18650   */\n      dup2\n        /* \"#utility.yul\":18520:18651   */\n      tag_347\n      jump\t// in\n    tag_568:\n        /* \"#utility.yul\":18512:18651   */\n      swap1\n      pop\n        /* \"#utility.yul\":18239:18658   */\n      swap2\n      swap1\n      pop\n      jump\t// out\n        /* \"#utility.yul\":18664:18840   */\n    tag_348:\n        /* \"#utility.yul\":18804:18832   */\n      0x4e6f2061636365737320746f207468697320646f63756d656e74000000000000\n        /* \"#utility.yul\":18800:18801   */\n      0x00\n        /* \"#utility.yul\":18792:18798   */\n      dup3\n        /* \"#utility.yul\":18788:18802   */\n      add\n        /* \"#utility.yul\":18781:18833   */\n      mstore\n        /* \"#utility.yul\":18664:18840   */\n      pop\n      jump\t// out\n        /* \"#utility.yul\":18846:19212   */\n    tag_349:\n        /* \"#utility.yul\":18988:18991   */\n      0x00\n        /* \"#utility.yul\":19009:19076   */\n      tag_571\n        /* \"#utility.yul\":19073:19075   */\n      0x1a\n        /* \"#utility.yul\":19068:19071   */\n      dup4\n        /* \"#utility.yul\":19009:19076   */\n      tag_341\n      jump\t// in\n    tag_571:\n        /* \"#utility.yul\":19002:19076   */\n      swap2\n      pop\n        /* \"#utility.yul\":19085:19178   */\n      tag_572\n        /* \"#utility.yul\":19174:19177   */\n      dup3\n        /* \"#utility.yul\":19085:19178   */\n      tag_348\n      jump\t// in\n    tag_572:\n        /* \"#utility.yul\":19203:19205   */\n      0x20\n        /* \"#utility.yul\":19198:19201   */\n      dup3\n        /* \"#utility.yul\":19194:19206   */\n      add\n        /* \"#utility.yul\":19187:19206   */\n      swap1\n      pop\n        /* \"#utility.yul\":18846:19212   */\n      swap2\n      swap1\n      pop\n      jump\t// out\n        /* \"#utility.yul\":19218:19637   */\n    tag_144:\n        /* \"#utility.yul\":19384:19388   */\n      0x00\n        /* \"#utility.yul\":19422:19424   */\n      0x20\n        /* \"#utility.yul\":19411:19420   */\n      dup3\n        /* \"#utility.yul\":19407:19425   */\n      add\n        /* \"#utility.yul\":19399:19425   */\n      swap1\n      pop\n        /* \"#utility.yul\":19471:19480   */\n      dup2\n        /* \"#utility.yul\":19465:19469   */\n      dup2\n        /* \"#utility.yul\":19461:19481   */\n      sub\n        /* \"#utility.yul\":19457:19458   */\n      0x00\n        /* \"#utility.yul\":19446:19455   */\n      dup4\n        /* \"#utility.yul\":19442:19459   */\n      add\n        /* \"#utility.yul\":19435:19482   */\n      mstore\n        /* \"#utility.yul\":19499:19630   */\n      tag_574\n        /* \"#utility.yul\":19625:19629   */\n      dup2\n        /* \"#utility.yul\":19499:19630   */\n      tag_349\n      jump\t// in\n    tag_574:\n        /* \"#utility.yul\":19491:19630   */\n      swap1\n      pop\n        /* \"#utility.yul\":19218:19637   */\n      swap2\n      swap1\n      pop\n      jump\t// out\n        /* \"#utility.yul\":19643:19818   */\n    tag_350:\n        /* \"#utility.yul\":19783:19810   */\n      0x4950465320686173682063616e6e6f7420626520656d70747900000000000000\n        /* \"#utility.yul\":19779:19780   */\n      0x00\n        /* \"#utility.yul\":19771:19777   */\n      dup3\n        /* \"#utility.yul\":19767:19781   */\n      add\n        /* \"#utility.yul\":19760:19811   */\n      mstore\n        /* \"#utility.yul\":19643:19818   */\n      pop\n      jump\t// out\n        /* \"#utility.yul\":19824:20190   */\n    tag_351:\n        /* \"#utility.yul\":19966:19969   */\n      0x00\n        /* \"#utility.yul\":19987:20054   */\n      tag_577\n        /* \"#utility.yul\":20051:20053   */\n      0x19\n        /* \"#utility.yul\":20046:20049   */\n      dup4\n        /* \"#utility.yul\":19987:20054   */\n      tag_341\n      jump\t// in\n    tag_577:\n        /* \"#utility.yul\":19980:20054   */\n      swap2\n      pop\n        /* \"#utility.yul\":20063:20156   */\n      tag_578\n        /* \"#utility.yul\":20152:20155   */\n      dup3\n        /* \"#utility.yul\":20063:20156   */\n      tag_350\n      jump\t// in\n    tag_578:\n        /* \"#utility.yul\":20181:20183   */\n      0x20\n        /* \"#utility.yul\":20176:20179   */\n      dup3\n        /* \"#utility.yul\":20172:20184   */\n      add\n        /* \"#utility.yul\":20165:20184   */\n      swap1\n      pop\n        /* \"#utility.yul\":19824:20190   */\n      swap2\n      swap1\n      pop\n      jump\t// out\n        /* \"#utility.yul\":20196:20615   */\n    tag_176:\n        /* \"#utility.yul\":20362:20366   */\n      0x00\n        /* \"#utility.yul\":20400:20402   */\n      0x20\n        /* \"#utility.yul\":20389:20398   */\n      dup3\n        /* \"#utility.yul\":20385:20403   */\n      add\n        /* \"#utility.yul\":20377:20403   */\n      swap1\n      pop\n        /* \"#utility.yul\":20449:20458   */\n      dup2\n        /* \"#utility.yul\":20443:20447   */\n      dup2\n        /* \"#utility.yul\":20439:20459   */\n      sub\n        /* \"#utility.yul\":20435:20436   */\n      0x00\n        /* \"#utility.yul\":20424:20433   */\n      dup4\n        /* \"#utility.yul\":20420:20437   */\n      add\n        /* \"#utility.yul\":20413:20460   */\n      mstore\n        /* \"#utility.yul\":20477:20608   */\n      tag_580\n        /* \"#utility.yul\":20603:20607   */\n      dup2\n        /* \"#utility.yul\":20477:20608   */\n      tag_351\n      jump\t// in\n    tag_580:\n        /* \"#utility.yul\":20469:20608   */\n      swap1\n      pop\n        /* \"#utility.yul\":20196:20615   */\n      swap2\n      swap1\n      pop\n      jump\t// out\n        /* \"#utility.yul\":20621:20796   */\n    tag_352:\n        /* \"#utility.yul\":20761:20788   */\n      0x46696c65206e616d652063616e6e6f7420626520656d70747900000000000000\n        /* \"#utility.yul\":20757:20758   */\n      0x00\n        /* \"#utility.yul\":20749:20755   */\n      dup3\n        /* \"#utility.yul\":20745:20759   */\n      add\n        /* \"#utility.yul\":20738:20789   */\n      mstore\n        /* \"#utility.yul\":20621:20796   */\n      pop\n      jump\t// out\n        /* \"#utility.yul\":20802:21168   */\n    tag_353:\n        /* \"#utility.yul\":20944:20947   */\n      0x00\n        /* \"#utility.yul\":20965:21032   */\n      tag_583\n        /* \"#utility.yul\":21029:21031   */\n      0x19\n        /* \"#utility.yul\":21024:21027   */\n      dup4\n        /* \"#utility.yul\":20965:21032   */\n      tag_341\n      jump\t// in\n    tag_583:\n        /* \"#utility.yul\":20958:21032   */\n      swap2\n      pop\n        /* \"#utility.yul\":21041:21134   */\n      tag_584\n        /* \"#utility.yul\":21130:21133   */\n      dup3\n        /* \"#utility.yul\":21041:21134   */\n      tag_352\n      jump\t// in\n    tag_584:\n        /* \"#utility.yul\":21159:21161   */\n      0x20\n        /* \"#utility.yul\":21154:21157   */\n      dup3\n        /* \"#utility.yul\":21150:21162   */\n      add\n        /* \"#utility.yul\":21143:21162   */\n      swap1\n      pop\n        /* \"#utility.yul\":20802:21168   */\n      swap2\n      swap1\n      pop\n      jump\t// out\n        /* \"#utility.yul\":21174:21593   */\n    tag_179:\n        /* \"#utility.yul\":21340:21344   */\n      0x00\n        /* \"#utility.yul\":21378:21380   */\n      0x20\n        /* \"#utility.yul\":21367:21376   */\n      dup3\n        /* \"#utility.yul\":21363:21381   */\n      add\n        /* \"#utility.yul\":21355:21381   */\n      swap1\n      pop\n        /* \"#utility.yul\":21427:21436   */\n      dup2\n        /* \"#utility.yul\":21421:21425   */\n      dup2\n        /* \"#utility.yul\":21417:21437   */\n      sub\n        /* \"#utility.yul\":21413:21414   */\n      0x00\n        /* \"#utility.yul\":21402:21411   */\n      dup4\n        /* \"#utility.yul\":21398:21415   */\n      add\n        /* \"#utility.yul\":21391:21438   */\n      mstore\n        /* \"#utility.yul\":21455:21586   */\n      tag_586\n        /* \"#utility.yul\":21581:21585   */\n      dup2\n        /* \"#utility.yul\":21455:21586   */\n      tag_353\n      jump\t// in\n    tag_586:\n        /* \"#utility.yul\":21447:21586   */\n      swap1\n      pop\n        /* \"#utility.yul\":21174:21593   */\n      swap2\n      swap1\n      pop\n      jump\t// out\n        /* \"#utility.yul\":21599:21779   */\n    tag_354:\n        /* \"#utility.yul\":21647:21724   */\n      0x4e487b7100000000000000000000000000000000000000000000000000000000\n        /* \"#utility.yul\":21644:21645   */\n      0x00\n        /* \"#utility.yul\":21637:21725   */\n      mstore\n        /* \"#utility.yul\":21744:21748   */\n      0x11\n        /* \"#utility.yul\":21741:21742   */\n      0x04\n        /* \"#utility.yul\":21734:21749   */\n      mstore\n        /* \"#utility.yul\":21768:21772   */\n      0x24\n        /* \"#utility.yul\":21765:21766   */\n      0x00\n        /* \"#utility.yul\":21758:21773   */\n      revert\n        /* \"#utility.yul\":21785:22018   */\n    tag_181:\n        /* \"#utility.yul\":21824:21827   */\n      0x00\n        /* \"#utility.yul\":21847:21871   */\n      tag_589\n        /* \"#utility.yul\":21865:21870   */\n      dup3\n        /* \"#utility.yul\":21847:21871   */\n      tag_316\n      jump\t// in\n    tag_589:\n        /* \"#utility.yul\":21838:21871   */\n      swap2\n      pop\n        /* \"#utility.yul\":21893:21959   */\n      0xffffffffffffffffffffffffffffffffffffffffffffffffffffffffffffffff\n        /* \"#utility.yul\":21886:21891   */\n      dup3\n        /* \"#utility.yul\":21883:21960   */\n      sub\n        /* \"#utility.yul\":21880:21983   */\n      tag_590\n      jumpi\n        /* \"#utility.yul\":21963:21981   */\n      tag_591\n      tag_354\n      jump\t// in\n    tag_591:\n        /* \"#utility.yul\":21880:21983   */\n    tag_590:\n        /* \"#utility.yul\":22010:22011   */\n      0x01\n        /* \"#utility.yul\":22003:22008   */\n      dup3\n        /* \"#utility.yul\":21999:22012   */\n      add\n        /* \"#utility.yul\":21992:22012   */\n      swap1\n      pop\n        /* \"#utility.yul\":21785:22018   */\n      swap2\n      swap1\n      pop\n      jump\t// out\n        /* \"#utility.yul\":22024:22165   */\n    tag_355:\n        /* \"#utility.yul\":22073:22077   */\n      0x00\n        /* \"#utility.yul\":22096:22099   */\n      dup2\n        /* \"#utility.yul\":22088:22099   */\n      swap1\n      pop\n        /* \"#utility.yul\":22119:22122   */\n      dup2\n        /* \"#utility.yul\":22116:22117   */\n      0x00\n        /* \"#utility.yul\":22109:22123   */\n      mstore\n        /* \"#utility.yul\":22153:22157   */\n      0x20\n        /* \"#utility.yul\":22150:22151   */\n      0x00\n        /* \"#utility.yul\":22140:22158   */\n      keccak256\n        /* \"#utility.yul\":22132:22158   */\n      swap1\n      pop\n        /* \"#utility.yul\":22024:22165   */\n      swap2\n      swap1\n      pop\n      jump\t// out\n        /* \"#utility.yul\":22171:22264   */\n    tag_356:\n        /* \"#utility.yul\":22208:22214   */\n      0x00\n        /* \"#utility.yul\":22255:22257   */\n      0x20\n        /* \"#utility.yul\":22250:22252   */\n      0x1f\n        /* \"#utility.yul\":22243:22248   */\n      dup4\n        /* \"#utility.yul\":22239:22253   */\n      add\n        /* \"#utility.yul\":22235:22258   */\n      div\n        /* \"#utility.yul\":22225:22258   */\n      swap1\n      pop\n        /* \"#utility.yul\":22171:22264   */\n      swap2\n      swap1\n      pop\n      jump\t// out\n        /* \"#utility.yul\":22270:22377   */\n    tag_357:\n        /* \"#utility.yul\":22314:22322   */\n      0x00\n        /* \"#utility.yul\":22364:22369   */\n      dup3\n        /* \"#utility.yul\":22358:22362   */\n      dup3\n        /* \"#utility.yul\":22354:22370   */\n      shl\n        /* \"#utility.yul\":22333:22370   */\n      swap1\n      pop\n        /* \"#utility.yul\":22270:22377   */\n      swap3\n      swap2\n      pop\n      pop\n      jump\t// out\n        /* \"#utility.yul\":22383:22776   */\n    tag_358:\n        /* \"#utility.yul\":22452:22458   */\n      0x00\n        /* \"#utility.yul\":22502:22503   */\n      0x08\n        /* \"#utility.yul\":22490:22500   */\n      dup4\n        /* \"#utility.yul\":22486:22504   */\n      mul\n        /* \"#utility.yul\":22525:22622   */\n      tag_596\n        /* \"#utility.yul\":22555:22621   */\n      0xffffffffffffffffffffffffffffffffffffffffffffffffffffffffffffffff\n        /* \"#utility.yul\":22544:22553   */\n      dup3\n        /* \"#utility.yul\":22525:22622   */\n      tag_357\n      jump\t// in\n    tag_596:\n        /* \"#utility.yul\":22643:22682   */\n      tag_597\n        /* \"#utility.yul\":22673:22681   */\n      dup7\n        /* \"#utility.yul\":22662:22671   */\n      dup4\n        /* \"#utility.yul\":22643:22682   */\n      tag_357\n      jump\t// in\n    tag_597:\n        /* \"#utility.yul\":22631:22682   */\n      swap6\n      pop\n        /* \"#utility.yul\":22715:22719   */\n      dup1\n        /* \"#utility.yul\":22711:22720   */\n      not\n        /* \"#utility.yul\":22704:22709   */\n      dup5\n        /* \"#utility.yul\":22700:22721   */\n      and\n        /* \"#utility.yul\":22691:22721   */\n      swap4\n      pop\n        /* \"#utility.yul\":22764:22768   */\n      dup1\n        /* \"#utility.yul\":22754:22762   */\n      dup7\n        /* \"#utility.yul\":22750:22769   */\n      and\n        /* \"#utility.yul\":22743:22748   */\n      dup5\n        /* \"#utility.yul\":22740:22770   */\n      or\n        /* \"#utility.yul\":22730:22770   */\n      swap3\n      pop\n        /* \"#utility.yul\":22459:22776   */\n      pop\n      pop\n        /* \"#utility.yul\":22383:22776   */\n      swap4\n      swap3\n      pop\n      pop\n      pop\n      jump\t// out\n        /* \"#utility.yul\":22782:22842   */\n    tag_359:\n        /* \"#utility.yul\":22810:22813   */\n      0x00\n        /* \"#utility.yul\":22831:22836   */\n      dup2\n        /* \"#utility.yul\":22824:22836   */\n      swap1\n      pop\n        /* \"#utility.yul\":22782:22842   */\n      swap2\n      swap1\n      pop\n      jump\t// out\n        /* \"#utility.yul\":22848:22990   */\n    tag_360:\n        /* \"#utility.yul\":22898:22907   */\n      0x00\n        /* \"#utility.yul\":22931:22984   */\n      tag_600\n        /* \"#utility.yul\":22949:22983   */\n      tag_601\n        /* \"#utility.yul\":22958:22982   */\n      tag_602\n        /* \"#utility.yul\":22976:22981   */\n      dup5\n        /* \"#utility.yul\":22958:22982   */\n      tag_316\n      jump\t// in\n    tag_602:\n        /* \"#utility.yul\":22949:22983   */\n      tag_359\n      jump\t// in\n    tag_601:\n        /* \"#utility.yul\":22931:22984   */\n      tag_316\n      jump\t// in\n    tag_600:\n        /* \"#utility.yul\":22918:22984   */\n      swap1\n      pop\n        /* \"#utility.yul\":22848:22990   */\n      swap2\n      swap1\n      pop\n      jump\t// out\n        /* \"#utility.yul\":22996:23071   */\n    tag_361:\n        /* \"#utility.yul\":23039:23042   */\n      0x00\n        /* \"#utility.yul\":23060:23065   */\n      dup2\n        /* \"#utility.yul\":23053:23065   */\n      swap1\n      pop\n        /* \"#utility.yul\":22996:23071   */\n      swap2\n      swap1\n      pop\n      jump\t// out\n        /* \"#utility.yul\":23077:23346   */\n    tag_362:\n        /* \"#utility.yul\":23187:23226   */\n      tag_605\n        /* \"#utility.yul\":23218:23225   */\n      dup4\n        /* \"#utility.yul\":23187:23226   */\n      tag_360\n      jump\t// in\n    tag_605:\n        /* \"#utility.yul\":23248:23339   */\n      tag_606\n        /* \"#utility.yul\":23297:23338   */\n      tag_607\n        /* \"#utility.yul\":23321:23337   */\n      dup3\n        /* \"#utility.yul\":23297:23338   */\n      tag_361\n      jump\t// in\n    tag_607:\n        /* \"#utility.yul\":23289:23295   */\n      dup5\n        /* \"#utility.yul\":23282:23286   */\n      dup5\n        /* \"#utility.yul\":23276:23287   */\n      sload\n        /* \"#utility.yul\":23248:23339   */\n      tag_358\n      jump\t// in\n    tag_606:\n        /* \"#utility.yul\":23242:23246   */\n      dup3\n        /* \"#utility.yul\":23235:23340   */\n      sstore\n        /* \"#utility.yul\":23153:23346   */\n      pop\n        /* \"#utility.yul\":23077:23346   */\n      pop\n      pop\n      pop\n      jump\t// out\n        /* \"#utility.yul\":23352:23425   */\n    tag_363:\n        /* \"#utility.yul\":23397:23400   */\n      0x00\n        /* \"#utility.yul\":23352:23425   */\n      swap1\n      jump\t// out\n        /* \"#utility.yul\":23431:23620   */\n    tag_364:\n        /* \"#utility.yul\":23508:23540   */\n      tag_610\n      tag_363\n      jump\t// in\n    tag_610:\n        /* \"#utility.yul\":23549:23614   */\n      tag_611\n        /* \"#utility.yul\":23607:23613   */\n      dup2\n        /* \"#utility.yul\":23599:23605   */\n      dup5\n        /* \"#utility.yul\":23593:23597   */\n      dup5\n        /* \"#utility.yul\":23549:23614   */\n      tag_362\n      jump\t// in\n    tag_611:\n        /* \"#utility.yul\":23484:23620   */\n      pop\n        /* \"#utility.yul\":23431:23620   */\n      pop\n      pop\n      jump\t// out\n        /* \"#utility.yul\":23626:23812   */\n    tag_365:\n        /* \"#utility.yul\":23686:23806   */\n    tag_613:\n        /* \"#utility.yul\":23703:23706   */\n      dup2\n        /* \"#utility.yul\":23696:23701   */\n      dup2\n        /* \"#utility.yul\":23693:23707   */\n      lt\n        /* \"#utility.yul\":23686:23806   */\n      iszero\n      tag_615\n      jumpi\n        /* \"#utility.yul\":23757:23796   */\n      tag_616\n        /* \"#utility.yul\":23794:23795   */\n      0x00\n        /* \"#utility.yul\":23787:23792   */\n      dup3\n        /* \"#utility.yul\":23757:23796   */\n      tag_364\n      jump\t// in\n    tag_616:\n        /* \"#utility.yul\":23730:23731   */\n      0x01\n        /* \"#utility.yul\":23723:23728   */\n      dup2\n        /* \"#utility.yul\":23719:23732   */\n      add\n        /* \"#utility.yul\":23710:23732   */\n      swap1\n      pop\n        /* \"#utility.yul\":23686:23806   */\n      jump(tag_613)\n    tag_615:\n        /* \"#utility.yul\":23626:23812   */\n      pop\n      pop\n      jump\t// out\n        /* \"#utility.yul\":23818:24361   */\n    tag_366:\n        /* \"#utility.yul\":23919:23921   */\n      0x1f\n        /* \"#utility.yul\":23914:23917   */\n      dup3\n        /* \"#utility.yul\":23911:23922   */\n      gt\n        /* \"#utility.yul\":23908:24354   */\n      iszero\n      tag_618\n      jumpi\n        /* \"#utility.yul\":23953:23991   */\n      tag_619\n        /* \"#utility.yul\":23985:23990   */\n      dup2\n        /* \"#utility.yul\":23953:23991   */\n      tag_355\n      jump\t// in\n    tag_619:\n        /* \"#utility.yul\":24037:24066   */\n      tag_620\n        /* \"#utility.yul\":24055:24065   */\n      dup5\n        /* \"#utility.yul\":24037:24066   */\n      tag_356\n      jump\t// in\n    tag_620:\n        /* \"#utility.yul\":24027:24035   */\n      dup2\n        /* \"#utility.yul\":24023:24067   */\n      add\n        /* \"#utility.yul\":24220:24222   */\n      0x20\n        /* \"#utility.yul\":24208:24218   */\n      dup6\n        /* \"#utility.yul\":24205:24223   */\n      lt\n        /* \"#utility.yul\":24202:24251   */\n      iszero\n      tag_621\n      jumpi\n        /* \"#utility.yul\":24241:24249   */\n      dup2\n        /* \"#utility.yul\":24226:24249   */\n      swap1\n      pop\n        /* \"#utility.yul\":24202:24251   */\n    tag_621:\n        /* \"#utility.yul\":24264:24344   */\n      tag_622\n        /* \"#utility.yul\":24320:24342   */\n      tag_623\n        /* \"#utility.yul\":24338:24341   */\n      dup6\n        /* \"#utility.yul\":24320:24342   */\n      tag_356\n      jump\t// in\n    tag_623:\n        /* \"#utility.yul\":24310:24318   */\n      dup4\n        /* \"#utility.yul\":24306:24343   */\n      add\n        /* \"#utility.yul\":24293:24304   */\n      dup3\n        /* \"#utility.yul\":24264:24344   */\n      tag_365\n      jump\t// in\n    tag_622:\n        /* \"#utility.yul\":23923:24354   */\n      pop\n      pop\n        /* \"#utility.yul\":23908:24354   */\n    tag_618:\n        /* \"#utility.yul\":23818:24361   */\n      pop\n      pop\n      pop\n      jump\t// out\n        /* \"#utility.yul\":24367:24484   */\n    tag_367:\n        /* \"#utility.yul\":24421:24429   */\n      0x00\n        /* \"#utility.yul\":24471:24476   */\n      dup3\n        /* \"#utility.yul\":24465:24469   */\n      dup3\n        /* \"#utility.yul\":24461:24477   */\n      shr\n        /* \"#utility.yul\":24440:24477   */\n      swap1\n      pop\n        /* \"#utility.yul\":24367:24484   */\n      swap3\n      swap2\n      pop\n      pop\n      jump\t// out\n        /* \"#utility.yul\":24490:24659   */\n    tag_368:\n        /* \"#utility.yul\":24534:24540   */\n      0x00\n        /* \"#utility.yul\":24567:24618   */\n      tag_626\n        /* \"#utility.yul\":24615:24616   */\n      0x00\n        /* \"#utility.yul\":24611:24617   */\n      not\n        /* \"#utility.yul\":24603:24608   */\n      dup5\n        /* \"#utility.yul\":24600:24601   */\n      0x08\n        /* \"#utility.yul\":24596:24609   */\n      mul\n        /* \"#utility.yul\":24567:24618   */\n      tag_367\n      jump\t// in\n    tag_626:\n        /* \"#utility.yul\":24563:24619   */\n      not\n        /* \"#utility.yul\":24648:24652   */\n      dup1\n        /* \"#utility.yul\":24642:24646   */\n      dup4\n        /* \"#utility.yul\":24638:24653   */\n      and\n        /* \"#utility.yul\":24628:24653   */\n      swap2\n      pop\n        /* \"#utility.yul\":24541:24659   */\n      pop\n        /* \"#utility.yul\":24490:24659   */\n      swap3\n      swap2\n      pop\n      pop\n      jump\t// out\n        /* \"#utility.yul\":24664:24959   */\n    tag_369:\n        /* \"#utility.yul\":24740:24744   */\n      0x00\n        /* \"#utility.yul\":24886:24915   */\n      tag_628\n        /* \"#utility.yul\":24911:24914   */\n      dup4\n        /* \"#utility.yul\":24905:24909   */\n      dup4\n        /* \"#utility.yul\":24886:24915   */\n      tag_368\n      jump\t// in\n    tag_628:\n        /* \"#utility.yul\":24878:24915   */\n      swap2\n      pop\n        /* \"#utility.yul\":24948:24951   */\n      dup3\n        /* \"#utility.yul\":24945:24946   */\n      0x02\n        /* \"#utility.yul\":24941:24952   */\n      mul\n        /* \"#utility.yul\":24935:24939   */\n      dup3\n        /* \"#utility.yul\":24932:24953   */\n      or\n        /* \"#utility.yul\":24924:24953   */\n      swap1\n      pop\n        /* \"#utility.yul\":24664:24959   */\n      swap3\n      swap2\n      pop\n      pop\n      jump\t// out\n        /* \"#utility.yul\":24964:26359   */\n    tag_183:\n        /* \"#utility.yul\":25081:25118   */\n      tag_630\n        /* \"#utility.yul\":25114:25117   */\n      dup3\n        /* \"#utility.yul\":25081:25118   */\n      tag_340\n      jump\t// in\n    tag_630:\n        /* \"#utility.yul\":25183:25201   */\n      0xffffffffffffffff\n        /* \"#utility.yul\":25175:25181   */\n      dup2\n        /* \"#utility.yul\":25172:25202   */\n      gt\n        /* \"#utility.yul\":25169:25225   */\n      iszero\n      tag_631\n      jumpi\n        /* \"#utility.yul\":25205:25223   */\n      tag_632\n      tag_327\n      jump\t// in\n    tag_632:\n        /* \"#utility.yul\":25169:25225   */\n    tag_631:\n        /* \"#utility.yul\":25249:25287   */\n      tag_633\n        /* \"#utility.yul\":25281:25285   */\n      dup3\n        /* \"#utility.yul\":25275:25286   */\n      sload\n        /* \"#utility.yul\":25249:25287   */\n      tag_111\n      jump\t// in\n    tag_633:\n        /* \"#utility.yul\":25334:25401   */\n      tag_634\n        /* \"#utility.yul\":25394:25400   */\n      dup3\n        /* \"#utility.yul\":25386:25392   */\n      dup3\n        /* \"#utility.yul\":25380:25384   */\n      dup6\n        /* \"#utility.yul\":25334:25401   */\n      tag_366\n      jump\t// in\n    tag_634:\n        /* \"#utility.yul\":25428:25429   */\n      0x00\n        /* \"#utility.yul\":25452:25456   */\n      0x20\n        /* \"#utility.yul\":25439:25456   */\n      swap1\n      pop\n        /* \"#utility.yul\":25484:25486   */\n      0x1f\n        /* \"#utility.yul\":25476:25482   */\n      dup4\n        /* \"#utility.yul\":25473:25487   */\n      gt\n        /* \"#utility.yul\":25501:25502   */\n      0x01\n        /* \"#utility.yul\":25496:26114   */\n      dup2\n      eq\n      tag_636\n      jumpi\n        /* \"#utility.yul\":26158:26159   */\n      0x00\n        /* \"#utility.yul\":26175:26181   */\n      dup5\n        /* \"#utility.yul\":26172:26249   */\n      iszero\n      tag_637\n      jumpi\n        /* \"#utility.yul\":26224:26233   */\n      dup3\n        /* \"#utility.yul\":26219:26222   */\n      dup8\n        /* \"#utility.yul\":26215:26234   */\n      add\n        /* \"#utility.yul\":26209:26235   */\n      mload\n        /* \"#utility.yul\":26200:26235   */\n      swap1\n      pop\n        /* \"#utility.yul\":26172:26249   */\n    tag_637:\n        /* \"#utility.yul\":26275:26342   */\n      tag_638\n        /* \"#utility.yul\":26335:26341   */\n      dup6\n        /* \"#utility.yul\":26328:26333   */\n      dup3\n        /* \"#utility.yul\":26275:26342   */\n      tag_369\n      jump\t// in\n    tag_638:\n        /* \"#utility.yul\":26269:26273   */\n      dup7\n        /* \"#utility.yul\":26262:26343   */\n      sstore\n        /* \"#utility.yul\":26131:26353   */\n      pop\n        /* \"#utility.yul\":25466:26353   */\n      jump(tag_635)\n        /* \"#utility.yul\":25496:26114   */\n    tag_636:\n        /* \"#utility.yul\":25548:25552   */\n      0x1f\n        /* \"#utility.yul\":25544:25553   */\n      not\n        /* \"#utility.yul\":25536:25542   */\n      dup5\n        /* \"#utility.yul\":25532:25554   */\n      and\n        /* \"#utility.yul\":25582:25619   */\n      tag_639\n        /* \"#utility.yul\":25614:25618   */\n      dup7\n        /* \"#utility.yul\":25582:25619   */\n      tag_355\n      jump\t// in\n    tag_639:\n        /* \"#utility.yul\":25641:25642   */\n      0x00\n        /* \"#utility.yul\":25655:25863   */\n    tag_640:\n        /* \"#utility.yul\":25669:25676   */\n      dup3\n        /* \"#utility.yul\":25666:25667   */\n      dup2\n        /* \"#utility.yul\":25663:25677   */\n      lt\n        /* \"#utility.yul\":25655:25863   */\n      iszero\n      tag_642\n      jumpi\n        /* \"#utility.yul\":25748:25757   */\n      dup5\n        /* \"#utility.yul\":25743:25746   */\n      dup10\n        /* \"#utility.yul\":25739:25758   */\n      add\n        /* \"#utility.yul\":25733:25759   */\n      mload\n        /* \"#utility.yul\":25725:25731   */\n      dup3\n        /* \"#utility.yul\":25718:25760   */\n      sstore\n        /* \"#utility.yul\":25799:25800   */\n      0x01\n        /* \"#utility.yul\":25791:25797   */\n      dup3\n        /* \"#utility.yul\":25787:25801   */\n      add\n        /* \"#utility.yul\":25777:25801   */\n      swap2\n      pop\n        /* \"#utility.yul\":25846:25848   */\n      0x20\n        /* \"#utility.yul\":25835:25844   */\n      dup6\n        /* \"#utility.yul\":25831:25849   */\n      add\n        /* \"#utility.yul\":25818:25849   */\n      swap5\n      pop\n        /* \"#utility.yul\":25692:25696   */\n      0x20\n        /* \"#utility.yul\":25689:25690   */\n      dup2\n        /* \"#utility.yul\":25685:25697   */\n      add\n        /* \"#utility.yul\":25680:25697   */\n      swap1\n      pop\n        /* \"#utility.yul\":25655:25863   */\n      jump(tag_640)\n    tag_642:\n        /* \"#utility.yul\":25891:25897   */\n      dup7\n        /* \"#utility.yul\":25882:25889   */\n      dup4\n        /* \"#utility.yul\":25879:25898   */\n      lt\n        /* \"#utility.yul\":25876:26055   */\n      iszero\n      tag_643\n      jumpi\n        /* \"#utility.yul\":25949:25958   */\n      dup5\n        /* \"#utility.yul\":25944:25947   */\n      dup10\n        /* \"#utility.yul\":25940:25959   */\n      add\n        /* \"#utility.yul\":25934:25960   */\n      mload\n        /* \"#utility.yul\":25992:26040   */\n      tag_644\n        /* \"#utility.yul\":26034:26038   */\n      0x1f\n        /* \"#utility.yul\":26026:26032   */\n      dup10\n        /* \"#utility.yul\":26022:26039   */\n      and\n        /* \"#utility.yul\":26011:26020   */\n      dup3\n        /* \"#utility.yul\":25992:26040   */\n      tag_368\n      jump\t// in\n    tag_644:\n        /* \"#utility.yul\":25984:25990   */\n      dup4\n        /* \"#utility.yul\":25977:26041   */\n      sstore\n        /* \"#utility.yul\":25899:26055   */\n      pop\n        /* \"#utility.yul\":25876:26055   */\n    tag_643:\n        /* \"#utility.yul\":26101:26102   */\n      0x01\n        /* \"#utility.yul\":26097:26098   */\n      0x02\n        /* \"#utility.yul\":26089:26095   */\n      dup9\n        /* \"#utility.yul\":26085:26099   */\n      mul\n        /* \"#utility.yul\":26081:26103   */\n      add\n        /* \"#utility.yul\":26075:26079   */\n      dup9\n        /* \"#utility.yul\":26068:26104   */\n      sstore\n        /* \"#utility.yul\":25503:26114   */\n      pop\n      pop\n      pop\n        /* \"#utility.yul\":25466:26353   */\n    tag_635:\n      pop\n        /* \"#utility.yul\":25056:26359   */\n      pop\n      pop\n      pop\n        /* \"#utility.yul\":24964:26359   */\n      pop\n      pop\n      jump\t// out\n        /* \"#utility.yul\":26365:27100   */\n    tag_189:\n        /* \"#utility.yul\":26582:26586   */\n      0x00\n        /* \"#utility.yul\":26620:26623   */\n      0x80\n        /* \"#utility.yul\":26609:26618   */\n      dup3\n        /* \"#utility.yul\":26605:26624   */\n      add\n        /* \"#utility.yul\":26597:26624   */\n      swap1\n      pop\n        /* \"#utility.yul\":26670:26679   */\n      dup2\n        /* \"#utility.yul\":26664:26668   */\n      dup2\n        /* \"#utility.yul\":26660:26680   */\n      sub\n        /* \"#utility.yul\":26656:26657   */\n      0x00\n        /* \"#utility.yul\":26645:26654   */\n      dup4\n        /* \"#utility.yul\":26641:26658   */\n      add\n        /* \"#utility.yul\":26634:26681   */\n      mstore\n        /* \"#utility.yul\":26698:26776   */\n      tag_646\n        /* \"#utility.yul\":26771:26775   */\n      dup2\n        /* \"#utility.yul\":26762:26768   */\n      dup8\n        /* \"#utility.yul\":26698:26776   */\n      tag_343\n      jump\t// in\n    tag_646:\n        /* \"#utility.yul\":26690:26776   */\n      swap1\n      pop\n        /* \"#utility.yul\":26823:26832   */\n      dup2\n        /* \"#utility.yul\":26817:26821   */\n      dup2\n        /* \"#utility.yul\":26813:26833   */\n      sub\n        /* \"#utility.yul\":26808:26810   */\n      0x20\n        /* \"#utility.yul\":26797:26806   */\n      dup4\n        /* \"#utility.yul\":26793:26811   */\n      add\n        /* \"#utility.yul\":26786:26834   */\n      mstore\n        /* \"#utility.yul\":26851:26929   */\n      tag_647\n        /* \"#utility.yul\":26924:26928   */\n      dup2\n        /* \"#utility.yul\":26915:26921   */\n      dup7\n        /* \"#utility.yul\":26851:26929   */\n      tag_343\n      jump\t// in\n    tag_647:\n        /* \"#utility.yul\":26843:26929   */\n      swap1\n      pop\n        /* \"#utility.yul\":26939:27011   */\n      tag_648\n        /* \"#utility.yul\":27007:27009   */\n      0x40\n        /* \"#utility.yul\":26996:27005   */\n      dup4\n        /* \"#utility.yul\":26992:27010   */\n      add\n        /* \"#utility.yul\":26983:26989   */\n      dup6\n        /* \"#utility.yul\":26939:27011   */\n      tag_344\n      jump\t// in\n    tag_648:\n        /* \"#utility.yul\":27021:27093   */\n      tag_649\n        /* \"#utility.yul\":27089:27091   */\n      0x60\n        /* \"#utility.yul\":27078:27087   */\n      dup4\n        /* \"#utility.yul\":27074:27092   */\n      add\n        /* \"#utility.yul\":27065:27071   */\n      dup5\n        /* \"#utility.yul\":27021:27093   */\n      tag_323\n      jump\t// in\n    tag_649:\n        /* \"#utility.yul\":26365:27100   */\n      swap6\n      swap5\n      pop\n      pop\n      pop\n      pop\n      pop\n      jump\t// out\n        /* \"#utility.yul\":27106:27278   */\n    tag_370:\n        /* \"#utility.yul\":27246:27270   */\n      0x4e6f742074686520646f63756d656e74206f776e657200000000000000000000\n        /* \"#utility.yul\":27242:27243   */\n      0x00\n        /* \"#utility.yul\":27234:27240   */\n      dup3\n        /* \"#utility.yul\":27230:27244   */\n      add\n        /* \"#utility.yul\":27223:27271   */\n      mstore\n        /* \"#utility.yul\":27106:27278   */\n      pop\n      jump\t// out\n        /* \"#utility.yul\":27284:27650   */\n    tag_371:\n        /* \"#utility.yul\":27426:27429   */\n      0x00\n        /* \"#utility.yul\":27447:27514   */\n      tag_652\n        /* \"#utility.yul\":27511:27513   */\n      0x16\n        /* \"#utility.yul\":27506:27509   */\n      dup4\n        /* \"#utility.yul\":27447:27514   */\n      tag_341\n      jump\t// in\n    tag_652:\n        /* \"#utility.yul\":27440:27514   */\n      swap2\n      pop\n        /* \"#utility.yul\":27523:27616   */\n      tag_653\n        /* \"#utility.yul\":27612:27615   */\n      dup3\n        /* \"#utility.yul\":27523:27616   */\n      tag_370\n      jump\t// in\n    tag_653:\n        /* \"#utility.yul\":27641:27643   */\n      0x20\n        /* \"#utility.yul\":27636:27639   */\n      dup3\n        /* \"#utility.yul\":27632:27644   */\n      add\n        /* \"#utility.yul\":27625:27644   */\n      swap1\n      pop\n        /* \"#utility.yul\":27284:27650   */\n      swap2\n      swap1\n      pop\n      jump\t// out\n        /* \"#utility.yul\":27656:28075   */\n    tag_195:\n        /* \"#utility.yul\":27822:27826   */\n      0x00\n        /* \"#utility.yul\":27860:27862   */\n      0x20\n        /* \"#utility.yul\":27849:27858   */\n      dup3\n        /* \"#utility.yul\":27845:27863   */\n      add\n        /* \"#utility.yul\":27837:27863   */\n      swap1\n      pop\n        /* \"#utility.yul\":27909:27918   */\n      dup2\n        /* \"#utility.yul\":27903:27907   */\n      dup2\n        /* \"#utility.yul\":27899:27919   */\n      sub\n        /* \"#utility.yul\":27895:27896   */\n      0x00\n        /* \"#utility.yul\":27884:27893   */\n      dup4\n        /* \"#utility.yul\":27880:27897   */\n      add\n        /* \"#utility.yul\":27873:27920   */\n      mstore\n        /* \"#utility.yul\":27937:28068   */\n      tag_655\n        /* \"#utility.yul\":28063:28067   */\n      dup2\n        /* \"#utility.yul\":27937:28068   */\n      tag_371\n      jump\t// in\n    tag_655:\n        /* \"#utility.yul\":27929:28068   */\n      swap1\n      pop\n        /* \"#utility.yul\":27656:28075   */\n      swap2\n      swap1\n      pop\n      jump\t// out\n        /* \"#utility.yul\":28081:28261   */\n    tag_202:\n        /* \"#utility.yul\":28129:28206   */\n      0x4e487b7100000000000000000000000000000000000000000000000000000000\n        /* \"#utility.yul\":28126:28127   */\n      0x00\n        /* \"#utility.yul\":28119:28207   */\n      mstore\n        /* \"#utility.yul\":28226:28230   */\n      0x32\n        /* \"#utility.yul\":28223:28224   */\n      0x04\n        /* \"#utility.yul\":28216:28231   */\n      mstore\n        /* \"#utility.yul\":28250:28254   */\n      0x24\n        /* \"#utility.yul\":28247:28248   */\n      0x00\n        /* \"#utility.yul\":28240:28255   */\n      revert\n        /* \"#utility.yul\":28267:28461   */\n    tag_206:\n        /* \"#utility.yul\":28307:28311   */\n      0x00\n        /* \"#utility.yul\":28327:28347   */\n      tag_658\n        /* \"#utility.yul\":28345:28346   */\n      dup3\n        /* \"#utility.yul\":28327:28347   */\n      tag_316\n      jump\t// in\n    tag_658:\n        /* \"#utility.yul\":28322:28347   */\n      swap2\n      pop\n        /* \"#utility.yul\":28361:28381   */\n      tag_659\n        /* \"#utility.yul\":28379:28380   */\n      dup4\n        /* \"#utility.yul\":28361:28381   */\n      tag_316\n      jump\t// in\n    tag_659:\n        /* \"#utility.yul\":28356:28381   */\n      swap3\n      pop\n        /* \"#utility.yul\":28405:28406   */\n      dup3\n        /* \"#utility.yul\":28402:28403   */\n      dup3\n        /* \"#utility.yul\":28398:28407   */\n      sub\n        /* \"#utility.yul\":28390:28407   */\n      swap1\n      pop\n        /* \"#utility.yul\":28429:28430   */\n      dup2\n        /* \"#utility.yul\":28423:28427   */\n      dup2\n        /* \"#utility.yul\":28420:28431   */\n      gt\n        /* \"#utility.yul\":28417:28454   */\n      iszero\n      tag_660\n      jumpi\n        /* \"#utility.yul\":28434:28452   */\n      tag_661\n      tag_354\n      jump\t// in\n    tag_661:\n        /* \"#utility.yul\":28417:28454   */\n    tag_660:\n        /* \"#utility.yul\":28267:28461   */\n      swap3\n      swap2\n      pop\n      pop\n      jump\t// out\n        /* \"#utility.yul\":28467:28647   */\n    tag_215:\n        /* \"#utility.yul\":28515:28592   */\n      0x4e487b7100000000000000000000000000000000000000000000000000000000\n        /* \"#utility.yul\":28512:28513   */\n      0x00\n        /* \"#utility.yul\":28505:28593   */\n      mstore\n        /* \"#utility.yul\":28612:28616   */\n      0x31\n        /* \"#utility.yul\":28609:28610   */\n      0x04\n        /* \"#utility.yul\":28602:28617   */\n      mstore\n        /* \"#utility.yul\":28636:28640   */\n      0x24\n        /* \"#utility.yul\":28633:28634   */\n      0x00\n        /* \"#utility.yul\":28626:28641   */\n      revert\n        /* \"#utility.yul\":28653:28828   */\n    tag_372:\n        /* \"#utility.yul\":28793:28820   */\n      0x496e76616c696420726563697069656e74206164647265737300000000000000\n        /* \"#utility.yul\":28789:28790   */\n      0x00\n        /* \"#utility.yul\":28781:28787   */\n      dup3\n        /* \"#utility.yul\":28777:28791   */\n      add\n        /* \"#utility.yul\":28770:28821   */\n      mstore\n        /* \"#utility.yul\":28653:28828   */\n      pop\n      jump\t// out\n        /* \"#utility.yul\":28834:29200   */\n    tag_373:\n        /* \"#utility.yul\":28976:28979   */\n      0x00\n        /* \"#utility.yul\":28997:29064   */\n      tag_665\n        /* \"#utility.yul\":29061:29063   */\n      0x19\n        /* \"#utility.yul\":29056:29059   */\n      dup4\n        /* \"#utility.yul\":28997:29064   */\n      tag_341\n      jump\t// in\n    tag_665:\n        /* \"#utility.yul\":28990:29064   */\n      swap2\n      pop\n        /* \"#utility.yul\":29073:29166   */\n      tag_666\n        /* \"#utility.yul\":29162:29165   */\n      dup3\n        /* \"#utility.yul\":29073:29166   */\n      tag_372\n      jump\t// in\n    tag_666:\n        /* \"#utility.yul\":29191:29193   */\n      0x20\n        /* \"#utility.yul\":29186:29189   */\n      dup3\n        /* \"#utility.yul\":29182:29194   */\n      add\n        /* \"#utility.yul\":29175:29194   */\n      swap1\n      pop\n        /* \"#utility.yul\":28834:29200   */\n      swap2\n      swap1\n      pop\n      jump\t// out\n        /* \"#utility.yul\":29206:29625   */\n    tag_252:\n        /* \"#utility.yul\":29372:29376   */\n      0x00\n        /* \"#utility.yul\":29410:29412   */\n      0x20\n        /* \"#utility.yul\":29399:29408   */\n      dup3\n        /* \"#utility.yul\":29395:29413   */\n      add\n        /* \"#utility.yul\":29387:29413   */\n      swap1\n      pop\n        /* \"#utility.yul\":29459:29468   */\n      dup2\n        /* \"#utility.yul\":29453:29457   */\n      dup2\n        /* \"#utility.yul\":29449:29469   */\n      sub\n        /* \"#utility.yul\":29445:29446   */\n      0x00\n        /* \"#utility.yul\":29434:29443   */\n      dup4\n        /* \"#utility.yul\":29430:29447   */\n      add\n        /* \"#utility.yul\":29423:29470   */\n      mstore\n        /* \"#utility.yul\":29487:29618   */\n      tag_668\n        /* \"#utility.yul\":29613:29617   */\n      dup2\n        /* \"#utility.yul\":29487:29618   */\n      tag_373\n      jump\t// in\n    tag_668:\n        /* \"#utility.yul\":29479:29618   */\n      swap1\n      pop\n        /* \"#utility.yul\":29206:29625   */\n      swap2\n      swap1\n      pop\n      jump\t// out\n        /* \"#utility.yul\":29631:29812   */\n    tag_374:\n        /* \"#utility.yul\":29771:29804   */\n      0x43616e6e6f74206772616e742061636365737320746f20796f757273656c6600\n        /* \"#utility.yul\":29767:29768   */\n      0x00\n        /* \"#utility.yul\":29759:29765   */\n      dup3\n        /* \"#utility.yul\":29755:29769   */\n      add\n        /* \"#utility.yul\":29748:29805   */\n      mstore\n        /* \"#utility.yul\":29631:29812   */\n      pop\n      jump\t// out\n        /* \"#utility.yul\":29818:30184   */\n    tag_375:\n        /* \"#utility.yul\":29960:29963   */\n      0x00\n        /* \"#utility.yul\":29981:30048   */\n      tag_671\n        /* \"#utility.yul\":30045:30047   */\n      0x1f\n        /* \"#utility.yul\":30040:30043   */\n      dup4\n        /* \"#utility.yul\":29981:30048   */\n      tag_341\n      jump\t// in\n    tag_671:\n        /* \"#utility.yul\":29974:30048   */\n      swap2\n      pop\n        /* \"#utility.yul\":30057:30150   */\n      tag_672\n        /* \"#utility.yul\":30146:30149   */\n      dup3\n        /* \"#utility.yul\":30057:30150   */\n      tag_374\n      jump\t// in\n    tag_672:\n        /* \"#utility.yul\":30175:30177   */\n      0x20\n        /* \"#utility.yul\":30170:30173   */\n      dup3\n        /* \"#utility.yul\":30166:30178   */\n      add\n        /* \"#utility.yul\":30159:30178   */\n      swap1\n      pop\n        /* \"#utility.yul\":29818:30184   */\n      swap2\n      swap1\n      pop\n      jump\t// out\n        /* \"#utility.yul\":30190:30609   */\n    tag_255:\n        /* \"#utility.yul\":30356:30360   */\n      0x00\n        /* \"#utility.yul\":30394:30396   */\n      0x20\n        /* \"#utility.yul\":30383:30392   */\n      dup3\n        /* \"#utility.yul\":30379:30397   */\n      add\n        /* \"#utility.yul\":30371:30397   */\n      swap1\n      pop\n        /* \"#utility.yul\":30443:30452   */\n      dup2\n        /* \"#utility.yul\":30437:30441   */\n      dup2\n        /* \"#utility.yul\":30433:30453   */\n      sub\n        /* \"#utility.yul\":30429:30430   */\n      0x00\n        /* \"#utility.yul\":30418:30427   */\n      dup4\n        /* \"#utility.yul\":30414:30431   */\n      add\n        /* \"#utility.yul\":30407:30454   */\n      mstore\n        /* \"#utility.yul\":30471:30602   */\n      tag_674\n        /* \"#utility.yul\":30597:30601   */\n      dup2\n        /* \"#utility.yul\":30471:30602   */\n      tag_375\n      jump\t// in\n    tag_674:\n        /* \"#utility.yul\":30463:30602   */\n      swap1\n      pop\n        /* \"#utility.yul\":30190:30609   */\n      swap2\n      swap1\n      pop\n      jump\t// out\n        /* \"#utility.yul\":30615:30787   */\n    tag_376:\n        /* \"#utility.yul\":30755:30779   */\n      0x41636365737320616c7265616479206772616e74656400000000000000000000\n        /* \"#utility.yul\":30751:30752   */\n      0x00\n        /* \"#utility.yul\":30743:30749   */\n      dup3\n        /* \"#utility.yul\":30739:30753   */\n      add\n        /* \"#utility.yul\":30732:30780   */\n      mstore\n        /* \"#utility.yul\":30615:30787   */\n      pop\n      jump\t// out\n        /* \"#utility.yul\":30793:31159   */\n    tag_377:\n        /* \"#utility.yul\":30935:30938   */\n      0x00\n        /* \"#utility.yul\":30956:31023   */\n      tag_677\n        /* \"#utility.yul\":31020:31022   */\n      0x16\n        /* \"#utility.yul\":31015:31018   */\n      dup4\n        /* \"#utility.yul\":30956:31023   */\n      tag_341\n      jump\t// in\n    tag_677:\n        /* \"#utility.yul\":30949:31023   */\n      swap2\n      pop\n        /* \"#utility.yul\":31032:31125   */\n      tag_678\n        /* \"#utility.yul\":31121:31124   */\n      dup3\n        /* \"#utility.yul\":31032:31125   */\n      tag_376\n      jump\t// in\n    tag_678:\n        /* \"#utility.yul\":31150:31152   */\n      0x20\n        /* \"#utility.yul\":31145:31148   */\n      dup3\n        /* \"#utility.yul\":31141:31153   */\n      add\n        /* \"#utility.yul\":31134:31153   */\n      swap1\n      pop\n        /* \"#utility.yul\":30793:31159   */\n      swap2\n      swap1\n      pop\n      jump\t// out\n        /* \"#utility.yul\":31165:31584   */\n    tag_258:\n        /* \"#utility.yul\":31331:31335   */\n      0x00\n        /* \"#utility.yul\":31369:31371   */\n      0x20\n        /* \"#utility.yul\":31358:31367   */\n      dup3\n        /* \"#utility.yul\":31354:31372   */\n      add\n        /* \"#utility.yul\":31346:31372   */\n      swap1\n      pop\n        /* \"#utility.yul\":31418:31427   */\n      dup2\n        /* \"#utility.yul\":31412:31416   */\n      dup2\n        /* \"#utility.yul\":31408:31428   */\n      sub\n        /* \"#utility.yul\":31404:31405   */\n      0x00\n        /* \"#utility.yul\":31393:31402   */\n      dup4\n        /* \"#utility.yul\":31389:31406   */\n      add\n        /* \"#utility.yul\":31382:31429   */\n      mstore\n        /* \"#utility.yul\":31446:31577   */\n      tag_680\n        /* \"#utility.yul\":31572:31576   */\n      dup2\n        /* \"#utility.yul\":31446:31577   */\n      tag_377\n      jump\t// in\n    tag_680:\n        /* \"#utility.yul\":31438:31577   */\n      swap1\n      pop\n        /* \"#utility.yul\":31165:31584   */\n      swap2\n      swap1\n      pop\n      jump\t// out\n        /* \"#utility.yul\":31590:31768   */\n    tag_378:\n        /* \"#utility.yul\":31730:31760   */\n      0x457870697279206d75737420626520696e207468652066757475726500000000\n        /* \"#utility.yul\":31726:31727   */\n      0x00\n        /* \"#utility.yul\":31718:31724   */\n      dup3\n        /* \"#utility.yul\":31714:31728   */\n      add\n        /* \"#utility.yul\":31707:31761   */\n      mstore\n        /* \"#utility.yul\":31590:31768   */\n      pop\n      jump\t// out\n        /* \"#utility.yul\":31774:32140   */\n    tag_379:\n        /* \"#utility.yul\":31916:31919   */\n      0x00\n        /* \"#utility.yul\":31937:32004   */\n      tag_683\n        /* \"#utility.yul\":32001:32003   */\n      0x1c\n        /* \"#utility.yul\":31996:31999   */\n      dup4\n        /* \"#utility.yul\":31937:32004   */\n      tag_341\n      jump\t// in\n    tag_683:\n        /* \"#utility.yul\":31930:32004   */\n      swap2\n      pop\n        /* \"#utility.yul\":32013:32106   */\n      tag_684\n        /* \"#utility.yul\":32102:32105   */\n      dup3\n        /* \"#utility.yul\":32013:32106   */\n      tag_378\n      jump\t// in\n    tag_684:\n        /* \"#utility.yul\":32131:32133   */\n      0x20\n        /* \"#utility.yul\":32126:32129   */\n      dup3\n        /* \"#utility.yul\":32122:32134   */\n      add\n        /* \"#utility.yul\":32115:32134   */\n      swap1\n      pop\n        /* \"#utility.yul\":31774:32140   */\n      swap2\n      swap1\n      pop\n      jump\t// out\n        /* \"#utility.yul\":32146:32565   */\n    tag_262:\n        /* \"#utility.yul\":32312:32316   */\n      0x00\n        /* \"#utility.yul\":32350:32352   */\n      0x20\n        /* \"#utility.yul\":32339:32348   */\n      dup3\n        /* \"#utility.yul\":32335:32353   */\n      add\n        /* \"#utility.yul\":32327:32353   */\n      swap1\n      pop\n        /* \"#utility.yul\":32399:32408   */\n      dup2\n        /* \"#utility.yul\":32393:32397   */\n      dup2\n        /* \"#utility.yul\":32389:32409   */\n      sub\n        /* \"#utility.yul\":32385:32386   */\n      0x00\n        /* \"#utility.yul\":32374:32383   */\n      dup4\n        /* \"#utility.yul\":32370:32387   */\n      add\n        /* \"#utility.yul\":32363:32410   */\n      mstore\n        /* \"#utility.yul\":32427:32558   */\n      tag_686\n        /* \"#utility.yul\":32553:32557   */\n      dup2\n        /* \"#utility.yul\":32427:32558   */\n      tag_379\n      jump\t// in\n    tag_686:\n        /* \"#utility.yul\":32419:32558   */\n      swap1\n      pop\n        /* \"#utility.yul\":32146:32565   */\n      swap2\n      swap1\n      pop\n      jump\t// out\n        /* \"#utility.yul\":32571:32903   */\n    tag_265:\n        /* \"#utility.yul\":32692:32696   */\n      0x00\n        /* \"#utility.yul\":32730:32732   */\n      0x40\n        /* \"#utility.yul\":32719:32728   */\n      dup3\n        /* \"#utility.yul\":32715:32733   */\n      add\n        /* \"#utility.yul\":32707:32733   */\n      swap1\n      pop\n        /* \"#utility.yul\":32743:32814   */\n      tag_688\n        /* \"#utility.yul\":32811:32812   */\n      0x00\n        /* \"#utility.yul\":32800:32809   */\n      dup4\n        /* \"#utility.yul\":32796:32813   */\n      add\n        /* \"#utility.yul\":32787:32793   */\n      dup6\n        /* \"#utility.yul\":32743:32814   */\n      tag_323\n      jump\t// in\n    tag_688:\n        /* \"#utility.yul\":32824:32896   */\n      tag_689\n        /* \"#utility.yul\":32892:32894   */\n      0x20\n        /* \"#utility.yul\":32881:32890   */\n      dup4\n        /* \"#utility.yul\":32877:32895   */\n      add\n        /* \"#utility.yul\":32868:32874   */\n      dup5\n        /* \"#utility.yul\":32824:32896   */\n      tag_323\n      jump\t// in\n    tag_689:\n        /* \"#utility.yul\":32571:32903   */\n      swap4\n      swap3\n      pop\n      pop\n      pop\n      jump\t// out\n        /* \"#utility.yul\":32909:33077   */\n    tag_380:\n        /* \"#utility.yul\":33049:33069   */\n      0x416363657373206e6f74206772616e7465640000000000000000000000000000\n        /* \"#utility.yul\":33045:33046   */\n      0x00\n        /* \"#utility.yul\":33037:33043   */\n      dup3\n        /* \"#utility.yul\":33033:33047   */\n      add\n        /* \"#utility.yul\":33026:33070   */\n      mstore\n        /* \"#utility.yul\":32909:33077   */\n      pop\n      jump\t// out\n        /* \"#utility.yul\":33083:33449   */\n    tag_381:\n        /* \"#utility.yul\":33225:33228   */\n      0x00\n        /* \"#utility.yul\":33246:33313   */\n      tag_692\n        /* \"#utility.yul\":33310:33312   */\n      0x12\n        /* \"#utility.yul\":33305:33308   */\n      dup4\n        /* \"#utility.yul\":33246:33313   */\n      tag_341\n      jump\t// in\n    tag_692:\n        /* \"#utility.yul\":33239:33313   */\n      swap2\n      pop\n        /* \"#utility.yul\":33322:33415   */\n      tag_693\n        /* \"#utility.yul\":33411:33414   */\n      dup3\n        /* \"#utility.yul\":33322:33415   */\n      tag_380\n      jump\t// in\n    tag_693:\n        /* \"#utility.yul\":33440:33442   */\n      0x20\n        /* \"#utility.yul\":33435:33438   */\n      dup3\n        /* \"#utility.yul\":33431:33443   */\n      add\n        /* \"#utility.yul\":33424:33443   */\n      swap1\n      pop\n        /* \"#utility.yul\":33083:33449   */\n      swap2\n      swap1\n      pop\n      jump\t// out\n        /* \"#utility.yul\":33455:33874   */\n    tag_274:\n        /* \"#utility.yul\":33621:33625   */\n      0x00\n        /* \"#utility.yul\":33659:33661   */\n      0x20\n        /* \"#utility.yul\":33648:33657   */\n      dup3\n        /* \"#utility.yul\":33644:33662   */\n      add\n        /* \"#utility.yul\":33636:33662   */\n      swap1\n      pop\n        /* \"#utility.yul\":33708:33717   */\n      dup2\n        /* \"#utility.yul\":33702:33706   */\n      dup2\n        /* \"#utility.yul\":33698:33718   */\n      sub\n        /* \"#utility.yul\":33694:33695   */\n      0x00\n        /* \"#utility.yul\":33683:33692   */\n      dup4\n        /* \"#utility.yul\":33679:33696   */\n      add\n        /* \"#utility.yul\":33672:33719   */\n      mstore\n        /* \"#utility.yul\":33736:33867   */\n      tag_695\n        /* \"#utility.yul\":33862:33866   */\n      dup2\n        /* \"#utility.yul\":33736:33867   */\n      tag_381\n      jump\t// in\n    tag_695:\n        /* \"#utility.yul\":33728:33867   */\n      swap1\n      pop\n        /* \"#utility.yul\":33455:33874   */\n      swap2\n      swap1\n      pop\n      jump\t// out\n\n    auxdata: 0xa2646970667358221220b86436afaa1f950dcc4af5f8d43de293f0848c473bcf9ab617f14334c3aa21ea64736f6c634300081e0033\n}\n",
				"bytecode": {
					"linkReferences": {},
					"object": "6080604052348015600f57600080fd5b506133ae8061001f6000396000f3fe608060405234801561001057600080fd5b506004361061010b5760003560e01c8063a0fb1497116100a2578063d603b28411610071578063d603b28414610340578063d9a5ec1b1461035c578063e681909214610378578063e90e7ad4146103a8578063f32a7591146103c65761010b565b8063a0fb14971461029f578063a5b16b2e146102bb578063c2ed2b05146102d9578063d13c8703146103105761010b565b8063603732ba116100de578063603732ba146101da5780636ccf09fd1461020a5780637847dc131461023d5780639c696cbf1461026f5761010b565b8063178c1f2a1461011057806331d19f65146101405780633a81b013146101705780633f9b250a146101a4575b600080fd5b61012a6004803603810190610125919061229c565b6103f6565b6040516101379190612391565b60405180910390f35b61015a600480360381019061015591906123df565b61048d565b604051610167919061242e565b60405180910390f35b61018a600480360381019061018591906125c5565b6104be565b60405161019b9594939291906126dd565b60405180910390f35b6101be60048036038101906101b9919061273e565b61091e565b6040516101d1979695949392919061277a565b60405180910390f35b6101f460048036038101906101ef91906123df565b610d6f565b604051610201919061242e565b60405180910390f35b610224600480360381019061021f9190612805565b610da0565b6040516102349493929190612845565b60405180910390f35b61025760048036038101906102529190612805565b610ed6565b6040516102669392919061288a565b60405180910390f35b610289600480360381019061028491906128c1565b610f1a565b604051610296919061242e565b60405180910390f35b6102b960048036038101906102b4919061273e565b6111c5565b005b6102c361144c565b6040516102d0919061242e565b60405180910390f35b6102f360048036038101906102ee919061273e565b611452565b6040516103079897969594939291906129ac565b60405180910390f35b61032a60048036038101906103259190612805565b6116e7565b6040516103379190612a46565b60405180910390f35b61035a60048036038101906103559190612a61565b6117ca565b005b61037660048036038101906103719190612805565b611c14565b005b610392600480360381019061038d919061229c565b611f91565b60405161039f9190612391565b60405180910390f35b6103b0612028565b6040516103bd919061242e565b60405180910390f35b6103e060048036038101906103db9190612805565b612032565b6040516103ed9190612a46565b60405180910390f35b6060600360008373ffffffffffffffffffffffffffffffffffffffff1673ffffffffffffffffffffffffffffffffffffffff16815260200190815260200160002080548060200260200160405190810160405280929190818152602001828054801561048157602002820191906000526020600020905b81548152602001906001019080831161046d575b50505050509050919050565b600260205281600052604060002081815481106104a957600080fd5b90600052602060002001600091509150505481565b600080600060608060008089815260200190815260200160002060060160149054906101000a900460ff16610573573373ffffffffffffffffffffffffffffffffffffffff16887fefb345626f6179616e1d4792f37ec8c812d2719295d3381aa891aedf4e01350c600042604051610537929190612ab4565b60405180910390a36000806000604051806020016040528060008152506040518060200160405280600081525094509450945094509450610913565b60008060008a8152602001908152602001600020604051806101000160405290816000820180546105a390612b0c565b80601f01602080910402602001604051908101604052809291908181526020018280546105cf90612b0c565b801561061c5780601f106105f15761010080835404028352916020019161061c565b820191906000526020600020905b8154815290600101906020018083116105ff57829003601f168201915b5050505050815260200160018201805461063590612b0c565b80601f016020809104026020016040519081016040528092919081815260200182805461066190612b0c565b80156106ae5780601f10610683576101008083540402835291602001916106ae565b820191906000526020600020905b81548152906001019060200180831161069157829003601f168201915b505050505081526020016002820180546106c790612b0c565b80601f01602080910402602001604051908101604052809291908181526020018280546106f390612b0c565b80156107405780601f1061071557610100808354040283529160200191610740565b820191906000526020600020905b81548152906001019060200180831161072357829003601f168201915b5050505050815260200160038201805461075990612b0c565b80601f016020809104026020016040519081016040528092919081815260200182805461078590612b0c565b80156107d25780601f106107a7576101008083540402835291602001916107d2565b820191906000526020600020905b8154815290600101906020018083116107b557829003601f168201915b5050505050815260200160048201548152602001600582015481526020016006820160009054906101000a900473ffffffffffffffffffffffffffffffffffffffff1673ffffffffffffffffffffffffffffffffffffffff1673ffffffffffffffffffffffffffffffffffffffff1681526020016006820160149054906101000a900460ff16151515158152505090506000888051906020012082600001518051906020012014905060008060001b8914806108915750888360800151145b905081801561089d5750805b97503373ffffffffffffffffffffffffffffffffffffffff168b7fefb345626f6179616e1d4792f37ec8c812d2719295d3381aa891aedf4e01350c8a426040516108e8929190612ab4565b60405180910390a3878360c001518460a0015185602001518660600151975097509750975097505050505b939792965093509350565b60608060608060008060008760008082815260200190815260200160002060060160149054906101000a900460ff1661098c576040517f08c379a000000000000000000000000000000000000000000000000000000000815260040161098390612b89565b60405180910390fd5b883373ffffffffffffffffffffffffffffffffffffffff1660008083815260200190815260200160002060060160009054906101000a900473ffffffffffffffffffffffffffffffffffffffff1673ffffffffffffffffffffffffffffffffffffffff161480610a025750610a018133612160565b5b610a41576040517f08c379a0000000000000000000000000000000000000000000000000000000008152600401610a3890612bf5565b60405180910390fd5b60008060008c815260200190815260200160002060405180610100016040529081600082018054610a7190612b0c565b80601f0160208091040260200160405190810160405280929190818152602001828054610a9d90612b0c565b8015610aea5780601f10610abf57610100808354040283529160200191610aea565b820191906000526020600020905b815481529060010190602001808311610acd57829003601f168201915b50505050508152602001600182018054610b0390612b0c565b80601f0160208091040260200160405190810160405280929190818152602001828054610b2f90612b0c565b8015610b7c5780601f10610b5157610100808354040283529160200191610b7c565b820191906000526020600020905b815481529060010190602001808311610b5f57829003601f168201915b50505050508152602001600282018054610b9590612b0c565b80601f0160208091040260200160405190810160405280929190818152602001828054610bc190612b0c565b8015610c0e5780601f10610be357610100808354040283529160200191610c0e565b820191906000526020600020905b815481529060010190602001808311610bf157829003601f168201915b50505050508152602001600382018054610c2790612b0c565b80601f0160208091040260200160405190810160405280929190818152602001828054610c5390612b0c565b8015610ca05780601f10610c7557610100808354040283529160200191610ca0565b820191906000526020600020905b815481529060010190602001808311610c8357829003601f168201915b5050505050815260200160048201548152602001600582015481526020016006820160009054906101000a900473ffffffffffffffffffffffffffffffffffffffff1673ffffffffffffffffffffffffffffffffffffffff1673ffffffffffffffffffffffffffffffffffffffff1681526020016006820160149054906101000a900460ff1615151515815250509050806000015181602001518260400151836060015184608001518560a001518660c001519950995099509950995099509950505050919395979092949650565b60036020528160005260406000208181548110610d8b57600080fd5b90600052602060002001600091509150505481565b6000806000808560008082815260200190815260200160002060060160149054906101000a900460ff16610e09576040517f08c379a0000000000000000000000000000000000000000000000000000000008152600401610e0090612b89565b60405180910390fd5b60006001600089815260200190815260200160002060008873ffffffffffffffffffffffffffffffffffffffff1673ffffffffffffffffffffffffffffffffffffffff1681526020019081526020016000206040518060600160405290816000820160009054906101000a900460ff16151515158152602001600182015481526020016002820154815250509050600080826040015114158015610eb05750816040015142115b905081600001518260200151836040015183965096509650965050505092959194509250565b6001602052816000526040600020602052806000526040600020600091509150508060000160009054906101000a900460ff16908060010154908060020154905083565b600080865111610f5f576040517f08c379a0000000000000000000000000000000000000000000000000000000008152600401610f5690612c61565b60405180910390fd5b6000855111610fa3576040517f08c379a0000000000000000000000000000000000000000000000000000000008152600401610f9a90612ccd565b60405180910390fd5b60046000815480929190610fb690612d1c565b91905055506040518061010001604052808781526020018681526020018581526020018481526020018381526020014281526020013373ffffffffffffffffffffffffffffffffffffffff16815260200160011515815250600080600454815260200190815260200160002060008201518160000190816110379190612f10565b50602082015181600101908161104d9190612f10565b5060408201518160020190816110639190612f10565b5060608201518160030190816110799190612f10565b506080820151816004015560a0820151816005015560c08201518160060160006101000a81548173ffffffffffffffffffffffffffffffffffffffff021916908373ffffffffffffffffffffffffffffffffffffffff16021790555060e08201518160060160146101000a81548160ff021916908315150217905550905050600260003373ffffffffffffffffffffffffffffffffffffffff1673ffffffffffffffffffffffffffffffffffffffff16815260200190815260200160002060045490806001815401808255809150506001900390600052602060002001600090919091909150553373ffffffffffffffffffffffffffffffffffffffff166004547f27f3f26a98f0d9406755f5ca8507825d5ae5251ed1beb7965b5ba7d562962e3c888886426040516111af9493929190612fe2565b60405180910390a3600454905095945050505050565b8060008082815260200190815260200160002060060160149054906101000a900460ff16611228576040517f08c379a000000000000000000000000000000000000000000000000000000000815260040161121f90612b89565b60405180910390fd5b3373ffffffffffffffffffffffffffffffffffffffff1660008083815260200190815260200160002060060160009054906101000a900473ffffffffffffffffffffffffffffffffffffffff1673ffffffffffffffffffffffffffffffffffffffff16146112cb576040517f08c379a00000000000000000000000000000000000000000000000000000000081526004016112c290613081565b60405180910390fd5b600080600084815260200190815260200160002060060160146101000a81548160ff0219169083151502179055506000600260003373ffffffffffffffffffffffffffffffffffffffff1673ffffffffffffffffffffffffffffffffffffffff168152602001908152602001600020905060005b81805490508110156113f7578382828154811061135f5761135e6130a1565b5b9060005260206000200154036113ea57816001838054905061138191906130d0565b81548110611392576113916130a1565b5b90600052602060002001548282815481106113b0576113af6130a1565b5b9060005260206000200181905550818054806113cf576113ce613104565b5b600190038181906000526020600020016000905590556113f7565b808060010191505061133f565b503373ffffffffffffffffffffffffffffffffffffffff16837f1c44732bba94823915664b74c47516acfb1386fe0d85be9c373ee3d3ee41953f4260405161143f919061242e565b60405180910390a3505050565b60045481565b600060205280600052604060002060009150905080600001805461147590612b0c565b80601f01602080910402602001604051908101604052809291908181526020018280546114a190612b0c565b80156114ee5780601f106114c3576101008083540402835291602001916114ee565b820191906000526020600020905b8154815290600101906020018083116114d157829003601f168201915b50505050509080600101805461150390612b0c565b80601f016020809104026020016040519081016040528092919081815260200182805461152f90612b0c565b801561157c5780601f106115515761010080835404028352916020019161157c565b820191906000526020600020905b81548152906001019060200180831161155f57829003601f168201915b50505050509080600201805461159190612b0c565b80601f01602080910402602001604051908101604052809291908181526020018280546115bd90612b0c565b801561160a5780601f106115df5761010080835404028352916020019161160a565b820191906000526020600020905b8154815290600101906020018083116115ed57829003601f168201915b50505050509080600301805461161f90612b0c565b80601f016020809104026020016040519081016040528092919081815260200182805461164b90612b0c565b80156116985780601f1061166d57610100808354040283529160200191611698565b820191906000526020600020905b81548152906001019060200180831161167b57829003601f168201915b5050505050908060040154908060050154908060060160009054906101000a900473ffffffffffffffffffffffffffffffffffffffff16908060060160149054906101000a900460ff16905088565b60008260008082815260200190815260200160002060060160149054906101000a900460ff1661174c576040517f08c379a000000000000000000000000000000000000000000000000000000000815260040161174390612b89565b60405180910390fd5b8273ffffffffffffffffffffffffffffffffffffffff1660008086815260200190815260200160002060060160009054906101000a900473ffffffffffffffffffffffffffffffffffffffff1673ffffffffffffffffffffffffffffffffffffffff1614806117c157506117c08484612160565b5b91505092915050565b8260008082815260200190815260200160002060060160149054906101000a900460ff1661182d576040517f08c379a000000000000000000000000000000000000000000000000000000000815260040161182490612b89565b60405180910390fd5b3373ffffffffffffffffffffffffffffffffffffffff1660008083815260200190815260200160002060060160009054906101000a900473ffffffffffffffffffffffffffffffffffffffff1673ffffffffffffffffffffffffffffffffffffffff16146118d0576040517f08c379a00000000000000000000000000000000000000000000000000000000081526004016118c790613081565b60405180910390fd5b600073ffffffffffffffffffffffffffffffffffffffff168373ffffffffffffffffffffffffffffffffffffffff160361193f576040517f08c379a00000000000000000000000000000000000000000000000000000000081526004016119369061317f565b60405180910390fd5b3373ffffffffffffffffffffffffffffffffffffffff168373ffffffffffffffffffffffffffffffffffffffff16036119ad576040517f08c379a00000000000000000000000000000000000000000000000000000000081526004016119a4906131eb565b60405180910390fd5b6001600085815260200190815260200160002060008473ffffffffffffffffffffffffffffffffffffffff1673ffffffffffffffffffffffffffffffffffffffff16815260200190815260200160002060000160009054906101000a900460ff1615611a4e576040517f08c379a0000000000000000000000000000000000000000000000000000000008152600401611a4590613257565b60405180910390fd5b6000821480611a5c57504282115b611a9b576040517f08c379a0000000000000000000000000000000000000000000000000000000008152600401611a92906132c3565b60405180910390fd5b6040518060600160405280600115158152602001428152602001838152506001600086815260200190815260200160002060008573ffffffffffffffffffffffffffffffffffffffff1673ffffffffffffffffffffffffffffffffffffffff16815260200190815260200160002060008201518160000160006101000a81548160ff0219169083151502179055506020820151816001015560408201518160020155905050600360008473ffffffffffffffffffffffffffffffffffffffff1673ffffffffffffffffffffffffffffffffffffffff1681526020019081526020016000208490806001815401808255809150506001900390600052602060002001600090919091909150558273ffffffffffffffffffffffffffffffffffffffff163373ffffffffffffffffffffffffffffffffffffffff16857fa239e588de3aff05a58500844212eb7c4484b93d21066b85f82e38c39c0c8c244286604051611c069291906132e3565b60405180910390a450505050565b8160008082815260200190815260200160002060060160149054906101000a900460ff16611c77576040517f08c379a0000000000000000000000000000000000000000000000000000000008152600401611c6e90612b89565b60405180910390fd5b3373ffffffffffffffffffffffffffffffffffffffff1660008083815260200190815260200160002060060160009054906101000a900473ffffffffffffffffffffffffffffffffffffffff1673ffffffffffffffffffffffffffffffffffffffff1614611d1a576040517f08c379a0000000000000000000000000000000000000000000000000000000008152600401611d1190613081565b60405180910390fd5b6001600084815260200190815260200160002060008373ffffffffffffffffffffffffffffffffffffffff1673ffffffffffffffffffffffffffffffffffffffff16815260200190815260200160002060000160009054906101000a900460ff16611dba576040517f08c379a0000000000000000000000000000000000000000000000000000000008152600401611db190613358565b60405180910390fd5b60006001600085815260200190815260200160002060008473ffffffffffffffffffffffffffffffffffffffff1673ffffffffffffffffffffffffffffffffffffffff16815260200190815260200160002060000160006101000a81548160ff0219169083151502179055506000600360008473ffffffffffffffffffffffffffffffffffffffff1673ffffffffffffffffffffffffffffffffffffffff168152602001908152602001600020905060005b8180549050811015611f245784828281548110611e8c57611e8b6130a1565b5b906000526020600020015403611f17578160018380549050611eae91906130d0565b81548110611ebf57611ebe6130a1565b5b9060005260206000200154828281548110611edd57611edc6130a1565b5b906000526020600020018190555081805480611efc57611efb613104565b5b60019003818190600052602060002001600090559055611f24565b8080600101915050611e6c565b508273ffffffffffffffffffffffffffffffffffffffff163373ffffffffffffffffffffffffffffffffffffffff16857f44cc0386e2d27cf0a4d53aa262e89d728c4866b8c331db29caa559bd3721255742604051611f83919061242e565b60405180910390a450505050565b6060600260008373ffffffffffffffffffffffffffffffffffffffff1673ffffffffffffffffffffffffffffffffffffffff16815260200190815260200160002080548060200260200160405190810160405280929190818152602001828054801561201c57602002820191906000526020600020905b815481526020019060010190808311612008575b50505050509050919050565b6000600454905090565b60008260008082815260200190815260200160002060060160149054906101000a900460ff16612097576040517f08c379a000000000000000000000000000000000000000000000000000000000815260040161208e90612b89565b60405180910390fd5b60006001600086815260200190815260200160002060008573ffffffffffffffffffffffffffffffffffffffff1673ffffffffffffffffffffffffffffffffffffffff1681526020019081526020016000206040518060600160405290816000820160009054906101000a900460ff161515151581526020016001820154815260200160028201548152505090508060000151612138576000925050612159565b600081604001510361214e576000925050612159565b806040015142119250505b5092915050565b6000806001600085815260200190815260200160002060008473ffffffffffffffffffffffffffffffffffffffff1673ffffffffffffffffffffffffffffffffffffffff1681526020019081526020016000206040518060600160405290816000820160009054906101000a900460ff161515151581526020016001820154815260200160028201548152505090508060000151612202576000915050612224565b6000816040015103612218576001915050612224565b80604001514211159150505b92915050565b6000604051905090565b600080fd5b600080fd5b600073ffffffffffffffffffffffffffffffffffffffff82169050919050565b60006122698261223e565b9050919050565b6122798161225e565b811461228457600080fd5b50565b60008135905061229681612270565b92915050565b6000602082840312156122b2576122b1612234565b5b60006122c084828501612287565b91505092915050565b600081519050919050565b600082825260208201905092915050565b6000819050602082019050919050565b6000819050919050565b612308816122f5565b82525050565b600061231a83836122ff565b60208301905092915050565b6000602082019050919050565b600061233e826122c9565b61234881856122d4565b9350612353836122e5565b8060005b8381101561238457815161236b888261230e565b975061237683612326565b925050600181019050612357565b5085935050505092915050565b600060208201905081810360008301526123ab8184612333565b905092915050565b6123bc816122f5565b81146123c757600080fd5b50565b6000813590506123d9816123b3565b92915050565b600080604083850312156123f6576123f5612234565b5b600061240485828601612287565b9250506020612415858286016123ca565b9150509250929050565b612428816122f5565b82525050565b6000602082019050612443600083018461241f565b92915050565b600080fd5b600080fd5b6000601f19601f8301169050919050565b7f4e487b7100000000000000000000000000000000000000000000000000000000600052604160045260246000fd5b61249c82612453565b810181811067ffffffffffffffff821117156124bb576124ba612464565b5b80604052505050565b60006124ce61222a565b90506124da8282612493565b919050565b600067ffffffffffffffff8211156124fa576124f9612464565b5b61250382612453565b9050602081019050919050565b82818337600083830152505050565b600061253261252d846124df565b6124c4565b90508281526020810184848401111561254e5761254d61244e565b5b612559848285612510565b509392505050565b600082601f83011261257657612575612449565b5b813561258684826020860161251f565b91505092915050565b6000819050919050565b6125a28161258f565b81146125ad57600080fd5b50565b6000813590506125bf81612599565b92915050565b6000806000606084860312156125de576125dd612234565b5b60006125ec868287016123ca565b935050602084013567ffffffffffffffff81111561260d5761260c612239565b5b61261986828701612561565b925050604061262a868287016125b0565b9150509250925092565b60008115159050919050565b61264981612634565b82525050565b6126588161225e565b82525050565b600081519050919050565b600082825260208201905092915050565b60005b8381101561269857808201518184015260208101905061267d565b60008484015250505050565b60006126af8261265e565b6126b98185612669565b93506126c981856020860161267a565b6126d281612453565b840191505092915050565b600060a0820190506126f26000830188612640565b6126ff602083018761264f565b61270c604083018661241f565b818103606083015261271e81856126a4565b9050818103608083015261273281846126a4565b90509695505050505050565b60006020828403121561275457612753612234565b5b6000612762848285016123ca565b91505092915050565b6127748161258f565b82525050565b600060e0820190508181036000830152612794818a6126a4565b905081810360208301526127a881896126a4565b905081810360408301526127bc81886126a4565b905081810360608301526127d081876126a4565b90506127df608083018661276b565b6127ec60a083018561241f565b6127f960c083018461264f565b98975050505050505050565b6000806040838503121561281c5761281b612234565b5b600061282a858286016123ca565b925050602061283b85828601612287565b9150509250929050565b600060808201905061285a6000830187612640565b612867602083018661241f565b612874604083018561241f565b6128816060830184612640565b95945050505050565b600060608201905061289f6000830186612640565b6128ac602083018561241f565b6128b9604083018461241f565b949350505050565b600080600080600060a086880312156128dd576128dc612234565b5b600086013567ffffffffffffffff8111156128fb576128fa612239565b5b61290788828901612561565b955050602086013567ffffffffffffffff81111561292857612927612239565b5b61293488828901612561565b945050604086013567ffffffffffffffff81111561295557612954612239565b5b61296188828901612561565b935050606086013567ffffffffffffffff81111561298257612981612239565b5b61298e88828901612561565b925050608061299f888289016125b0565b9150509295509295909350565b60006101008201905081810360008301526129c7818b6126a4565b905081810360208301526129db818a6126a4565b905081810360408301526129ef81896126a4565b90508181036060830152612a0381886126a4565b9050612a12608083018761276b565b612a1f60a083018661241f565b612a2c60c083018561264f565b612a3960e0830184612640565b9998505050505050505050565b6000602082019050612a5b6000830184612640565b92915050565b600080600060608486031215612a7a57612a79612234565b5b6000612a88868287016123ca565b9350506020612a9986828701612287565b9250506040612aaa868287016123ca565b9150509250925092565b6000604082019050612ac96000830185612640565b612ad6602083018461241f565b9392505050565b7f4e487b7100000000000000000000000000000000000000000000000000000000600052602260045260246000fd5b60006002820490506001821680612b2457607f821691505b602082108103612b3757612b36612add565b5b50919050565b7f446f63756d656e7420646f6573206e6f74206578697374000000000000000000600082015250565b6000612b73601783612669565b9150612b7e82612b3d565b602082019050919050565b60006020820190508181036000830152612ba281612b66565b9050919050565b7f4e6f2061636365737320746f207468697320646f63756d656e74000000000000600082015250565b6000612bdf601a83612669565b9150612bea82612ba9565b602082019050919050565b60006020820190508181036000830152612c0e81612bd2565b9050919050565b7f4950465320686173682063616e6e6f7420626520656d70747900000000000000600082015250565b6000612c4b601983612669565b9150612c5682612c15565b602082019050919050565b60006020820190508181036000830152612c7a81612c3e565b9050919050565b7f46696c65206e616d652063616e6e6f7420626520656d70747900000000000000600082015250565b6000612cb7601983612669565b9150612cc282612c81565b602082019050919050565b60006020820190508181036000830152612ce681612caa565b9050919050565b7f4e487b7100000000000000000000000000000000000000000000000000000000600052601160045260246000fd5b6000612d27826122f5565b91507fffffffffffffffffffffffffffffffffffffffffffffffffffffffffffffffff8203612d5957612d58612ced565b5b600182019050919050565b60008190508160005260206000209050919050565b60006020601f8301049050919050565b600082821b905092915050565b600060088302612dc67fffffffffffffffffffffffffffffffffffffffffffffffffffffffffffffffff82612d89565b612dd08683612d89565b95508019841693508086168417925050509392505050565b6000819050919050565b6000612e0d612e08612e03846122f5565b612de8565b6122f5565b9050919050565b6000819050919050565b612e2783612df2565b612e3b612e3382612e14565b848454612d96565b825550505050565b600090565b612e50612e43565b612e5b818484612e1e565b505050565b5b81811015612e7f57612e74600082612e48565b600181019050612e61565b5050565b601f821115612ec457612e9581612d64565b612e9e84612d79565b81016020851015612ead578190505b612ec1612eb985612d79565b830182612e60565b50505b505050565b600082821c905092915050565b6000612ee760001984600802612ec9565b1980831691505092915050565b6000612f008383612ed6565b9150826002028217905092915050565b612f198261265e565b67ffffffffffffffff811115612f3257612f31612464565b5b612f3c8254612b0c565b612f47828285612e83565b600060209050601f831160018114612f7a5760008415612f68578287015190505b612f728582612ef4565b865550612fda565b601f198416612f8886612d64565b60005b82811015612fb057848901518255600182019150602085019450602081019050612f8b565b86831015612fcd5784890151612fc9601f891682612ed6565b8355505b6001600288020188555050505b505050505050565b60006080820190508181036000830152612ffc81876126a4565b9050818103602083015261301081866126a4565b905061301f604083018561276b565b61302c606083018461241f565b95945050505050565b7f4e6f742074686520646f63756d656e74206f776e657200000000000000000000600082015250565b600061306b601683612669565b915061307682613035565b602082019050919050565b6000602082019050818103600083015261309a8161305e565b9050919050565b7f4e487b7100000000000000000000000000000000000000000000000000000000600052603260045260246000fd5b60006130db826122f5565b91506130e6836122f5565b92508282039050818111156130fe576130fd612ced565b5b92915050565b7f4e487b7100000000000000000000000000000000000000000000000000000000600052603160045260246000fd5b7f496e76616c696420726563697069656e74206164647265737300000000000000600082015250565b6000613169601983612669565b915061317482613133565b602082019050919050565b600060208201905081810360008301526131988161315c565b9050919050565b7f43616e6e6f74206772616e742061636365737320746f20796f757273656c6600600082015250565b60006131d5601f83612669565b91506131e08261319f565b602082019050919050565b60006020820190508181036000830152613204816131c8565b9050919050565b7f41636365737320616c7265616479206772616e74656400000000000000000000600082015250565b6000613241601683612669565b915061324c8261320b565b602082019050919050565b6000602082019050818103600083015261327081613234565b9050919050565b7f457870697279206d75737420626520696e207468652066757475726500000000600082015250565b60006132ad601c83612669565b91506132b882613277565b602082019050919050565b600060208201905081810360008301526132dc816132a0565b9050919050565b60006040820190506132f8600083018561241f565b613305602083018461241f565b9392505050565b7f416363657373206e6f74206772616e7465640000000000000000000000000000600082015250565b6000613342601283612669565b915061334d8261330c565b602082019050919050565b6000602082019050818103600083015261337181613335565b905091905056fea2646970667358221220b86436afaa1f950dcc4af5f8d43de293f0848c473bcf9ab617f14334c3aa21ea64736f6c634300081e0033",
					"opcodes": "PUSH1 0x80 PUSH1 0x40 MSTORE CALLVALUE DUP1 ISZERO PUSH1 0xF JUMPI PUSH1 0x0 DUP1 REVERT JUMPDEST POP PUSH2 0x33AE DUP1 PUSH2 0x1F PUSH1 0x0 CODECOPY PUSH1 0x0 RETURN INVALID PUSH1 0x80 PUSH1 0x40 MSTORE CALLVALUE DUP1 ISZERO PUSH2 0x10 JUMPI PUSH1 0x0 DUP1 REVERT JUMPDEST POP PUSH1 0x4 CALLDATASIZE LT PUSH2 0x10B JUMPI PUSH1 0x0 CALLDATALOAD PUSH1 0xE0 SHR DUP1 PUSH4 0xA0FB1497 GT PUSH2 0xA2 JUMPI DUP1 PUSH4 0xD603B284 GT PUSH2 0x71 JUMPI DUP1 PUSH4 0xD603B284 EQ PUSH2 0x340 JUMPI DUP1 PUSH4 0xD9A5EC1B EQ PUSH2 0x35C JUMPI DUP1 PUSH4 0xE6819092 EQ PUSH2 0x378 JUMPI DUP1 PUSH4 0xE90E7AD4 EQ PUSH2 0x3A8 JUMPI DUP1 PUSH4 0xF32A7591 EQ PUSH2 0x3C6 JUMPI PUSH2 0x10B JUMP JUMPDEST DUP1 PUSH4 0xA0FB1497 EQ PUSH2 0x29F JUMPI DUP1 PUSH4 0xA5B16B2E EQ PUSH2 0x2BB JUMPI DUP1 PUSH4 0xC2ED2B05 EQ PUSH2 0x2D9 JUMPI DUP1 PUSH4 0xD13C8703 EQ PUSH2 0x310 JUMPI PUSH2 0x10B JUMP JUMPDEST DUP1 PUSH4 0x603732BA GT PUSH2 0xDE JUMPI DUP1 PUSH4 0x603732BA EQ PUSH2 0x1DA JUMPI DUP1 PUSH4 0x6CCF09FD EQ PUSH2 0x20A JUMPI DUP1 PUSH4 0x7847DC13 EQ PUSH2 0x23D JUMPI DUP1 PUSH4 0x9C696CBF EQ PUSH2 0x26F JUMPI PUSH2 0x10B JUMP JUMPDEST DUP1 PUSH4 0x178C1F2A EQ PUSH2 0x110 JUMPI DUP1 PUSH4 0x31D19F65 EQ PUSH2 0x140 JUMPI DUP1 PUSH4 0x3A81B013 EQ PUSH2 0x170 JUMPI DUP1 PUSH4 0x3F9B250A EQ PUSH2 0x1A4 JUMPI JUMPDEST PUSH1 0x0 DUP1 REVERT JUMPDEST PUSH2 0x12A PUSH1 0x4 DUP1 CALLDATASIZE SUB DUP2 ADD SWAP1 PUSH2 0x125 SWAP2 SWAP1 PUSH2 0x229C JUMP JUMPDEST PUSH2 0x3F6 JUMP JUMPDEST PUSH1 0x40 MLOAD PUSH2 0x137 SWAP2 SWAP1 PUSH2 0x2391 JUMP JUMPDEST PUSH1 0x40 MLOAD DUP1 SWAP2 SUB SWAP1 RETURN JUMPDEST PUSH2 0x15A PUSH1 0x4 DUP1 CALLDATASIZE SUB DUP2 ADD SWAP1 PUSH2 0x155 SWAP2 SWAP1 PUSH2 0x23DF JUMP JUMPDEST PUSH2 0x48D JUMP JUMPDEST PUSH1 0x40 MLOAD PUSH2 0x167 SWAP2 SWAP1 PUSH2 0x242E JUMP JUMPDEST PUSH1 0x40 MLOAD DUP1 SWAP2 SUB SWAP1 RETURN JUMPDEST PUSH2 0x18A PUSH1 0x4 DUP1 CALLDATASIZE SUB DUP2 ADD SWAP1 PUSH2 0x185 SWAP2 SWAP1 PUSH2 0x25C5 JUMP JUMPDEST PUSH2 0x4BE JUMP JUMPDEST PUSH1 0x40 MLOAD PUSH2 0x19B SWAP6 SWAP5 SWAP4 SWAP3 SWAP2 SWAP1 PUSH2 0x26DD JUMP JUMPDEST PUSH1 0x40 MLOAD DUP1 SWAP2 SUB SWAP1 RETURN JUMPDEST PUSH2 0x1BE PUSH1 0x4 DUP1 CALLDATASIZE SUB DUP2 ADD SWAP1 PUSH2 0x1B9 SWAP2 SWAP1 PUSH2 0x273E JUMP JUMPDEST PUSH2 0x91E JUMP JUMPDEST PUSH1 0x40 MLOAD PUSH2 0x1D1 SWAP8 SWAP7 SWAP6 SWAP5 SWAP4 SWAP3 SWAP2 SWAP1 PUSH2 0x277A JUMP JUMPDEST PUSH1 0x40 MLOAD DUP1 SWAP2 SUB SWAP1 RETURN JUMPDEST PUSH2 0x1F4 PUSH1 0x4 DUP1 CALLDATASIZE SUB DUP2 ADD SWAP1 PUSH2 0x1EF SWAP2 SWAP1 PUSH2 0x23DF JUMP JUMPDEST PUSH2 0xD6F JUMP JUMPDEST PUSH1 0x40 MLOAD PUSH2 0x201 SWAP2 SWAP1 PUSH2 0x242E JUMP JUMPDEST PUSH1 0x40 MLOAD DUP1 SWAP2 SUB SWAP1 RETURN JUMPDEST PUSH2 0x224 PUSH1 0x4 DUP1 CALLDATASIZE SUB DUP2 ADD SWAP1 PUSH2 0x21F SWAP2 SWAP1 PUSH2 0x2805 JUMP JUMPDEST PUSH2 0xDA0 JUMP JUMPDEST PUSH1 0x40 MLOAD PUSH2 0x234 SWAP5 SWAP4 SWAP3 SWAP2 SWAP1 PUSH2 0x2845 JUMP JUMPDEST PUSH1 0x40 MLOAD DUP1 SWAP2 SUB SWAP1 RETURN JUMPDEST PUSH2 0x257 PUSH1 0x4 DUP1 CALLDATASIZE SUB DUP2 ADD SWAP1 PUSH2 0x252 SWAP2 SWAP1 PUSH2 0x2805 JUMP JUMPDEST PUSH2 0xED6 JUMP JUMPDEST PUSH1 0x40 MLOAD PUSH2 0x266 SWAP4 SWAP3 SWAP2 SWAP1 PUSH2 0x288A JUMP JUMPDEST PUSH1 0x40 MLOAD DUP1 SWAP2 SUB SWAP1 RETURN JUMPDEST PUSH2 0x289 PUSH1 0x4 DUP1 CALLDATASIZE SUB DUP2 ADD SWAP1 PUSH2 0x284 SWAP2 SWAP1 PUSH2 0x28C1 JUMP JUMPDEST PUSH2 0xF1A JUMP JUMPDEST PUSH1 0x40 MLOAD PUSH2 0x296 SWAP2 SWAP1 PUSH2 0x242E JUMP JUMPDEST PUSH1 0x40 MLOAD DUP1 SWAP2 SUB SWAP1 RETURN JUMPDEST PUSH2 0x2B9 PUSH1 0x4 DUP1 CALLDATASIZE SUB DUP2 ADD SWAP1 PUSH2 0x2B4 SWAP2 SWAP1 PUSH2 0x273E JUMP JUMPDEST PUSH2 0x11C5 JUMP JUMPDEST STOP JUMPDEST PUSH2 0x2C3 PUSH2 0x144C JUMP JUMPDEST PUSH1 0x40 MLOAD PUSH2 0x2D0 SWAP2 SWAP1 PUSH2 0x242E JUMP JUMPDEST PUSH1 0x40 MLOAD DUP1 SWAP2 SUB SWAP1 RETURN JUMPDEST PUSH2 0x2F3 PUSH1 0x4 DUP1 CALLDATASIZE SUB DUP2 ADD SWAP1 PUSH2 0x2EE SWAP2 SWAP1 PUSH2 0x273E JUMP JUMPDEST PUSH2 0x1452 JUMP JUMPDEST PUSH1 0x40 MLOAD PUSH2 0x307 SWAP9 SWAP8 SWAP7 SWAP6 SWAP5 SWAP4 SWAP3 SWAP2 SWAP1 PUSH2 0x29AC JUMP JUMPDEST PUSH1 0x40 MLOAD DUP1 SWAP2 SUB SWAP1 RETURN JUMPDEST PUSH2 0x32A PUSH1 0x4 DUP1 CALLDATASIZE SUB DUP2 ADD SWAP1 PUSH2 0x325 SWAP2 SWAP1 PUSH2 0x2805 JUMP JUMPDEST PUSH2 0x16E7 JUMP JUMPDEST PUSH1 0x40 MLOAD PUSH2 0x337 SWAP2 SWAP1 PUSH2 0x2A46 JUMP JUMPDEST PUSH1 0x40 MLOAD DUP1 SWAP2 SUB SWAP1 RETURN JUMPDEST PUSH2 0x35A PUSH1 0x4 DUP1 CALLDATASIZE SUB DUP2 ADD SWAP1 PUSH2 0x355 SWAP2 SWAP1 PUSH2 0x2A61 JUMP JUMPDEST PUSH2 0x17CA JUMP JUMPDEST STOP JUMPDEST PUSH2 0x376 PUSH1 0x4 DUP1 CALLDATASIZE SUB DUP2 ADD SWAP1 PUSH2 0x371 SWAP2 SWAP1 PUSH2 0x2805 JUMP JUMPDEST PUSH2 0x1C14 JUMP JUMPDEST STOP JUMPDEST PUSH2 0x392 PUSH1 0x4 DUP1 CALLDATASIZE SUB DUP2 ADD SWAP1 PUSH2 0x38D SWAP2 SWAP1 PUSH2 0x229C JUMP JUMPDEST PUSH2 0x1F91 JUMP JUMPDEST PUSH1 0x40 MLOAD PUSH2 0x39F SWAP2 SWAP1 PUSH2 0x2391 JUMP JUMPDEST PUSH1 0x40 MLOAD DUP1 SWAP2 SUB SWAP1 RETURN JUMPDEST PUSH2 0x3B0 PUSH2 0x2028 JUMP JUMPDEST PUSH1 0x40 MLOAD PUSH2 0x3BD SWAP2 SWAP1 PUSH2 0x242E JUMP JUMPDEST PUSH1 0x40 MLOAD DUP1 SWAP2 SUB SWAP1 RETURN JUMPDEST PUSH2 0x3E0 PUSH1 0x4 DUP1 CALLDATASIZE SUB DUP2 ADD SWAP1 PUSH2 0x3DB SWAP2 SWAP1 PUSH2 0x2805 JUMP JUMPDEST PUSH2 0x2032 JUMP JUMPDEST PUSH1 0x40 MLOAD PUSH2 0x3ED SWAP2 SWAP1 PUSH2 0x2A46 JUMP JUMPDEST PUSH1 0x40 MLOAD DUP1 SWAP2 SUB SWAP1 RETURN JUMPDEST PUSH1 0x60 PUSH1 0x3 PUSH1 0x0 DUP4 PUSH20 0xFFFFFFFFFFFFFFFFFFFFFFFFFFFFFFFFFFFFFFFF AND PUSH20 0xFFFFFFFFFFFFFFFFFFFFFFFFFFFFFFFFFFFFFFFF AND DUP2 MSTORE PUSH1 0x20 ADD SWAP1 DUP2 MSTORE PUSH1 0x20 ADD PUSH1 0x0 KECCAK256 DUP1 SLOAD DUP1 PUSH1 0x20 MUL PUSH1 0x20 ADD PUSH1 0x40 MLOAD SWAP1 DUP2 ADD PUSH1 0x40 MSTORE DUP1 SWAP3 SWAP2 SWAP1 DUP2 DUP2 MSTORE PUSH1 0x20 ADD DUP3 DUP1 SLOAD DUP1 ISZERO PUSH2 0x481 JUMPI PUSH1 0x20 MUL DUP3 ADD SWAP2 SWAP1 PUSH1 0x0 MSTORE PUSH1 0x20 PUSH1 0x0 KECCAK256 SWAP1 JUMPDEST DUP2 SLOAD DUP2 MSTORE PUSH1 0x20 ADD SWAP1 PUSH1 0x1 ADD SWAP1 DUP1 DUP4 GT PUSH2 0x46D JUMPI JUMPDEST POP POP POP POP POP SWAP1 POP SWAP2 SWAP1 POP JUMP JUMPDEST PUSH1 0x2 PUSH1 0x20 MSTORE DUP2 PUSH1 0x0 MSTORE PUSH1 0x40 PUSH1 0x0 KECCAK256 DUP2 DUP2 SLOAD DUP2 LT PUSH2 0x4A9 JUMPI PUSH1 0x0 DUP1 REVERT JUMPDEST SWAP1 PUSH1 0x0 MSTORE PUSH1 0x20 PUSH1 0x0 KECCAK256 ADD PUSH1 0x0 SWAP2 POP SWAP2 POP POP SLOAD DUP2 JUMP JUMPDEST PUSH1 0x0 DUP1 PUSH1 0x0 PUSH1 0x60 DUP1 PUSH1 0x0 DUP1 DUP10 DUP2 MSTORE PUSH1 0x20 ADD SWAP1 DUP2 MSTORE PUSH1 0x20 ADD PUSH1 0x0 KECCAK256 PUSH1 0x6 ADD PUSH1 0x14 SWAP1 SLOAD SWAP1 PUSH2 0x100 EXP SWAP1 DIV PUSH1 0xFF AND PUSH2 0x573 JUMPI CALLER PUSH20 0xFFFFFFFFFFFFFFFFFFFFFFFFFFFFFFFFFFFFFFFF AND DUP9 PUSH32 0xEFB345626F6179616E1D4792F37EC8C812D2719295D3381AA891AEDF4E01350C PUSH1 0x0 TIMESTAMP PUSH1 0x40 MLOAD PUSH2 0x537 SWAP3 SWAP2 SWAP1 PUSH2 0x2AB4 JUMP JUMPDEST PUSH1 0x40 MLOAD DUP1 SWAP2 SUB SWAP1 LOG3 PUSH1 0x0 DUP1 PUSH1 0x0 PUSH1 0x40 MLOAD DUP1 PUSH1 0x20 ADD PUSH1 0x40 MSTORE DUP1 PUSH1 0x0 DUP2 MSTORE POP PUSH1 0x40 MLOAD DUP1 PUSH1 0x20 ADD PUSH1 0x40 MSTORE DUP1 PUSH1 0x0 DUP2 MSTORE POP SWAP5 POP SWAP5 POP SWAP5 POP SWAP5 POP SWAP5 POP PUSH2 0x913 JUMP JUMPDEST PUSH1 0x0 DUP1 PUSH1 0x0 DUP11 DUP2 MSTORE PUSH1 0x20 ADD SWAP1 DUP2 MSTORE PUSH1 0x20 ADD PUSH1 0x0 KECCAK256 PUSH1 0x40 MLOAD DUP1 PUSH2 0x100 ADD PUSH1 0x40 MSTORE SWAP1 DUP2 PUSH1 0x0 DUP3 ADD DUP1 SLOAD PUSH2 0x5A3 SWAP1 PUSH2 0x2B0C JUMP JUMPDEST DUP1 PUSH1 0x1F ADD PUSH1 0x20 DUP1 SWAP2 DIV MUL PUSH1 0x20 ADD PUSH1 0x40 MLOAD SWAP1 DUP2 ADD PUSH1 0x40 MSTORE DUP1 SWAP3 SWAP2 SWAP1 DUP2 DUP2 MSTORE PUSH1 0x20 ADD DUP3 DUP1 SLOAD PUSH2 0x5CF SWAP1 PUSH2 0x2B0C JUMP JUMPDEST DUP1 ISZERO PUSH2 0x61C JUMPI DUP1 PUSH1 0x1F LT PUSH2 0x5F1 JUMPI PUSH2 0x100 DUP1 DUP4 SLOAD DIV MUL DUP4 MSTORE SWAP2 PUSH1 0x20 ADD SWAP2 PUSH2 0x61C JUMP JUMPDEST DUP3 ADD SWAP2 SWAP1 PUSH1 0x0 MSTORE PUSH1 0x20 PUSH1 0x0 KECCAK256 SWAP1 JUMPDEST DUP2 SLOAD DUP2 MSTORE SWAP1 PUSH1 0x1 ADD SWAP1 PUSH1 0x20 ADD DUP1 DUP4 GT PUSH2 0x5FF JUMPI DUP3 SWAP1 SUB PUSH1 0x1F AND DUP3 ADD SWAP2 JUMPDEST POP POP POP POP POP DUP2 MSTORE PUSH1 0x20 ADD PUSH1 0x1 DUP3 ADD DUP1 SLOAD PUSH2 0x635 SWAP1 PUSH2 0x2B0C JUMP JUMPDEST DUP1 PUSH1 0x1F ADD PUSH1 0x20 DUP1 SWAP2 DIV MUL PUSH1 0x20 ADD PUSH1 0x40 MLOAD SWAP1 DUP2 ADD PUSH1 0x40 MSTORE DUP1 SWAP3 SWAP2 SWAP1 DUP2 DUP2 MSTORE PUSH1 0x20 ADD DUP3 DUP1 SLOAD PUSH2 0x661 SWAP1 PUSH2 0x2B0C JUMP JUMPDEST DUP1 ISZERO PUSH2 0x6AE JUMPI DUP1 PUSH1 0x1F LT PUSH2 0x683 JUMPI PUSH2 0x100 DUP1 DUP4 SLOAD DIV MUL DUP4 MSTORE SWAP2 PUSH1 0x20 ADD SWAP2 PUSH2 0x6AE JUMP JUMPDEST DUP3 ADD SWAP2 SWAP1 PUSH1 0x0 MSTORE PUSH1 0x20 PUSH1 0x0 KECCAK256 SWAP1 JUMPDEST DUP2 SLOAD DUP2 MSTORE SWAP1 PUSH1 0x1 ADD SWAP1 PUSH1 0x20 ADD DUP1 DUP4 GT PUSH2 0x691 JUMPI DUP3 SWAP1 SUB PUSH1 0x1F AND DUP3 ADD SWAP2 JUMPDEST POP POP POP POP POP DUP2 MSTORE PUSH1 0x20 ADD PUSH1 0x2 DUP3 ADD DUP1 SLOAD PUSH2 0x6C7 SWAP1 PUSH2 0x2B0C JUMP JUMPDEST DUP1 PUSH1 0x1F ADD PUSH1 0x20 DUP1 SWAP2 DIV MUL PUSH1 0x20 ADD PUSH1 0x40 MLOAD SWAP1 DUP2 ADD PUSH1 0x40 MSTORE DUP1 SWAP3 SWAP2 SWAP1 DUP2 DUP2 MSTORE PUSH1 0x20 ADD DUP3 DUP1 SLOAD PUSH2 0x6F3 SWAP1 PUSH2 0x2B0C JUMP JUMPDEST DUP1 ISZERO PUSH2 0x740 JUMPI DUP1 PUSH1 0x1F LT PUSH2 0x715 JUMPI PUSH2 0x100 DUP1 DUP4 SLOAD DIV MUL DUP4 MSTORE SWAP2 PUSH1 0x20 ADD SWAP2 PUSH2 0x740 JUMP JUMPDEST DUP3 ADD SWAP2 SWAP1 PUSH1 0x0 MSTORE PUSH1 0x20 PUSH1 0x0 KECCAK256 SWAP1 JUMPDEST DUP2 SLOAD DUP2 MSTORE SWAP1 PUSH1 0x1 ADD SWAP1 PUSH1 0x20 ADD DUP1 DUP4 GT PUSH2 0x723 JUMPI DUP3 SWAP1 SUB PUSH1 0x1F AND DUP3 ADD SWAP2 JUMPDEST POP POP POP POP POP DUP2 MSTORE PUSH1 0x20 ADD PUSH1 0x3 DUP3 ADD DUP1 SLOAD PUSH2 0x759 SWAP1 PUSH2 0x2B0C JUMP JUMPDEST DUP1 PUSH1 0x1F ADD PUSH1 0x20 DUP1 SWAP2 DIV MUL PUSH1 0x20 ADD PUSH1 0x40 MLOAD SWAP1 DUP2 ADD PUSH1 0x40 MSTORE DUP1 SWAP3 SWAP2 SWAP1 DUP2 DUP2 MSTORE PUSH1 0x20 ADD DUP3 DUP1 SLOAD PUSH2 0x785 SWAP1 PUSH2 0x2B0C JUMP JUMPDEST DUP1 ISZERO PUSH2 0x7D2 JUMPI DUP1 PUSH1 0x1F LT PUSH2 0x7A7 JUMPI PUSH2 0x100 DUP1 DUP4 SLOAD DIV MUL DUP4 MSTORE SWAP2 PUSH1 0x20 ADD SWAP2 PUSH2 0x7D2 JUMP JUMPDEST DUP3 ADD SWAP2 SWAP1 PUSH1 0x0 MSTORE PUSH1 0x20 PUSH1 0x0 KECCAK256 SWAP1 JUMPDEST DUP2 SLOAD DUP2 MSTORE SWAP1 PUSH1 0x1 ADD SWAP1 PUSH1 0x20 ADD DUP1 DUP4 GT PUSH2 0x7B5 JUMPI DUP3 SWAP1 SUB PUSH1 0x1F AND DUP3 ADD SWAP2 JUMPDEST POP POP POP POP POP DUP2 MSTORE PUSH1 0x20 ADD PUSH1 0x4 DUP3 ADD SLOAD DUP2 MSTORE PUSH1 0x20 ADD PUSH1 0x5 DUP3 ADD SLOAD DUP2 MSTORE PUSH1 0x20 ADD PUSH1 0x6 DUP3 ADD PUSH1 0x0 SWAP1 SLOAD SWAP1 PUSH2 0x100 EXP SWAP1 DIV PUSH20 0xFFFFFFFFFFFFFFFFFFFFFFFFFFFFFFFFFFFFFFFF AND PUSH20 0xFFFFFFFFFFFFFFFFFFFFFFFFFFFFFFFFFFFFFFFF AND PUSH20 0xFFFFFFFFFFFFFFFFFFFFFFFFFFFFFFFFFFFFFFFF AND DUP2 MSTORE PUSH1 0x20 ADD PUSH1 0x6 DUP3 ADD PUSH1 0x14 SWAP1 SLOAD SWAP1 PUSH2 0x100 EXP SWAP1 DIV PUSH1 0xFF AND ISZERO ISZERO ISZERO ISZERO DUP2 MSTORE POP POP SWAP1 POP PUSH1 0x0 DUP9 DUP1 MLOAD SWAP1 PUSH1 0x20 ADD KECCAK256 DUP3 PUSH1 0x0 ADD MLOAD DUP1 MLOAD SWAP1 PUSH1 0x20 ADD KECCAK256 EQ SWAP1 POP PUSH1 0x0 DUP1 PUSH1 0x0 SHL DUP10 EQ DUP1 PUSH2 0x891 JUMPI POP DUP9 DUP4 PUSH1 0x80 ADD MLOAD EQ JUMPDEST SWAP1 POP DUP2 DUP1 ISZERO PUSH2 0x89D JUMPI POP DUP1 JUMPDEST SWAP8 POP CALLER PUSH20 0xFFFFFFFFFFFFFFFFFFFFFFFFFFFFFFFFFFFFFFFF AND DUP12 PUSH32 0xEFB345626F6179616E1D4792F37EC8C812D2719295D3381AA891AEDF4E01350C DUP11 TIMESTAMP PUSH1 0x40 MLOAD PUSH2 0x8E8 SWAP3 SWAP2 SWAP1 PUSH2 0x2AB4 JUMP JUMPDEST PUSH1 0x40 MLOAD DUP1 SWAP2 SUB SWAP1 LOG3 DUP8 DUP4 PUSH1 0xC0 ADD MLOAD DUP5 PUSH1 0xA0 ADD MLOAD DUP6 PUSH1 0x20 ADD MLOAD DUP7 PUSH1 0x60 ADD MLOAD SWAP8 POP SWAP8 POP SWAP8 POP SWAP8 POP SWAP8 POP POP POP POP JUMPDEST SWAP4 SWAP8 SWAP3 SWAP7 POP SWAP4 POP SWAP4 POP JUMP JUMPDEST PUSH1 0x60 DUP1 PUSH1 0x60 DUP1 PUSH1 0x0 DUP1 PUSH1 0x0 DUP8 PUSH1 0x0 DUP1 DUP3 DUP2 MSTORE PUSH1 0x20 ADD SWAP1 DUP2 MSTORE PUSH1 0x20 ADD PUSH1 0x0 KECCAK256 PUSH1 0x6 ADD PUSH1 0x14 SWAP1 SLOAD SWAP1 PUSH2 0x100 EXP SWAP1 DIV PUSH1 0xFF AND PUSH2 0x98C JUMPI PUSH1 0x40 MLOAD PUSH32 0x8C379A000000000000000000000000000000000000000000000000000000000 DUP2 MSTORE PUSH1 0x4 ADD PUSH2 0x983 SWAP1 PUSH2 0x2B89 JUMP JUMPDEST PUSH1 0x40 MLOAD DUP1 SWAP2 SUB SWAP1 REVERT JUMPDEST DUP9 CALLER PUSH20 0xFFFFFFFFFFFFFFFFFFFFFFFFFFFFFFFFFFFFFFFF AND PUSH1 0x0 DUP1 DUP4 DUP2 MSTORE PUSH1 0x20 ADD SWAP1 DUP2 MSTORE PUSH1 0x20 ADD PUSH1 0x0 KECCAK256 PUSH1 0x6 ADD PUSH1 0x0 SWAP1 SLOAD SWAP1 PUSH2 0x100 EXP SWAP1 DIV PUSH20 0xFFFFFFFFFFFFFFFFFFFFFFFFFFFFFFFFFFFFFFFF AND PUSH20 0xFFFFFFFFFFFFFFFFFFFFFFFFFFFFFFFFFFFFFFFF AND EQ DUP1 PUSH2 0xA02 JUMPI POP PUSH2 0xA01 DUP2 CALLER PUSH2 0x2160 JUMP JUMPDEST JUMPDEST PUSH2 0xA41 JUMPI PUSH1 0x40 MLOAD PUSH32 0x8C379A000000000000000000000000000000000000000000000000000000000 DUP2 MSTORE PUSH1 0x4 ADD PUSH2 0xA38 SWAP1 PUSH2 0x2BF5 JUMP JUMPDEST PUSH1 0x40 MLOAD DUP1 SWAP2 SUB SWAP1 REVERT JUMPDEST PUSH1 0x0 DUP1 PUSH1 0x0 DUP13 DUP2 MSTORE PUSH1 0x20 ADD SWAP1 DUP2 MSTORE PUSH1 0x20 ADD PUSH1 0x0 KECCAK256 PUSH1 0x40 MLOAD DUP1 PUSH2 0x100 ADD PUSH1 0x40 MSTORE SWAP1 DUP2 PUSH1 0x0 DUP3 ADD DUP1 SLOAD PUSH2 0xA71 SWAP1 PUSH2 0x2B0C JUMP JUMPDEST DUP1 PUSH1 0x1F ADD PUSH1 0x20 DUP1 SWAP2 DIV MUL PUSH1 0x20 ADD PUSH1 0x40 MLOAD SWAP1 DUP2 ADD PUSH1 0x40 MSTORE DUP1 SWAP3 SWAP2 SWAP1 DUP2 DUP2 MSTORE PUSH1 0x20 ADD DUP3 DUP1 SLOAD PUSH2 0xA9D SWAP1 PUSH2 0x2B0C JUMP JUMPDEST DUP1 ISZERO PUSH2 0xAEA JUMPI DUP1 PUSH1 0x1F LT PUSH2 0xABF JUMPI PUSH2 0x100 DUP1 DUP4 SLOAD DIV MUL DUP4 MSTORE SWAP2 PUSH1 0x20 ADD SWAP2 PUSH2 0xAEA JUMP JUMPDEST DUP3 ADD SWAP2 SWAP1 PUSH1 0x0 MSTORE PUSH1 0x20 PUSH1 0x0 KECCAK256 SWAP1 JUMPDEST DUP2 SLOAD DUP2 MSTORE SWAP1 PUSH1 0x1 ADD SWAP1 PUSH1 0x20 ADD DUP1 DUP4 GT PUSH2 0xACD JUMPI DUP3 SWAP1 SUB PUSH1 0x1F AND DUP3 ADD SWAP2 JUMPDEST POP POP POP POP POP DUP2 MSTORE PUSH1 0x20 ADD PUSH1 0x1 DUP3 ADD DUP1 SLOAD PUSH2 0xB03 SWAP1 PUSH2 0x2B0C JUMP JUMPDEST DUP1 PUSH1 0x1F ADD PUSH1 0x20 DUP1 SWAP2 DIV MUL PUSH1 0x20 ADD PUSH1 0x40 MLOAD SWAP1 DUP2 ADD PUSH1 0x40 MSTORE DUP1 SWAP3 SWAP2 SWAP1 DUP2 DUP2 MSTORE PUSH1 0x20 ADD DUP3 DUP1 SLOAD PUSH2 0xB2F SWAP1 PUSH2 0x2B0C JUMP JUMPDEST DUP1 ISZERO PUSH2 0xB7C JUMPI DUP1 PUSH1 0x1F LT PUSH2 0xB51 JUMPI PUSH2 0x100 DUP1 DUP4 SLOAD DIV MUL DUP4 MSTORE SWAP2 PUSH1 0x20 ADD SWAP2 PUSH2 0xB7C JUMP JUMPDEST DUP3 ADD SWAP2 SWAP1 PUSH1 0x0 MSTORE PUSH1 0x20 PUSH1 0x0 KECCAK256 SWAP1 JUMPDEST DUP2 SLOAD DUP2 MSTORE SWAP1 PUSH1 0x1 ADD SWAP1 PUSH1 0x20 ADD DUP1 DUP4 GT PUSH2 0xB5F JUMPI DUP3 SWAP1 SUB PUSH1 0x1F AND DUP3 ADD SWAP2 JUMPDEST POP POP POP POP POP DUP2 MSTORE PUSH1 0x20 ADD PUSH1 0x2 DUP3 ADD DUP1 SLOAD PUSH2 0xB95 SWAP1 PUSH2 0x2B0C JUMP JUMPDEST DUP1 PUSH1 0x1F ADD PUSH1 0x20 DUP1 SWAP2 DIV MUL PUSH1 0x20 ADD PUSH1 0x40 MLOAD SWAP1 DUP2 ADD PUSH1 0x40 MSTORE DUP1 SWAP3 SWAP2 SWAP1 DUP2 DUP2 MSTORE PUSH1 0x20 ADD DUP3 DUP1 SLOAD PUSH2 0xBC1 SWAP1 PUSH2 0x2B0C JUMP JUMPDEST DUP1 ISZERO PUSH2 0xC0E JUMPI DUP1 PUSH1 0x1F LT PUSH2 0xBE3 JUMPI PUSH2 0x100 DUP1 DUP4 SLOAD DIV MUL DUP4 MSTORE SWAP2 PUSH1 0x20 ADD SWAP2 PUSH2 0xC0E JUMP JUMPDEST DUP3 ADD SWAP2 SWAP1 PUSH1 0x0 MSTORE PUSH1 0x20 PUSH1 0x0 KECCAK256 SWAP1 JUMPDEST DUP2 SLOAD DUP2 MSTORE SWAP1 PUSH1 0x1 ADD SWAP1 PUSH1 0x20 ADD DUP1 DUP4 GT PUSH2 0xBF1 JUMPI DUP3 SWAP1 SUB PUSH1 0x1F AND DUP3 ADD SWAP2 JUMPDEST POP POP POP POP POP DUP2 MSTORE PUSH1 0x20 ADD PUSH1 0x3 DUP3 ADD DUP1 SLOAD PUSH2 0xC27 SWAP1 PUSH2 0x2B0C JUMP JUMPDEST DUP1 PUSH1 0x1F ADD PUSH1 0x20 DUP1 SWAP2 DIV MUL PUSH1 0x20 ADD PUSH1 0x40 MLOAD SWAP1 DUP2 ADD PUSH1 0x40 MSTORE DUP1 SWAP3 SWAP2 SWAP1 DUP2 DUP2 MSTORE PUSH1 0x20 ADD DUP3 DUP1 SLOAD PUSH2 0xC53 SWAP1 PUSH2 0x2B0C JUMP JUMPDEST DUP1 ISZERO PUSH2 0xCA0 JUMPI DUP1 PUSH1 0x1F LT PUSH2 0xC75 JUMPI PUSH2 0x100 DUP1 DUP4 SLOAD DIV MUL DUP4 MSTORE SWAP2 PUSH1 0x20 ADD SWAP2 PUSH2 0xCA0 JUMP JUMPDEST DUP3 ADD SWAP2 SWAP1 PUSH1 0x0 MSTORE PUSH1 0x20 PUSH1 0x0 KECCAK256 SWAP1 JUMPDEST DUP2 SLOAD DUP2 MSTORE SWAP1 PUSH1 0x1 ADD SWAP1 PUSH1 0x20 ADD DUP1 DUP4 GT PUSH2 0xC83 JUMPI DUP3 SWAP1 SUB PUSH1 0x1F AND DUP3 ADD SWAP2 JUMPDEST POP POP POP POP POP DUP2 MSTORE PUSH1 0x20 ADD PUSH1 0x4 DUP3 ADD SLOAD DUP2 MSTORE PUSH1 0x20 ADD PUSH1 0x5 DUP3 ADD SLOAD DUP2 MSTORE PUSH1 0x20 ADD PUSH1 0x6 DUP3 ADD PUSH1 0x0 SWAP1 SLOAD SWAP1 PUSH2 0x100 EXP SWAP1 DIV PUSH20 0xFFFFFFFFFFFFFFFFFFFFFFFFFFFFFFFFFFFFFFFF AND PUSH20 0xFFFFFFFFFFFFFFFFFFFFFFFFFFFFFFFFFFFFFFFF AND PUSH20 0xFFFFFFFFFFFFFFFFFFFFFFFFFFFFFFFFFFFFFFFF AND DUP2 MSTORE PUSH1 0x20 ADD PUSH1 0x6 DUP3 ADD PUSH1 0x14 SWAP1 SLOAD SWAP1 PUSH2 0x100 EXP SWAP1 DIV PUSH1 0xFF AND ISZERO ISZERO ISZERO ISZERO DUP2 MSTORE POP POP SWAP1 POP DUP1 PUSH1 0x0 ADD MLOAD DUP2 PUSH1 0x20 ADD MLOAD DUP3 PUSH1 0x40 ADD MLOAD DUP4 PUSH1 0x60 ADD MLOAD DUP5 PUSH1 0x80 ADD MLOAD DUP6 PUSH1 0xA0 ADD MLOAD DUP7 PUSH1 0xC0 ADD MLOAD SWAP10 POP SWAP10 POP SWAP10 POP SWAP10 POP SWAP10 POP SWAP10 POP SWAP10 POP POP POP POP SWAP2 SWAP4 SWAP6 SWAP8 SWAP1 SWAP3 SWAP5 SWAP7 POP JUMP JUMPDEST PUSH1 0x3 PUSH1 0x20 MSTORE DUP2 PUSH1 0x0 MSTORE PUSH1 0x40 PUSH1 0x0 KECCAK256 DUP2 DUP2 SLOAD DUP2 LT PUSH2 0xD8B JUMPI PUSH1 0x0 DUP1 REVERT JUMPDEST SWAP1 PUSH1 0x0 MSTORE PUSH1 0x20 PUSH1 0x0 KECCAK256 ADD PUSH1 0x0 SWAP2 POP SWAP2 POP POP SLOAD DUP2 JUMP JUMPDEST PUSH1 0x0 DUP1 PUSH1 0x0 DUP1 DUP6 PUSH1 0x0 DUP1 DUP3 DUP2 MSTORE PUSH1 0x20 ADD SWAP1 DUP2 MSTORE PUSH1 0x20 ADD PUSH1 0x0 KECCAK256 PUSH1 0x6 ADD PUSH1 0x14 SWAP1 SLOAD SWAP1 PUSH2 0x100 EXP SWAP1 DIV PUSH1 0xFF AND PUSH2 0xE09 JUMPI PUSH1 0x40 MLOAD PUSH32 0x8C379A000000000000000000000000000000000000000000000000000000000 DUP2 MSTORE PUSH1 0x4 ADD PUSH2 0xE00 SWAP1 PUSH2 0x2B89 JUMP JUMPDEST PUSH1 0x40 MLOAD DUP1 SWAP2 SUB SWAP1 REVERT JUMPDEST PUSH1 0x0 PUSH1 0x1 PUSH1 0x0 DUP10 DUP2 MSTORE PUSH1 0x20 ADD SWAP1 DUP2 MSTORE PUSH1 0x20 ADD PUSH1 0x0 KECCAK256 PUSH1 0x0 DUP9 PUSH20 0xFFFFFFFFFFFFFFFFFFFFFFFFFFFFFFFFFFFFFFFF AND PUSH20 0xFFFFFFFFFFFFFFFFFFFFFFFFFFFFFFFFFFFFFFFF AND DUP2 MSTORE PUSH1 0x20 ADD SWAP1 DUP2 MSTORE PUSH1 0x20 ADD PUSH1 0x0 KECCAK256 PUSH1 0x40 MLOAD DUP1 PUSH1 0x60 ADD PUSH1 0x40 MSTORE SWAP1 DUP2 PUSH1 0x0 DUP3 ADD PUSH1 0x0 SWAP1 SLOAD SWAP1 PUSH2 0x100 EXP SWAP1 DIV PUSH1 0xFF AND ISZERO ISZERO ISZERO ISZERO DUP2 MSTORE PUSH1 0x20 ADD PUSH1 0x1 DUP3 ADD SLOAD DUP2 MSTORE PUSH1 0x20 ADD PUSH1 0x2 DUP3 ADD SLOAD DUP2 MSTORE POP POP SWAP1 POP PUSH1 0x0 DUP1 DUP3 PUSH1 0x40 ADD MLOAD EQ ISZERO DUP1 ISZERO PUSH2 0xEB0 JUMPI POP DUP2 PUSH1 0x40 ADD MLOAD TIMESTAMP GT JUMPDEST SWAP1 POP DUP2 PUSH1 0x0 ADD MLOAD DUP3 PUSH1 0x20 ADD MLOAD DUP4 PUSH1 0x40 ADD MLOAD DUP4 SWAP7 POP SWAP7 POP SWAP7 POP SWAP7 POP POP POP POP SWAP3 SWAP6 SWAP2 SWAP5 POP SWAP3 POP JUMP JUMPDEST PUSH1 0x1 PUSH1 0x20 MSTORE DUP2 PUSH1 0x0 MSTORE PUSH1 0x40 PUSH1 0x0 KECCAK256 PUSH1 0x20 MSTORE DUP1 PUSH1 0x0 MSTORE PUSH1 0x40 PUSH1 0x0 KECCAK256 PUSH1 0x0 SWAP2 POP SWAP2 POP POP DUP1 PUSH1 0x0 ADD PUSH1 0x0 SWAP1 SLOAD SWAP1 PUSH2 0x100 EXP SWAP1 DIV PUSH1 0xFF AND SWAP1 DUP1 PUSH1 0x1 ADD SLOAD SWAP1 DUP1 PUSH1 0x2 ADD SLOAD SWAP1 POP DUP4 JUMP JUMPDEST PUSH1 0x0 DUP1 DUP7 MLOAD GT PUSH2 0xF5F JUMPI PUSH1 0x40 MLOAD PUSH32 0x8C379A000000000000000000000000000000000000000000000000000000000 DUP2 MSTORE PUSH1 0x4 ADD PUSH2 0xF56 SWAP1 PUSH2 0x2C61 JUMP JUMPDEST PUSH1 0x40 MLOAD DUP1 SWAP2 SUB SWAP1 REVERT JUMPDEST PUSH1 0x0 DUP6 MLOAD GT PUSH2 0xFA3 JUMPI PUSH1 0x40 MLOAD PUSH32 0x8C379A000000000000000000000000000000000000000000000000000000000 DUP2 MSTORE PUSH1 0x4 ADD PUSH2 0xF9A SWAP1 PUSH2 0x2CCD JUMP JUMPDEST PUSH1 0x40 MLOAD DUP1 SWAP2 SUB SWAP1 REVERT JUMPDEST PUSH1 0x4 PUSH1 0x0 DUP2 SLOAD DUP1 SWAP3 SWAP2 SWAP1 PUSH2 0xFB6 SWAP1 PUSH2 0x2D1C JUMP JUMPDEST SWAP2 SWAP1 POP SSTORE POP PUSH1 0x40 MLOAD DUP1 PUSH2 0x100 ADD PUSH1 0x40 MSTORE DUP1 DUP8 DUP2 MSTORE PUSH1 0x20 ADD DUP7 DUP2 MSTORE PUSH1 0x20 ADD DUP6 DUP2 MSTORE PUSH1 0x20 ADD DUP5 DUP2 MSTORE PUSH1 0x20 ADD DUP4 DUP2 MSTORE PUSH1 0x20 ADD TIMESTAMP DUP2 MSTORE PUSH1 0x20 ADD CALLER PUSH20 0xFFFFFFFFFFFFFFFFFFFFFFFFFFFFFFFFFFFFFFFF AND DUP2 MSTORE PUSH1 0x20 ADD PUSH1 0x1 ISZERO ISZERO DUP2 MSTORE POP PUSH1 0x0 DUP1 PUSH1 0x4 SLOAD DUP2 MSTORE PUSH1 0x20 ADD SWAP1 DUP2 MSTORE PUSH1 0x20 ADD PUSH1 0x0 KECCAK256 PUSH1 0x0 DUP3 ADD MLOAD DUP2 PUSH1 0x0 ADD SWAP1 DUP2 PUSH2 0x1037 SWAP2 SWAP1 PUSH2 0x2F10 JUMP JUMPDEST POP PUSH1 0x20 DUP3 ADD MLOAD DUP2 PUSH1 0x1 ADD SWAP1 DUP2 PUSH2 0x104D SWAP2 SWAP1 PUSH2 0x2F10 JUMP JUMPDEST POP PUSH1 0x40 DUP3 ADD MLOAD DUP2 PUSH1 0x2 ADD SWAP1 DUP2 PUSH2 0x1063 SWAP2 SWAP1 PUSH2 0x2F10 JUMP JUMPDEST POP PUSH1 0x60 DUP3 ADD MLOAD DUP2 PUSH1 0x3 ADD SWAP1 DUP2 PUSH2 0x1079 SWAP2 SWAP1 PUSH2 0x2F10 JUMP JUMPDEST POP PUSH1 0x80 DUP3 ADD MLOAD DUP2 PUSH1 0x4 ADD SSTORE PUSH1 0xA0 DUP3 ADD MLOAD DUP2 PUSH1 0x5 ADD SSTORE PUSH1 0xC0 DUP3 ADD MLOAD DUP2 PUSH1 0x6 ADD PUSH1 0x0 PUSH2 0x100 EXP DUP2 SLOAD DUP2 PUSH20 0xFFFFFFFFFFFFFFFFFFFFFFFFFFFFFFFFFFFFFFFF MUL NOT AND SWAP1 DUP4 PUSH20 0xFFFFFFFFFFFFFFFFFFFFFFFFFFFFFFFFFFFFFFFF AND MUL OR SWAP1 SSTORE POP PUSH1 0xE0 DUP3 ADD MLOAD DUP2 PUSH1 0x6 ADD PUSH1 0x14 PUSH2 0x100 EXP DUP2 SLOAD DUP2 PUSH1 0xFF MUL NOT AND SWAP1 DUP4 ISZERO ISZERO MUL OR SWAP1 SSTORE POP SWAP1 POP POP PUSH1 0x2 PUSH1 0x0 CALLER PUSH20 0xFFFFFFFFFFFFFFFFFFFFFFFFFFFFFFFFFFFFFFFF AND PUSH20 0xFFFFFFFFFFFFFFFFFFFFFFFFFFFFFFFFFFFFFFFF AND DUP2 MSTORE PUSH1 0x20 ADD SWAP1 DUP2 MSTORE PUSH1 0x20 ADD PUSH1 0x0 KECCAK256 PUSH1 0x4 SLOAD SWAP1 DUP1 PUSH1 0x1 DUP2 SLOAD ADD DUP1 DUP3 SSTORE DUP1 SWAP2 POP POP PUSH1 0x1 SWAP1 SUB SWAP1 PUSH1 0x0 MSTORE PUSH1 0x20 PUSH1 0x0 KECCAK256 ADD PUSH1 0x0 SWAP1 SWAP2 SWAP1 SWAP2 SWAP1 SWAP2 POP SSTORE CALLER PUSH20 0xFFFFFFFFFFFFFFFFFFFFFFFFFFFFFFFFFFFFFFFF AND PUSH1 0x4 SLOAD PUSH32 0x27F3F26A98F0D9406755F5CA8507825D5AE5251ED1BEB7965B5BA7D562962E3C DUP9 DUP9 DUP7 TIMESTAMP PUSH1 0x40 MLOAD PUSH2 0x11AF SWAP5 SWAP4 SWAP3 SWAP2 SWAP1 PUSH2 0x2FE2 JUMP JUMPDEST PUSH1 0x40 MLOAD DUP1 SWAP2 SUB SWAP1 LOG3 PUSH1 0x4 SLOAD SWAP1 POP SWAP6 SWAP5 POP POP POP POP POP JUMP JUMPDEST DUP1 PUSH1 0x0 DUP1 DUP3 DUP2 MSTORE PUSH1 0x20 ADD SWAP1 DUP2 MSTORE PUSH1 0x20 ADD PUSH1 0x0 KECCAK256 PUSH1 0x6 ADD PUSH1 0x14 SWAP1 SLOAD SWAP1 PUSH2 0x100 EXP SWAP1 DIV PUSH1 0xFF AND PUSH2 0x1228 JUMPI PUSH1 0x40 MLOAD PUSH32 0x8C379A000000000000000000000000000000000000000000000000000000000 DUP2 MSTORE PUSH1 0x4 ADD PUSH2 0x121F SWAP1 PUSH2 0x2B89 JUMP JUMPDEST PUSH1 0x40 MLOAD DUP1 SWAP2 SUB SWAP1 REVERT JUMPDEST CALLER PUSH20 0xFFFFFFFFFFFFFFFFFFFFFFFFFFFFFFFFFFFFFFFF AND PUSH1 0x0 DUP1 DUP4 DUP2 MSTORE PUSH1 0x20 ADD SWAP1 DUP2 MSTORE PUSH1 0x20 ADD PUSH1 0x0 KECCAK256 PUSH1 0x6 ADD PUSH1 0x0 SWAP1 SLOAD SWAP1 PUSH2 0x100 EXP SWAP1 DIV PUSH20 0xFFFFFFFFFFFFFFFFFFFFFFFFFFFFFFFFFFFFFFFF AND PUSH20 0xFFFFFFFFFFFFFFFFFFFFFFFFFFFFFFFFFFFFFFFF AND EQ PUSH2 0x12CB JUMPI PUSH1 0x40 MLOAD PUSH32 0x8C379A000000000000000000000000000000000000000000000000000000000 DUP2 MSTORE PUSH1 0x4 ADD PUSH2 0x12C2 SWAP1 PUSH2 0x3081 JUMP JUMPDEST PUSH1 0x40 MLOAD DUP1 SWAP2 SUB SWAP1 REVERT JUMPDEST PUSH1 0x0 DUP1 PUSH1 0x0 DUP5 DUP2 MSTORE PUSH1 0x20 ADD SWAP1 DUP2 MSTORE PUSH1 0x20 ADD PUSH1 0x0 KECCAK256 PUSH1 0x6 ADD PUSH1 0x14 PUSH2 0x100 EXP DUP2 SLOAD DUP2 PUSH1 0xFF MUL NOT AND SWAP1 DUP4 ISZERO ISZERO MUL OR SWAP1 SSTORE POP PUSH1 0x0 PUSH1 0x2 PUSH1 0x0 CALLER PUSH20 0xFFFFFFFFFFFFFFFFFFFFFFFFFFFFFFFFFFFFFFFF AND PUSH20 0xFFFFFFFFFFFFFFFFFFFFFFFFFFFFFFFFFFFFFFFF AND DUP2 MSTORE PUSH1 0x20 ADD SWAP1 DUP2 MSTORE PUSH1 0x20 ADD PUSH1 0x0 KECCAK256 SWAP1 POP PUSH1 0x0 JUMPDEST DUP2 DUP1 SLOAD SWAP1 POP DUP2 LT ISZERO PUSH2 0x13F7 JUMPI DUP4 DUP3 DUP3 DUP2 SLOAD DUP2 LT PUSH2 0x135F JUMPI PUSH2 0x135E PUSH2 0x30A1 JUMP JUMPDEST JUMPDEST SWAP1 PUSH1 0x0 MSTORE PUSH1 0x20 PUSH1 0x0 KECCAK256 ADD SLOAD SUB PUSH2 0x13EA JUMPI DUP2 PUSH1 0x1 DUP4 DUP1 SLOAD SWAP1 POP PUSH2 0x1381 SWAP2 SWAP1 PUSH2 0x30D0 JUMP JUMPDEST DUP2 SLOAD DUP2 LT PUSH2 0x1392 JUMPI PUSH2 0x1391 PUSH2 0x30A1 JUMP JUMPDEST JUMPDEST SWAP1 PUSH1 0x0 MSTORE PUSH1 0x20 PUSH1 0x0 KECCAK256 ADD SLOAD DUP3 DUP3 DUP2 SLOAD DUP2 LT PUSH2 0x13B0 JUMPI PUSH2 0x13AF PUSH2 0x30A1 JUMP JUMPDEST JUMPDEST SWAP1 PUSH1 0x0 MSTORE PUSH1 0x20 PUSH1 0x0 KECCAK256 ADD DUP2 SWAP1 SSTORE POP DUP2 DUP1 SLOAD DUP1 PUSH2 0x13CF JUMPI PUSH2 0x13CE PUSH2 0x3104 JUMP JUMPDEST JUMPDEST PUSH1 0x1 SWAP1 SUB DUP2 DUP2 SWAP1 PUSH1 0x0 MSTORE PUSH1 0x20 PUSH1 0x0 KECCAK256 ADD PUSH1 0x0 SWAP1 SSTORE SWAP1 SSTORE PUSH2 0x13F7 JUMP JUMPDEST DUP1 DUP1 PUSH1 0x1 ADD SWAP2 POP POP PUSH2 0x133F JUMP JUMPDEST POP CALLER PUSH20 0xFFFFFFFFFFFFFFFFFFFFFFFFFFFFFFFFFFFFFFFF AND DUP4 PUSH32 0x1C44732BBA94823915664B74C47516ACFB1386FE0D85BE9C373EE3D3EE41953F TIMESTAMP PUSH1 0x40 MLOAD PUSH2 0x143F SWAP2 SWAP1 PUSH2 0x242E JUMP JUMPDEST PUSH1 0x40 MLOAD DUP1 SWAP2 SUB SWAP1 LOG3 POP POP POP JUMP JUMPDEST PUSH1 0x4 SLOAD DUP2 JUMP JUMPDEST PUSH1 0x0 PUSH1 0x20 MSTORE DUP1 PUSH1 0x0 MSTORE PUSH1 0x40 PUSH1 0x0 KECCAK256 PUSH1 0x0 SWAP2 POP SWAP1 POP DUP1 PUSH1 0x0 ADD DUP1 SLOAD PUSH2 0x1475 SWAP1 PUSH2 0x2B0C JUMP JUMPDEST DUP1 PUSH1 0x1F ADD PUSH1 0x20 DUP1 SWAP2 DIV MUL PUSH1 0x20 ADD PUSH1 0x40 MLOAD SWAP1 DUP2 ADD PUSH1 0x40 MSTORE DUP1 SWAP3 SWAP2 SWAP1 DUP2 DUP2 MSTORE PUSH1 0x20 ADD DUP3 DUP1 SLOAD PUSH2 0x14A1 SWAP1 PUSH2 0x2B0C JUMP JUMPDEST DUP1 ISZERO PUSH2 0x14EE JUMPI DUP1 PUSH1 0x1F LT PUSH2 0x14C3 JUMPI PUSH2 0x100 DUP1 DUP4 SLOAD DIV MUL DUP4 MSTORE SWAP2 PUSH1 0x20 ADD SWAP2 PUSH2 0x14EE JUMP JUMPDEST DUP3 ADD SWAP2 SWAP1 PUSH1 0x0 MSTORE PUSH1 0x20 PUSH1 0x0 KECCAK256 SWAP1 JUMPDEST DUP2 SLOAD DUP2 MSTORE SWAP1 PUSH1 0x1 ADD SWAP1 PUSH1 0x20 ADD DUP1 DUP4 GT PUSH2 0x14D1 JUMPI DUP3 SWAP1 SUB PUSH1 0x1F AND DUP3 ADD SWAP2 JUMPDEST POP POP POP POP POP SWAP1 DUP1 PUSH1 0x1 ADD DUP1 SLOAD PUSH2 0x1503 SWAP1 PUSH2 0x2B0C JUMP JUMPDEST DUP1 PUSH1 0x1F ADD PUSH1 0x20 DUP1 SWAP2 DIV MUL PUSH1 0x20 ADD PUSH1 0x40 MLOAD SWAP1 DUP2 ADD PUSH1 0x40 MSTORE DUP1 SWAP3 SWAP2 SWAP1 DUP2 DUP2 MSTORE PUSH1 0x20 ADD DUP3 DUP1 SLOAD PUSH2 0x152F SWAP1 PUSH2 0x2B0C JUMP JUMPDEST DUP1 ISZERO PUSH2 0x157C JUMPI DUP1 PUSH1 0x1F LT PUSH2 0x1551 JUMPI PUSH2 0x100 DUP1 DUP4 SLOAD DIV MUL DUP4 MSTORE SWAP2 PUSH1 0x20 ADD SWAP2 PUSH2 0x157C JUMP JUMPDEST DUP3 ADD SWAP2 SWAP1 PUSH1 0x0 MSTORE PUSH1 0x20 PUSH1 0x0 KECCAK256 SWAP1 JUMPDEST DUP2 SLOAD DUP2 MSTORE SWAP1 PUSH1 0x1 ADD SWAP1 PUSH1 0x20 ADD DUP1 DUP4 GT PUSH2 0x155F JUMPI DUP3 SWAP1 SUB PUSH1 0x1F AND DUP3 ADD SWAP2 JUMPDEST POP POP POP POP POP SWAP1 DUP1 PUSH1 0x2 ADD DUP1 SLOAD PUSH2 0x1591 SWAP1 PUSH2 0x2B0C JUMP JUMPDEST DUP1 PUSH1 0x1F ADD PUSH1 0x20 DUP1 SWAP2 DIV MUL PUSH1 0x20 ADD PUSH1 0x40 MLOAD SWAP1 DUP2 ADD PUSH1 0x40 MSTORE DUP1 SWAP3 SWAP2 SWAP1 DUP2 DUP2 MSTORE PUSH1 0x20 ADD DUP3 DUP1 SLOAD PUSH2 0x15BD SWAP1 PUSH2 0x2B0C JUMP JUMPDEST DUP1 ISZERO PUSH2 0x160A JUMPI DUP1 PUSH1 0x1F LT PUSH2 0x15DF JUMPI PUSH2 0x100 DUP1 DUP4 SLOAD DIV MUL DUP4 MSTORE SWAP2 PUSH1 0x20 ADD SWAP2 PUSH2 0x160A JUMP JUMPDEST DUP3 ADD SWAP2 SWAP1 PUSH1 0x0 MSTORE PUSH1 0x20 PUSH1 0x0 KECCAK256 SWAP1 JUMPDEST DUP2 SLOAD DUP2 MSTORE SWAP1 PUSH1 0x1 ADD SWAP1 PUSH1 0x20 ADD DUP1 DUP4 GT PUSH2 0x15ED JUMPI DUP3 SWAP1 SUB PUSH1 0x1F AND DUP3 ADD SWAP2 JUMPDEST POP POP POP POP POP SWAP1 DUP1 PUSH1 0x3 ADD DUP1 SLOAD PUSH2 0x161F SWAP1 PUSH2 0x2B0C JUMP JUMPDEST DUP1 PUSH1 0x1F ADD PUSH1 0x20 DUP1 SWAP2 DIV MUL PUSH1 0x20 ADD PUSH1 0x40 MLOAD SWAP1 DUP2 ADD PUSH1 0x40 MSTORE DUP1 SWAP3 SWAP2 SWAP1 DUP2 DUP2 MSTORE PUSH1 0x20 ADD DUP3 DUP1 SLOAD PUSH2 0x164B SWAP1 PUSH2 0x2B0C JUMP JUMPDEST DUP1 ISZERO PUSH2 0x1698 JUMPI DUP1 PUSH1 0x1F LT PUSH2 0x166D JUMPI PUSH2 0x100 DUP1 DUP4 SLOAD DIV MUL DUP4 MSTORE SWAP2 PUSH1 0x20 ADD SWAP2 PUSH2 0x1698 JUMP JUMPDEST DUP3 ADD SWAP2 SWAP1 PUSH1 0x0 MSTORE PUSH1 0x20 PUSH1 0x0 KECCAK256 SWAP1 JUMPDEST DUP2 SLOAD DUP2 MSTORE SWAP1 PUSH1 0x1 ADD SWAP1 PUSH1 0x20 ADD DUP1 DUP4 GT PUSH2 0x167B JUMPI DUP3 SWAP1 SUB PUSH1 0x1F AND DUP3 ADD SWAP2 JUMPDEST POP POP POP POP POP SWAP1 DUP1 PUSH1 0x4 ADD SLOAD SWAP1 DUP1 PUSH1 0x5 ADD SLOAD SWAP1 DUP1 PUSH1 0x6 ADD PUSH1 0x0 SWAP1 SLOAD SWAP1 PUSH2 0x100 EXP SWAP1 DIV PUSH20 0xFFFFFFFFFFFFFFFFFFFFFFFFFFFFFFFFFFFFFFFF AND SWAP1 DUP1 PUSH1 0x6 ADD PUSH1 0x14 SWAP1 SLOAD SWAP1 PUSH2 0x100 EXP SWAP1 DIV PUSH1 0xFF AND SWAP1 POP DUP9 JUMP JUMPDEST PUSH1 0x0 DUP3 PUSH1 0x0 DUP1 DUP3 DUP2 MSTORE PUSH1 0x20 ADD SWAP1 DUP2 MSTORE PUSH1 0x20 ADD PUSH1 0x0 KECCAK256 PUSH1 0x6 ADD PUSH1 0x14 SWAP1 SLOAD SWAP1 PUSH2 0x100 EXP SWAP1 DIV PUSH1 0xFF AND PUSH2 0x174C JUMPI PUSH1 0x40 MLOAD PUSH32 0x8C379A000000000000000000000000000000000000000000000000000000000 DUP2 MSTORE PUSH1 0x4 ADD PUSH2 0x1743 SWAP1 PUSH2 0x2B89 JUMP JUMPDEST PUSH1 0x40 MLOAD DUP1 SWAP2 SUB SWAP1 REVERT JUMPDEST DUP3 PUSH20 0xFFFFFFFFFFFFFFFFFFFFFFFFFFFFFFFFFFFFFFFF AND PUSH1 0x0 DUP1 DUP7 DUP2 MSTORE PUSH1 0x20 ADD SWAP1 DUP2 MSTORE PUSH1 0x20 ADD PUSH1 0x0 KECCAK256 PUSH1 0x6 ADD PUSH1 0x0 SWAP1 SLOAD SWAP1 PUSH2 0x100 EXP SWAP1 DIV PUSH20 0xFFFFFFFFFFFFFFFFFFFFFFFFFFFFFFFFFFFFFFFF AND PUSH20 0xFFFFFFFFFFFFFFFFFFFFFFFFFFFFFFFFFFFFFFFF AND EQ DUP1 PUSH2 0x17C1 JUMPI POP PUSH2 0x17C0 DUP5 DUP5 PUSH2 0x2160 JUMP JUMPDEST JUMPDEST SWAP2 POP POP SWAP3 SWAP2 POP POP JUMP JUMPDEST DUP3 PUSH1 0x0 DUP1 DUP3 DUP2 MSTORE PUSH1 0x20 ADD SWAP1 DUP2 MSTORE PUSH1 0x20 ADD PUSH1 0x0 KECCAK256 PUSH1 0x6 ADD PUSH1 0x14 SWAP1 SLOAD SWAP1 PUSH2 0x100 EXP SWAP1 DIV PUSH1 0xFF AND PUSH2 0x182D JUMPI PUSH1 0x40 MLOAD PUSH32 0x8C379A000000000000000000000000000000000000000000000000000000000 DUP2 MSTORE PUSH1 0x4 ADD PUSH2 0x1824 SWAP1 PUSH2 0x2B89 JUMP JUMPDEST PUSH1 0x40 MLOAD DUP1 SWAP2 SUB SWAP1 REVERT JUMPDEST CALLER PUSH20 0xFFFFFFFFFFFFFFFFFFFFFFFFFFFFFFFFFFFFFFFF AND PUSH1 0x0 DUP1 DUP4 DUP2 MSTORE PUSH1 0x20 ADD SWAP1 DUP2 MSTORE PUSH1 0x20 ADD PUSH1 0x0 KECCAK256 PUSH1 0x6 ADD PUSH1 0x0 SWAP1 SLOAD SWAP1 PUSH2 0x100 EXP SWAP1 DIV PUSH20 0xFFFFFFFFFFFFFFFFFFFFFFFFFFFFFFFFFFFFFFFF AND PUSH20 0xFFFFFFFFFFFFFFFFFFFFFFFFFFFFFFFFFFFFFFFF AND EQ PUSH2 0x18D0 JUMPI PUSH1 0x40 MLOAD PUSH32 0x8C379A000000000000000000000000000000000000000000000000000000000 DUP2 MSTORE PUSH1 0x4 ADD PUSH2 0x18C7 SWAP1 PUSH2 0x3081 JUMP JUMPDEST PUSH1 0x40 MLOAD DUP1 SWAP2 SUB SWAP1 REVERT JUMPDEST PUSH1 0x0 PUSH20 0xFFFFFFFFFFFFFFFFFFFFFFFFFFFFFFFFFFFFFFFF AND DUP4 PUSH20 0xFFFFFFFFFFFFFFFFFFFFFFFFFFFFFFFFFFFFFFFF AND SUB PUSH2 0x193F JUMPI PUSH1 0x40 MLOAD PUSH32 0x8C379A000000000000000000000000000000000000000000000000000000000 DUP2 MSTORE PUSH1 0x4 ADD PUSH2 0x1936 SWAP1 PUSH2 0x317F JUMP JUMPDEST PUSH1 0x40 MLOAD DUP1 SWAP2 SUB SWAP1 REVERT JUMPDEST CALLER PUSH20 0xFFFFFFFFFFFFFFFFFFFFFFFFFFFFFFFFFFFFFFFF AND DUP4 PUSH20 0xFFFFFFFFFFFFFFFFFFFFFFFFFFFFFFFFFFFFFFFF AND SUB PUSH2 0x19AD JUMPI PUSH1 0x40 MLOAD PUSH32 0x8C379A000000000000000000000000000000000000000000000000000000000 DUP2 MSTORE PUSH1 0x4 ADD PUSH2 0x19A4 SWAP1 PUSH2 0x31EB JUMP JUMPDEST PUSH1 0x40 MLOAD DUP1 SWAP2 SUB SWAP1 REVERT JUMPDEST PUSH1 0x1 PUSH1 0x0 DUP6 DUP2 MSTORE PUSH1 0x20 ADD SWAP1 DUP2 MSTORE PUSH1 0x20 ADD PUSH1 0x0 KECCAK256 PUSH1 0x0 DUP5 PUSH20 0xFFFFFFFFFFFFFFFFFFFFFFFFFFFFFFFFFFFFFFFF AND PUSH20 0xFFFFFFFFFFFFFFFFFFFFFFFFFFFFFFFFFFFFFFFF AND DUP2 MSTORE PUSH1 0x20 ADD SWAP1 DUP2 MSTORE PUSH1 0x20 ADD PUSH1 0x0 KECCAK256 PUSH1 0x0 ADD PUSH1 0x0 SWAP1 SLOAD SWAP1 PUSH2 0x100 EXP SWAP1 DIV PUSH1 0xFF AND ISZERO PUSH2 0x1A4E JUMPI PUSH1 0x40 MLOAD PUSH32 0x8C379A000000000000000000000000000000000000000000000000000000000 DUP2 MSTORE PUSH1 0x4 ADD PUSH2 0x1A45 SWAP1 PUSH2 0x3257 JUMP JUMPDEST PUSH1 0x40 MLOAD DUP1 SWAP2 SUB SWAP1 REVERT JUMPDEST PUSH1 0x0 DUP3 EQ DUP1 PUSH2 0x1A5C JUMPI POP TIMESTAMP DUP3 GT JUMPDEST PUSH2 0x1A9B JUMPI PUSH1 0x40 MLOAD PUSH32 0x8C379A000000000000000000000000000000000000000000000000000000000 DUP2 MSTORE PUSH1 0x4 ADD PUSH2 0x1A92 SWAP1 PUSH2 0x32C3 JUMP JUMPDEST PUSH1 0x40 MLOAD DUP1 SWAP2 SUB SWAP1 REVERT JUMPDEST PUSH1 0x40 MLOAD DUP1 PUSH1 0x60 ADD PUSH1 0x40 MSTORE DUP1 PUSH1 0x1 ISZERO ISZERO DUP2 MSTORE PUSH1 0x20 ADD TIMESTAMP DUP2 MSTORE PUSH1 0x20 ADD DUP4 DUP2 MSTORE POP PUSH1 0x1 PUSH1 0x0 DUP7 DUP2 MSTORE PUSH1 0x20 ADD SWAP1 DUP2 MSTORE PUSH1 0x20 ADD PUSH1 0x0 KECCAK256 PUSH1 0x0 DUP6 PUSH20 0xFFFFFFFFFFFFFFFFFFFFFFFFFFFFFFFFFFFFFFFF AND PUSH20 0xFFFFFFFFFFFFFFFFFFFFFFFFFFFFFFFFFFFFFFFF AND DUP2 MSTORE PUSH1 0x20 ADD SWAP1 DUP2 MSTORE PUSH1 0x20 ADD PUSH1 0x0 KECCAK256 PUSH1 0x0 DUP3 ADD MLOAD DUP2 PUSH1 0x0 ADD PUSH1 0x0 PUSH2 0x100 EXP DUP2 SLOAD DUP2 PUSH1 0xFF MUL NOT AND SWAP1 DUP4 ISZERO ISZERO MUL OR SWAP1 SSTORE POP PUSH1 0x20 DUP3 ADD MLOAD DUP2 PUSH1 0x1 ADD SSTORE PUSH1 0x40 DUP3 ADD MLOAD DUP2 PUSH1 0x2 ADD SSTORE SWAP1 POP POP PUSH1 0x3 PUSH1 0x0 DUP5 PUSH20 0xFFFFFFFFFFFFFFFFFFFFFFFFFFFFFFFFFFFFFFFF AND PUSH20 0xFFFFFFFFFFFFFFFFFFFFFFFFFFFFFFFFFFFFFFFF AND DUP2 MSTORE PUSH1 0x20 ADD SWAP1 DUP2 MSTORE PUSH1 0x20 ADD PUSH1 0x0 KECCAK256 DUP5 SWAP1 DUP1 PUSH1 0x1 DUP2 SLOAD ADD DUP1 DUP3 SSTORE DUP1 SWAP2 POP POP PUSH1 0x1 SWAP1 SUB SWAP1 PUSH1 0x0 MSTORE PUSH1 0x20 PUSH1 0x0 KECCAK256 ADD PUSH1 0x0 SWAP1 SWAP2 SWAP1 SWAP2 SWAP1 SWAP2 POP SSTORE DUP3 PUSH20 0xFFFFFFFFFFFFFFFFFFFFFFFFFFFFFFFFFFFFFFFF AND CALLER PUSH20 0xFFFFFFFFFFFFFFFFFFFFFFFFFFFFFFFFFFFFFFFF AND DUP6 PUSH32 0xA239E588DE3AFF05A58500844212EB7C4484B93D21066B85F82E38C39C0C8C24 TIMESTAMP DUP7 PUSH1 0x40 MLOAD PUSH2 0x1C06 SWAP3 SWAP2 SWAP1 PUSH2 0x32E3 JUMP JUMPDEST PUSH1 0x40 MLOAD DUP1 SWAP2 SUB SWAP1 LOG4 POP POP POP POP JUMP JUMPDEST DUP2 PUSH1 0x0 DUP1 DUP3 DUP2 MSTORE PUSH1 0x20 ADD SWAP1 DUP2 MSTORE PUSH1 0x20 ADD PUSH1 0x0 KECCAK256 PUSH1 0x6 ADD PUSH1 0x14 SWAP1 SLOAD SWAP1 PUSH2 0x100 EXP SWAP1 DIV PUSH1 0xFF AND PUSH2 0x1C77 JUMPI PUSH1 0x40 MLOAD PUSH32 0x8C379A000000000000000000000000000000000000000000000000000000000 DUP2 MSTORE PUSH1 0x4 ADD PUSH2 0x1C6E SWAP1 PUSH2 0x2B89 JUMP JUMPDEST PUSH1 0x40 MLOAD DUP1 SWAP2 SUB SWAP1 REVERT JUMPDEST CALLER PUSH20 0xFFFFFFFFFFFFFFFFFFFFFFFFFFFFFFFFFFFFFFFF AND PUSH1 0x0 DUP1 DUP4 DUP2 MSTORE PUSH1 0x20 ADD SWAP1 DUP2 MSTORE PUSH1 0x20 ADD PUSH1 0x0 KECCAK256 PUSH1 0x6 ADD PUSH1 0x0 SWAP1 SLOAD SWAP1 PUSH2 0x100 EXP SWAP1 DIV PUSH20 0xFFFFFFFFFFFFFFFFFFFFFFFFFFFFFFFFFFFFFFFF AND PUSH20 0xFFFFFFFFFFFFFFFFFFFFFFFFFFFFFFFFFFFFFFFF AND EQ PUSH2 0x1D1A JUMPI PUSH1 0x40 MLOAD PUSH32 0x8C379A000000000000000000000000000000000000000000000000000000000 DUP2 MSTORE PUSH1 0x4 ADD PUSH2 0x1D11 SWAP1 PUSH2 0x3081 JUMP JUMPDEST PUSH1 0x40 MLOAD DUP1 SWAP2 SUB SWAP1 REVERT JUMPDEST PUSH1 0x1 PUSH1 0x0 DUP5 DUP2 MSTORE PUSH1 0x20 ADD SWAP1 DUP2 MSTORE PUSH1 0x20 ADD PUSH1 0x0 KECCAK256 PUSH1 0x0 DUP4 PUSH20 0xFFFFFFFFFFFFFFFFFFFFFFFFFFFFFFFFFFFFFFFF AND PUSH20 0xFFFFFFFFFFFFFFFFFFFFFFFFFFFFFFFFFFFFFFFF AND DUP2 MSTORE PUSH1 0x20 ADD SWAP1 DUP2 MSTORE PUSH1 0x20 ADD PUSH1 0x0 KECCAK256 PUSH1 0x0 ADD PUSH1 0x0 SWAP1 SLOAD SWAP1 PUSH2 0x100 EXP SWAP1 DIV PUSH1 0xFF AND PUSH2 0x1DBA JUMPI PUSH1 0x40 MLOAD PUSH32 0x8C379A000000000000000000000000000000000000000000000000000000000 DUP2 MSTORE PUSH1 0x4 ADD PUSH2 0x1DB1 SWAP1 PUSH2 0x3358 JUMP JUMPDEST PUSH1 0x40 MLOAD DUP1 SWAP2 SUB SWAP1 REVERT JUMPDEST PUSH1 0x0 PUSH1 0x1 PUSH1 0x0 DUP6 DUP2 MSTORE PUSH1 0x20 ADD SWAP1 DUP2 MSTORE PUSH1 0x20 ADD PUSH1 0x0 KECCAK256 PUSH1 0x0 DUP5 PUSH20 0xFFFFFFFFFFFFFFFFFFFFFFFFFFFFFFFFFFFFFFFF AND PUSH20 0xFFFFFFFFFFFFFFFFFFFFFFFFFFFFFFFFFFFFFFFF AND DUP2 MSTORE PUSH1 0x20 ADD SWAP1 DUP2 MSTORE PUSH1 0x20 ADD PUSH1 0x0 KECCAK256 PUSH1 0x0 ADD PUSH1 0x0 PUSH2 0x100 EXP DUP2 SLOAD DUP2 PUSH1 0xFF MUL NOT AND SWAP1 DUP4 ISZERO ISZERO MUL OR SWAP1 SSTORE POP PUSH1 0x0 PUSH1 0x3 PUSH1 0x0 DUP5 PUSH20 0xFFFFFFFFFFFFFFFFFFFFFFFFFFFFFFFFFFFFFFFF AND PUSH20 0xFFFFFFFFFFFFFFFFFFFFFFFFFFFFFFFFFFFFFFFF AND DUP2 MSTORE PUSH1 0x20 ADD SWAP1 DUP2 MSTORE PUSH1 0x20 ADD PUSH1 0x0 KECCAK256 SWAP1 POP PUSH1 0x0 JUMPDEST DUP2 DUP1 SLOAD SWAP1 POP DUP2 LT ISZERO PUSH2 0x1F24 JUMPI DUP5 DUP3 DUP3 DUP2 SLOAD DUP2 LT PUSH2 0x1E8C JUMPI PUSH2 0x1E8B PUSH2 0x30A1 JUMP JUMPDEST JUMPDEST SWAP1 PUSH1 0x0 MSTORE PUSH1 0x20 PUSH1 0x0 KECCAK256 ADD SLOAD SUB PUSH2 0x1F17 JUMPI DUP2 PUSH1 0x1 DUP4 DUP1 SLOAD SWAP1 POP PUSH2 0x1EAE SWAP2 SWAP1 PUSH2 0x30D0 JUMP JUMPDEST DUP2 SLOAD DUP2 LT PUSH2 0x1EBF JUMPI PUSH2 0x1EBE PUSH2 0x30A1 JUMP JUMPDEST JUMPDEST SWAP1 PUSH1 0x0 MSTORE PUSH1 0x20 PUSH1 0x0 KECCAK256 ADD SLOAD DUP3 DUP3 DUP2 SLOAD DUP2 LT PUSH2 0x1EDD JUMPI PUSH2 0x1EDC PUSH2 0x30A1 JUMP JUMPDEST JUMPDEST SWAP1 PUSH1 0x0 MSTORE PUSH1 0x20 PUSH1 0x0 KECCAK256 ADD DUP2 SWAP1 SSTORE POP DUP2 DUP1 SLOAD DUP1 PUSH2 0x1EFC JUMPI PUSH2 0x1EFB PUSH2 0x3104 JUMP JUMPDEST JUMPDEST PUSH1 0x1 SWAP1 SUB DUP2 DUP2 SWAP1 PUSH1 0x0 MSTORE PUSH1 0x20 PUSH1 0x0 KECCAK256 ADD PUSH1 0x0 SWAP1 SSTORE SWAP1 SSTORE PUSH2 0x1F24 JUMP JUMPDEST DUP1 DUP1 PUSH1 0x1 ADD SWAP2 POP POP PUSH2 0x1E6C JUMP JUMPDEST POP DUP3 PUSH20 0xFFFFFFFFFFFFFFFFFFFFFFFFFFFFFFFFFFFFFFFF AND CALLER PUSH20 0xFFFFFFFFFFFFFFFFFFFFFFFFFFFFFFFFFFFFFFFF AND DUP6 PUSH32 0x44CC0386E2D27CF0A4D53AA262E89D728C4866B8C331DB29CAA559BD37212557 TIMESTAMP PUSH1 0x40 MLOAD PUSH2 0x1F83 SWAP2 SWAP1 PUSH2 0x242E JUMP JUMPDEST PUSH1 0x40 MLOAD DUP1 SWAP2 SUB SWAP1 LOG4 POP POP POP POP JUMP JUMPDEST PUSH1 0x60 PUSH1 0x2 PUSH1 0x0 DUP4 PUSH20 0xFFFFFFFFFFFFFFFFFFFFFFFFFFFFFFFFFFFFFFFF AND PUSH20 0xFFFFFFFFFFFFFFFFFFFFFFFFFFFFFFFFFFFFFFFF AND DUP2 MSTORE PUSH1 0x20 ADD SWAP1 DUP2 MSTORE PUSH1 0x20 ADD PUSH1 0x0 KECCAK256 DUP1 SLOAD DUP1 PUSH1 0x20 MUL PUSH1 0x20 ADD PUSH1 0x40 MLOAD SWAP1 DUP2 ADD PUSH1 0x40 MSTORE DUP1 SWAP3 SWAP2 SWAP1 DUP2 DUP2 MSTORE PUSH1 0x20 ADD DUP3 DUP1 SLOAD DUP1 ISZERO PUSH2 0x201C JUMPI PUSH1 0x20 MUL DUP3 ADD SWAP2 SWAP1 PUSH1 0x0 MSTORE PUSH1 0x20 PUSH1 0x0 KECCAK256 SWAP1 JUMPDEST DUP2 SLOAD DUP2 MSTORE PUSH1 0x20 ADD SWAP1 PUSH1 0x1 ADD SWAP1 DUP1 DUP4 GT PUSH2 0x2008 JUMPI JUMPDEST POP POP POP POP POP SWAP1 POP SWAP2 SWAP1 POP JUMP JUMPDEST PUSH1 0x0 PUSH1 0x4 SLOAD SWAP1 POP SWAP1 JUMP JUMPDEST PUSH1 0x0 DUP3 PUSH1 0x0 DUP1 DUP3 DUP2 MSTORE PUSH1 0x20 ADD SWAP1 DUP2 MSTORE PUSH1 0x20 ADD PUSH1 0x0 KECCAK256 PUSH1 0x6 ADD PUSH1 0x14 SWAP1 SLOAD SWAP1 PUSH2 0x100 EXP SWAP1 DIV PUSH1 0xFF AND PUSH2 0x2097 JUMPI PUSH1 0x40 MLOAD PUSH32 0x8C379A000000000000000000000000000000000000000000000000000000000 DUP2 MSTORE PUSH1 0x4 ADD PUSH2 0x208E SWAP1 PUSH2 0x2B89 JUMP JUMPDEST PUSH1 0x40 MLOAD DUP1 SWAP2 SUB SWAP1 REVERT JUMPDEST PUSH1 0x0 PUSH1 0x1 PUSH1 0x0 DUP7 DUP2 MSTORE PUSH1 0x20 ADD SWAP1 DUP2 MSTORE PUSH1 0x20 ADD PUSH1 0x0 KECCAK256 PUSH1 0x0 DUP6 PUSH20 0xFFFFFFFFFFFFFFFFFFFFFFFFFFFFFFFFFFFFFFFF AND PUSH20 0xFFFFFFFFFFFFFFFFFFFFFFFFFFFFFFFFFFFFFFFF AND DUP2 MSTORE PUSH1 0x20 ADD SWAP1 DUP2 MSTORE PUSH1 0x20 ADD PUSH1 0x0 KECCAK256 PUSH1 0x40 MLOAD DUP1 PUSH1 0x60 ADD PUSH1 0x40 MSTORE SWAP1 DUP2 PUSH1 0x0 DUP3 ADD PUSH1 0x0 SWAP1 SLOAD SWAP1 PUSH2 0x100 EXP SWAP1 DIV PUSH1 0xFF AND ISZERO ISZERO ISZERO ISZERO DUP2 MSTORE PUSH1 0x20 ADD PUSH1 0x1 DUP3 ADD SLOAD DUP2 MSTORE PUSH1 0x20 ADD PUSH1 0x2 DUP3 ADD SLOAD DUP2 MSTORE POP POP SWAP1 POP DUP1 PUSH1 0x0 ADD MLOAD PUSH2 0x2138 JUMPI PUSH1 0x0 SWAP3 POP POP PUSH2 0x2159 JUMP JUMPDEST PUSH1 0x0 DUP2 PUSH1 0x40 ADD MLOAD SUB PUSH2 0x214E JUMPI PUSH1 0x0 SWAP3 POP POP PUSH2 0x2159 JUMP JUMPDEST DUP1 PUSH1 0x40 ADD MLOAD TIMESTAMP GT SWAP3 POP POP JUMPDEST POP SWAP3 SWAP2 POP POP JUMP JUMPDEST PUSH1 0x0 DUP1 PUSH1 0x1 PUSH1 0x0 DUP6 DUP2 MSTORE PUSH1 0x20 ADD SWAP1 DUP2 MSTORE PUSH1 0x20 ADD PUSH1 0x0 KECCAK256 PUSH1 0x0 DUP5 PUSH20 0xFFFFFFFFFFFFFFFFFFFFFFFFFFFFFFFFFFFFFFFF AND PUSH20 0xFFFFFFFFFFFFFFFFFFFFFFFFFFFFFFFFFFFFFFFF AND DUP2 MSTORE PUSH1 0x20 ADD SWAP1 DUP2 MSTORE PUSH1 0x20 ADD PUSH1 0x0 KECCAK256 PUSH1 0x40 MLOAD DUP1 PUSH1 0x60 ADD PUSH1 0x40 MSTORE SWAP1 DUP2 PUSH1 0x0 DUP3 ADD PUSH1 0x0 SWAP1 SLOAD SWAP1 PUSH2 0x100 EXP SWAP1 DIV PUSH1 0xFF AND ISZERO ISZERO ISZERO ISZERO DUP2 MSTORE PUSH1 0x20 ADD PUSH1 0x1 DUP3 ADD SLOAD DUP2 MSTORE PUSH1 0x20 ADD PUSH1 0x2 DUP3 ADD SLOAD DUP2 MSTORE POP POP SWAP1 POP DUP1 PUSH1 0x0 ADD MLOAD PUSH2 0x2202 JUMPI PUSH1 0x0 SWAP2 POP POP PUSH2 0x2224 JUMP JUMPDEST PUSH1 0x0 DUP2 PUSH1 0x40 ADD MLOAD SUB PUSH2 0x2218 JUMPI PUSH1 0x1 SWAP2 POP POP PUSH2 0x2224 JUMP JUMPDEST DUP1 PUSH1 0x40 ADD MLOAD TIMESTAMP GT ISZERO SWAP2 POP POP JUMPDEST SWAP3 SWAP2 POP POP JUMP JUMPDEST PUSH1 0x0 PUSH1 0x40 MLOAD SWAP1 POP SWAP1 JUMP JUMPDEST PUSH1 0x0 DUP1 REVERT JUMPDEST PUSH1 0x0 DUP1 REVERT JUMPDEST PUSH1 0x0 PUSH20 0xFFFFFFFFFFFFFFFFFFFFFFFFFFFFFFFFFFFFFFFF DUP3 AND SWAP1 POP SWAP2 SWAP1 POP JUMP JUMPDEST PUSH1 0x0 PUSH2 0x2269 DUP3 PUSH2 0x223E JUMP JUMPDEST SWAP1 POP SWAP2 SWAP1 POP JUMP JUMPDEST PUSH2 0x2279 DUP2 PUSH2 0x225E JUMP JUMPDEST DUP2 EQ PUSH2 0x2284 JUMPI PUSH1 0x0 DUP1 REVERT JUMPDEST POP JUMP JUMPDEST PUSH1 0x0 DUP2 CALLDATALOAD SWAP1 POP PUSH2 0x2296 DUP2 PUSH2 0x2270 JUMP JUMPDEST SWAP3 SWAP2 POP POP JUMP JUMPDEST PUSH1 0x0 PUSH1 0x20 DUP3 DUP5 SUB SLT ISZERO PUSH2 0x22B2 JUMPI PUSH2 0x22B1 PUSH2 0x2234 JUMP JUMPDEST JUMPDEST PUSH1 0x0 PUSH2 0x22C0 DUP5 DUP3 DUP6 ADD PUSH2 0x2287 JUMP JUMPDEST SWAP2 POP POP SWAP3 SWAP2 POP POP JUMP JUMPDEST PUSH1 0x0 DUP2 MLOAD SWAP1 POP SWAP2 SWAP1 POP JUMP JUMPDEST PUSH1 0x0 DUP3 DUP3 MSTORE PUSH1 0x20 DUP3 ADD SWAP1 POP SWAP3 SWAP2 POP POP JUMP JUMPDEST PUSH1 0x0 DUP2 SWAP1 POP PUSH1 0x20 DUP3 ADD SWAP1 POP SWAP2 SWAP1 POP JUMP JUMPDEST PUSH1 0x0 DUP2 SWAP1 POP SWAP2 SWAP1 POP JUMP JUMPDEST PUSH2 0x2308 DUP2 PUSH2 0x22F5 JUMP JUMPDEST DUP3 MSTORE POP POP JUMP JUMPDEST PUSH1 0x0 PUSH2 0x231A DUP4 DUP4 PUSH2 0x22FF JUMP JUMPDEST PUSH1 0x20 DUP4 ADD SWAP1 POP SWAP3 SWAP2 POP POP JUMP JUMPDEST PUSH1 0x0 PUSH1 0x20 DUP3 ADD SWAP1 POP SWAP2 SWAP1 POP JUMP JUMPDEST PUSH1 0x0 PUSH2 0x233E DUP3 PUSH2 0x22C9 JUMP JUMPDEST PUSH2 0x2348 DUP2 DUP6 PUSH2 0x22D4 JUMP JUMPDEST SWAP4 POP PUSH2 0x2353 DUP4 PUSH2 0x22E5 JUMP JUMPDEST DUP1 PUSH1 0x0 JUMPDEST DUP4 DUP2 LT ISZERO PUSH2 0x2384 JUMPI DUP2 MLOAD PUSH2 0x236B DUP9 DUP3 PUSH2 0x230E JUMP JUMPDEST SWAP8 POP PUSH2 0x2376 DUP4 PUSH2 0x2326 JUMP JUMPDEST SWAP3 POP POP PUSH1 0x1 DUP2 ADD SWAP1 POP PUSH2 0x2357 JUMP JUMPDEST POP DUP6 SWAP4 POP POP POP POP SWAP3 SWAP2 POP POP JUMP JUMPDEST PUSH1 0x0 PUSH1 0x20 DUP3 ADD SWAP1 POP DUP2 DUP2 SUB PUSH1 0x0 DUP4 ADD MSTORE PUSH2 0x23AB DUP2 DUP5 PUSH2 0x2333 JUMP JUMPDEST SWAP1 POP SWAP3 SWAP2 POP POP JUMP JUMPDEST PUSH2 0x23BC DUP2 PUSH2 0x22F5 JUMP JUMPDEST DUP2 EQ PUSH2 0x23C7 JUMPI PUSH1 0x0 DUP1 REVERT JUMPDEST POP JUMP JUMPDEST PUSH1 0x0 DUP2 CALLDATALOAD SWAP1 POP PUSH2 0x23D9 DUP2 PUSH2 0x23B3 JUMP JUMPDEST SWAP3 SWAP2 POP POP JUMP JUMPDEST PUSH1 0x0 DUP1 PUSH1 0x40 DUP4 DUP6 SUB SLT ISZERO PUSH2 0x23F6 JUMPI PUSH2 0x23F5 PUSH2 0x2234 JUMP JUMPDEST JUMPDEST PUSH1 0x0 PUSH2 0x2404 DUP6 DUP3 DUP7 ADD PUSH2 0x2287 JUMP JUMPDEST SWAP3 POP POP PUSH1 0x20 PUSH2 0x2415 DUP6 DUP3 DUP7 ADD PUSH2 0x23CA JUMP JUMPDEST SWAP2 POP POP SWAP3 POP SWAP3 SWAP1 POP JUMP JUMPDEST PUSH2 0x2428 DUP2 PUSH2 0x22F5 JUMP JUMPDEST DUP3 MSTORE POP POP JUMP JUMPDEST PUSH1 0x0 PUSH1 0x20 DUP3 ADD SWAP1 POP PUSH2 0x2443 PUSH1 0x0 DUP4 ADD DUP5 PUSH2 0x241F JUMP JUMPDEST SWAP3 SWAP2 POP POP JUMP JUMPDEST PUSH1 0x0 DUP1 REVERT JUMPDEST PUSH1 0x0 DUP1 REVERT JUMPDEST PUSH1 0x0 PUSH1 0x1F NOT PUSH1 0x1F DUP4 ADD AND SWAP1 POP SWAP2 SWAP1 POP JUMP JUMPDEST PUSH32 0x4E487B7100000000000000000000000000000000000000000000000000000000 PUSH1 0x0 MSTORE PUSH1 0x41 PUSH1 0x4 MSTORE PUSH1 0x24 PUSH1 0x0 REVERT JUMPDEST PUSH2 0x249C DUP3 PUSH2 0x2453 JUMP JUMPDEST DUP2 ADD DUP2 DUP2 LT PUSH8 0xFFFFFFFFFFFFFFFF DUP3 GT OR ISZERO PUSH2 0x24BB JUMPI PUSH2 0x24BA PUSH2 0x2464 JUMP JUMPDEST JUMPDEST DUP1 PUSH1 0x40 MSTORE POP POP POP JUMP JUMPDEST PUSH1 0x0 PUSH2 0x24CE PUSH2 0x222A JUMP JUMPDEST SWAP1 POP PUSH2 0x24DA DUP3 DUP3 PUSH2 0x2493 JUMP JUMPDEST SWAP2 SWAP1 POP JUMP JUMPDEST PUSH1 0x0 PUSH8 0xFFFFFFFFFFFFFFFF DUP3 GT ISZERO PUSH2 0x24FA JUMPI PUSH2 0x24F9 PUSH2 0x2464 JUMP JUMPDEST JUMPDEST PUSH2 0x2503 DUP3 PUSH2 0x2453 JUMP JUMPDEST SWAP1 POP PUSH1 0x20 DUP2 ADD SWAP1 POP SWAP2 SWAP1 POP JUMP JUMPDEST DUP3 DUP2 DUP4 CALLDATACOPY PUSH1 0x0 DUP4 DUP4 ADD MSTORE POP POP POP JUMP JUMPDEST PUSH1 0x0 PUSH2 0x2532 PUSH2 0x252D DUP5 PUSH2 0x24DF JUMP JUMPDEST PUSH2 0x24C4 JUMP JUMPDEST SWAP1 POP DUP3 DUP2 MSTORE PUSH1 0x20 DUP2 ADD DUP5 DUP5 DUP5 ADD GT ISZERO PUSH2 0x254E JUMPI PUSH2 0x254D PUSH2 0x244E JUMP JUMPDEST JUMPDEST PUSH2 0x2559 DUP5 DUP3 DUP6 PUSH2 0x2510 JUMP JUMPDEST POP SWAP4 SWAP3 POP POP POP JUMP JUMPDEST PUSH1 0x0 DUP3 PUSH1 0x1F DUP4 ADD SLT PUSH2 0x2576 JUMPI PUSH2 0x2575 PUSH2 0x2449 JUMP JUMPDEST JUMPDEST DUP2 CALLDATALOAD PUSH2 0x2586 DUP5 DUP3 PUSH1 0x20 DUP7 ADD PUSH2 0x251F JUMP JUMPDEST SWAP2 POP POP SWAP3 SWAP2 POP POP JUMP JUMPDEST PUSH1 0x0 DUP2 SWAP1 POP SWAP2 SWAP1 POP JUMP JUMPDEST PUSH2 0x25A2 DUP2 PUSH2 0x258F JUMP JUMPDEST DUP2 EQ PUSH2 0x25AD JUMPI PUSH1 0x0 DUP1 REVERT JUMPDEST POP JUMP JUMPDEST PUSH1 0x0 DUP2 CALLDATALOAD SWAP1 POP PUSH2 0x25BF DUP2 PUSH2 0x2599 JUMP JUMPDEST SWAP3 SWAP2 POP POP JUMP JUMPDEST PUSH1 0x0 DUP1 PUSH1 0x0 PUSH1 0x60 DUP5 DUP7 SUB SLT ISZERO PUSH2 0x25DE JUMPI PUSH2 0x25DD PUSH2 0x2234 JUMP JUMPDEST JUMPDEST PUSH1 0x0 PUSH2 0x25EC DUP7 DUP3 DUP8 ADD PUSH2 0x23CA JUMP JUMPDEST SWAP4 POP POP PUSH1 0x20 DUP5 ADD CALLDATALOAD PUSH8 0xFFFFFFFFFFFFFFFF DUP2 GT ISZERO PUSH2 0x260D JUMPI PUSH2 0x260C PUSH2 0x2239 JUMP JUMPDEST JUMPDEST PUSH2 0x2619 DUP7 DUP3 DUP8 ADD PUSH2 0x2561 JUMP JUMPDEST SWAP3 POP POP PUSH1 0x40 PUSH2 0x262A DUP7 DUP3 DUP8 ADD PUSH2 0x25B0 JUMP JUMPDEST SWAP2 POP POP SWAP3 POP SWAP3 POP SWAP3 JUMP JUMPDEST PUSH1 0x0 DUP2 ISZERO ISZERO SWAP1 POP SWAP2 SWAP1 POP JUMP JUMPDEST PUSH2 0x2649 DUP2 PUSH2 0x2634 JUMP JUMPDEST DUP3 MSTORE POP POP JUMP JUMPDEST PUSH2 0x2658 DUP2 PUSH2 0x225E JUMP JUMPDEST DUP3 MSTORE POP POP JUMP JUMPDEST PUSH1 0x0 DUP2 MLOAD SWAP1 POP SWAP2 SWAP1 POP JUMP JUMPDEST PUSH1 0x0 DUP3 DUP3 MSTORE PUSH1 0x20 DUP3 ADD SWAP1 POP SWAP3 SWAP2 POP POP JUMP JUMPDEST PUSH1 0x0 JUMPDEST DUP4 DUP2 LT ISZERO PUSH2 0x2698 JUMPI DUP1 DUP3 ADD MLOAD DUP2 DUP5 ADD MSTORE PUSH1 0x20 DUP2 ADD SWAP1 POP PUSH2 0x267D JUMP JUMPDEST PUSH1 0x0 DUP5 DUP5 ADD MSTORE POP POP POP POP JUMP JUMPDEST PUSH1 0x0 PUSH2 0x26AF DUP3 PUSH2 0x265E JUMP JUMPDEST PUSH2 0x26B9 DUP2 DUP6 PUSH2 0x2669 JUMP JUMPDEST SWAP4 POP PUSH2 0x26C9 DUP2 DUP6 PUSH1 0x20 DUP7 ADD PUSH2 0x267A JUMP JUMPDEST PUSH2 0x26D2 DUP2 PUSH2 0x2453 JUMP JUMPDEST DUP5 ADD SWAP2 POP POP SWAP3 SWAP2 POP POP JUMP JUMPDEST PUSH1 0x0 PUSH1 0xA0 DUP3 ADD SWAP1 POP PUSH2 0x26F2 PUSH1 0x0 DUP4 ADD DUP9 PUSH2 0x2640 JUMP JUMPDEST PUSH2 0x26FF PUSH1 0x20 DUP4 ADD DUP8 PUSH2 0x264F JUMP JUMPDEST PUSH2 0x270C PUSH1 0x40 DUP4 ADD DUP7 PUSH2 0x241F JUMP JUMPDEST DUP2 DUP2 SUB PUSH1 0x60 DUP4 ADD MSTORE PUSH2 0x271E DUP2 DUP6 PUSH2 0x26A4 JUMP JUMPDEST SWAP1 POP DUP2 DUP2 SUB PUSH1 0x80 DUP4 ADD MSTORE PUSH2 0x2732 DUP2 DUP5 PUSH2 0x26A4 JUMP JUMPDEST SWAP1 POP SWAP7 SWAP6 POP POP POP POP POP POP JUMP JUMPDEST PUSH1 0x0 PUSH1 0x20 DUP3 DUP5 SUB SLT ISZERO PUSH2 0x2754 JUMPI PUSH2 0x2753 PUSH2 0x2234 JUMP JUMPDEST JUMPDEST PUSH1 0x0 PUSH2 0x2762 DUP5 DUP3 DUP6 ADD PUSH2 0x23CA JUMP JUMPDEST SWAP2 POP POP SWAP3 SWAP2 POP POP JUMP JUMPDEST PUSH2 0x2774 DUP2 PUSH2 0x258F JUMP JUMPDEST DUP3 MSTORE POP POP JUMP JUMPDEST PUSH1 0x0 PUSH1 0xE0 DUP3 ADD SWAP1 POP DUP2 DUP2 SUB PUSH1 0x0 DUP4 ADD MSTORE PUSH2 0x2794 DUP2 DUP11 PUSH2 0x26A4 JUMP JUMPDEST SWAP1 POP DUP2 DUP2 SUB PUSH1 0x20 DUP4 ADD MSTORE PUSH2 0x27A8 DUP2 DUP10 PUSH2 0x26A4 JUMP JUMPDEST SWAP1 POP DUP2 DUP2 SUB PUSH1 0x40 DUP4 ADD MSTORE PUSH2 0x27BC DUP2 DUP9 PUSH2 0x26A4 JUMP JUMPDEST SWAP1 POP DUP2 DUP2 SUB PUSH1 0x60 DUP4 ADD MSTORE PUSH2 0x27D0 DUP2 DUP8 PUSH2 0x26A4 JUMP JUMPDEST SWAP1 POP PUSH2 0x27DF PUSH1 0x80 DUP4 ADD DUP7 PUSH2 0x276B JUMP JUMPDEST PUSH2 0x27EC PUSH1 0xA0 DUP4 ADD DUP6 PUSH2 0x241F JUMP JUMPDEST PUSH2 0x27F9 PUSH1 0xC0 DUP4 ADD DUP5 PUSH2 0x264F JUMP JUMPDEST SWAP9 SWAP8 POP POP POP POP POP POP POP POP JUMP JUMPDEST PUSH1 0x0 DUP1 PUSH1 0x40 DUP4 DUP6 SUB SLT ISZERO PUSH2 0x281C JUMPI PUSH2 0x281B PUSH2 0x2234 JUMP JUMPDEST JUMPDEST PUSH1 0x0 PUSH2 0x282A DUP6 DUP3 DUP7 ADD PUSH2 0x23CA JUMP JUMPDEST SWAP3 POP POP PUSH1 0x20 PUSH2 0x283B DUP6 DUP3 DUP7 ADD PUSH2 0x2287 JUMP JUMPDEST SWAP2 POP POP SWAP3 POP SWAP3 SWAP1 POP JUMP JUMPDEST PUSH1 0x0 PUSH1 0x80 DUP3 ADD SWAP1 POP PUSH2 0x285A PUSH1 0x0 DUP4 ADD DUP8 PUSH2 0x2640 JUMP JUMPDEST PUSH2 0x2867 PUSH1 0x20 DUP4 ADD DUP7 PUSH2 0x241F JUMP JUMPDEST PUSH2 0x2874 PUSH1 0x40 DUP4 ADD DUP6 PUSH2 0x241F JUMP JUMPDEST PUSH2 0x2881 PUSH1 0x60 DUP4 ADD DUP5 PUSH2 0x2640 JUMP JUMPDEST SWAP6 SWAP5 POP POP POP POP POP JUMP JUMPDEST PUSH1 0x0 PUSH1 0x60 DUP3 ADD SWAP1 POP PUSH2 0x289F PUSH1 0x0 DUP4 ADD DUP7 PUSH2 0x2640 JUMP JUMPDEST PUSH2 0x28AC PUSH1 0x20 DUP4 ADD DUP6 PUSH2 0x241F JUMP JUMPDEST PUSH2 0x28B9 PUSH1 0x40 DUP4 ADD DUP5 PUSH2 0x241F JUMP JUMPDEST SWAP5 SWAP4 POP POP POP POP JUMP JUMPDEST PUSH1 0x0 DUP1 PUSH1 0x0 DUP1 PUSH1 0x0 PUSH1 0xA0 DUP7 DUP9 SUB SLT ISZERO PUSH2 0x28DD JUMPI PUSH2 0x28DC PUSH2 0x2234 JUMP JUMPDEST JUMPDEST PUSH1 0x0 DUP7 ADD CALLDATALOAD PUSH8 0xFFFFFFFFFFFFFFFF DUP2 GT ISZERO PUSH2 0x28FB JUMPI PUSH2 0x28FA PUSH2 0x2239 JUMP JUMPDEST JUMPDEST PUSH2 0x2907 DUP9 DUP3 DUP10 ADD PUSH2 0x2561 JUMP JUMPDEST SWAP6 POP POP PUSH1 0x20 DUP7 ADD CALLDATALOAD PUSH8 0xFFFFFFFFFFFFFFFF DUP2 GT ISZERO PUSH2 0x2928 JUMPI PUSH2 0x2927 PUSH2 0x2239 JUMP JUMPDEST JUMPDEST PUSH2 0x2934 DUP9 DUP3 DUP10 ADD PUSH2 0x2561 JUMP JUMPDEST SWAP5 POP POP PUSH1 0x40 DUP7 ADD CALLDATALOAD PUSH8 0xFFFFFFFFFFFFFFFF DUP2 GT ISZERO PUSH2 0x2955 JUMPI PUSH2 0x2954 PUSH2 0x2239 JUMP JUMPDEST JUMPDEST PUSH2 0x2961 DUP9 DUP3 DUP10 ADD PUSH2 0x2561 JUMP JUMPDEST SWAP4 POP POP PUSH1 0x60 DUP7 ADD CALLDATALOAD PUSH8 0xFFFFFFFFFFFFFFFF DUP2 GT ISZERO PUSH2 0x2982 JUMPI PUSH2 0x2981 PUSH2 0x2239 JUMP JUMPDEST JUMPDEST PUSH2 0x298E DUP9 DUP3 DUP10 ADD PUSH2 0x2561 JUMP JUMPDEST SWAP3 POP POP PUSH1 0x80 PUSH2 0x299F DUP9 DUP3 DUP10 ADD PUSH2 0x25B0 JUMP JUMPDEST SWAP2 POP POP SWAP3 SWAP6 POP SWAP3 SWAP6 SWAP1 SWAP4 POP JUMP JUMPDEST PUSH1 0x0 PUSH2 0x100 DUP3 ADD SWAP1 POP DUP2 DUP2 SUB PUSH1 0x0 DUP4 ADD MSTORE PUSH2 0x29C7 DUP2 DUP12 PUSH2 0x26A4 JUMP JUMPDEST SWAP1 POP DUP2 DUP2 SUB PUSH1 0x20 DUP4 ADD MSTORE PUSH2 0x29DB DUP2 DUP11 PUSH2 0x26A4 JUMP JUMPDEST SWAP1 POP DUP2 DUP2 SUB PUSH1 0x40 DUP4 ADD MSTORE PUSH2 0x29EF DUP2 DUP10 PUSH2 0x26A4 JUMP JUMPDEST SWAP1 POP DUP2 DUP2 SUB PUSH1 0x60 DUP4 ADD MSTORE PUSH2 0x2A03 DUP2 DUP9 PUSH2 0x26A4 JUMP JUMPDEST SWAP1 POP PUSH2 0x2A12 PUSH1 0x80 DUP4 ADD DUP8 PUSH2 0x276B JUMP JUMPDEST PUSH2 0x2A1F PUSH1 0xA0 DUP4 ADD DUP7 PUSH2 0x241F JUMP JUMPDEST PUSH2 0x2A2C PUSH1 0xC0 DUP4 ADD DUP6 PUSH2 0x264F JUMP JUMPDEST PUSH2 0x2A39 PUSH1 0xE0 DUP4 ADD DUP5 PUSH2 0x2640 JUMP JUMPDEST SWAP10 SWAP9 POP POP POP POP POP POP POP POP POP JUMP JUMPDEST PUSH1 0x0 PUSH1 0x20 DUP3 ADD SWAP1 POP PUSH2 0x2A5B PUSH1 0x0 DUP4 ADD DUP5 PUSH2 0x2640 JUMP JUMPDEST SWAP3 SWAP2 POP POP JUMP JUMPDEST PUSH1 0x0 DUP1 PUSH1 0x0 PUSH1 0x60 DUP5 DUP7 SUB SLT ISZERO PUSH2 0x2A7A JUMPI PUSH2 0x2A79 PUSH2 0x2234 JUMP JUMPDEST JUMPDEST PUSH1 0x0 PUSH2 0x2A88 DUP7 DUP3 DUP8 ADD PUSH2 0x23CA JUMP JUMPDEST SWAP4 POP POP PUSH1 0x20 PUSH2 0x2A99 DUP7 DUP3 DUP8 ADD PUSH2 0x2287 JUMP JUMPDEST SWAP3 POP POP PUSH1 0x40 PUSH2 0x2AAA DUP7 DUP3 DUP8 ADD PUSH2 0x23CA JUMP JUMPDEST SWAP2 POP POP SWAP3 POP SWAP3 POP SWAP3 JUMP JUMPDEST PUSH1 0x0 PUSH1 0x40 DUP3 ADD SWAP1 POP PUSH2 0x2AC9 PUSH1 0x0 DUP4 ADD DUP6 PUSH2 0x2640 JUMP JUMPDEST PUSH2 0x2AD6 PUSH1 0x20 DUP4 ADD DUP5 PUSH2 0x241F JUMP JUMPDEST SWAP4 SWAP3 POP POP POP JUMP JUMPDEST PUSH32 0x4E487B7100000000000000000000000000000000000000000000000000000000 PUSH1 0x0 MSTORE PUSH1 0x22 PUSH1 0x4 MSTORE PUSH1 0x24 PUSH1 0x0 REVERT JUMPDEST PUSH1 0x0 PUSH1 0x2 DUP3 DIV SWAP1 POP PUSH1 0x1 DUP3 AND DUP1 PUSH2 0x2B24 JUMPI PUSH1 0x7F DUP3 AND SWAP2 POP JUMPDEST PUSH1 0x20 DUP3 LT DUP2 SUB PUSH2 0x2B37 JUMPI PUSH2 0x2B36 PUSH2 0x2ADD JUMP JUMPDEST JUMPDEST POP SWAP2 SWAP1 POP JUMP JUMPDEST PUSH32 0x446F63756D656E7420646F6573206E6F74206578697374000000000000000000 PUSH1 0x0 DUP3 ADD MSTORE POP JUMP JUMPDEST PUSH1 0x0 PUSH2 0x2B73 PUSH1 0x17 DUP4 PUSH2 0x2669 JUMP JUMPDEST SWAP2 POP PUSH2 0x2B7E DUP3 PUSH2 0x2B3D JUMP JUMPDEST PUSH1 0x20 DUP3 ADD SWAP1 POP SWAP2 SWAP1 POP JUMP JUMPDEST PUSH1 0x0 PUSH1 0x20 DUP3 ADD SWAP1 POP DUP2 DUP2 SUB PUSH1 0x0 DUP4 ADD MSTORE PUSH2 0x2BA2 DUP2 PUSH2 0x2B66 JUMP JUMPDEST SWAP1 POP SWAP2 SWAP1 POP JUMP JUMPDEST PUSH32 0x4E6F2061636365737320746F207468697320646F63756D656E74000000000000 PUSH1 0x0 DUP3 ADD MSTORE POP JUMP JUMPDEST PUSH1 0x0 PUSH2 0x2BDF PUSH1 0x1A DUP4 PUSH2 0x2669 JUMP JUMPDEST SWAP2 POP PUSH2 0x2BEA DUP3 PUSH2 0x2BA9 JUMP JUMPDEST PUSH1 0x20 DUP3 ADD SWAP1 POP SWAP2 SWAP1 POP JUMP JUMPDEST PUSH1 0x0 PUSH1 0x20 DUP3 ADD SWAP1 POP DUP2 DUP2 SUB PUSH1 0x0 DUP4 ADD MSTORE PUSH2 0x2C0E DUP2 PUSH2 0x2BD2 JUMP JUMPDEST SWAP1 POP SWAP2 SWAP1 POP JUMP JUMPDEST PUSH32 0x4950465320686173682063616E6E6F7420626520656D70747900000000000000 PUSH1 0x0 DUP3 ADD MSTORE POP JUMP JUMPDEST PUSH1 0x0 PUSH2 0x2C4B PUSH1 0x19 DUP4 PUSH2 0x2669 JUMP JUMPDEST SWAP2 POP PUSH2 0x2C56 DUP3 PUSH2 0x2C15 JUMP JUMPDEST PUSH1 0x20 DUP3 ADD SWAP1 POP SWAP2 SWAP1 POP JUMP JUMPDEST PUSH1 0x0 PUSH1 0x20 DUP3 ADD SWAP1 POP DUP2 DUP2 SUB PUSH1 0x0 DUP4 ADD MSTORE PUSH2 0x2C7A DUP2 PUSH2 0x2C3E JUMP JUMPDEST SWAP1 POP SWAP2 SWAP1 POP JUMP JUMPDEST PUSH32 0x46696C65206E616D652063616E6E6F7420626520656D70747900000000000000 PUSH1 0x0 DUP3 ADD MSTORE POP JUMP JUMPDEST PUSH1 0x0 PUSH2 0x2CB7 PUSH1 0x19 DUP4 PUSH2 0x2669 JUMP JUMPDEST SWAP2 POP PUSH2 0x2CC2 DUP3 PUSH2 0x2C81 JUMP JUMPDEST PUSH1 0x20 DUP3 ADD SWAP1 POP SWAP2 SWAP1 POP JUMP JUMPDEST PUSH1 0x0 PUSH1 0x20 DUP3 ADD SWAP1 POP DUP2 DUP2 SUB PUSH1 0x0 DUP4 ADD MSTORE PUSH2 0x2CE6 DUP2 PUSH2 0x2CAA JUMP JUMPDEST SWAP1 POP SWAP2 SWAP1 POP JUMP JUMPDEST PUSH32 0x4E487B7100000000000000000000000000000000000000000000000000000000 PUSH1 0x0 MSTORE PUSH1 0x11 PUSH1 0x4 MSTORE PUSH1 0x24 PUSH1 0x0 REVERT JUMPDEST PUSH1 0x0 PUSH2 0x2D27 DUP3 PUSH2 0x22F5 JUMP JUMPDEST SWAP2 POP PUSH32 0xFFFFFFFFFFFFFFFFFFFFFFFFFFFFFFFFFFFFFFFFFFFFFFFFFFFFFFFFFFFFFFFF DUP3 SUB PUSH2 0x2D59 JUMPI PUSH2 0x2D58 PUSH2 0x2CED JUMP JUMPDEST JUMPDEST PUSH1 0x1 DUP3 ADD SWAP1 POP SWAP2 SWAP1 POP JUMP JUMPDEST PUSH1 0x0 DUP2 SWAP1 POP DUP2 PUSH1 0x0 MSTORE PUSH1 0x20 PUSH1 0x0 KECCAK256 SWAP1 POP SWAP2 SWAP1 POP JUMP JUMPDEST PUSH1 0x0 PUSH1 0x20 PUSH1 0x1F DUP4 ADD DIV SWAP1 POP SWAP2 SWAP1 POP JUMP JUMPDEST PUSH1 0x0 DUP3 DUP3 SHL SWAP1 POP SWAP3 SWAP2 POP POP JUMP JUMPDEST PUSH1 0x0 PUSH1 0x8 DUP4 MUL PUSH2 0x2DC6 PUSH32 0xFFFFFFFFFFFFFFFFFFFFFFFFFFFFFFFFFFFFFFFFFFFFFFFFFFFFFFFFFFFFFFFF DUP3 PUSH2 0x2D89 JUMP JUMPDEST PUSH2 0x2DD0 DUP7 DUP4 PUSH2 0x2D89 JUMP JUMPDEST SWAP6 POP DUP1 NOT DUP5 AND SWAP4 POP DUP1 DUP7 AND DUP5 OR SWAP3 POP POP POP SWAP4 SWAP3 POP POP POP JUMP JUMPDEST PUSH1 0x0 DUP2 SWAP1 POP SWAP2 SWAP1 POP JUMP JUMPDEST PUSH1 0x0 PUSH2 0x2E0D PUSH2 0x2E08 PUSH2 0x2E03 DUP5 PUSH2 0x22F5 JUMP JUMPDEST PUSH2 0x2DE8 JUMP JUMPDEST PUSH2 0x22F5 JUMP JUMPDEST SWAP1 POP SWAP2 SWAP1 POP JUMP JUMPDEST PUSH1 0x0 DUP2 SWAP1 POP SWAP2 SWAP1 POP JUMP JUMPDEST PUSH2 0x2E27 DUP4 PUSH2 0x2DF2 JUMP JUMPDEST PUSH2 0x2E3B PUSH2 0x2E33 DUP3 PUSH2 0x2E14 JUMP JUMPDEST DUP5 DUP5 SLOAD PUSH2 0x2D96 JUMP JUMPDEST DUP3 SSTORE POP POP POP POP JUMP JUMPDEST PUSH1 0x0 SWAP1 JUMP JUMPDEST PUSH2 0x2E50 PUSH2 0x2E43 JUMP JUMPDEST PUSH2 0x2E5B DUP2 DUP5 DUP5 PUSH2 0x2E1E JUMP JUMPDEST POP POP POP JUMP JUMPDEST JUMPDEST DUP2 DUP2 LT ISZERO PUSH2 0x2E7F JUMPI PUSH2 0x2E74 PUSH1 0x0 DUP3 PUSH2 0x2E48 JUMP JUMPDEST PUSH1 0x1 DUP2 ADD SWAP1 POP PUSH2 0x2E61 JUMP JUMPDEST POP POP JUMP JUMPDEST PUSH1 0x1F DUP3 GT ISZERO PUSH2 0x2EC4 JUMPI PUSH2 0x2E95 DUP2 PUSH2 0x2D64 JUMP JUMPDEST PUSH2 0x2E9E DUP5 PUSH2 0x2D79 JUMP JUMPDEST DUP2 ADD PUSH1 0x20 DUP6 LT ISZERO PUSH2 0x2EAD JUMPI DUP2 SWAP1 POP JUMPDEST PUSH2 0x2EC1 PUSH2 0x2EB9 DUP6 PUSH2 0x2D79 JUMP JUMPDEST DUP4 ADD DUP3 PUSH2 0x2E60 JUMP JUMPDEST POP POP JUMPDEST POP POP POP JUMP JUMPDEST PUSH1 0x0 DUP3 DUP3 SHR SWAP1 POP SWAP3 SWAP2 POP POP JUMP JUMPDEST PUSH1 0x0 PUSH2 0x2EE7 PUSH1 0x0 NOT DUP5 PUSH1 0x8 MUL PUSH2 0x2EC9 JUMP JUMPDEST NOT DUP1 DUP4 AND SWAP2 POP POP SWAP3 SWAP2 POP POP JUMP JUMPDEST PUSH1 0x0 PUSH2 0x2F00 DUP4 DUP4 PUSH2 0x2ED6 JUMP JUMPDEST SWAP2 POP DUP3 PUSH1 0x2 MUL DUP3 OR SWAP1 POP SWAP3 SWAP2 POP POP JUMP JUMPDEST PUSH2 0x2F19 DUP3 PUSH2 0x265E JUMP JUMPDEST PUSH8 0xFFFFFFFFFFFFFFFF DUP2 GT ISZERO PUSH2 0x2F32 JUMPI PUSH2 0x2F31 PUSH2 0x2464 JUMP JUMPDEST JUMPDEST PUSH2 0x2F3C DUP3 SLOAD PUSH2 0x2B0C JUMP JUMPDEST PUSH2 0x2F47 DUP3 DUP3 DUP6 PUSH2 0x2E83 JUMP JUMPDEST PUSH1 0x0 PUSH1 0x20 SWAP1 POP PUSH1 0x1F DUP4 GT PUSH1 0x1 DUP2 EQ PUSH2 0x2F7A JUMPI PUSH1 0x0 DUP5 ISZERO PUSH2 0x2F68 JUMPI DUP3 DUP8 ADD MLOAD SWAP1 POP JUMPDEST PUSH2 0x2F72 DUP6 DUP3 PUSH2 0x2EF4 JUMP JUMPDEST DUP7 SSTORE POP PUSH2 0x2FDA JUMP JUMPDEST PUSH1 0x1F NOT DUP5 AND PUSH2 0x2F88 DUP7 PUSH2 0x2D64 JUMP JUMPDEST PUSH1 0x0 JUMPDEST DUP3 DUP2 LT ISZERO PUSH2 0x2FB0 JUMPI DUP5 DUP10 ADD MLOAD DUP3 SSTORE PUSH1 0x1 DUP3 ADD SWAP2 POP PUSH1 0x20 DUP6 ADD SWAP5 POP PUSH1 0x20 DUP2 ADD SWAP1 POP PUSH2 0x2F8B JUMP JUMPDEST DUP7 DUP4 LT ISZERO PUSH2 0x2FCD JUMPI DUP5 DUP10 ADD MLOAD PUSH2 0x2FC9 PUSH1 0x1F DUP10 AND DUP3 PUSH2 0x2ED6 JUMP JUMPDEST DUP4 SSTORE POP JUMPDEST PUSH1 0x1 PUSH1 0x2 DUP9 MUL ADD DUP9 SSTORE POP POP POP JUMPDEST POP POP POP POP POP POP JUMP JUMPDEST PUSH1 0x0 PUSH1 0x80 DUP3 ADD SWAP1 POP DUP2 DUP2 SUB PUSH1 0x0 DUP4 ADD MSTORE PUSH2 0x2FFC DUP2 DUP8 PUSH2 0x26A4 JUMP JUMPDEST SWAP1 POP DUP2 DUP2 SUB PUSH1 0x20 DUP4 ADD MSTORE PUSH2 0x3010 DUP2 DUP7 PUSH2 0x26A4 JUMP JUMPDEST SWAP1 POP PUSH2 0x301F PUSH1 0x40 DUP4 ADD DUP6 PUSH2 0x276B JUMP JUMPDEST PUSH2 0x302C PUSH1 0x60 DUP4 ADD DUP5 PUSH2 0x241F JUMP JUMPDEST SWAP6 SWAP5 POP POP POP POP POP JUMP JUMPDEST PUSH32 0x4E6F742074686520646F63756D656E74206F776E657200000000000000000000 PUSH1 0x0 DUP3 ADD MSTORE POP JUMP JUMPDEST PUSH1 0x0 PUSH2 0x306B PUSH1 0x16 DUP4 PUSH2 0x2669 JUMP JUMPDEST SWAP2 POP PUSH2 0x3076 DUP3 PUSH2 0x3035 JUMP JUMPDEST PUSH1 0x20 DUP3 ADD SWAP1 POP SWAP2 SWAP1 POP JUMP JUMPDEST PUSH1 0x0 PUSH1 0x20 DUP3 ADD SWAP1 POP DUP2 DUP2 SUB PUSH1 0x0 DUP4 ADD MSTORE PUSH2 0x309A DUP2 PUSH2 0x305E JUMP JUMPDEST SWAP1 POP SWAP2 SWAP1 POP JUMP JUMPDEST PUSH32 0x4E487B7100000000000000000000000000000000000000000000000000000000 PUSH1 0x0 MSTORE PUSH1 0x32 PUSH1 0x4 MSTORE PUSH1 0x24 PUSH1 0x0 REVERT JUMPDEST PUSH1 0x0 PUSH2 0x30DB DUP3 PUSH2 0x22F5 JUMP JUMPDEST SWAP2 POP PUSH2 0x30E6 DUP4 PUSH2 0x22F5 JUMP JUMPDEST SWAP3 POP DUP3 DUP3 SUB SWAP1 POP DUP2 DUP2 GT ISZERO PUSH2 0x30FE JUMPI PUSH2 0x30FD PUSH2 0x2CED JUMP JUMPDEST JUMPDEST SWAP3 SWAP2 POP POP JUMP JUMPDEST PUSH32 0x4E487B7100000000000000000000000000000000000000000000000000000000 PUSH1 0x0 MSTORE PUSH1 0x31 PUSH1 0x4 MSTORE PUSH1 0x24 PUSH1 0x0 REVERT JUMPDEST PUSH32 0x496E76616C696420726563697069656E74206164647265737300000000000000 PUSH1 0x0 DUP3 ADD MSTORE POP JUMP JUMPDEST PUSH1 0x0 PUSH2 0x3169 PUSH1 0x19 DUP4 PUSH2 0x2669 JUMP JUMPDEST SWAP2 POP PUSH2 0x3174 DUP3 PUSH2 0x3133 JUMP JUMPDEST PUSH1 0x20 DUP3 ADD SWAP1 POP SWAP2 SWAP1 POP JUMP JUMPDEST PUSH1 0x0 PUSH1 0x20 DUP3 ADD SWAP1 POP DUP2 DUP2 SUB PUSH1 0x0 DUP4 ADD MSTORE PUSH2 0x3198 DUP2 PUSH2 0x315C JUMP JUMPDEST SWAP1 POP SWAP2 SWAP1 POP JUMP JUMPDEST PUSH32 0x43616E6E6F74206772616E742061636365737320746F20796F757273656C6600 PUSH1 0x0 DUP3 ADD MSTORE POP JUMP JUMPDEST PUSH1 0x0 PUSH2 0x31D5 PUSH1 0x1F DUP4 PUSH2 0x2669 JUMP JUMPDEST SWAP2 POP PUSH2 0x31E0 DUP3 PUSH2 0x319F JUMP JUMPDEST PUSH1 0x20 DUP3 ADD SWAP1 POP SWAP2 SWAP1 POP JUMP JUMPDEST PUSH1 0x0 PUSH1 0x20 DUP3 ADD SWAP1 POP DUP2 DUP2 SUB PUSH1 0x0 DUP4 ADD MSTORE PUSH2 0x3204 DUP2 PUSH2 0x31C8 JUMP JUMPDEST SWAP1 POP SWAP2 SWAP1 POP JUMP JUMPDEST PUSH32 0x41636365737320616C7265616479206772616E74656400000000000000000000 PUSH1 0x0 DUP3 ADD MSTORE POP JUMP JUMPDEST PUSH1 0x0 PUSH2 0x3241 PUSH1 0x16 DUP4 PUSH2 0x2669 JUMP JUMPDEST SWAP2 POP PUSH2 0x324C DUP3 PUSH2 0x320B JUMP JUMPDEST PUSH1 0x20 DUP3 ADD SWAP1 POP SWAP2 SWAP1 POP JUMP JUMPDEST PUSH1 0x0 PUSH1 0x20 DUP3 ADD SWAP1 POP DUP2 DUP2 SUB PUSH1 0x0 DUP4 ADD MSTORE PUSH2 0x3270 DUP2 PUSH2 0x3234 JUMP JUMPDEST SWAP1 POP SWAP2 SWAP1 POP JUMP JUMPDEST PUSH32 0x457870697279206D75737420626520696E207468652066757475726500000000 PUSH1 0x0 DUP3 ADD MSTORE POP JUMP JUMPDEST PUSH1 0x0 PUSH2 0x32AD PUSH1 0x1C DUP4 PUSH2 0x2669 JUMP JUMPDEST SWAP2 POP PUSH2 0x32B8 DUP3 PUSH2 0x3277 JUMP JUMPDEST PUSH1 0x20 DUP3 ADD SWAP1 POP SWAP2 SWAP1 POP JUMP JUMPDEST PUSH1 0x0 PUSH1 0x20 DUP3 ADD SWAP1 POP DUP2 DUP2 SUB PUSH1 0x0 DUP4 ADD MSTORE PUSH2 0x32DC DUP2 PUSH2 0x32A0 JUMP JUMPDEST SWAP1 POP SWAP2 SWAP1 POP JUMP JUMPDEST PUSH1 0x0 PUSH1 0x40 DUP3 ADD SWAP1 POP PUSH2 0x32F8 PUSH1 0x0 DUP4 ADD DUP6 PUSH2 0x241F JUMP JUMPDEST PUSH2 0x3305 PUSH1 0x20 DUP4 ADD DUP5 PUSH2 0x241F JUMP JUMPDEST SWAP4 SWAP3 POP POP POP JUMP JUMPDEST PUSH32 0x416363657373206E6F74206772616E7465640000000000000000000000000000 PUSH1 0x0 DUP3 ADD MSTORE POP JUMP JUMPDEST PUSH1 0x0 PUSH2 0x3342 PUSH1 0x12 DUP4 PUSH2 0x2669 JUMP JUMPDEST SWAP2 POP PUSH2 0x334D DUP3 PUSH2 0x330C JUMP JUMPDEST PUSH1 0x20 DUP3 ADD SWAP1 POP SWAP2 SWAP1 POP JUMP JUMPDEST PUSH1 0x0 PUSH1 0x20 DUP3 ADD SWAP1 POP DUP2 DUP2 SUB PUSH1 0x0 DUP4 ADD MSTORE PUSH2 0x3371 DUP2 PUSH2 0x3335 JUMP JUMPDEST SWAP1 POP SWAP2 SWAP1 POP JUMP INVALID LOG2 PUSH5 0x6970667358 0x22 SLT KECCAK256 0xB8 PUSH5 0x36AFAA1F95 0xD 0xCC BLOBBASEFEE CREATE2 EXTCALL 0xD4 RETURNDATASIZE 0xE2 SWAP4 CREATE DUP5 DUP13 SELFBALANCE EXTCODESIZE 0xCF SWAP11 0xB6 OR CALL NUMBER CALLVALUE 0xC3 0xAA 0x21 0xEA PUSH5 0x736F6C6343 STOP ADDMOD 0x1E STOP CALLER "
				},
				"gasEstimates": {
					"creation": {
						"codeDepositCost": "2646000",
						"executionCost": "2869",
						"totalCost": "2648869"
					},
					"external": {
						"accessPermissions(uint256,address)": "infinite",
						"checkAccess(uint256,address)": "12221",
						"deleteDocument(uint256)": "infinite",
						"documentCount()": "2474",
						"documents(uint256)": "infinite",
						"getAccessDetails(uint256,address)": "infinite",
						"getDocument(uint256)": "infinite",
						"getMyDocuments(address)": "infinite",
						"getSharedWithMe(address)": "infinite",
						"getTotalDocuments()": "2525",
						"grantAccess(uint256,address,uint256)": "infinite",
						"isAccessExpired(uint256,address)": "9931",
						"ownerDocuments(address,uint256)": "infinite",
						"revokeAccess(uint256,address)": "infinite",
						"sharedWithMe(address,uint256)": "infinite",
						"uploadDocument(string,string,string,string,bytes32)": "infinite",
						"verifyDocument(uint256,string,bytes32)": "infinite"
					},
					"internal": {
						"_isAccessValid(uint256,address)": "infinite"
					}
				},
				"methodIdentifiers": {
					"accessPermissions(uint256,address)": "7847dc13",
					"checkAccess(uint256,address)": "d13c8703",
					"deleteDocument(uint256)": "a0fb1497",
					"documentCount()": "a5b16b2e",
					"documents(uint256)": "c2ed2b05",
					"getAccessDetails(uint256,address)": "6ccf09fd",
					"getDocument(uint256)": "3f9b250a",
					"getMyDocuments(address)": "e6819092",
					"getSharedWithMe(address)": "178c1f2a",
					"getTotalDocuments()": "e90e7ad4",
					"grantAccess(uint256,address,uint256)": "d603b284",
					"isAccessExpired(uint256,address)": "f32a7591",
					"ownerDocuments(address,uint256)": "31d19f65",
					"revokeAccess(uint256,address)": "d9a5ec1b",
					"sharedWithMe(address,uint256)": "603732ba",
					"uploadDocument(string,string,string,string,bytes32)": "9c696cbf",
					"verifyDocument(uint256,string,bytes32)": "3a81b013"
				}
			},
			"storageLayout": {
				"storage": [
					{
						"astId": 31,
						"contract": "DocumentSharing.sol:DocumentSharing",
						"label": "documents",
						"offset": 0,
						"slot": "0",
						"type": "t_mapping(t_uint256,t_struct(Document)19_storage)"
					},
					{
						"astId": 38,
						"contract": "DocumentSharing.sol:DocumentSharing",
						"label": "accessPermissions",
						"offset": 0,
						"slot": "1",
						"type": "t_mapping(t_uint256,t_mapping(t_address,t_struct(AccessPermission)26_storage))"
					},
					{
						"astId": 43,
						"contract": "DocumentSharing.sol:DocumentSharing",
						"label": "ownerDocuments",
						"offset": 0,
						"slot": "2",
						"type": "t_mapping(t_address,t_array(t_uint256)dyn_storage)"
					},
					{
						"astId": 48,
						"contract": "DocumentSharing.sol:DocumentSharing",
						"label": "sharedWithMe",
						"offset": 0,
						"slot": "3",
						"type": "t_mapping(t_address,t_array(t_uint256)dyn_storage)"
					},
					{
						"astId": 50,
						"contract": "DocumentSharing.sol:DocumentSharing",
						"label": "documentCount",
						"offset": 0,
						"slot": "4",
						"type": "t_uint256"
					}
				],
				"types": {
					"t_address": {
						"encoding": "inplace",
						"label": "address",
						"numberOfBytes": "20"
					},
					"t_array(t_uint256)dyn_storage": {
						"base": "t_uint256",
						"encoding": "dynamic_array",
						"label": "uint256[]",
						"numberOfBytes": "32"
					},
					"t_bool": {
						"encoding": "inplace",
						"label": "bool",
						"numberOfBytes": "1"
					},
					"t_bytes32": {
						"encoding": "inplace",
						"label": "bytes32",
						"numberOfBytes": "32"
					},
					"t_mapping(t_address,t_array(t_uint256)dyn_storage)": {
						"encoding": "mapping",
						"key": "t_address",
						"label": "mapping(address => uint256[])",
						"numberOfBytes": "32",
						"value": "t_array(t_uint256)dyn_storage"
					},
					"t_mapping(t_address,t_struct(AccessPermission)26_storage)": {
						"encoding": "mapping",
						"key": "t_address",
						"label": "mapping(address => struct DocumentSharing.AccessPermission)",
						"numberOfBytes": "32",
						"value": "t_struct(AccessPermission)26_storage"
					},
					"t_mapping(t_uint256,t_mapping(t_address,t_struct(AccessPermission)26_storage))": {
						"encoding": "mapping",
						"key": "t_uint256",
						"label": "mapping(uint256 => mapping(address => struct DocumentSharing.AccessPermission))",
						"numberOfBytes": "32",
						"value": "t_mapping(t_address,t_struct(AccessPermission)26_storage)"
					},
					"t_mapping(t_uint256,t_struct(Document)19_storage)": {
						"encoding": "mapping",
						"key": "t_uint256",
						"label": "mapping(uint256 => struct DocumentSharing.Document)",
						"numberOfBytes": "32",
						"value": "t_struct(Document)19_storage"
					},
					"t_string_storage": {
						"encoding": "bytes",
						"label": "string",
						"numberOfBytes": "32"
					},
					"t_struct(AccessPermission)26_storage": {
						"encoding": "inplace",
						"label": "struct DocumentSharing.AccessPermission",
						"members": [
							{
								"astId": 21,
								"contract": "DocumentSharing.sol:DocumentSharing",
								"label": "canView",
								"offset": 0,
								"slot": "0",
								"type": "t_bool"
							},
							{
								"astId": 23,
								"contract": "DocumentSharing.sol:DocumentSharing",
								"label": "grantedAt",
								"offset": 0,
								"slot": "1",
								"type": "t_uint256"
							},
							{
								"astId": 25,
								"contract": "DocumentSharing.sol:DocumentSharing",
								"label": "expiresAt",
								"offset": 0,
								"slot": "2",
								"type": "t_uint256"
							}
						],
						"numberOfBytes": "96"
					},
					"t_struct(Document)19_storage": {
						"encoding": "inplace",
						"label": "struct DocumentSharing.Document",
						"members": [
							{
								"astId": 4,
								"contract": "DocumentSharing.sol:DocumentSharing",
								"label": "ipfsHash",
								"offset": 0,
								"slot": "0",
								"type": "t_string_storage"
							},
							{
								"astId": 6,
								"contract": "DocumentSharing.sol:DocumentSharing",
								"label": "fileName",
								"offset": 0,
								"slot": "1",
								"type": "t_string_storage"
							},
							{
								"astId": 8,
								"contract": "DocumentSharing.sol:DocumentSharing",
								"label": "description",
								"offset": 0,
								"slot": "2",
								"type": "t_string_storage"
							},
							{
								"astId": 10,
								"contract": "DocumentSharing.sol:DocumentSharing",
								"label": "category",
								"offset": 0,
								"slot": "3",
								"type": "t_string_storage"
							},
							{
								"astId": 12,
								"contract": "DocumentSharing.sol:DocumentSharing",
								"label": "fileHash",
								"offset": 0,
								"slot": "4",
								"type": "t_bytes32"
							},
							{
								"astId": 14,
								"contract": "DocumentSharing.sol:DocumentSharing",
								"label": "timestamp",
								"offset": 0,
								"slot": "5",
								"type": "t_uint256"
							},
							{
								"astId": 16,
								"contract": "DocumentSharing.sol:DocumentSharing",
								"label": "owner",
								"offset": 0,
								"slot": "6",
								"type": "t_address"
							},
							{
								"astId": 18,
								"contract": "DocumentSharing.sol:DocumentSharing",
								"label": "exists",
								"offset": 20,
								"slot": "6",
								"type": "t_bool"
							}
						],
						"numberOfBytes": "224"
					},
					"t_uint256": {
						"encoding": "inplace",
						"label": "uint256",
						"numberOfBytes": "32"
					}
				}
			},
			"userdoc": {
				"kind": "user",
				"methods": {
					"checkAccess(uint256,address)": {
						"notice": "Check if an address currently has valid (non-expired) access."
					},
					"deleteDocument(uint256)": {
						"notice": "Soft-delete a document (only owner)."
					},
					"getAccessDetails(uint256,address)": {
						"notice": "Get full access details for a user on a document."
					},
					"getDocument(uint256)": {
						"notice": "Retrieve full document details. Caller must be owner or have valid access."
					},
					"getMyDocuments(address)": {
						"notice": "Get all document IDs owned by an address."
					},
					"getSharedWithMe(address)": {
						"notice": "Get all document IDs shared with an address."
					},
					"getTotalDocuments()": {
						"notice": "Total number of documents ever uploaded."
					},
					"grantAccess(uint256,address,uint256)": {
						"notice": "Grant view access to a recipient, optionally with an expiry."
					},
					"isAccessExpired(uint256,address)": {
						"notice": "Check whether an address's access has expired."
					},
					"revokeAccess(uint256,address)": {
						"notice": "Revoke view access from a recipient."
					},
					"uploadDocument(string,string,string,string,bytes32)": {
						"notice": "Upload a new document / certificate."
					},
					"verifyDocument(uint256,string,bytes32)": {
						"notice": "Verify a document by matching the provided IPFS hash and/or file hash.         This is public — anyone can call it for certificate verification."
					}
				},
				"version": 1
			}
		}
	}
}